:0200000480007A
:100000001741080013010189EF00400E6F00000046
:040010006780000005
:10001400130101FF1305400023261100EFA0C211B4
:10002400970706009387C7D22320F50017560200CE
:100034001306C6AE97050600938545D0EF30121817
:10004400130101FE2326A10013058000232C810047
:10005400232E1100232A9100EFA0020E8325C10054
:1000640013040500EFA0424517A602001306863BC1
:10007400971506009385455213050400EF301214BA
:100084009304050013050400EFA0821013850400F7
:10009400EF208430130101FE2326A1001305800004
:1000A400232C8100232E1100232A9100EFA0C208E3
:1000B4008325C10013040500EFA0824517A60200A2
:1000C4001306C639971506009385054F13050400DA
:1000D400EF30D20E9304050013050400EFA0420B89
:1000E40013850400EF20442BB777048083C69779E7
:1000F400130101DD03C6877903C7A779232481226D
:1001040003C4B77993968600B3E6C60013170701B4
:100114003367D700131484013364E4009387877929
:100124003304F4008327040023261122232291227E
:10013400B307F44083D6070023202123232E312143
:100144003703F0FF1307400033016100637AD728B7
:1001540083D7470063860728B307F40083A5070005
:10016400930730006390F528B7070680938707AE9E
:10017400130501212322F10CB70910002324011CCB
:1001840023260120EFA0D01A3709F0FF9387092115
:10019400B3872700930449EBB3849700B7D6018053
:1001A4009386C6CE1306012193050000138504002F
:1001B400EF20825813050121EFF0500CB7D60180CF
:1001C4009386C65813060121930530001385040055
:1001D400EF20825613050121EF60816FB7F601808D
:1001E400938686AB13060121930530011385040021
:1001F400EF20825413050121EF80015CB7D6018002
:100204009386061F130601219305500213850400EB
:10021400EF20825213050121EF905074B7F601804C
:10022400938686AC130601219305600113850400AF
:10023400EF20825013050121EF40D165B7E601801C
:100244009386067F1306012193051000138504008D
:10025400EF20824E13050121EF308108B7E60180BB
:10026400938606C9130601219305900013850400A3
:10027400EF20824C13050121EF40516AB7F601804B
:100284009386060513060121930590011385040046
:10029400EF20824A93870921B38727001309C9DF16
:1002A4003389270113050900130800009307000090
:1002B40037071000930601211386040093050400F8
:1002C400EF70502B13050900EF80402C93050000BC
:1002D40013050900EF70500E93040500630805141C
:1002E40083278500370506801305059C83A5070031
:1002F400EF90912183A7840003A707006358E002CD
:10030400130400003709068013172400B387E7009D
:1003140083A547001305899DEF90111F83A78400CF
:100324001304140003A70700E340E4FE03A704003A
:10033400930710006306F70EB7050680938585942E
:10034400370506801305C59DEF90111C37050680FF
:10035400930510001305459FEF90111B03A784011B
:1003640093070000630E070003A744003307F70058
:100374002300070003A7840193871700E3E6E7FE41
:100384003705068093051000130505A2EF90D117D9
:10039400B70710003705F0FF938707211305C5DF62
:1003A400B38727003385A700EF80C06A6308050878
:1003B40037050680130585A3EF9011151304F0FF8C
:1003C400B70710003705F0FF93870721B38727008D
:1003D4001305C5DF3385A700EF7050466F00C001D9
:1003E40093050000370506801306300013050595B4
:1003F400EF9091111304F0FF3703100033016100F3
:100404008320C12213050400832441220324812272
:10041400032901228329C1211301012367800000DC
:10042400B7050680938505946FF09FF13705068024
:1004340013058599EF90510D6FF05FF8B707100021
:100444003705F0FF938707211305C5DFB38727001E
:10045400930500003385A700EF70D00337050680AD
:1004640093051000130585A4EF90110A3705068043
:10047400130545A6EF905109130400006FF05FF4D3
:10048400B707100013040500938707213705F0FF11
:10049400B38727001305C5DF3385A700EF70103A33
:1004A40013050400EF10546F130101FF232481008E
:1004B400371400001304049423229100130504004C
:1004C400973406009384C42F2326110023A68400A6
:1004D400EFB0D20B23A4A4006314050297370600DF
:1004E40023A6072E9737060023AE072C8320C100CE
:1004F400032481008324410013010101678000006B
:1005040023A2A40023208500232205006FF01FFEF0
:1005140063000506832705009306A000B307F54092
:1005240003D7070063FEE60203D7A7009306000083
:10053400630607003307E5008326070003D7470057
:1005440093070000630607003305E50083070500F1
:100554001385070063DCD70013850600678000005D
:100564009306400063ECE60013050000678000007A
:10057400130101FF23261100EFB04202930600008D
:100584006FF0DFFB630E05008327050203050500FA
:100594006344F5006780000013850700678000004E
:1005A400130101FF23261100EFA0527F130101FF65
:1005B400232481002326110013040500638E050201
:1005C40083A585009307600003A605009385450075
:1005D4002320C50063CEC702131626001305450069
:1005E400EFC0820D8320C1001305040003248100A1
:1005F40013010101678000008320C100232005004E
:100604001305040003248100130101016780000025
:10061400EFA0D2789387050003A6470083A50500C1
:10062400130101FF232611003306B64093572640D9
:10063400232481002320F5009307800163C2C702AD
:100644001304050013054500EFC002078320C10011
:1006540013050400032481001301010167800000D5
:10066400EFA0D273130101FE232C8100232A9100F1
:10067400138406009304060093060000130600008A
:100684002328210123263101232E1100930905007B
:1006940013890500EF9093486314050223A0040016
:1006A4008320C10123200400032481018324410108
:1006B400032901018329C10013010102678000009D
:1006C400130604001385090093050900EFA0023CFA
:1006D400B737068003A687FB83A6C7FBEF90536951
:1006E400EFA0824EEFA0D3626340B006638A050494
:1006F4003707008083270400630AE502130710FE0E
:1007040063D6E70023200400130500008320C10101
:100714000324810123A0A4000329010183244101AE
:100724008329C1001301010267800000E39805FCDE
:10073400938717002320F400370500406FF01FFC57
:10074400B7070080E3F6A7FAEFA05265130101FE94
:10075400B7370680232C8100232631011384060039
:100764009309060083A647FC03A607FC232A9100ED
:1007740023282101232E1100130905009384050069
:10078400EF9093426356A008130509009385040073
:100794001306000093060000EF905338631405021B
:1007A40023A00900232004008320C1010324810124
:1007B40083244101032901018329C100130101029A
:1007C40067800000130604001305090093850400E4
:1007D400EFA0C22BB737068003A687FB83A6C7FB0F
:1007E400EF901359EFA0423EEFA093526342B00240
:1007F400638E05043707008083270400630EE50237
:10080400130710FE63C8E70023A0A900E3DE07F87E
:10081400EFA0D258232004008320C10103248101C6
:1008240023A0090083244101032901018329C10074
:100834001301010267800000E39405FC938717000D
:100844002320F400370500406FF09FFBB7070080BA
:10085400E3F2A7FA6FF0DFFB130101FDB73706805F
:1008640023202103232E3101138906009309060056
:1008740083A647FC03A607FC2324810223229102BA
:10088400232611029304050013840500EF901340FE
:10089400635805081385040093050400130600003B
:1008A40093060000EF905330635CA0061306C1006A
:1008B4001385040093050400EFA0421DB73706809A
:1008C40003A687FB83A6C7FBEF90934AEFA0C22F32
:1008D400EFA013446346B004638005063707008025
:1008E4008327C1006300E504130710FE63D6E70203
:1008F40023A00900930700008320C102032481027E
:100904002320F90083244102032901028329C10120
:10091400130101036780000023A0A900E35EF0FC3B
:10092400EFA0D247E39205FC938717002326F1003A
:10093400370500406FF05FFBB7070080E3F0A7FACC
:100944006FF01FFEB707008093C7F7FF33F7B700B8
:100954003367A700138805006302070813D745010E
:100964001377F77F9306F07F6304D704930627C0B9
:100974009395A50093576501370700401315A5000B
:10098400B3E7F5002320D6009305F7FF1355A50020
:10099400B7062000B3F7B70063EAA6043385E7007F
:1009A400B337F50093850700634C080467800000A3
:1009B4009395C5003707C0FF3375A70093D5C500CD
:1009C4002320F600B365B50063960504634A080462
:1009D4001305F0FF938507006780000023200600BD
:1009E400130500009305000067800000130517003D
:1009F4003385A700B337F50093850700E35808FA59
:100A0400B337A000B305B040B385F5403305A0402B
:100A14006780000013050000930500006780000054
:100A240013050000B705008067800000B70600804A
:100A340093C6F6FFB367B500630CD6101308000025
:100A440093080000638E070A93D6F54133C5A600C8
:100A54003308D540B3C7B60033350501B387D74053
:100A64001306F6FFB387A7401357F6411305080092
:100A74006346F00A638C0708B70800401358F50171
:100A84009397170093361600B367F80013151500F3
:100A94003307D7401306F6FF6346F000E39007FEE2
:100AA400E36E15FDB70600C0B306D50033B5A60046
:100AB4009387F7FFB307F5006350E00E1306F03F8A
:100AC400130700001305F0FF6348A70A6302A70A8F
:100AD40013D7A6001306F63F93976701B367F70091
:100AE4001316460137070080B3F5E500B367F60037
:100AF40093966601B3E7B70013880600938807004E
:100B0400130508009385080067800000B7060040BD
:100B1400E364D8F6B7060080E3F606F937030080ED
:100B2400930616009398F70133B8C60013551500C1
:100B340093D7174033E5A800138606003307E8006F
:100B4400E340F0FEE39007F6E36CA3FC6FF09FF53F
:100B540063880702635AB004B737068003A887FD89
:100B640083A8C7FD1305080093850800678000006B
:100B7400130710C0E37EE6F4130610C06FF05FF5B0
:100B8400B737068003A807FD83A847FD13050800AF
:100B94009385080067800000E31607F21305F03F11
:100BA400E372C5F26FF09FF163940500E31605FA52
:100BB400B737068003A887FC83A8C7FC6FF05FF4EF
:100BC400370800801348F8FFB377B800B3E7A700ED
:100BD4009388060013830600B37ED8006382071649
:100BE40013D745011377F77F9307F07F138F050021
:100BF400630CF70E135865019395A500370E00405A
:100C04001315A50033E805019306FEFF1355A5004F
:100C1400B70720003378D80063F4A700130E1E0032
:100C2400330EC80133380E0193060800635A0F00CF
:100C3400B337C001B3060041B386F640330EC0415A
:100C440033E8CE001305000093050000130727C006
:100C54006306080E93D7480193F7F77F9305F07F57
:100C64006386B70C130101FF9398A800935566019E
:100C7400370500401316A600B3E5B800232611007B
:100C84009308F5FF23248100232291001356A60024
:100C940037082000B3F515016374C8001305150067
:100CA4003385A500B335B500635A03003336A0007D
:100CB400B305B040B385C5403305A040B7040080F8
:100CC40013C6F4FF631EC708B737068003A507FDE4
:100CD40083A547FD8320C1000324810083244100B0
:100CE40013010101678000009395C500B707C0FF99
:100CF40033F5A70093D5C500B365B5006396051415
:100D0400634C0F1A130EF0FF9306080033E8CE006D
:100D1400630E080093D748013707008093F7F77FE5
:100D24009305F07F1347F7FFE39EB7F2B7370680CA
:100D340003A507FD83A547FD6780000067800000C9
:100D440033E8CE001305000093050000E30808FE15
:100D540013070000130E0000930600006FF09FEFCE
:100D6400938727C013060E003384E700EFF0835601
:100D740013D8F54193C4E4FFB3E70501630C940C65
:100D840063860712B345B800B3860541B3B5D500F1
:100D9400B3070041B387B7401307040093850600E7
:100DA4001356F441634AF002638C070EB7080040FF
:100DB40013D5F5019397170093361700B367F50021
:100DC400939515003306D6401307F7FF6346F000EA
:100DD400E39007FEE3EE15FDB70600C0B386D50029
:100DE400B3B5B6009387F7FFB387F500635AC0081D
:100DF4001307F03F130600009305F0FF634EB60699
:100E04006308B6061307F73F13D6A6009395670148
:100E14008320C1000324810093174701B365B60002
:100E240037070080B3E7B7003378E800939666018C
:100E3400B3E7070183244100138506009385070067
:100E44001301010167800000130E000093060000E7
:100E54006FF0DFEBE38A07E6631C0802638A05028E
:100E6400B737068003A587FD83A5C7FD6FF09FE60E
:100E7400130610C0E378C7F8130710C06FF09FF88B
:100E8400E31C06F69305F03FE3F8E5F66FF05FF632
:100E9400B737068003A587FC83A5C7FC6FF09FE3E3
:100EA400B7060040E3E4D5F06FF01FF3130500002C
:100EB400930500006FF01FE2130E0000B7060080D8
:100EC4006FF0DFE4B707008093C7F7FF33F7B7008D
:100ED4003367A700938E05009388060033F8D70084
:100EE400630E071213DE4501137EFE7F1307F07FA6
:100EF4006300EE0C9395A5009357650137030040FA
:100F04001315A500B3E7F5001307F3FF1355A50068
:100F1400B7052000130E2EC0B3F7E70063F4A50055
:100F24001303130033836700B337F30013870700F9
:100F340063CE0E103368C800630A081293D54601C5
:100F440093F5F57F9307F07F130510006380F50692
:100F54001395A60093576601B70600401316A60022
:100F6400B367F5001388F6FF1356A6003705200073
:100F7400938525C0B3F707016374C50093861600F3
:100F8400B386D700B3B7F60063DA08003336D0006F
:100F9400B307F040B387C740B306D040370600809C
:100FA4001346F6FF130510006312CE046780000099
:100FB4009395C5003707C0FF3375A70093D5C500C7
:100FC400B365B500639E050663C80E0C1303F0FFFA
:100FD400138707003368C80013051000E30808FCF2
:100FE400370E0080134EFEFF6FF05FF53366E300AB
:100FF400630406046356070033E6F600630C060038
:101004001305F0FFE344BEFA13051000E3C0C5FB6B
:101014006356F7061305F0FF678000003368C800C5
:1010240013050000E30408F8130E00001303000086
:10103400130700006FF09FF0E3D407FC6780000003
:1010440013030000130700006FF0DFF8B3356000EE
:10105400B307F0403368C8003387B74033036040B8
:101064001305F0FFE31C08EC678000009305000003
:1010740093060000930700006FF09FF86394E70065
:10108400E36AD3F813051000E3C2E7F2630CF70038
:101094001305000067800000130300003707008079
:1010A4006FF05FF3E3F666FE67800000130101FD55
:1010B40023286101130B0500370500803355E50033
:1010C40023261102232481022322910223202103B7
:1010D400232E3101232C410193890700232A510136
:1010E40023267101138A0500938A060093040800DD
:1010F400930B0600EFA04337130905001384050082
:1011040093860A0013860B0093050A0013050B004F
:10111400EF900346130605009386050013050900A6
:1011240093050400EF90C344B737068003A947FE34
:1011340003AA07FE930A05009306090013060A0092
:1011440013840500EF9043266346A006B737068054
:1011540003A607FC83A647FC13850A009305040035
:10116400EF9083246352A00A13850A0093050400B8
:101174001306000093060000EF90431A6310050461
:1011840023A0090023A004008320C10203248102B8
:1011940083244102032901028329C101032A810115
:1011A400832A4101032B0101832BC1001301010395
:1011B40067800000930A0A001304090013860400E0
:1011C40013850A0093050400EF90520CB73706808C
:1011D40003A687FB83A6C7FBEF908339EF90D21E4B
:1011E400EFA003336342B002638205043707008033
:1011F40083A704006302E502130710FE63C8E70037
:1012040023A0A900E3D207F8EFA0423923A00400E9
:1012140023A009006FF05FF7E39005FE93871700A2
:1012240023A0F400370500406FF01FFDB7070080CE
:10123400E3FEA7FA6FF05FFD130101FC232E710199
:10124400930B0500370500803355E500232E11026A
:10125400232C8102232A91022328210323263103EC
:101264002324410323225103138A0700232061030B
:10127400232C8101938A0500138B060013090800AF
:1012840093890800130C0600EFA0031E93040500C5
:101294001384050093060B0013060C0093850A00C3
:1012A40013850B00EF90C32C1306050093860500ED
:1012B4001385040093050400EF90832BB737068051
:1012C40083AA47FE03AB07FE9304050093860A0036
:1012D40013060B0013840500EF90030D6344A01262
:1012E400B73A068003A60AFC83A64AFC13850400C9
:1012F40093050400EF90430B6354A010138504007E
:10130400930504001306000093060000EF90030108
:10131400631E050EB737068023200A0083A487FEC8
:1013240003A4C7FE2320090013070000930700004D
:101334001306070013850400938607009305040031
:10134400EF80837F03A60AFC83A64AFC930405006E
:1013540013840500EF9083136354050A1385040076
:10136400930504001306000093060000EF90C303E6
:101374006358A0081306C1001385040093050400F4
:10138400EF90C270B737068003A687FB83A6C7FB1E
:10139400EF90031EEF905203EFA083176342B00651
:1013A40063820512370700808327C1006302E510BA
:1013B400130710FE63D2E70423A00900930700007B
:1013C400032701048320C103032481032320F7009E
:1013D40083244103032901038329C102032A8102CF
:1013E400832A4102032B0102832BC101032C8101B7
:1013F400130101046780000023A0A900E352F0FC5C
:10140400EFA0C21993040B0013840A001306090009
:101414001385040093050400EF904267B7370680F4
:1014240003A687FB83A6C7FBEF908314EF90C279D2
:10143400EFA0030EE346B0FC638C05083707008079
:1014440083270900630CE504130710FE63CEE7024B
:101454002320AA0013040500E3C407FA370500801B
:101464003355F500EFA04300930405001305040071
:1014740013840500EF90537F13070500938705003D
:10148400B73A06806FF0DFEA2320090023200A0020
:1014940013040000930700006FF05FFCE39605FA65
:1014A400938717002320F900370500406FF0DFF918
:1014B400E39005F0938717002326F10037050040D9
:1014C4006FF01FEFB7070080E3FEA7EC6FF05FF348
:1014D400B7070080E3F4A7F66FF09FF2130101FE53
:1014E400232A9100930410002328210113090500E5
:1014F4003395A4001305F5FF232C81002326310125
:1015040013040600232E110093890500EF90D37570
:1015140033062441930706FE1309050013840500CE
:1015240063CE0706B395F40013050000EFA0C30BC8
:1015340013060500938605001305090093050400AE
:10154400EF900303938709FE9304050013840500B9
:1015540063CC070493051000B395F5001305000050
:10156400EFA0830813060500938605001385040085
:1015740093050400EF80435CEF908232EF90D366D2
:101584008320C10103248101832441010329010132
:101594008329C10013010102678000009305000044
:1015A4003395C4006FF09FF81305100093050000F5
:1015B400331535016FF0DFFA130101FD232E3101DC
:1015C4009309050013050600232611022324810232
:1015D400232291022320210393840600138905000A
:1015E400232C4101232A510123286101930A080075
:1015F400138B07002326710123248101930B070019
:10160400130C0600EFE08331130405001385040076
:10161400EFE0C33093850900130A050013050900A0
:10162400EFD05357130905009305040013050A006E
:10163400EFD053569305050013050900EFD0C34BB3
:101644009305050023A0AA001309050013850900CA
:10165400EFD0834A9305050013050400EFD093539C
:10166400930905009305050013050400EFD0D30882
:10167400635AA00613150C0113550501EFE0032A64
:10168400930405009305050013050400EFD093505F
:1016940093050900EFD0D31C9385040023A0AB006D
:1016A40013050A00EFD0134F83A50A00EFD0531B94
:1016B4008320C102032481022320AB00832441023E
:1016C400032901028329C101032A8101832A4101DB
:1016D400032B0101832BC100032C8100130101039F
:1016E400678000009385090013050A00EFD0130CEE
:1016F400930705001395040113550501E3C007F88A
:1017040013850900EFE0C33FEF90024CEFE0436C18
:10171400EFE0431A1315050103A90A001355050147
:101724006FF0DFF5130101FD23267101930B050012
:10173400373506800325850523248102138405009B
:1017440093850B002326110223202103232E31012C
:10175400232C4101232A51012328610123248101DF
:10176400138B07001389060093090700930A0600E8
:1017740023229102EFD04338130C05009305000097
:1017840013050B00EFD04377130A00006352A0083F
:10179400832409009305040013850400EFD0C37566
:1017A40093850A006344A000930404001385040095
:1017B400EFD0C37F130705009305040013850A00C7
:1017C40063400708EFD0133D93050C00EFD0530995
:1017D400EFE00333EF90423FEFE0835F93850B002C
:1017E400EFD0130893050400EFC0536B130A1A00DB
:1017F40023A0A90013050A00EFE0431293050B0090
:10180400EFD0C37A1309490093894900E34205F8EC
:101814008320C1020324810283244102032901029B
:101824008329C101032A8101832A4101032B010178
:10183400832BC100032C8100130101036780000086
:1018440013850400EFD0133593050C00EFD053013A
:10185400EFE0032BEF904237EFE0835793850B00C3
:10186400EFD0130093050400EFC05363130A1A006A
:1018740023A0A90013050A00EFE0430A930505001D
:1018840013050B00EFD043671309490093894900FE
:10189400E340A0F06FF0DFF7130101FF23261100EE
:1018A4002324810023229100232021019384050015
:1018B400EF90824DB737068083A5C705EFD0437AF2
:1018C40013040500EFE0C323EF900230EFE0435030
:1018D40013090500EFD013779305090023A0A40092
:1018E40013050400EFD0132BB737068083A5070632
:1018F4001315150013551500EFD0436B8320C10059
:101904000324810083244100032901001355F501B8
:10191400130101016780000063820514130101FDB6
:10192400B737068023248102232291022320210336
:10193400232E3101232C4101232A51012328610143
:10194400232671012324810103A987FB83A9C7FBF3
:10195400232611022322A1012320B101138A0500A9
:1019640093040500930A060013840600130C000078
:10197400370B0080930B10FE6F00000223A00A00B7
:1019840023200400130C1C0093848400938A4A00CF
:1019940013044400630E8A0703AD040083AD4400BE
:1019A400130600009306000013050D0093850D0037
:1019B400EF80D316E30405FC1306040013050D00A1
:1019C40093850D00EF90820C13060900938609009D
:1019D400EF80133AEF90421FEF9093336344B008C3
:1019E40063800508832704006300650763D67701D5
:1019F400232004001305000023A0AA00130C1C00DC
:101A040093848400938A4A0013044400E3168AF9F9
:101A14008320C10203248102832441020329010299
:101A24008329C101032A8101832A4101032B010176
:101A3400832BC100032C8100032D4100832D010061
:101A44001301010367800000E39205FA93871700EE
:101A54002320F400370500406FF05FF96780000031
:101A6400E372ABF8EF909233130101FF232481005A
:101A74001344F6FF23229100232021011354F4413F
:101A8400232611001389050033748600B304C04073
:101A94006354C0009304000033148500130604004B
:101AA4009356F441130509009355F941EFE093026D
:101AB400630E240B63CA0506370700403307A700EB
:101AC4003335A7003305B500131515001357F70177
:101AD400B367E5001307F001634E970A138704FE0A
:101AE4001305000063560700130510003315950015
:101AF4001305F5FF8320C1000324810013D7F701E8
:101B0400935615403307D7003375F5003325A700E6
:101B1400B3D7974003290100832441003305F5001E
:101B24001301010167800000370700C01307170085
:101B34001306F0FFB306A70033B7A6003305B600BB
:101B4400B307A70013D7F74113171700135717004C
:101B5400B306D70033B5E6003305F50013151500B9
:101B640093D7F601B367F5006FF0DFF6370700404F
:101B74001306000063D80500370700C013071700D9
:101B84001306F0FFB70600809347F9FFE304D9F486
:101B94006FF05FFAB7460480374604803745048007
:101BA400938606F7130606F8930570161305C5FD0C
:101BB400EF905220130101FF2326110023248100FA
:101BC400634E06129387F60113076002138406001E
:101BD4006366F710B78600003387D500B7070100A6
:101BE400637EF70CB707FF7F6340F6061386F6FFA4
:101BF40093060000EFE0036E9307E000338787400D
:101C0400930707FE63C20706130610003316F60097
:101C1400930700003387A7001305F00033048540C1
:101C2400B337F7003305B600930604FE3385A700E7
:101C340063C206068320C100032481003355D540C6
:101C44001301010167800000B307D60013D60741D2
:101C540093D6F741EFE003689307E00033878740AA
:101C6400930707FEE3D207FA93071000B397E70040
:101C74003387A7001305F0003304854013060000E2
:101C8400B337F7003305B600930604FE3385A70087
:101C9400E3D206FA9307F00113151500B3878740C2
:101CA4008320C100B317F500335587000324810056
:101CB40033E5A7001301010167800000B7460480E3
:101CC40037460480374504809386060C1306C60203
:101CD4009305B00213054507EF90D20DB746048073
:101CE40037460480374504809386460A1306C602A5
:101CF4009305A00213054507EF90D20BB746048065
:101D04003746048037450480938606011306C602CD
:101D14009305900213054507EF90D209635EB0085E
:101D2400130101FE93952500232C8100232A9100A1
:101D340023263101232E1100232821011304050039
:101D440093040600B309B5000329040093050000B9
:101D540013050900EFD0431A634AA0029307000059
:101D640023A0F4001304440093844400E39E89FCFC
:101D74008320C1010324810183244101032901013A
:101D84008329C100130101026780000023A02401FC
:101D94001304440093844400E39889FA8320C10126
:101DA4000324810183244101032901018329C10002
:101DB400130101026780000067800000635CB00AC1
:101DC400130101FEB73706802322510183AA870538
:101DD400B73706802324410103AA470693952500BB
:101DE400232C81002328210123263101232E1100D5
:101DF400232A91001304050013090600B309B50052
:101E04008324040093850A0013850400EFD0C30ED5
:101E14009307050093050A00138504006340F0044A
:101E2400EFD0830D634EA002232049011304440024
:101E340013094900E31634FD8320C1010324810101
:101E440083244101032901018329C100032A81005C
:101E5400832A4100130101026780000093840A0071
:101E6400232099001304440013094900E39A89F8D4
:101E74006FF09FFC678000006354B00C130101FEF7
:101E8400B73706802324410103AA870693952500CA
:101E9400232C81002328210123263101232E110024
:101EA400232A91001304050013090600B309B500A1
:101EB4008324040093050A0013850400EFD0C303B0
:101EC4009307050093050000138504006340F004A4
:101ED400EFD08302634EA002930700002320F90091
:101EE4001304440013094900E31434FD8320C101A1
:101EF4000324810183244101032901018329C100B1
:101F0400032A8100130101026780000093040A0080
:101F1400232099001304440013094900E39A89F823
:101F24008320C10103248101832441010329010188
:101F34008329C100032A8100130101026780000084
:101F440067800000635EB004130101FF93952500D0
:101F54002324810023229100232021012326110020
:101F640013040500930406003309B5000325040097
:101F7400938444001304440013250500EFD0932AEE
:101F840023AEA4FEE31489FE8320C1000324810050
:101F9400832441000329010013010101678000002B
:101FA4006780000093D8F501B388B8009307100048
:101FB40093D8184063DAB7029306060013070000AB
:101FC400B307E500838707009386260013071700ED
:101FD4001398C7011358C84193D74740238F06FF6E
:101FE400A38FF6FEE34E17FD93F71500638E0700EB
:101FF40033051501830705003306B6009397C7011F
:1020040093D7C741A30FF6FE6780000083A705009E
:1020140083A6070093874700634A06026358D602E3
:10202400131626003386C7008325060063C0050205
:102034008327850063880700939565003385B7007F
:1020440067800000832705056780070013050000EB
:102054006780000083A50500130101FF23261100FA
:102064002324810003A80500930706001307050035
:10207400634A06046358060593172600B387F500E0
:1020840083A547009307F0FF6386F50613840600D3
:102094008326850093976500B387F600639806004E
:1020A40083270505E7800700930705008320C10007
:1020B4002320F4000324810013050000130101010F
:1020C4006780000083284701B74504801305070093
:1020D400930608001386070093850511E78008001E
:1020E4008320C100032481001305100013010101A2
:1020F4006780000083274501B74504809385C51395
:10210400E78007008320C100032481001305100029
:10211400130101016780000083A7050083A607005F
:1021240063400606635ED6049387470013162600B1
:102134003386C7008325060063C40504832785000E
:10214400638C0700139565003385A7008347D50288
:10215400638807026780000083270505130101FFD8
:1021640023261100E7800700630005028347D50298
:10217400638C07008320C100130101016780000004
:1021840013050000678000008320C10013050000D0
:10219400130101016780000083A7450083A607009F
:1021A40093874700634A06026358D6021316260033
:1021B4003386C7008325060063C005028327850094
:1021C40063880700939565003385B7006780000036
:1021D400832705056780070013050000678000005A
:1021E40083A54500130101FF232611002324810048
:1021F40003A805009307060013070500634A0604B5
:102204006358060593172600B387F50083A5470096
:102214009307F0FF6386F506138406008326850082
:1022240093976500B387F600639806008327050536
:10223400E7800700930705008320C1002320F400F2
:1022440003248100130500001301010167800000CD
:1022540083284701B7450480130507009306080047
:102264001386070093850511E78008008320C100C9
:10227400032481001305100013010101678000008D
:1022840083274501B74504809385C513E78007007C
:102294008320C100032481001305100013010101F0
:1022A4006780000083A7050083A607009387470083
:1022B400634A06026358D602131626003386C70003
:1022C4008325060063C00502832785006388070011
:1022D400939565003385B700678000008327050563
:1022E40067800700130500006780000083A7C5000E
:1022F40083A6070093874700634A06026358D60201
:10230400131626003386C7008325060063C0050222
:102314008327850063880700939565003385B7009C
:102324006780000083270505678007001305000008
:102334006780000083A5C500130101FF2326110057
:102344002324810003A80500930706001307050052
:10235400634A06046358060593172600B387F500FD
:1023640083A547009307F0FF6386F50613840600F0
:102374008326850093976500B387F600639806006B
:1023840083270505E7800700930705008320C10024
:102394002320F4000324810013050000130101012C
:1023A4006780000083284701B745048013050700B0
:1023B400930608001386070093850511E78008003B
:1023C4008320C100032481001305100013010101BF
:1023D4006780000083274501B74504809385C513B2
:1023E400E78007008320C100032481001305100047
:1023F400130101016780000083A7850083A60700FD
:1024040093874700634A06026358D60213162600D0
:102414003386C7008325060063C005028327850031
:1024240063880700939565003385B70067800000D3
:1024340083270505678007001305000067800000F7
:1024440083A58500130101FF2326110023248100A5
:1024540003A805009307060013070500634A060452
:102464006358060593172600B387F50083A5470034
:102474009307F0FF6386F506138406008326850020
:1024840093976500B387F6006398060083270505D4
:10249400E7800700930705008320C1002320F40090
:1024A400032481001305000013010101678000006B
:1024B40083284701B74504801305070093060800E5
:1024C4001386070093850511E78008008320C10067
:1024D400032481001305100013010101678000002B
:1024E40083274501B74504809385C513E78007001A
:1024F4008320C1000324810013051000130101018E
:1025040067800000130101FD23229102232E310173
:10251400232C4101232A510123286101232611027E
:1025240023248102232021032326710183AAC500C9
:10253400032BC6009309050093040700138A0700C0
:10254400638A060813850A0013840600EFD0435BF0
:10255400930B050013050B0013890500EFD0435AB4
:10256400130605009386050013850B0093050900E7
:10257400EF800300130905000325C400138405003C
:10258400EFD00358130605009386050013050900D0
:1025940093050400EF8083661309050003A5C400B6
:1025A4001394150013541400EFD08355130605003B
:1025B400938605001305090093050400EF70C357C3
:1025C400B737068003A607FF83A647FFEF70136C97
:1025D4006344A00893050B0013850A00EFC0532839
:1025E4009305000013040500EFC01311634E0508A2
:1025F40013050400EFD0C3509307050003A5C400DE
:102604001384050093840700EFD0834F130605005D
:10261400938605001385040093050400EF70C351ED
:102624002320AA002322BA00130500008320C1023C
:102634000324810283244102032901028329C10165
:10264400032A8101832A4101032B0101832BC10049
:10265400130101036780000083A749013747048001
:10266400130707179306001437460480B745048000
:1026740013850900130646199385051CE780070096
:10268400130510006FF09FFA3747048083A74901B0
:102694001307871D9306D0146FF01FFD130101FE6D
:1026A40013880500232821018325C600130905008A
:1026B4000325C800232C8100232A910023263101FD
:1026C400232E11001384060093090700EFC0531949
:1026D4009305000093040500EFC01302634C050446
:1026E40013850400EFD0C341930405000325C400FF
:1026F40013840500EFD0C34013060500938605003C
:102704001385040093050400EF7003438320C10183
:102714000324810123A0A90023A2B9008324410139
:10272400032901018329C1001305000013010102DB
:1027340067800000832749013747048037460480B7
:10274400B7450480130509001307871D9306D014A9
:10275400130646199385051CE78007008320C101F1
:102764000324810183244101032901018329C10038
:10277400130510001301010267800000832706007F
:10278400130101FD2324810223229102232021032A
:10279400232E310123261102232C4101232A510126
:1027A400232861012326710123248101232291011D
:1027B40013083000930405001384050013890600F0
:1027C4009309070063820713130790006382E70AE3
:1027D400130770006390E704378A0000130AFAFFB6
:1027E400B78AFFFF93071000032BC600832B060153
:1027F400630CF40893073000630EF40E9307200073
:102804006300F41A2320590123A049011305000091
:102814006F00C00283274501374704803746048090
:10282400B74504801307471F93063019130646194A
:102834009385051CE7800700130510008320C1025F
:102844000324810283244102032901028329C10153
:10285400032A8101832A4101032B0101832BC10037
:10286400032C8100832C41001301010367800000C5
:1028740093071000032BC600832B0601130AF007ED
:10288400930A00F8E318F4F693050B00130500000F
:10289400EFC08326EFD0C326EF800233EFD043533B
:1028A400B737068083A5C706130B0500EFC0C364C2
:1028B40063400518B737068083A5070713050B0087
:1028C400EFC0C36E6346A01613050B00EFC09377E9
:1028D400B30B750163C65B192320790123A0490159
:1028E400130500006FF09FF5130AF00F930A000020
:1028F4006FF05FEF93050B0013050000EFC0C31FDB
:10290400EFD00320EF80422CEFD0834C3734068085
:102914008325C406130C0500EFC0035E6344050C55
:10292400B73C068083A50C0713050C00EFC00368B1
:10293400634AA00A13050C00EFC0D370B3077501F6
:1029440063C8571337370680032587062320F90009
:1029540093050B00EFC0431AEFD0831AEF80C22611
:10296400EFD003478325C40613040500EFC0C35802
:10297400634A050683A50C0713050400EFC003632F
:102984006342A00613050400EFC0D36BB30B7501BB
:10299400634C7A0D23A07901130500006FF01FEA40
:1029A400B737068003A5470693050B003734068026
:1029B400EFC08314EFD0C314EF800221EFD0434162
:1029C4008325C406130C0500EFC00353634C0500B4
:1029D400B73C068083A50C0713050C00EFC0035D0C
:1029E400635AA00283A74401374704803746048012
:1029F400B7450480138504001307C71F9306B01559
:102A0400130646199385051CE7800700130510007B
:102A14006FF0DFE213050C00EFC0D362B30775015A
:102A240063CC570537370680032587056FF01FF2FF
:102A340083A744013747048037460480B7450480A0
:102A4400138504001307C71F9306B0151306461910
:102A54009385051CE7800700130504006FF01FDE53
:102A6400938B0A006FF05FE7930B0A006FF09FF2FD
:102A740093870A006FF01FED93870A006FF09FFAA7
:102A8400130101F8232C810503AC0503232A9106C5
:102A9400232631072324410723206107232E7105B0
:102AA400232A91052328A10593890500232E1106C5
:102AB400232C810623282107232251072326B1052D
:102AC400930510002326D1002324F10023280101BB
:102AD400232A1101032B0108832B4108032D8108AC
:102AE400832CC10883240109130A0500630EBC0664
:102AF40003234501B74704803747048037460480E1
:102B0400B745048013080C009308100093874722EC
:102B1400130707249306B00D130646199385C5259C
:102B2400E7000300130C10008320C107032481076E
:102B340083244107032901078329C106032A810647
:102B4400832A4106032B0106832BC105832C4105EF
:102B5400032D0105832DC10413050C00032C8105ED
:102B64001301010867800000832A06031309060085
:102B7400638E8A0303234501B747048037470480E3
:102B840037460480B74504809308100013880A0070
:102B940093874722130787279306D00D13064619F8
:102BA4009385C525E70003006FF01FF813040700A1
:102BB400032746036300071E832707006382071861
:102BC40003A8070063520C0783A60900938696FFA7
:102BD40093F6D6FF638606028327450137470480B0
:102BE4001307472C9306D00E37460480B74504805C
:102BF400130646199385051CE78007006FF0DFF282
:102C040083260600130690006386C614130620016B
:102C14006382C614374704808327450113070730AE
:102C24009306F00E6FF05FFC03A5C900032CC400EB
:102C3400635E9008232CF100EFC0936C930D0500A4
:102C440013050C002324B1032326B102EFC0536BF8
:102C540083278101130F0D00938D0C002320A10203
:102C64002322B102130D0000930CC103130C810342
:102C740003A54700130F4F00232EF100232CE1017D
:102C8400EFC01368032681028326C102938D4D0091
:102C9400130D1D00EF70D30D03260102832641029C
:102CA400EF60936993860C0013060C00EFD09F9B92
:102CB40083268103032F81018327C101232EDFFE95
:102CC4008326C10323AEDDFEE3449DFA83A70900F6
:102CD40013073000638CE71A130790006388E7003A
:102CE40013077000130C0000E390E7E483278100CE
:102CF40013060400032481078320C10783244107AA
:102D0400032901078329C106832A4106032C81056F
:102D1400832C4105032D0105832DC10483A50700E0
:102D240013870B0093060B00832BC105032B0106AD
:102D340013050A00032A8106130101086FF01FA47A
:102D440037470480832745011307872A9306900E8B
:102D54006FF09FE9638A040503234A01B74704809F
:102D640037470480938804009387C7331307C73415
:102D74009306100F37460480B7450480130646199E
:102D84009385C52513050A00E7000300138C0A0088
:102D94006FF09FD9374704808327450113074729DC
:102DA4009306800E6FF05FE4832687000327890073
:102DB400939626003307D7008328470063821403C1
:102DC400B74704803747048003234A01138804006B
:102DD400938707371307C7339306200F6FF09FF9C4
:102DE40003A5C90093874700232EF100232CA101DA
:102DF400EFC01351930D05000325C4002320B10334
:102E04002322B102EFC0D34F032F81018327C101D5
:102E1400938D0C002324A1022326B102130D00007C
:102E2400930CC103130C810303A507009387470088
:102E3400232EE101232CF100EFC0934C0326010261
:102E440083264102130D1D00938D4D00EF704372D4
:102E5400032681028326C102EF60134E93860C0081
:102E640013060C00EFD01F80032FC10183268103BA
:102E740083278101130F4F00232EDFFE8326C10316
:102E840023AEDDFEE3429DFA6FF05FE48324C100CC
:102E940083ACC900032DC9006388040813850C00A2
:102EA400EFC01346930D050013050D00138C0500A8
:102EB400EFC01345130605009386050013850D0026
:102EC40093050C00EF70C36A130C050003A5C4003E
:102ED40013890500EFC0D34213060500938605004D
:102EE40013050C0093050900EF705351130C0500F2
:102EF4000325C4001399150013591900EFC053405A
:102F0400130605009386050013050C0093050900BC
:102F1400EF609342B737068003A607FF83A647FFF7
:102F2400EF70C3566340A00893050D0013850C0091
:102F3400EFC003139305000013090500EFB0D37B22
:102F4400634A050813050900EFC0933B930A050083
:102F54000325C40013890500EFC0933A1306050046
:102F64009386050013850A0093050900EF60D33C9E
:102F7400032601019306C103EFD0CFEE0327C1035B
:102F84000326410183A709003307E040930690001C
:102F94002320E600E38CD7D413073000E388E7D47A
:102FA4006FF01FD483274A0137470480130707179C
:102FB4009306001437460480B74504801306461967
:102FC4009385051C13050A00E7800700138C0A008B
:102FD4006FF09FB53747048083274A011307871D85
:102FE4009306D0146FF01FFD130101F92324810609
:102FF40003A4050323229106232021072326710518
:103004002320A105232EB103938405002326110652
:10301400232E3105232C4105232A5105232861053C
:103024002324810523229105930510002320010107
:1030340023221101832B0107832E4107832D81074E
:10304400032DC10713090500630EB40603234501CC
:10305400B74704803747048037460480B745048067
:1030640013080400930810009387472213070724CA
:103074009306B00D130646199385C525E700030092
:10308400130410008320C1061305040003248106E1
:1030940083244106032901068329C105032A8105E6
:1030A400832A4105032B0105832BC104032C8104CE
:1030B400832C4104032D0104832DC1031301010753
:1030C40067800000032C060393090600631C8C042C
:1030D400138F060083264603138A0700130B070089
:1030E40083A7060083AC0700635A940703A7040070
:1030F400130797FF1377D7FF630E07148327450140
:10310400374704801307472C9306D00E37460480B4
:10311400B7450480130646199385051CE78007000C
:103124006FF05FF603234501B747048037470480F7
:1031340037460480B74504809308100013080C0038
:1031440093874722130787279306D00D1306461942
:103154009385C525E70003006FF0DFF203A4C400E4
:10316400832AC70063908C0903A547002326D10155
:103174002324E101EFC0D318930C050013050400C8
:1031840013840500EFC0D3171306050093860500CA
:1031940013850C0093050400EF70833D930C050028
:1031A40013850A0013840500EFC093151306050068
:1031B4009386050013850C0093050400EF60D31774
:1031C4009306C10213068102EFD0CFC9832781027F
:1031D400032F8100832EC10023A0FD008327C10299
:1031E4002320FD0083A70400130730006382E7183F
:1031F400130790006388E7001307700013040000AE
:10320400E392E7E80324810683250A008320C106AC
:10321400832441068329C105032A8105832A4105A4
:10322400032C8104832C4104032D0104832DC10349
:1032340093860B0013060B00832BC104032B01059B
:10324400130509000329010613870E001301010762
:103254006FF0CFD203270600130690006300C70265
:1032640013062001630CC7003747048083274501F8
:10327400130707309306F00E6FF05FE983A686000C
:1032840003A78900939626003307D70083284700B5
:1032940063801C0503234901B74704803747048032
:1032A40037460480B745048013880C00938707379A
:1032B4001307C7339306200F130646199385C525B4
:1032C40013050900E700030013040C006FF09FDBF3
:1032D40003A5C4002326D1012324E101938A4700D6
:1032E400EFC01302930705000325CB00232CF10044
:1032F400232EB100EFC0D300032F8100832EC10021
:103304002328A100232AB1001304000003A50A0006
:103314002326D1012324E101EFC0837E032681010A
:103324008326C101938D4D0013041400EF704324D0
:103334000326010183264101938A4A00130D4D009F
:10334400EF60837F9306C10213068102EFD08FB131
:1033540083268102032F8100832EC10023AEDDFE6C
:103364008326C102232EDDFEE34294FB6FF09FE728
:103374002324E10183AAC40083ACC900630E0F08AF
:1033840013850A002326D101EFC083779309050032
:1033940013850C0013840500EFC083761306050023
:1033A400938605001385090093050400EF70431C00
:1033B400032F810093090500138405000325CF0022
:1033C400EFC00374130605009386050013850900F6
:1033D40093050400EF709302930905000325CB00C5
:1033E4001394150013541400EFC0837113060500E1
:1033F400938605001385090093050400EF60C373E9
:10340400B737068003A607FF83A647FFEF700308BC
:10341400832EC1006348A00893850C0013850A001D
:103424002324D101EFB0D343930500001304050016
:10343400EFB0932C832E8100634E0508130504001E
:103444002324D101EFC0C36B930905000325CB00EE
:1034540013840500EFC0C36A1306050093860500B4
:103464001385090093050400EF60036D0326010032
:103474009306C102EFD00F9F0327C1020326410028
:1034840083A704003307E040930690002320E6005E
:10349400832E8100E388D7D613073000E384E7D670
:1034A4006FF09FD583274901374704801307071717
:1034B4009306001437460480B74504801306461962
:1034C4009385051C13050900E780070013040C000D
:1034D4006FF05FBB37470480832749011307871DBB
:1034E4009306D0146FF01FFD83A585000325850086
:1034F400130101FF23261100EFE0417B8320C1006B
:103504003335A000130101016780000083A6850004
:10351400130101FF2322910003A7060093840500F1
:103524002326110023248100232021019305100068
:10353400630AB70283274501B745048013060700D1
:103544009385053BE78007008320C10003248100A5
:103554008324410003290100130510001301010114
:103564006780000003A44600130906001305040045
:10357400EFE0017E6354800283A744009315240086
:1035840013074500B385F50083A60700938747001A
:1035940013074700232ED7FEE398B7FE8320C1000C
:1035A400032481002320A90083244100032901006E
:1035B400130500001301010167800000130101F8E5
:1035C400232E7105232E1106232C8106232A91060E
:1035D40023282107232631072324410723225107C7
:1035E40023206107232C8105232A91052328A10583
:1035F4002326B105232205002304050083A7050023
:10360400130785002322B1002326E1002320E500CF
:10361400930B05006356F024832741003749048047
:10362400B7490F00379A9800938C4700130C000099
:1036340093070000130949469389F923130AFA678B
:10364400639E072683A70C009306900013D7F741C7
:10365400B344F70093D7F701B384E4402324F10083
:1036640063F6964C9307300663FE974C9307703EBF
:1036740063F2974EB72500009387F57063F0974E79
:10368400B78A010037EBF505138504001304100015
:10369400138D0571938AFA69130BFB0F6F000001F8
:1036A40063FEB93F6370BA416376BB4193050D0075
:1036B400930D0500EFC0934B13070400130444005B
:1036C400E3E0BAFF032B8100930781011306D002C4
:1036D400B3058B00130501012328F100EF10420903
:1036E400832A010193073006B38A6A0163FA9704B7
:1036F4001304E4FF372B000033848A00130BFB70A0
:103704009305400613850400EFC0D34A131D15002A
:103714009305400613850400EFC05345B307A90180
:1037240083C6170003C7070093870400A300D400CF
:103734002300E400930405001304E4FFE362FBFCAC
:103744009307900063F2973093941400B3049900A4
:1037540083C7140083C40400A380FA00B74604801E
:1037640023809A00130710009386463E1306000038
:103774009305000013050101EF10021693040103E1
:103784002324910283270500930A8500130405006E
:10379400638857352324F102832785002328F10207
:1037A400832744002326F102232054012304040028
:1037B400832781022322040003A50B006382972A36
:1037C4000326C100032701038326C102630CA62E2E
:1037D40003A68B0023A0FB0023A2DB0023A4EB00A1
:1037E4006308052E2324A1022328C10223260102F3
:1037F4002300050003258102630895008325010346
:1038040093851500EFF0416A0325010193078101B7
:103814006308F5008325810193851500EFF0C168E5
:1038240083274100130C1C00938C4C0003A7070052
:1038340083A74B00E346ECE06384070237070040AC
:103844001307F7FF6384E732B715068013061000E9
:103854009385052D13850B00EF1002236F000002E2
:10386400B7460480130720009386063E1306000023
:103874009305000013850B00EF1002068320C10797
:103884000324810783244107032901078329C106EF
:10389400032A8106832A4106032B0106032C810592
:1038A400832C4105032D0105832DC10413850B00D1
:1038B400832BC105130101086780000083A70C0056
:1038C4009306900013D7F741B344F70093D7F70159
:1038D400B384E4402324F10063FE96249307300666
:1038E40063FE97249307703E63FE9726B725000076
:1038F4009387F57063FC9724B78A010037EBF505CD
:103904001385040013041000138D0571938AFA695A
:10391400130BFB0F6F00000163FEB9176378BA192C
:10392400637EBB1993050D00930D0500EFC01324AE
:103934001307040013044400E3E0BAFF032B8100DF
:10394400930781011306D002B3058B00130501010F
:103954002328F100EF00D261832A01019307300686
:10396400B38A6A0163FA97041304E4FF372B000057
:1039740033848A00130BFB709305400613850400FF
:10398400EFC05323131D150093054006138504004F
:10399400EFC0D31DB307A90183C6170003C70700EF
:1039A40093870400A300D4002300E40093040500DB
:1039B4001304E4FFE362FBFC9307900063FC9708A5
:1039C40093941400B304990083C7140083C40400BF
:1039D400A380FA00B706068023809A00130710001C
:1039E4009386469D1306000093050000130501010C
:1039F400EF00926E930401032324910283270500B0
:103A0400930A8500130405006386570F2324F102EB
:103A1400832785002328F1028327440013850B00A4
:103A24002326F1022304040023205401232204004A
:103A34000326C10283258102EF10020503258102BA
:103A4400E31E95DA6FF05FDC9384040393F4F40FC0
:103A54006FF0DFD09384040393F4F40F6FF09FF7B7
:103A64000326C102630E060093071000630EF608D6
:103A740093850400EF8052440326C10203A50B0082
:103A84003305C50023A2CB002300050003258102D2
:103A94006FF0DFD5130457006FF05FEA130457008B
:103AA4006FF05FC2130467006FF0DFC11304670097
:103AB4006FF0DFE8130477006FF0DFC013047700C2
:103AC4006FF0DFE723A0FB0023A2DB0023A4EB00BD
:103AD4002324910293040103138504006FF01FD182
:103AE4001306000193850A0013850400EF80D23C7D
:103AF4006FF01FCB1306000193850A0013850400A1
:103B0400EF80923B6FF05FF1834701032300F500E0
:103B14000326C10203A50B0023A2CB003305C50075
:103B240023000500032581026FF05FCC130410000D
:103B34006FF05FB9130410006FF05FE0130420000E
:103B44006FF0DFDF130420006FF0DFB713044000D1
:103B54006FF0DFDE130430006FF0DFB613044000B3
:103B64006FF05FB6130430006FF05FDD37450480FB
:103B74001305853EEFC00FD283270101130781018E
:103B840013040500638AE700832581011385070078
:103B940093851500EFF0413103A50B008327C10085
:103BA4006388A70083A58B0093851500EFF0C12FD0
:103BB40013050400EFE0437E130405006FF0DFFDFE
:103BC4008327810213040500638A97008325010378
:103BD4001385070093851500EFF0012D03250101DE
:103BE40093078101E30AF5FA832581019385150082
:103BF400EFF0812B6FF05FFA130405006FF01FFEE6
:103C040003A7850083278600130101FA23225105A7
:103C140023206105832A070003AB0700232C8104BA
:103C2400232821052326310523244105232E71034E
:103C3400232E1104232A9104938B050013040600F8
:103C44009309050013890600130A0B0063C46A0173
:103C5400138A0A0013050A00EFE0810F930405009C
:103C64006356400713182A00330805019307000020
:103C7400130EFBFF130510001383FAFF63D25709D9
:103C840083A58B003307F340131727003387E50020
:103C94000327470063D26703832684003306FE406C
:103CA40013162600B386C60083A846006302170BCA
:103CB4006300A7086392A80A63120706232008007A
:103CC400938717001308C8FFE39A47FB2320990042
:103CD400130500008320C1050324810583244105C5
:103CE400032901058329C104032A8104832A410489
:103CF400032B0104832BC103130101066780000019
:103D040063D2670503278400B306FE40939626001A
:103D14003307D70003274700631EA700930810004A
:103D240063541701138708002320E8006FF05FF93C
:103D340013870800E30407F893080700130710002B
:103D44006FF01FFE13071000930810006FF05FFD63
:103D5400E31807FC6FF09FF61305010003A949015E
:103D6400EFF0DF858325840013058101032401001E
:103D7400EFF0DF8483268101B74504801306040035
:103D84009385054013850900E70009000325810197
:103D9400930701026308F50083250102938515004A
:103DA400EFF0811003250100930781006308F500FB
:103DB4008325810093851500EFF0010F63860400CD
:103DC40013850400EFE00105130510006FF09FF068
:103DD400832781011307010213040500638AE700A6
:103DE400832501021385070093851500EFF0C10BAD
:103DF40003250100930781006308F50083258100F2
:103E040093851500EFF0410A6386040013850400CE
:103E1400EFE0410013050400EFE00358130405002C
:103E2400E39604FE6FF01FFF130405006FF05FFCC0
:103E3400130101F8232C8106232A9106138406001A
:103E44009304060083A686000326860083A78500C4
:103E540023206107232E7105032B060083AB060084
:103E6400232631072324410723225107232C8105CC
:103E7400232A9105232E11062328210703AC0700CA
:103E8400938C050093090500130A0700938A0B001D
:103E940063447B01930A0B0063D48A01930A0C00E8
:103EA40013850A00EFD0D16A130905006354500D3D
:103EB40013972A003307E500130800009306100047
:103EC400930EFCFF1305FBFF9385FBFF9308100083
:103ED400635C880183A78C0033860E411316260089
:103EE400B387C70083A8470013031000635C68010D
:103EF40083A784003306054113162600B387C70041
:103F040003A34700130E1000635C78018327840029
:103F14003386054113162600B387C70003AE470056
:103F24009387080063541301930703006354FE004E
:103F340093070E00638C07009387080063D468001E
:103F44009307030063D4C70193070E006384D8006A
:103F5400639817036304D300639467026304DE0069
:103F64006390C7032320F700130818001307C7FF43
:103F7400E31E58F523202A01130500006F00800A70
:103F840083A58C001305810003AA4901EFF00FE318
:103F940083A584001305010283248100EFF00FE25E
:103FA400832584001305810303240102EFF00FE14C
:103FB40003278103B7450480930604001386040095
:103FC4009385054313850900E7000A00032581034F
:103FD400930701046308F500832501049385150004
:103FE400EFE0916C03250102930781026308F50059
:103FF4008325810293851500EFE0116B0325810071
:10400400930701016308F5008325010193851500D9
:10401400EFE091696306090013050900EFD0915F91
:10402400130510008320C10703248107832441075B
:10403400032901078329C106032A8106832A41062D
:10404400032B0106832BC105032C8105832C410519
:10405400130101086780000083278103130701040B
:1040640013040500638AE700832501041385070010
:1040740093851500EFE05163032501029307810244
:104084006308F5008325810293851500EFE0D16173
:1040940003258100930701016308F50083250101CD
:1040A40093851500EFE051606306090013050900CC
:1040B400EFD0515613050400EFE0032E130405005E
:1040C400E31609FE6FF01FFF130405006FF0DFFA1B
:1040D400130405006FF0DFFB1305F5FF93070001E0
:1040E40063EEA700B7470480938707531315250091
:1040F4003385A70003250500678000001305000031
:104104006780000013050000678000008326C50354
:10411400638E060203A70600938746001307170061
:1041240013172700B386E6006382F6021306F0FF36
:104134006F008000638CF60003A707009387470095
:10414400E31AC7FE13051000678000001305000082
:1041540067800000B70710F023A0A7F06780000075
:1041640083470500638C0700370710F02320F7F01E
:104174008347150013051500E39A07FE67800000C6
:1041840083470500638C0700370710F02320F7F0FE
:104194008347150013051500E39A07FE67800000A6
:1041A40067800000930705000325450003A68700E8
:1041B400938605008325050003274601032606018F
:1041C40003A8450083A5C700670008000325450030
:1041D4008327050083A7870067800700832785005E
:1041E400139515003305B50003A7470183A70701FD
:1041F4001315250013173700B387E70083A747007B
:104204003385A700678000009305C0016FE0D149A2
:10421400032705019307100063EAE700032545001F
:104224008327050083A7C70167800700130101FFE7
:1042340023261100EF70823603270501930730000F
:10424400631CF7008327450193952500B385B700C8
:1042540003A5050067800000130101FF2326110058
:10426400EF70C2330327050193071000631AF700A8
:10427400032545008327050083A7C700678007003F
:10428400130101FF23261100EF70423103270501BA
:1042940093071000631AF7000325450083270500E0
:1042A40083A7070167800700130101FF232611007C
:1042B400EF70C22E0327050193071000631CF7005B
:1042C40083278500930606000325450003A64701BE
:1042D4006F20801D130101FF23261100EF70022CB3
:1042E40083A785001307050083A60700938747006B
:1042F400634606046354D604131626003386C700A7
:104304008326060063CC060203260500B747008017
:104314009387871A032646016316F6020325450090
:10432400832787008325C7000328050003A74701C7
:1043340003A60701832748006780070013050000D0
:1043440067800000938506006700060083A70500C8
:104354001307050083A607009387470063460604F6
:104364006354D604131626003386C700832606003A
:1043740063CC060203260500B74700809387871A9B
:10438400032646016316F6020325450083278700AA
:104394008325C7000328050003A7470103A60701D7
:1043A400832748006780070013050000678000002A
:1043B400938506006700060083A7450013070500E0
:1043C40083A6070093874700634606046354D60414
:1043D400131626003386C7008326060063CC060224
:1043E40003260500B74700809387871A03264601F2
:1043F4006316F60203254500832787008325C7003B
:104404000328050003A7470103A6070183274800E3
:10441400678007001305000067800000938506008D
:1044240067000600B74704809387475D2320F500A3
:104434002322B5002324D5002326C5002328050004
:10444400232A0500232C05006780000063CC0500A7
:1044540063DAC50093952500B386B60003A506006C
:10446400678000001305F0FF67800000232AB50071
:104474006780000083270501130101FF2326110033
:104484001307100093F7D7FF6384E700EF7002115E
:104494000326850163840500630006023745048012
:1044A40013054557EF5051068320C1001305100032
:1044B40013010101678000008320C100232CB50093
:1044C400130500001301010167800000130101FCC2
:1044D4001385050093058102232E11002324C102B4
:1044E4002326D1022328E102232AF102232C0103EB
:1044F400232E11032326B100EF50417D8320C101F7
:1045040013010104678000002328B50067800000C0
:1045140003250501678000009387F5FF130101FF60
:104524003305F5002326110023248100138405009C
:10453400EFB0D36393050400EFB093578320C10019
:10454400032481001301010167800000130101FFAE
:10455400232611002324810013840500EFB0136186
:1045640093050400EFB0D3548320C10003248100D9
:1045740013010101678000001305F5FF130101FF1A
:104584003305B5002326110023248100138405007C
:10459400EFB0D35D93050400EFB093518320C100C5
:1045A40003248100130101016780000093072001A7
:1045B40063EEA704B747048093878760131525002B
:1045C4003305F50083270500678007009307800003
:1045D40023A0F50013050000678000009307100076
:1045E40023A0F50013050000678000009307400036
:1045F40023A0F50013050000678000009307200046
:1046040023A0F500130500006780000013051000C7
:10461400678000009307000123A0F5001305000044
:1046240067800000130101FC23225103832A050043
:10463400232E710123263103B30A554183DB0A007B
:1046440023244103232E1102232C8102232A9102C5
:10465400232821032320610393074000138A0500C4
:104664009309060063FE770903D44A001309050081
:1046740093041000630C04023304850083270400B0
:104684003304F400032B040063020B02131B2B00FE
:10469400330B640183254400138504001304440090
:1046A400EFB0134193040500E3168BFE93076000FB
:1046B40063FE770983D76A00130500006392070835
:1046C4009305C100EF50D1491304050063060504A6
:1046D4008320C103130504000324810383244103BD
:1046E400032901038329C102032A8102832A410287
:1046F400032B0102832BC101130101046780000015
:10470400130500009305C100EF5091459304100078
:1047140013040500E31E05FA0325C100938509006F
:10472400EFF0DFE813040500E31405FA03A509001C
:1047340093850400EFB0D3372320AA006FF05FF90C
:104744003309F900030509006FF09FF71305000012
:104754006FF01FF7130101FE232E1100232C81009B
:10476400232A9100232821012326310123244101F6
:10477400638C050A0324450093090500138A050088
:10478400130510006304040203290400635020038A
:10479400130444009304000083250400938414004C
:1047A40013044400EFB0D330E39824FF83A78900B7
:1047B400130720016362F7063747048093972700A5
:1047C40013074765B387E70083A7070067800700DF
:1047D40093058000EFB0D32D2320AA001305000019
:1047E4008320C101032481018324410103290101A0
:1047F4008329C100032A810013010102678000009C
:10480400930540006FF01FFD930510006FF09FFCAF
:10481400930520006FF01FFC130510006FF05FFC80
:10482400930500016FF01FFBEF60525783A78500CB
:10483400130101FC23282103232E1102232C8102BE
:10484400232A9102232631032324410323225103E3
:104854002320610313090500638E070A03278600DA
:104864006304070C9389060083A6860083A40600CC
:10487400639C040683A607008327070013840500AE
:1048840063C4D700130406008327040003A50900AA
:104894006306F50A832749013747048037460480B5
:1048A400B7450480130509001307477193064009AF
:1048B4001306866B9385051CE7800700130510001B
:1048C4008320C103032481038324410303290103B7
:1048D4008329C102032A8102832A4102032B010294
:1048E40013010104678000008327450137470480D2
:1048F4001307C76F9306100937460480B745048031
:104904001306866B9385051CE780070013051000CA
:104914006FF01FFB37470480832745011307076A9D
:104924009306F0086FF05FFD374704808327450145
:104934001307476E930600096FF01FFC93050100EF
:1049440023200100EFF09FC69305040013054100E6
:10495400EFB0DFC5032B410063526009032A8400D2
:1049640083270100930A0000130A4A0083250A00E2
:1049740013850700938A1A00EFB093139307050079
:10498400130A4A00E3145BFF032A890323ACA9003A
:104994002320A100EFD0C1309305050013050900C1
:1049A400E7000A0023A4A900832784001307450015
:1049B40083A60700938747002320D50083A607001A
:1049C40093841400938747002320D70013074700DC
:1049D400E3169BFE130500006FF09FEE0325010014
:1049E4008324890323ACA900EFD0812B9305050010
:1049F40013050900E780040023A4A9000327840009
:104A040093070500130500000327070023A0E70010
:104A14006FF01FEB032545008327050083A787005C
:104A24006780070067800000678000000325850019
:104A3400130600018327050083A78700678007000A
:104A4400032545008327050083A7870067800700A7
:104A5400032545008327050083A7C7006780070057
:104A6400032545008327050083A7470167800700C6
:104A7400032545008327050083A7070167800700F6
:104A840003258500130640009305000483270500D1
:104A940083A787006780070067800000130101FF78
:104AA40023261100232481002322910023202101A5
:104AB4006382050803A70503930710001384050008
:104AC40093040500630EF70203A544009305040054
:104AD400232A040283270500232204002328040236
:104AE40023240400032481008320C1008324410083
:104AF4000329010083A7C700130101016780070090
:104B040003A94503630809020325450083254900D9
:104B14008327050083A7C700E780070003A5440097
:104B2400930509008327050083A7C700E7800700D2
:104B34006FF09FF9EF609226930540026FE0C13653
:104B4400930580006FE04136130101FF23248100A7
:104B5400232611001384050063800504832785013F
:104B640063820702032585009305060093952500BB
:104B7400832705001306400083A78700E78007000A
:104B84002320A4008320C100032481001305000016
:104B94001301010167800000EF60522083A8050023
:104BA400130101FC232C8102B388154103D80800AA
:104BB400232A91022328210323263103232441039A
:104BC4002322510323206103232E7101232E11027A
:104BD400130A4000138B050093040500938B060011
:104BE4009309060013040000930AE0001309F0FF80
:104BF400637A0A0783D7480063860706B307FB0076
:104C040003A70700B387E70003A707006370E40A5C
:104C14001315240093874700B387A70003A7070051
:104C2400B387E70003A707003387E740035607006D
:104C340063F4CA020357E70063000702B387E7007F
:104C440083C70700638A070063820B023385AB00C6
:104C540083270500638C2701130414009389C9007A
:104C6400E36A0AF983270000730010009305C1006A
:104C740013850900EFF01FAE631C050203A5840031
:104C84008325C100130600018327050083A787003D
:104C9400E780070023A0A9006302050483280B0012
:104CA400B3081B4103D808006FF01FFB1305000075
:104CB4008320C103032481038324410303290103C3
:104CC4008329C102032A8102832A4102032B0102A0
:104CD400832BC10113010104678000008325C100F7
:104CE4003745048013050573EF50010213051000C6
:104CF4006FF01FFC130101FE232E1100232C8100F1
:104D0400232A910023282101232631012324410150
:104D1400630C060E9309060013040500138A0500AC
:104D240013090000930480006F00400783D78700B5
:104D3400638E0706B307FA0003A50700B387A7002D
:104D440003A707006370E90A131529009387470036
:104D5400B387A70003A507003385A700EF50014BD5
:104D6400930705000325840093951700B385F50088
:104D74000327050093952500B385F5400327870095
:104D84001306400093952500E7000700630405021D
:104D940023A0A900130919009389890083270A0015
:104DA400B307FA4003D70700E3E2E4F883270000DF
:104DB400730010003745048013050576EF40D17465
:104DC4008320C101032481018324410103290101BA
:104DD4008329C100032A8100130510001301010275
:104DE400678000008320C1010324810183244101E1
:104DF400032901018329C100032A8100130500004E
:104E04001301010267800000EF60427983A7050067
:104E1400130101FE23282101B387F54003D80700BD
:104E240013890500232E1100232C8100232A9100CD
:104E340023263101232441012322510193058000BB
:104E440063F0051383D78700638C0710B307F90059
:104E54001304070003A70700B387E70083A707002D
:104E64006370F40E03270500B7570080938747A8A3
:104E74000327470393040500930A0600138A0600D8
:104E84006310F70A03A58400130640009305000489
:104E94008327050083A78700E7800700930905009F
:104EA40083A60400930700001307040003A88603E5
:104EB4001386090093060A0093050900138504006C
:104EC400E70008006314050663880A02131434001B
:104ED400B38A8A0083A74A0093161A00B386460150
:104EE40093962600B386D70003A7460083A706003F
:104EF40023A4E90023A2F9008320C1010324810132
:104F04008324410103290101032A8100832A4100EA
:104F1400138509008329C100130101026780000081
:104F2400E7000700930905006FF09FF737550480E9
:104F34001305C58DEF40515D930900006FF0DFFB51
:104F4400B7460480374604803755048093868679B3
:104F54001306467A9305A00A1305058AEF60826555
:104F64008327000073001000130101FA8327450012
:104F740023244105138A0500832585012322510535
:104F8400930A05001305C100232C8104232821055D
:104F940023263105232E1104232A9104232061059D
:104FA400232E7103232C8103232A91031309060062
:104FB40093890600232641012328F10023260102B8
:104FC400EF30503913040500630E05028320C10538
:104FD40013050400032481058324410503290105E5
:104FE4008329C104032A8104832A4104032B010475
:104FF400832BC103032C8103832C4103130101067A
:1050040067800000930541001305C10023220100BD
:10501400EF40502113040500E31A05FA130B49006D
:10502400930480006F00800583D7870063800706A0
:10503400B307FA0083A50700B387B70003A70700E7
:10504400637AE40403A70A009315240093874700B6
:10505400B387B70083A5070003260B0003270703C4
:1050640083264100B385B70013850A00E7000700D3
:10507400130B8B00631205121304140083270A0018
:10508400B307FA4003D70700E3E0E4FA83270000FC
:105094007300100083254100130609001305C100A5
:1050A400EF30D06113040500E31205F203A5CA0131
:1050B40093054000EFF04FC61306050013070900DF
:1050C40093860900930500001305C100EF404012C8
:1050D40013040500E31C05EE03A54A009305000133
:1050E4008329810183270500032B410183A707033B
:1050F400E78007009304050003A54A001306000196
:10510400938504008327050083A78700E7800700B1
:10511400130A05006306050883AC0A01B76700801B
:105124009387877103A70C000327C701631EF70643
:10513400638C091A376C008013090B0093040B006D
:10514400930BF0FF130C0C716F0000011304140097
:10515400938484016388890883C74401E38807FE34
:1051640003A5040093050001EFF00FC103A7040198
:1051740083A70C006306770583A7C70063828703B0
:1051840083A6C40003A684009305050013850C00C0
:10519400E7800700E30C05FA130405006FF01FE332
:1051A400130410006FF09FE213850C0013860400B3
:1051B40093050A00E700070083AC0A016FF05FF76C
:1051C40083A6C40003A6840083A787009305050073
:1051D40013850C00E7800700E30A05F613040500B5
:1051E4006FF0DFDE03A54A0003AC0A01930400005C
:1051F40083270500930BF0FF83A74702E78007008E
:1052040093971900B38737019397370093090500E3
:10521400330BFB0083474901638E070283270C008D
:10522400130681002324710183A787019385040059
:1052340013050C00E780070013040500E31805D8E4
:10524400832781000327490093841400B387F9005E
:105254002320F70013098901E31E2BFB1305C1006A
:10526400EF30D02803A54A0093050A0083270500E0
:1052740083A7C700E780070003A54A00832705002A
:1052840083A74701E780070013040500E31005D452
:1052940003A54A0083A5CA018327050083A7070243
:1052A400E780070013040500E31205D203A50A01F1
:1052B4008327050083A70701E780070083A50A0267
:1052C40063F6A50023A0AA029305050003A54A00DE
:1052D400130600018327050083A78702E7800700E0
:1052E400130405006FF09FCE03A54A008327050031
:1052F40083A74702E78007006FF05FF683A70500E6
:10530400130101FE23282101B387F54003D80700C8
:1053140013890500232E1100232C8100232A9100D8
:1053240023263101232441012322510193058000C6
:1053340063F0051183D78700638C070EB307F90068
:105344001304070003A70700B387E70083A7070038
:105354006370F40C930905000325450093050004CC
:10536400930A06008327050013064000138A0600EB
:1053740083A78700E780070003A7090093040500BB
:10538400130605000328870393071000130704007E
:1053940093060A009305090013850900E700080035
:1053A400631E050463880A021314340033848A00DC
:1053B4008327440093161A00B38646019396260069
:1053C400B386D70003A7460083A7060023A4E400FE
:1053D40023A2F4008320C1010324810103290101D4
:1053E4008329C100032A8100832A41001385040014
:1053F40083244101130101026780000037550480B2
:1054040013058592EF405110930400006FF09FFC48
:10541400B7460480374604803755048093868679DE
:105424001306467A9305A00A1305058AEF608218CD
:1054340083270000730010000327050093068000F3
:10544400930700003307E5400356070063F6C600E0
:10545400035787006312070603A7050063F6E706F0
:105464009385450093972700B387F50003A70700AA
:1054740093064000B387E70003A707003387E7409C
:105484000356070063F6C6020357470013050000DE
:1054940063000706B387E70003A70700B387E700A5
:1054A40003A707006306070413854700678000000D
:1054B40013050000678000003305E500832705001D
:1054C40003A70500E3EEE7F8B746048037560480E7
:1054D40037550480130101FF938686791306C69617
:1054E4009305A00A1305058A23261100EF60820C98
:1054F40067800000130101FB232611042324810487
:105504002322910423202105232E3103232C41033C
:10551400232A5103232861032326710323248103AF
:10552400232291032320A103232EB1012326A100CA
:10553400630C0628138D0500930746002324F1000D
:1055440083270D00373B068093068000B307FD4098
:1055540003D70700930B0000130AC000130B4B136F
:1055640063F0E62283D68700638C0620B306DD0051
:1055740083A70600B386F60083A7060063F2FB2226
:1055840093972B0093864600B386F60083A7060004
:1055940013074000B38AF60083A70A00B387FA40D2
:1055A40003D60700637EC71C83D74700638A071CA2
:1055B4008326C100B387FA0003A7070003A586006A
:1055C40013064000B387E70003A9070083270500FB
:1055D4001314190083A7870033042401131424002F
:1055E40093050400E78007002322A100630E051839
:1055F400930D0500930C0000930440009309600090
:10560400631809046F00001593050C0013050400CA
:10561400EFF09FE20327040023A0AD003307E4402A
:105624000356070063F0C41203554700630C0510CA
:105634003304A40003250400938C1C00938DCD0037
:105644003305A400EF40514B23ACADFE6304991124
:1056540003A70A003387EA400356070063F2C41223
:1056640003544700630E041033848A0003270400A4
:105674003304E4000327040063F8EC1203270D004D
:1056840013952C00130444003304A4003307ED40A5
:105694000325040083550700130C00003304A40001
:1056A400637CBA000357C700630807003307ED00A3
:1056B40003260700330CC7000327040023A00D00B2
:1056C40023A20D003307E4408355070023A40D00F3
:1056D4001305000063FAB900035767006306070067
:1056E4003307E4000305070093858D00EF4051471D
:1056F400E30C05F037550480130545BA93850C0077
:10570400EF408160130510008320C1040324810449
:1057140083244104032901048329C103032A810347
:10572400832A4103032B0103832BC102032C81022F
:10573400832C4102032D0102832DC10113010105B4
:105744006780000023A26D01938C1C00938DCD0013
:10575400E31099F183278100032741009306800019
:105764009387870023ACE7FE2324F10083270D00F1
:10577400938B1B00B307FD4003D70700E3E4E6DE89
:10578400832700007300100037550480130545A6D5
:1057940093050400EF404157130510006FF0DFF646
:1057A400130500006FF05FF6B74604803756048097
:1057B40037550480938686791306C6AA9305A00AF2
:1057C4001305058AEF50125FEF50525D130101FD7E
:1057D4002326110223248102232291022320210360
:1057E400232E3101232C4101232A51012328610155
:1057F40063860738930405001389050013850700A1
:1058040093090600930500001306000413840600A0
:10581400138A0700930A0700EF70C20D8326040061
:105824009307600013050000B306D44003D70600B5
:1058340063FAE70083D7660063860700B307F400C2
:105844000385070093050A00EF409131130B05000F
:105854006316050A832604001307E000930700007B
:10586400B306D44003D60600637CC70003D7E60022
:10587400630807003307E40083470700B337F000E9
:1058840093850A00A306FA0213050400EFF0DFBAB9
:1058940013371500130717002322AA00232AEA004E
:1058A4001306C10093058A0113050400EFE09FD796
:1058B400130B05006314050403270400930640003A
:1058C4003307E4408357070063F0F60603554700A7
:1058D400630C05043305A400832705003305F50094
:1058E400EF409121032704009306C0002324AA005B
:1058F4003307E4408357070063E2F6048320C102C0
:105904000324810283244102032901028329C10162
:10591400032A8101832A410113050B00032B010192
:105924001301010367800000B7360680938646138F
:105934002324DA009306C000E3F2F6FC8356C70082
:10594400E38E06FA3304D400832704001306800090
:105954003304F40083270400B307F44083D607001C
:10596400E37ED6F803D78700E30A07F83307E40099
:10597400832507003307B7008325070063820518D2
:105984009305A000E3FCD5F683D7A700E38807F6C8
:10599400B307F40083A60700B387D70083A60700E4
:1059A4006380061683A74700032747002328FA00CD
:1059B400832704002326EA00B307F44003D7070033
:1059C4006374E61483D7870063800714B307F40075
:1059D40003A70700B387E70083AA070063840914B9
:1059E40083270900130640009305C00083A787009E
:1059F40013050900E78007009309050063060516EF
:105A04008327090013850A0083A48700EFC0412976
:105A1400930505001306400013050900E780040000
:105A240023A2A900630E0514832704001307800032
:105A340013050000B307F44083D60700637CD70046
:105A440083D7870063880700B307F40003A5070022
:105A54003385A700EF40910A03A7490023A0A900BA
:105A64000323040023205701635650133303644077
:105A7400035E03009307A00063F8C7098358A300DB
:105A8400130747009307000033051401638E0806CB
:105A940003260500835583003306C500032806004A
:105AA400B306B4006382050683A50600B386B60078
:105AB40083A60600638E06056304080E832646004B
:105AC4002320D7009387170013074700E390FAFCBD
