:0200000480007A
:0E00000017E1060013010181C52001A08280D6
:10001000130101FF1305400023261100EFF0D10A60
:1000200097A70400938747CA2320F50017A601006D
:100030001306862E97A504009385C5C7EF90C117B8
:10004000130101FE2326A10013058000232C81004B
:10005000232E1100232A9100EFF011078325C10000
:1000600013040500EFF0513E17060200130686B494
:1000700097B504009385C54913050400EF90C1139B
:100080009304050013050400EFF0910913850400A3
:10009000EF60D373130101FE2326A1001305800036
:1000A000232C8100232E1100232A9100EFF0D1018F
:1000B0008325C10013040500EFF0913E17060200EE
:1000C0001306C6B297B50400938585461305040050
:1000D000EF90810E9304050013050400EFF0510426
:1000E00013850400EF60936EB7C7038083C6D751B2
:1000F000130101DB03C6C75103C7E7512324812441
:1001000003C4F751A206D18E4207558F6204598C61
:100110009387C7513E941C40232611242322912407
:10012000B307F44083D6070023202125232E312353
:10013000417311471A916372D72083D74700638EAA
:10014000071EA2978C438D47639AF51EB7A70480BC
:10015000938747A5081C3EDFC1692320011E232683
:100160000122EF7060304179938709238A979304C5
:10017000C9E8BE94B746018093866652101C81453B
:100180002685EF703170081CEFA09016B7560180DD
:10019000938606AB101C8D452685EF70B16E081C4A
:1001A000EF006117B7560180938666D3101C914506
:1001B0002685EF70316D081CEFF00027B7660180CF
:1001C00093868689101CCD452685EF70B16B081C7F
:1001D000EF60503BB76601809386068A101CD945B4
:1001E0002685EF70316A081CEF10C17AB75601807E
:1001F00093864686101C930550022685EF70916801
:10020000081CEFE0A012B75601809386866B101C85
:1002100085452685EF701167081CEFC0305AB75628
:100220000180938606F5101CA5452685EF70916523
:10023000081CEFE0A015B7660180938626C4101C49
:10024000E5452685EF701164938709238A97130982
:1002500049DD3E994A85014881474167141C26863D
:10026000A285EF5040254A85EF50900181454A858F
:10027000EF508010AA84630005101C4537A5048048
:10028000130545938C43EF2041539C44984363529C
:10029000E002014437A9048013172400BA97CC4325
:1002A0001305C994EF2061519C4405049843E3452C
:1002B000E4FE98408547630BF70AB7A50480938551
:1002C000C58B37A5048013050595EF20014F37A591
:1002D0000480854513058596EF20214E984C814773
:1002E00009CBD8403E9723000700984C8507E3EAE6
:1002F000E7FE37A50480854513054599EF20E14BBE
:10030000C167417593870723130545DD8A973E959D
:10031000EF50902B25C937A504801305C59AEF200F
:10032000C1497D54C1674175938707238A97130597
:1003300045DD3E95EF50A03611A8814537A50480D4
:100340000D461305458CEF2041477D5441631A91BA
:100350008320C1242285832441240324812403296A
:1003600001248329C123130101258280B7A50480BC
:100370009385458BB9B737A504801305C590EF2049
:10038000C14345B7C167417593870723130545DD11
:100390008A9781453E95EF50E00737A50480854553
:1003A0001305C59BEF20614137A504801305859D8A
:1003B000EF20A1400144BDB7C1672A84938707237A
:1003C00041758A97130545DD3E95EF50402D2285F6
:1003D000EF60D33F130101FF232481003714000095
:1003E00013040494232291001305040097D40400FD
:1003F000938484352326110023A68400EF10021075
:1004000023A4A4006314050297D7040023A407348F
:1004100097D7040023AC07328320C1000324810056
:1004200083244100130101016780000023A2A4007E
:1004300023208500232205006FF01FFE21C11C41EF
:10044000A946B307F54003D7070063F4E60203D7D4
:10045000A700814619C32A97144303D74700814751
:1004600001C73A95830705003E8563D8D7003685D6
:100470008280914663E8E60001458280411106C60C
:10048000EF00D20A8146D1BF09C91C5103050500FE
:100490006343F50082803E858280411106C6EF00ED
:1004A000F208411122C406C62A848DC18C459947A1
:1004B0009041910510C163C2C7020A061105EF10F1
:1004C000B216B2402285224441018280B2402320EC
:1004D00005002285224441018280EF003205AE876B
:1004E000D0438C41411106C60D8E9357264022C43D
:1004F0001CC1E14763CBC7002A841105EF10D2125B
:10050000B2402285224441018280EF003202011173
:1005100022CC26CA3684B284814601464AC84EC6D9
:1005200006CEAA892E89EFF0620C01ED23A004000B
:10053000F240232004006244D2444249B24905619A
:10054000828022864E85CA85EFF0514DB7D7048050
:1005500003A687F283A6C7F2EFF0822EEFF0D15FF9
:10056000EF00031C6340B00495C9370700801C40AE
:100570006300E502055763D5E70023200400014529
:10058000F240624488C04249D244B2490561828047
:10059000F5F185071CC037050040E9BFB7070080AB
:1005A000E3F5A7FCEF0082780111B7D7048022CCD5
:1005B0004EC63684B28983A647F303A607F326CA3C
:1005C0004AC806CE2A89AE84EFF0020B6354A00617
:1005D0004A85A68501468146EFF0420101ED23A040
:1005E000090023200400F2406244D2444249B24947
:1005F0000561828022864A85A685EFF03142B7D711
:10060000048003A687F283A6C7F2EFF06223EFF01F
:10061000B154EF00E310634FB000A1C13707008071
:100620001C406306E502055763C8E70023A0A90044
:10063000E3DB07FAEF00826F23200400F2406244FC
:1006400023A00900D2444249B24905618280E1FDFC
:1006500085071CC037050040F9B7B7070080E3FFE6
:10066000A7FAC9BF7971B7D704804AD04ECE368970
:10067000B28983A647F303A607F322D426D206D66F
:10068000AA842E84EFF0820D635605062685A28586
:1006900001468146EFE0527E635EA004700026852D
:1006A000A285EFF0B137B7D7048003A687F283A6FF
:1006B000C7F2EFF0E218EFF0314AEF006306634B48
:1006C000B002A9C137070080B2476307E5020557AA
:1006D00063DEE70023A009008147B25022542320A3
:1006E000F90092540259F2494561828023A0A90081
:1006F000E355F0FEEF008263F9F985073EC6370542
:100700000040F1B7B7070080E3FEA7FAE5B7B707E7
:10071000008093C7F7FF33F7B700498F2E8825C3B2
:1007200013D745011377F77F9306F07F630CD70249
:10073000930627C0AA0593576501370700402A058D
:10074000CD8F14C29305F7FF2981B7062000ED8FE6
:1007500063ECA6023385E700B337F500BE85634D31
:1007600008028280B2053707C0FF798DB1811CC2B3
:10077000C98D9DE9634D08027D55BE858280232089
:100780000600014581458280130517003E95B33769
:10079000F500BE85E35708FCB337A000B305B040B1
:1007A0009D8D3305A04082800145814582800145B1
:1007B000B70500808280B706008093C6F6FFB36756
:1007C000B5006307D60C01488148C1C793D6F541EF
:1007D000358D3308D540B3C7B60033350501958F45
:1007E0007D16898F1357F6414285634FF006ADC7DA
:1007F000B70800401358F501860793361600B36713
:10080000F8000605158F7D166345F000E5F7E363F4
:1008100015FFB70600C0AA9633B5A600FD17AA9724
:100820006354E00A1306F03F01477D556342A70871
:10083000630CA70613D7A6001306F63FDA07D98F75
:10084000520637070080F98DD18FDA06CD8F3688B2
:10085000BE884285C6858280B7060040E36AD8F824
:10086000B7060080E3F706FB370300809306160007
:100870009398F70133B8C6000581858733E5A80052
:1008800036864297E344F0FEC9F7E361A3FE51B711
:100890009DC36351B004B7D7048003A887F483A82D
:1008A000C7F44285C6858280130710C0E374E6F85A
:1008B000130610C041B7B7D7048003A807F483A874
:1008C00047F44285C68582802DF31305F03FE37E11
:1008D000C5F489BF91E161F1B7D7048003A887F31C
:1008E00083A8C7F3BDB7B707008093C7F7FF33F7F7
:1008F000B700498FAE8EB68833FED7006DC713D7C9
:1009000045011377F77F1308F07F630A070BAA05E9
:1009100093576501370300402A05CD8F1308F3FF75
:100920002981B7052000B3F7070163F3A50005038C
:100930003E93B337F3003E8863DA0E00B3356000B0
:10094000B307F0403388B74033036040B367CE004D
:1009500001458145C1CB130527C013D74601137745
:10096000F77F9307F07F6305F704AA0693576601A4
:10097000B70500402A06D58F138EF5FF2982B706EA
:100980002000B3F7C70163E9C6063386B700B33763
:10099000F60063D90800B336C000B307F040958F66
:1009A0003306C040B705008093C6F5FF631CD5042D
:1009B000B7D7048003A507F483A547F48280B20566
:1009C0003707C0FF798DB181C98DFDE163CD0E126E
:1009D0007D533E88B367CE00E1DF370700801345C3
:1009E000F7FFA5BF8280B367CE0001458145FDDBDF
:1009F00001450143014895B7138615003E96B3376C
:100A0000F60041BF3308C802930627C0AA9693C5D3
:100A1000E5FFB387670233366602C297B29713D8F1
:100A2000F74133E707016388B60879CBB347F8008D
:100A300033860741B3B7C700330700411D8F93D5F5
:100A4000F641B2876343E0025DC7B708004013D5A3
:100A5000F701060713B61600498F8607918DFD161C
:100A60006345E0006DF7E3E417FF370600C03E96EC
:100A7000B337F6007D17BA976352B0069306F03F7E
:100A800081457D5763C9E5046383E5041357A600D8
:100A90009386F63FDA07D206D98F3707008033787E
:100AA000E800D58F5A06B3E707013285BE858280FC
:100AB0000143014805B7E30D07EE631708028DC730
:100AC000B7D7048003A587F483A5C7F482801307F2
:100AD00010C0E3FDE6FA930610C04DBFDDF1130729
:100AE000F03FE370D7FA59BFB7D7048003A587F367
:100AF00083A5C7F3828037060040E3E8C7F4B5B7A3
:100B0000014581458280014337080080E1B5B70780
:100B1000008093C7F7FF33F7B700498FAE8EB688D2
:100B200033F8D7006DCF13DE4501137EFE7F130728
:100B3000F07F630FEE08AA05935765013703004065
:100B40002A05CD8F1307F3FF2981B7052000130E67
:100B50002EC0F98F63F3A50005033E93B337F3006E
:100B60003E8763CD0E0C3368C8006307080E93D52B
:100B7000460193F5F57F9307F07F05456389F504FA
:100B80001395A60093576601B70600402A06C98F41
:100B90001388F6FF298237052000938525C0B3F717
:100BA00007016373C5008506BE96B3B7F60063D927
:100BB00008003336D000B307F040918FB306D04021
:100BC000370600801346F6FF05456318CE02828083
:100BD000B2053707C0FF798DB181C98DA9ED63CC0E
:100BE0000E087D533E873368C8000545E30108FEC3
:100BF000370E0080134EFEFF9DBF3366E3000DCA23
:100C00006355070033E6F60009CA7D55E341BEFC93
:100C10000545E3CEC5FB6355F7047D5582803368F7
:100C2000C8000145E30508FA014E0143014781B7B9
:100C3000E3DD07FC82800143014775B7B3356000EF
:100C4000B307F0403368C8003387B74033036040D0
:100C50007D55E31E08F0828081458146814775B746
:100C60006394E700E36BD3FA0545E3C2E7F6630854
:100C7000F70001458280014337070080ADB7E3FAF2
:100C800066FE828079715AC82A8B370500803355F9
:100C9000E50006D622D426D24AD04ECE52CCBE890A
:100CA00056CA5EC62E8AB68AC284B28BEFF0D21CB8
:100CB0002A892E84D6865E86D2855A85EFE0523800
:100CC0002A86AE864A85A285EFE09237B7D70480A0
:100CD00003A947F503AA07F5AA8ACA8652862E8475
:100CE000EFE092196344A004B7D7048003A607F38A
:100CF00083A647F35685A285EFE01218635AA00633
:100D00005685A28501468146EFE0520E15E123A0EB
:100D1000090023A00400B250225492540259F2490F
:100D2000624AD24A424BB24B45618280D28A4A849F
:100D300026865685A285EFF0614EB7D7048003A6BC
:100D400087F283A6C7F2EFE0B22FEFF0E160EFF099
:100D5000321D634FB00095C9370700809C40630087
:100D6000E502055763C8E70023A0A900E3D507FA09
:100D7000EFF0D17B23A0040023A0090069BFF5F1A7
:100D800085079CC037050040E9BFB7070080E3F541
:100D9000A7FCF9BF39715ECEAA8B370500803355A9
:100DA000E50006DE22DC26DA4AD84ED652D456D2E8
:100DB0003E8A5AD062CCAE8A368B4289C689328C42
:100DC000EFF0920BAA842E84DA866286D6855E8541
:100DD000EFE012272A86AE862685A285EFE052260E
:100DE000B7D7048083AA47F503AB07F5AA84D68654
:100DF0005A862E84EFE05208634CA00CB7DA0480C8
:100E000003A60AF383A64AF32685A285EFE0D2065D
:100E1000635EA00A2685A28501468146EFE0027D39
:100E200055E9B7D7048023200A0083A487F503A4DB
:100E3000C7F523200900014781473A862685BE86EB
:100E4000A285EFE0620C03A60AF383A64AF3AA8404
:100E50002E84EFE0B210635B05062685A28501466D
:100E60008146EFE072016353A00670002685A285DB
:100E7000EFF0C13AB7D7048003A687F283A6C7F282
:100E8000EFE0121CEFF0414DEFF092096340B00427
:100E9000E1C937070080B247630EE50A055763D3FF
:100EA000E70223A0090081470647F25062541CC3A1
:100EB000D2544259B259225A925A025BF24B624CB6
:100EC0002161828023A0A900E350F0FEEFF01166BB
:100ED000DA8456844A862685A285EFF02134B7D776
:100EE000048003A687F283A6C7F2EFE07215EFF045
:100EF000A146EFF0F202E34BB0FCA5C93707008032
:100F0000832709006301E504055763C7E70223202F
:100F1000AA002A84E3CC07FA370500803355F50090
:100F2000EFF08275AA8422852E84EFF0E2742A877E
:100F3000AE87B7DA048011B72320090023200A0006
:100F400001448147D1BFE9F185072320F900370526
:100F500000405DBFA1F585073EC6370500403DBF97
:100F6000B7070080E3F7A7F295B7B7070080E3F76C
:100F7000A7F8A9BF011126CA85444AC82A89339512
:100F8000A4007D1522CC4EC6328406CEAE89EFF089
:100F9000A26E33062441930706FE2A892E8463CA73
:100FA0000704B395F4000145EFF012052A86AE86DA
:100FB0004A85A285EFE0D208938709FEAA842E8491
:100FC00063CD07028545B395F5000145EFF0D202E8
:100FD0002A86AE862685A285EFD01273EFF04105F2
:100FE000EFF08261F2406244D2444249B249056165
:100FF000828081453395C40045BF05458145331541
:101000003501E9B779714ECEAA89328506D622D448
:1010100026D24AD0B6842E8952CC56CA5AC8C28A21
:101020003E8B5EC662C4BA8B328CEF30E3692A8491
:101030002685EF306369CE852A8A4A85EF304310D2
:101040002A89A2855285EF30A30FAA854A85EF2011
:10105000330EAA8523A0AA002A894E85EF20530DBE
:10106000AA852285EF30C30DAA89AA852285EF20A3
:1010700033466357A00413150C014181EF30C3645C
:10108000AA84AA852285EF30A30BCA85EF20D35A04
:10109000A68523A0AB005285EF30830A83A50A0002
:1010A000EF209359B25022542320AB00925402599E
:1010B000F249624AD24A424BB24B224C456182808D
:1010C000CE855285EF20134CAA87139504014181E8
:1010D000E3C607FA4E85EF30637DEFF0E127EF308E
:1010E000332AEF30E357420503A90A00418179B75B
:1010F00079715EC6AA8B37D50480032585FC22D47E
:101100002E84DE8506D64AD04ECE52CC56CA5AC858
:1011100062C43E8B3689BA89B28A26D2EF20530147
:101120002A8C930500005A85EF20933A014A6352B6
:10113000A00683240900A2852685EF207339D68571
:101140006343A000A2842685EF20D3432A87A2858B
:101150005685634C0704EF20B37EE285EF20D34D24
:10116000EF30C374EFF0411FEF309321DE85EF20A5
:10117000B34CA285EF200336050A23A0A9005285AF
:10118000EF308354DA85EF20F33F11099109E342F0
:1011900005FAB250225492540259F249624AD24A94
:1011A000424BB24B224C456182802685EF20537919
:1011B000E285EF207348EF30636FEFF0E119EF3015
:1011C000331CDE85EF205347A285EF20A330050AAC
:1011D00023A0A9005285EF30234FAA855A85EF201E
:1011E000332F11099109E346A0F465B7411106C6F2
:1011F00022C426C24AC0AE84EFF00132B7D70480C1
:1012000083A5C7FCEF2053432A84EF30236AEFF015
:10121000A114EF30F3162A89EF30833DCA8588C0C8
:101220002285EF20F371B7D7048083A507FD06055B
:101230000581EF203335B2402244924402497D813A
:1012400041018280F1C57971B7D7048022D426D2BA
:101250004AD04ECE52CC56CA5AC85EC662C403A902
:1012600087F283A9C7F206D66AC26EC02E8AAA8404
:10127000B28A3684014C370B0080855B19A823A005
:101280000A0023200400050CA104910A1104630D37
:101290008A0503AD040083AD4400014681466A859A
:1012A000EE85EFE0A23461DD22866A85EE85EFE00F
:1012B000F1764A86CE86EFE0A258EFF0E109EFF032
:1012C0002246634AB004B1C51C40630D650363D573
:1012D000770123200400014523A0AA00050CA104E6
:1012E000910A1104E3178AFBB25022549254025916
:1012F000F249624AD24A424BB24B224C124D824DC5
:1013000045618280E9F585071CC037050040C1B7FB
:101310008280E37BABFAEFF071219346F6FFFD8606
:10132000F18E3308C0406353C0000148B316D500A6
:101330003386D5023395D502638DB6066344050422
:101340003707004032973336C7002A9606067D835A
:10135000B367E6007D47634E0707130708FE0145A4
:10136000635507000545331505017D159356154056
:1013700013D7F7017D8D36973325A700B3D70741E3
:101380003E958280B70600C08506FD58B307D6009B
:1013900033B7C700330615013A961357F6410607CF
:1013A0000583BA9733B7E70032970607FD83D98FD5
:1013B00055B7B7060040814863560500B70600C020
:1013C0008506FD583707008093C7F5FFE384E5F8ED
:1013D00075BFB79603803796038037950380411118
:1013E000938606BA130606BB930570161305C5C08F
:1013F00006C6EFF03115411106C66341060E93870C
:10140000F60113076002636BF70A21673388E50072
:10141000C1676375F808B707FF7F634CF6047D1753
:1014200001463306A602B9473388D740930708FE22
:10143000B385E502B338E5022E963305E502B2988E
:1014400063C9070405463316F60081473387A700B2
:101450003D45B306D540B337F70033051601138673
:1014600006FE3E95634C0600B2403355C54041012F
:1014700082803A96135706417D8665B7B240FD4794
:101480000605958FB317F5003355D7005D8D4101E3
:10149000828085470146B39707014DBFB796038009
:1014A0003796038037950380938606CF1306C6C50B
:1014B0009305B002130545CAEFF0D108B796038033
:1014C0003796038037950380938646CD1306C6C5AD
:1014D0009305A002130545CAEFF0D106B796038025
:1014E0003796038037950380938606C41306C6C5D6
:1014F00093059002130545CAEFF0D1046351B0067D
:1015000001118A0522CC26CA4EC606CE4AC82A84B4
:10151000B284B309B50003290400930500004A858D
:10152000EF20037B6340A002930700009CC01104DE
:101530009104E39289FEF2406244D2444249B249A6
:101540000561828023A0240111049104E39589FCA4
:10155000F2406244D2444249B249056182808280AD
:10156000635CB0060111B7D7048056C283AA87FC1A
:10157000B7D7048052C403AA47FD8A0522CC4AC8C3
:101580004EC606CE26CA2A843289B309B500044065
:10159000D6852685EF20C373AA87D2852685634525
:1015A000F002EF20E3726342A002232049011104FC
:1015B0001109E31E34FDF2406244D2444249B2496B
:1015C000224A924A05618280D68423209900110420
:1015D0001109E39E89FAC5B782806350B0080111F2
:1015E000B7D7048052C403AA87FD8A0522CC4AC813
:1015F0004EC606CE26CA2A843289B309B5000440F5
:10160000D2852685EF20C36CAA8793050000268526
:101610006346F002EF20C36B6343A0029307000010
:101620002320F90011041109E31B34FDF240624448
:10163000D2444249B249224A05618280D2842320A1
:10164000990011041109E39C89FAF2406244D244E2
:101650004249B249224A056182808280635DB002BC
:1016600041118A0522C426C24AC006C62A84B28411
:101670003309B50008409104110413250500EF302B
:10168000231523AEA4FEE31789FEB2402244924400
:10169000024941018280828093D8F501AE98854746
:1016A00093D8184063D5B702B2860147B307E50067
:1016B00083870700890605071398C7011358C84197
:1016C0009187238F06FFA38FF6FEE34117FF93F761
:1016D000150089CB4695830705002E96F207F18702
:1016E000A30FF6FE82809C4194439107634106025A
:1016F000635FD6000A063E960C4263CA05001C458D
:1017000089C79A053385B70082803C4982870145A5
:1017100082808C41411106C622C403A80500B2870D
:101720002A87634A06026358060393172600AE977A
:10173000CC43FD576380F5043684144593976500C8
:10174000B69781E63C498297AA87B2401CC02244E2
:1017500001454101828083284701B79503803A857E
:10176000C2863E86938505D48298B24022440545C0
:10177000410182805C49B79503809385C5D68297E5
:10178000B24022440545410182809C419443634E0E
:101790000602635CD60291070A063E960C4263C6B7
:1017A00005021C4581CB139565003E958347D50204
:1017B00089CF82803C49411106C6829709C9834777
:1017C000D50291C7B2404101828001458280B2407A
:1017D000014541018280DC41944391076341060247
:1017E000635FD6000A063E960C4263CA05001C459C
:1017F00089C79A053385B70082803C4982870145B5
:101800008280CC41411106C622C403A80500B287DC
:101810002A87634A06026358060393172600AE9789
:10182000CC43FD576380F5043684144593976500D7
:10183000B69781E63C498297AA87B2401CC02244F1
:1018400001454101828083284701B79503803A858D
:10185000C2863E86938505D48298B24022440545CF
:10186000410182805C49B79503809385C5D68297F4
:10187000B24022440545410182809C419443910736
:1018800063410602635FD6000A063E960C4263CAB5
:1018900005001C4589C79A053385B70082803C49FD
:1018A000828701458280DC459443910763410602AB
:1018B000635FD6000A063E960C4263CA05001C45CB
:1018C00089C79A053385B70082803C4982870145E4
:1018D0008280CC45411106C622C403A80500B28708
:1018E0002A87634A06026358060393172600AE97B9
:1018F000CC43FD576380F504368414459397650007
:10190000B69781E63C498297AA87B2401CC0224420
:1019100001454101828083284701B79503803A85BC
:10192000C2863E86938505D48298B24022440545FE
:10193000410182805C49B79503809385C5D6829723
:10194000B24022440545410182809C459443910761
:1019500063410602635FD6000A063E960C4263CAE4
:1019600005001C4589C79A053385B70082803C492C
:101970008287014582808C45411106C622C403A896
:101980000500B2872A87634A060263580603931745
:101990002600AE97CC43FD576380F504368414458A
:1019A00093976500B69781E63C498297AA87B24033
:1019B0001CC0224401454101828083284701B7951C
:1019C00003803A85C2863E86938505D48298B240CC
:1019D00022440545410182805C49B7950380938587
:1019E000C5D68297B2402244054541018280797173
:1019F00026D24ECE52CC56CA5AC806D622D44AD087
:101A00005EC683AAC500032BC600AA89BA843E8A93
:101A1000B5C256853684EF207369AA8B5A852E8904
:101A2000EF20D3682A86AE865E85CA85EFD05261E4
:101A30002A8948442E84EF2073672A86AE864A8519
:101A4000A285EFE0A23C2A89C844139415000580C2
:101A5000EF20D3652A86AE864A85A285EFD0C24A9A
:101A6000B7D7048003A607F683A647F6EFD0124F38
:101A7000634CA004DA855685EF20033C93050000F3
:101A80002A84EF20E324634505062285EF201362B4
:101A9000AA87C8442E84BE84EF2053612A86AE866E
:101AA0002685A285EFD042462320AA002322BA0031
:101AB0000145B250225492540259F249624AD24A24
:101AC000424BB24B4561828083A74901379703801F
:101AD000130707DA9306001437960380B79503803F
:101AE0004E85130646DC938505DF82970545D1B701
:101AF0003797038083A74901130787E09306D01423
:101B0000E1BF01112E884AC84C462A890325C80026
:101B100022CC26CA4EC606CE3684BA89EF20C331FF
:101B200093050000AA84EF20A31A634C05022685C2
:101B3000EF20D357AA8448442E84EF2033572A86B7
:101B4000AE862685A285EFD0223CF240624423A0D7
:101B5000A90023A2B900D2444249B2490145056116
:101B60008280832749013797038037960380B79592
:101B700003804A85130787E09306D014130646DCDA
:101B8000938505DF8297F2406244D2444249B249CC
:101B90000545056182801C42797122D426D24AD043
:101BA0004ECE06D652CC56CA5AC85EC662C466C26B
:101BB0000D48AA842E843689BA896380070F254789
:101BC0006389E7061D476398E702216A7D1AE17A77
:101BD0008547032BC600832B06016307F4068D4758
:101BE0006301F40C89476309F4142320590123A0ED
:101BF0004901014515A05C4937970380379603805A
:101C0000B7950380130747E293063019130646DCA5
:101C1000938505DF82970545B250225492540259AC
:101C2000F249624AD24A424BB24B224C924C456135
:101C300082808547032BC600832B0601130AF00719
:101C4000930A00F8E31DF4F8DA8513050000EF109D
:101C5000334EEF20B345EFE02170EF207372B7D71A
:101C6000048083A5C7FD2A8BEF20830663440514F7
:101C7000B7D7048083A507FE5A85EF20A310634BD6
:101C8000A0125A85EF20D316AA9B63C85B152320A8
:101C9000790123A04901014541B7130AF00F814A98
:101CA00005BFDA8513050000EF109348EF201340BD
:101CB000EFE0816AEF20D36C37D404808325C4FD24
:101CC0002A8CEF20E3006348050AB7DC048083A573
:101CD0000CFE6285EF20030B634FA0086285EF20A6
:101CE0003311B307750163CE570F37D7048003252F
:101CF00087FD2320F900DA85EF109343EF20133B93
:101D0000EFE08165EF20D3678325C4FD2A84EF10BF
:101D1000337C6342050683A50CFE2285EF208306F3
:101D2000634BA0042285EF20B30CAA9B63497A0B76
:101D300023A079010145CDB5B7D7048003A547FDA0
:101D4000DA8537D40480EF10B33EEF203336EFE06E
:101D5000A160EF20F3628325C4FD2A8CEF10537736
:101D6000634B0500B7DC048083A50CFE6285EF2081
:101D700063016355A002DC483797038037960380E0
:101D8000B795038026851307C7E29306B01513069F
:101D900046DC938505DF82970545BDBD6285EF2052
:101DA0003305B307750163C0570537D70480032592
:101DB00087FC81B7DC483797038037960380B79557
:101DC000038026851307C7E29306B015130646DC89
:101DD000938505DF8297228581B5D68B4DBDD28B49
:101DE00081BFD68719B7D687C9B71971E2CC03ACC2
:101DF0000503A6DACED6D2D4DAD0DECEE6CAEAC859
:101E0000AE8986DEA2DCCAD8D6D2EEC6854536C6F5
:101E10003EC442C846CA0A4B9A4B2A4DBA4CCA44E1
:101E20002A8A630ABC0403234501B79703803797C6
:101E3000038037960380B79503806288854893872F
:101E400047E5130707E79306B00D130646DC9385B5
:101E5000C5E80293054CF6506654D6544659B65917
:101E6000265A965A065BF64BD64C464DB64D6285C1
:101E7000664C09618280832A06033289638A8A0359
:101E800003234501B7970380379703803796038074
:101E9000B795038085485688938747E5130787EAF7
:101EA0009306D00D130646DC9385C5E8029365B70B
:101EB0003A84585A630907141C436383071003A824
:101EC000070063570C0583A60900E516F59A95C22D
:101ED0005C4937970380130747EF9306D00E379678
:101EE0000380B7950380130646DC938505DF829750
:101EF0009DB714422546638DC60C4946638AC60CBD
:101F0000379703805C49130707F39306F00EC1BFB0
:101F100003A5C900032CC400635390063ECCEF20F8
:101F2000F318AA8D62856ED42ED6EF203318E247BF
:101F30006A8FE68D2AD02ED2014D930CC103130C6B
:101F40008103C843110F3ECE7ACCEF2033162256C0
:101F5000B256910D050DEFD0B20E02569256EFC05B
:101F6000B27AE6866286EFE08FDAE256624FF24797
:101F7000232EDFFEF25623AEDDFEE3449DFC83A755
:101F800009000D476387E71225476386E7001D4771
:101F9000014CE392E7ECA24722866654F650D654F1
:101FA0004659B659965A664CD64C464DB64D8C435A
:101FB0005E87DA86F64B065B5285265A0961E1BEDA
:101FC000379703805C49130787ED9306900E01BF96
:101FD0006383040503234A01B7970380379703807F
:101FE000A6889387C7F61307C7F79306100F37968F
:101FF0000380B7950380130646DC9385C5E85285B8
:102000000293568C89BD379703805C49130747ECD0
:102010009306800EE9B51447032789008A06369790
:102020008328470063801403B797038037970380A2
:1020300003234A012688938707FA1307C7F69306F6
:10204000200F75B703A5C90091073ECE6ACCEF20DB
:10205000F305AA8D48446ED02ED2EF203305624F8F
:10206000F247E68D2AD42ED6014D930CC103130CF2
:102070008103884391077ACE3ECCEF20330302568A
:102080009256050D910DEFD0A27B2256B256EFC0AD
:10209000B267E6866286EFE08FC7724FE256E2478C
:1020A000110F232EDFFEF25623AEDDFEE3439DFC2F
:1020B000F9B5B24483ACC900032DC900B5C066852B
:1020C000EF20C37EAA8D6A852E8CEF20237E2A8680
:1020D000AE866E85E285EFD0A2762A8CC8442E8922
:1020E000EF20C37C2A86AE866285CA85EFD0125265
:1020F0002A8C48441399150013591900EF20037BCB
:102100002A86AE866285CA85EFC01260B7D7048082
:1021100003A607F683A647F6EFD04264634DA004FA
:10212000EA856685EF105351930500002A89EF1068
:10213000333A634605064A85EF204377AA8A484426
:102140002E89EF20A3762A86AE865685CA85EFC0F3
:10215000B25B42467418EFE08FBB7257524683A7BA
:1021600009003307E040A54618C2E386D7E20D47D1
:10217000E383E7E229BD83274A01379703801307EA
:1021800007DA9306001437960380B7950380130689
:1021900046DC938505DF52858297568C6DB937975B
:1021A000038083274A01130787E09306D014E1BF19
:1021B0005971A2D48059A6D2CAD0DEC6EAC06EDE5A
:1021C000AE8486D6CECED2CCD6CADAC8E2C4E6C2B7
:1021D000854542C046C2C65BD65EE65D765D2A890D
:1021E000630AB40403234501B7970380379703803C
:1021F00037960380B795038022888548938747E503
:10220000130707E79306B00D130646DC9385C5E870
:1022100002930544B6502285265496540659F64931
:10222000664AD64A464BB64B264C964C064DF25D56
:1022300065618280032C0603B28963118C04368F9A
:10224000545A3E8A3A8B9C4283AC070063509407F1
:1022500098406517759B6307070E5C4937970380A5
:10226000130747EF9306D00E37960380B795038088
:10227000130646DC938505DF829769BF032345017A
:10228000B79703803797038037960380B79503800D
:1022900085486288938747E5130787EA9306D00D40
:1022A000130646DC9385C5E80293ADB7C044832A84
:1022B000C70063998C05C84376C67AC4EF20035FD4
:1022C000AA8C22852E84EF20635E2A86AE866685E0
:1022D000A285EFD0E256AA8C56852E84EF20035DAE
:1022E0002A86AE866685A285EFC012427410301031
:1022F000EFE0EFA1A257224FB24E23A0FD00B2574C
:102300002320FD009C400D476383E710254763862B
:10231000E7001D470144E39FE7EE265483250A00AA
:10232000B6509654F649664AD64A264C964C064D07
:10233000F25DDE865A86B64B464B4A85065976874D
:10234000656191B818422546630DC7004946630A86
:10235000C700379703805C49130707F39306F00E15
:1023600021B7944603A789008A0636978328470039
:10237000638B1C0303234901B797038037970380BE
:1023800037960380B79503806688938707FA13070B
:10239000C7F69306200F130646DC9385C5E84A85E9
:1023A0000293628485BDC84476C67AC4938A470086
:1023B000EF20C34FAA870325CB003ECC2ECEEF20C3
:1023C000E34E224FB24E2AC82ECA014403A50A008A
:1023D00076C67AC4EF20834D6246F246910D05041D
:1023E000EFD002464246D246910A110DEFC0D231DB
:1023F00074103010EFE0AF91A256224FB24E23AED0
:10240000DDFEB256232EDDFEE34294FDE5BD7AC427
:1024100083AAC40083ACC90063070F06568576C63D
:10242000EF20C348AA8966852E84EF2023482A8698
:10243000AE864E85A285EFD0A240224FAA892E8477
:102440000325CF00EF2083462A86AE864E85A285DF
:10245000EFD0D21BAA890325CB0013941500058069
:10246000EF20C3442A86AE864E85A285EFC0D229CE
:10247000B7D7048003A607F683A647F6EFD0022E4F
:10248000B24E6341A006E685568576C4EF10D31A96
:10249000930500002A84EF10B303A24E634805069B
:1024A000228576C4EF208340AA890325CB002E84A1
:1024B000EF20C33F2A86AE864E85A285EFC0D22488
:1024C00002467410EFE0AF84325712469C40330747
:1024D000E040A54618C2A24EE381D7E40D47E38E43
:1024E000E7E205BD8327490137970380130707DA21
:1024F0009306001437960380B7950380130646DCD5
:10250000938505DF4A858297628429B337970380D4
:1025100083274901130787E09306D014E1BF8C4558
:102520000845411106C6EF50214CB2403335A0009A
:10253000410182809445411126C29842AE8406C66C
:1025400022C44AC085456300B7025C49B795038041
:102550003A86938505FE8297B2402244924402490E
:10256000054541018280C04232892285EF50414EAB
:10257000635F8000DC409315240013074500BE957F
:10258000944391071107232ED7FEE39BB7FEB24079
:1025900022442320A900924402490145410182803E
:1025A0005971D6CAEAC086D6A2D4A6D2CAD0CECE97
:1025B000D2CCDAC8DEC6E2C4E6C26EDE2322050053
:1025C000230405009C41130D85002320A501AA8A40
:1025D0006358F01A37990380B7490F00379A98006B
:1025E000AE8C938B45008147014B130C810013097E
:1025F00049099389F923130AFA6783AD0B0025472C
:10260000639A071A93D7FD41B3C4B7019D8C93DD3C
:10261000FD01637D97349307300663FF973493077A
:10262000703E63FF973489669387F67063FC973436
:102630006166B7E5F505268705449386067113069E
:10264000F6699385F50F39A063FFF92A6370FA2CB8
:1026500063F4F52CBA8722853357D7021104E3655A
:10266000F6FE1306D002B3858D000A8562C0EF70B6
:10267000F10F024793073006BA9D63FC9702930758
:10268000E4FF0965EE97930640061305F57033F7EE
:10269000D402F917268606074A9783451700034791
:1026A0000700B3D4D402A381B7002381E700E3601D
:1026B000C5FEA54763FA97208604CA9483C7140011
:1026C00083C40400A380FD00B796038023809D008F
:1026D000054793864601014681450A85EF70911FA3
:1026E000041026CC1C41930D85002A846386B725EF
:1026F0003ECC1C453ED05C403ECE2320B40123049A
:102700000400E2472322040003A50A006388971C03
:102710000257F2466308AD2003A68A0023A0FA0000
:1027200023A2DA0023A4EA00630405202ACC32D0D5
:1027300002CE23000500624563069500825585059B
:10274000EF50D177024563068501A2458505EF501C
:10275000F17603A70C00050B83A74A00910BE34E0B
:10276000EBE899CF370700407D176381E722B7B5C3
:1027700004800546938545245685EF70B13019A82D
:10278000B796038009479386060101468145568521
:10279000EF705114B650265496540659F649664ABD
:1027A000464BB64B264C964C064DF25D5685D64AA6
:1027B0006561828093D7FD41B3C4B7019D8C93DDE1
:1027C000FD016377971A9307300663F5971A93070D
:1027D000703E63FB971A89669387F67063F0971AC9
:1027E0006166B7E5F50526870544938606711306ED
:1027F000F6699385F50F39A063F4F910637BFA103D
:1028000063FFF510BA8722853357D7021104E365B9
:10281000F6FE1306D002B3858D000A8562C0EF7004
:10282000E174024793073006BA9D63FC9702930751
:10283000E4FF0965EE97930640061305F57033F73C
:10284000D402F917268606074A97834517000347DF
:102850000700B3D4D402A381B7002381E700E3606B
:10286000C5FEA54763F797068604CA9483C714007C
:1028700083C40400A380FD00B7A6048023809D00CC
:10288000054793868694014681450A85EF70910439
:10289000041026CC1C41930D85002A846384B70B59
:1028A0003ECC1C453ED05C4056853ECE2304040001
:1028B0002320B401232204007246E245EF70911CEC
:1028C0006245E31D95E6BDBD9384040393F4F40FC4
:1028D000E5BB9384040393F4F40F79BF724611CAE5
:1028E00085476307F606A685EFF00154724603A5F7
:1028F0000A00329523A2CA002300050062450DBDDF
:102900001304550039B713045500A1BB1304650027
:1029100089BB13046500F5BD1304750099B3130456
:102920007500C5BD23A0FA0023A2DA0023A4EA00A3
:1029300026CC04102685EDBB4146EE852685EFF0BA
:10294000A14E55BB4146EE852685EFF0E14DA1BF76
:10295000834701022300F500724603A50A0023A263
:10296000CA003295230005006245D9B30544D5B9A4
:10297000054445B5094471BD0944E5B1114451BD53
:102980000D44C5B11144F1B90D4461B537950380CB
:1029900013058501EFD00FF082472A8463878701F2
:1029A000A2453E858505EF50715103A50A006307D6
:1029B000AD0083A58A008505EF5051502285EF4078
:1029C000E3602A84DDB7E2472A8463879700825553
:1029D0003E858505EF50914E0245E30885FDA245F1
:1029E0008505EF50B14DD1B72A84FDB798451C46F7
:1029F0001D71D6C2DAC0832A070003AB0700A2CC40
:102A0000CAC8CEC6D2C45EDE86CEA6CAAE8B32841B
:102A1000AA8936895A8A63C36A01568A5285EF5059
:102A20002103AA84635A400513182A002A98814773
:102A3000130EFBFF05451383FAFF63DD570583A5DE
:102A40008B003307F3400A072E97584363DF670173
:102A500014443306FE400A06B29683A84600630477
:102A60001707630AA7046392A8061DEF2320080036
:102A700085077118E39347FD232099000145F6402F
:102A80006644D6444649B649264A964A064BF25B06
:102A90002561828063D667031844B306FE408A0628
:102AA00036975843631AA700854863531701468732
:102AB0002320E80075BF468755DBBA880547F5B780
:102AC00005478548DDB775F355B70A8503A9490160
:102AD000C13C0C4428080244E134E246B795038027
:102AE0002286938505034E85029962451C10630674
:102AF000F50082558505EF50713C02453C006306A8
:102B0000F500A2458505EF50713B81C42685EF4055
:102B1000317B0545ADB7E24718102A846387E7008B
:102B200082553E858505EF50713902453C006306AC
:102B3000F500A2458505EF50713881C42685EF4028
:102B400031782285EF4083482A84EDF8DDBF2A845E
:102B5000E9BF1971A2DCA6DA3684B2849446104625
:102B60009C45DAD0DECE032B060083AB0600CED622
:102B7000D2D4D6D2E2CCE6CA86DECAD803AC0700ED
:102B8000AE8CAA893A8ADE8A63437B01DA8A63D3F0
:102B90008A01E28A5685EF40B16B2A89635C50094D
:102BA00013972A002A9701488546930EFCFF1305C8
:102BB000FBFF9385FBFF8548635A880183A78C0040
:102BC00033860E410A06B29783A84700054363592E
:102BD00068019C44330605410A06B29703A34700E7
:102BE000054E635978011C44338605410A06B297A5
:102BF00003AE4700C687635313019A876353FE00F1
:102C0000F28781CBC68763D368009A8763D3C701F5
:102C1000F2876384D800639317036304D300639F30
:102C200067006304DE00639BC7011CC305087117BE
:102C3000E31358F923202A010145B5A083A58C0090
:102C4000280003AA4901A93A8C440810A244893AF1
:102C50000C4428180254A9326257B7950380A28603
:102C60002686938505064E85029A62559C0063066A
:102C7000F50086458505EF50712402553C1063062A
:102C8000F500A2558505EF50712322451C08630607
:102C9000F500C2458505EF507122630509004A859C
:102CA000EF4011620545F6506654D6544659B65960
:102CB000265A965A065BF64B664CD64C09618280C2
:102CC000E25798002A846387E70086453E8585059C
:102CD000EF50D11E02553C106306F500A255850544
:102CE000EF50D11D22451C086306F500C24585053D
:102CF000EF50D11C630509004A85EF40715C2285C5
:102D0000EF40C32C2A84E31909FED5BF2A84D9B722
:102D10002A84C9BF7D15C14763EAA700B79703801E
:102D2000938707160A053E950841828001458280F7
:102D300001458280545D9DC29842938746000507F5
:102D40000A07BA96638CF6007D5619A06388F600D0
:102D500098439107E31CC7FE0545828001458280A8
:102D6000B70710F023A0A7F082808347050089CB26
:102D7000370710F02320F7F0834715000505FDFB0A
:102D800082808347050089CB370710F02320F7F0B6
:102D9000834715000505FDFB82808280AA87484194
:102DA0009047AE860C41584A104A03A84500CC47CC
:102DB000028848411C419C4782871C451395150099
:102DC0002E95D84B9C4B0A050E07BA97DC433E95CF
:102DD0008280F1456F50910E1849854763E6E70000
:102DE00048411C41DC4F8287411106C6EFD0117467
:102DF00018498D476317F7005C498A05BE958841DD
:102E00008280411106C6EFD071721849854763165A
:102E1000F70048411C41DC478287411106C6EFD0CC
:102E2000F170184985476316F70048411C419C4BD7
:102E30008287411106C6EFD0716F18498547631824
:102E4000F7001C45B2864841D04B6F10A057411186
:102E500006C6EFD0B16D9C452A8794439107634B1A
:102E600006026359D6020A063E96144263C406025D
:102E70001041B73700809387C7D9504A631EF600C8
:102E800048411C474C4703280500D84B904B8327EB
:102E90004800828701458280B68502869C412A8748
:102EA00094439107634B06026359D6020A063E9685
:102EB000144263C406021041B73700809387C7D914
:102EC000504A631EF60048411C474C470328050042
:102ED000D84B904B83274800828701458280B68576
:102EE0000286DC412A8794439107634B06026359AB
:102EF000D6020A063E96144263C406021041B73752
:102F000000809387C7D9504A631EF60048411C478A
:102F10004C4703280500D84B904B832748008287F5
:102F200001458280B6850286B79703809387472044
:102F30001CC14CC114C550C523280500232A050017
:102F4000232C0500828063C8050063D6C5008A056E
:102F5000AE96884282807D5582804CC982801C4911
:102F6000411106C60547F59B6384E700EFD0115C6D
:102F7000104D91C119CA379503801305451AEFF01A
:102F8000D003B240054541018280B2400CCD0145DD
:102F90004101828039712E852C1006CE32D436D66E
:102FA0003AD83EDA42DC46DE2EC6EFF0207EF24012
:102FB000216182800CC98280084982809387F5FF55
:102FC0003E953355B5023305B50282803355B502BF
:102FD0003305B50282807D152E953355B502330534
:102FE000B5028280C94763EAA702B7970380938737
:102FF00087230A053E951C418287A1479CC1014554
:10300000828085479CC10145828091479CC10145D2
:10301000828089479CC10145828005458280C147E5
:103020009CC1014582802A870841011126CA3305C7
:10303000A740035805004AC806CE22CC91472E89E6
:10304000B28463F4070583574500054491CFBA97CE
:103050009443B697904309CA0A063E96D443910713
:103060003304D402E31CF6FE994763F9070583573E
:1030700065000145A1E36C00EFF0F02709CDF240B7
:103080006244D24442490561828001456C00054496
:10309000EFF070266DF53245A685A9376DF19C409D
:1030A000F240D2443384870223208900624442499B
:1030B000056182803E970305070075BF014565BF26
:1030C000ADC95C41854691CF03A80700635B000151
:1030D00091070147904305079107B386C602E31B9A
:1030E00007FF1C4549476362F704379703808A0747
:1030F00013074728BA979C438287A147B386F602F5
:10310000014594C182809147B386F602014594C17E
:1031100082808547B386F602014594C18280894743
:10312000B386F602014594C1828005458280C1477D
:10313000F1B7411106C6EFD0713F9C45397152D4A9
:1031400006DE22DC26DA4AD84ED656D22A8AC1C3F7
:10315000184651C7368994468442A1E894431C43DB
:103160002E8463C3D70032841C400325090063000A
:10317000F50883274A013797038037960380B79570
:103180000380528513074734930640091306862EA1
:10319000938505DF82970545F2506254D254425917
:1031A000B259225A925A216182805C493797038032
:1031B0001307C7329306100937960380B79503802B
:1031C0001306862E938505DF82970545F1B737975D
:1031D00003805C491307072D9306F008F1BF37976A
:1031E00003805C491307473193060009F1B78A85CC
:1031F00002C0CD3BA2854800EFD0AFAA92496358E8
:1032000030051C440245014791079043050791078B
:103210003305C502E39BE9FE832A8A03232CA90018
:103220002AC0EF40017CAA855285829A2324A900F6
:103230001C44130745009443910714C1944385042B
:10324000910714C31107E39B99FE0145B1B70245ED
:1032500083248A03232CA900EF40A178AA855285F4
:1032600082942324A9001844AA870145184398C3CF
:1032700025B748411C419C4782878280828008454F
:1032800041461C419C47828748411C419C4782879C
:1032900048411C41DC47828748411C41DC4B828706
:1032A00048411C419C4B8287084511469305000408
:1032B0001C419C4782878280411106C622C426C2D7
:1032C0004AC0A9C9985985472E84AA846304F70285
:1032D000C840A285232A04021C412322040023287B
:1032E0000402232404002244B24092440249DC47F1
:1032F0004101828703A94503630E090048418325E4
:1033000049001C41DC478297C840CA851C41DC4704
:1033100082977DBFEFD09121930540026F50013A13
:10332000A1456F50A139411122C406C62E8485C122
:103330001C4D89CB0845B2858A051C4111469C4726
:10334000829708C0B2402244014541018280EFD0FB
:10335000F11D83A80500397122DCB388154103D81B
:10336000080026DA4AD84ED652D456D25AD05ECE6B
:1033700006DE114A2E8BAA84B68BB2890144B94A63
:103380007D5963790A0583D74800A9C7DA9798431E
:10339000BA9798436378E406131524009107AA9717
:1033A0009843BA9798433387E7400356070063FF73
:1033B000CA000357E70019CBBA9783C7070099C71C
:1033C000638D0B005E951C41638927010504B109DB
:1033D000E36B0AFB8327000002906C004E85EFF040
:1033E0003FCE15E18844B24541461C419C47829737
:1033F00023A0A90005C583280B00B3081B4103D8EF
:103400000800E9B70145F2506254D2544259B2590A
:10341000225A925A025BF24B21618280B245379563
:10342000038013050536EFF040390545E9BF01116A
:1034300006CE22CC26CA4AC84EC652C456C259C26B
:10344000328A2A84AE8A8149A1441309C00235A870
:1034500083D78700B9C3D6978843AA97984363F167
:10346000E906139529009107AA9788433E95EFF046
:10347000C059B3052503084411461C419C47829757
:1034800005C12320AA008509210A83A70A00B38762
:10349000FA4003D70700E3EDE4FA83270000029027
:1034A0003795038013050539EFF020310545F240CB
:1034B0006244D2444249B249224A924A056182801A
:1034C0000145F5B7EFD091069C4101114AC8B38779
:1034D000F54003D807002E8906CE22CC26CA4EC658
:1034E00052C456C2A14563F0050D83D78700C5CFEE
:1034F000CA973A849843BA979C436376F408184174
:10350000B73700809387872A585BAA84B28A368AA5
:103510006310F70688441146930500041C419C473C
:103520008297AA8994408147228703A886034E8602
:10353000D286CA85268502981DED63810A020E0493
:10354000A29A83A74A0093161A00D2968A06BE96BC
:10355000D8429C4223A4E90023A2F900F24062442D
:10356000D2444249224A924A4E85B249056182803C
:103570000297AA8945BF379503801305C550EFF020
:10358000C0238149E1BFB796038037960380379502
:1035900003809386863C1306463D9305A00A1305D7
:1035A000054DEFD0217A8327000002901D715C4108
:1035B000D2C42E8A0C4DD6C2AA8A6800A2CCCAC830
:1035C000CEC686CEA6CADAC05EDE62DC66DA328994
:1035D000B68952C63EC802D6EF2090082A8419CD7B
:1035E000F64022856644D6444649B649264A964A5C
:1035F000064BF25B625CD25C256182804C00680005
:1036000002C2EF30602B2A8461FD130B4900A144F4
:103610001DA883D78700A1C3D2978C43AE97984348
:10362000637EE40203A70A00931524009107AE9776
:103630008C4303260B00185B9246BE955685029775
:10364000210B71E1050483270A00B307FA4003D771
:103650000700E3E0E4FC83270000029092454A86DD
:103660006800EF20B0222A8425FD03A5CA019145F8
:10367000EFF0DF942A864A87CE8681456800EF20E6
:10368000B0442A8431FD03A54A00C145E2491C41EA
:10369000524B9C5B8297AA8403A54A004146A685AB
:1036A0001C419C4782972A8A2DC183AC0A01B747E7
:1036B00000809387875203A70C00584F6319F704C3
:1036C000638C0910374C00805A89DA84FD5B130C37
:1036D0004C5229A00504E104638B890483C744018B
:1036E000F5DB8840C145EFF01F8F984883A70C0099
:1036F00063067703DC47638A8701D4449044AA8534
:103700006685829761D92A84E1BD0544D1BD66856D
:103710002686D285029783AC0A015DB7D4449044D3
:103720009C47AA856685829755D52A8455BD03A5F1
:103730004A0003AC0A0181441C41FD5BDC538297C3
:1037400093971900CE978E07AA893E9B834749011C
:1037500095C383270C0030005EC49C4FA68562850C
:1037600082972A84E31E05E6A247032749008504C1
:10377000CE971CC36109E31B2BFD6800EF20807E00
:1037800003A54A00D2851C41DC47829703A54A0065
:103790001C41DC4B82972A84E31405E403A54A000C
:1037A00083A5CA011C419C5382972A84E31A05E22F
:1037B00003A50A011C419C4B829783A50A0263F56D
:1037C000A50023A0AA02AA8503A54A0041461C41E0
:1037D0009C5782972A8429B503A54A001C41DC53D3
:1037E000829761BF9C4101114AC8B387F54003D855
:1037F00007002E8906CE22CC26CA4EC652C456C217
:10380000A14563F3050B83D78700D9CFCA973A84C4
:103810009843BA979C436379F406AA894841930573
:103820000004B28A1C411146368A9C47829703A73E
:103830000900AA842A860328870385472287D2861F
:10384000CA854E8502980DE9638E0A000E045694CF
:103850005C4093161A00D2968A06BE96D8429C42C5
:1038600098C4DCC0F24062444249B249224A924ABA
:103870002685D244056182803795038013058555DE
:10388000EFE0B0738144F9BFB796038037960380A9
:10389000379503809386863C1306463D9305A00A20
:1038A0001305054DEFD0014A83270000029018410F
:1038B000A14681473307E5400356070063F5C6007C
:1038C000035787001DEF984163F2E70491058A07CB
:1038D000AE9798439146BA9798433387E74003568B
:1038E000070063FEC60003574700014531C3BA977E
:1038F0009843BA9798430DCF1385470082800145BE
:1039000082803A951C419841E3E2E7FCB796038038
:10391000379603803795038041119386863C1306C2
:10392000C6599305A00A1305054D06C6EFD081417F
:1039300082805D7186C6A2C4A6C2CAC04EDE52DCB9
:1039400056DA5AD85ED662D466D26AD06ECE2AC60D
:103950006302061E2E8D930746003EC483270D008A
:1039600037DB0480A146B307FD4003D70700814B36
:10397000314A130B4B0A63F1E61883D68700638D37
:103980000616EA969C42BE969C4263F3FB189397F8
:103990002B009106BE969C421147B38AF60083A77E
:1039A0000A00B387FA4003D607006377C71483D7AA
:1039B000470063830714B246D6979843884611465A
:1039C000BA9703A907001C41131419009C474A9495
:1039D0000A04A28582972AC263030512AA8D814C2C
:1039E00091449949631D0902C5A8E2852285C13524
:1039F000184023A0AD003307E4400356070063F7E7
:103A0000C40C0355470079C12A940840850CB10DB8
:103A10002295EFF0A00923ACADFE630F990B03A72D
:103A20000A003387EA400356070063F7C40C0354C7
:103A3000470079C0569418403A94184063FCEC0C47
:103A400003270D0013952C0011042A943307ED4031
:103A5000084083550700014C2A946379BA00035744
:103A6000C70009C76A971043330CC700184023A04A
:103A70000D0023A20D003307E4408355070023A463
:103A80000D00014563F8B9000357670001C722978D
:103A90000305070093858D00EFF0E00539D53795D4
:103AA00003801305457DE685EFE030510545B640BE
:103AB000264496440649F259625AD25A425BB25B96
:103AC000225C925C025DF24D6161828023A26D01F5
:103AD000850CB10DE31599F5A2471247A146A10740
:103AE00023ACE7FE3EC483270D00850BB307FD40E2
:103AF00003D70700E3E3E6E8832700000290379549
:103B0000038013054569A285EFE0304B054545B7B5
:103B1000014571BFB79603803796038037950380C0
:103B20009386863C1306C66D9305A00A1305054DC2
:103B3000EFD04121EFD0811F797106D622D426D251
:103B40004AD04ECE52CC56CA5AC8638F0726AA8492
:103B50002E893E85B28981451306000436843E8A4B
:103B6000BA8AEFE02150144099470145B306D4408A
:103B700003D7060063F8E70083D7660081C7A297E2
:103B800003850700D285EFE010772A8B41E11440CE
:103B900039478147B306D44003D60600637AC7008D
:103BA00003D7E60011C7229783470700B337F00019
:103BB000D685A306FA022285DD39133715000507DD
:103BC0002322AA00232AEA00700093058A01228595
:103BD000EFF06FC52A8B1DE9184091463307E4408A
:103BE0008357070063FFF602035547001DC922955E
:103BF0001C413E95EFE0906B1840B1462324AA008B
:103C00003307E4408357070063E6F602B2502254BC
:103C100092540259F249624AD24A5A85424B45614E
:103C20008280B7D604809386460A2324DA00B14600
:103C3000E3FEF6FC8356C700F1DA36941C402146B9
:103C40003E941C40B307F44083D60700E370D6FCD3
:103C500003D7870045DF22970C432E970C43638ED2
:103C60000510A945E3F4D5FA83D7A700C5D3A297D9
:103C70009443B697944363820610DC435843232849
:103C8000FA001C402326EA00B307F44003D70700DC
:103C90006377E60E83D78700FDC3A2979843BA9750
:103CA00083AA07006387090E832709001146B145DF
:103CB0009C474A858297AA896300051083270900DB
:103CC00056858447EF30F151AA8511464A85829482
:103CD00023A2A900630C050E1C4021470145B30730
:103CE000F44083D607006378D70083D7870081C765
:103CF000A29788433E95EFE0905B03A7490023A07D
:103D0000A90003230400232057016359500D3303F6
:103D10006440035E0300A94763F3C7078358A30009
:103D20001107814733051401638B08041041835543
:103D300083002A9603280600B306B400A9C18C426A
:103D4000AE96944263800605630F0808544214C37C
:103D500085071107E39AFAFC414781476377C7015A
:103D60000357030119C33A941C4023A4F900854763
:103D70002328FA02232A3A0351BD014B41BD832770
:103D80000000029063F1D7069396370036965442AE
:103D90007DBF9C401146B1459C4726858297AA89E4
:103DA00001CD9C40568503A98700EF309143AA8539
:103DB00011462685029929BF379503801305457F53
:103DC000EFE0B01F054B99B5EFC0517637A50380E2
:103DD00013054582EFE0701E054B0DBD33036440B3
:103DE000035E030095BFB796038037A6038037951F
:103DF00003809386863C130646859305A00A130527
:103E0000054DEFC0317403A30500AE88214833830C
:103E10006840035E0300AA85CC4108456372C80D63
:103E200003588300630E080A4698B28E3E868327A5
:103E30000800411106C63E9883270800637FF704F7
:103E400011080A0742970328070091474297032861
:103E5000070033080741035F080063F0E709835751
:103E60004800A5CF3E971C433E971C4363F7F604DA
:103E700011078A06BA9603A80600B1470147C29601
:103E800063F9C7018357C30089C7BE9803A7080019
:103E90004697B240F687410145B1B7960380379601
:103EA0000380379503809386863C1306463D930531
:103EB000A00A1305054DEFC0F168B7960380379649
:103EC0000380379503809386863C1306C66D930561
:103ED000A00A1305054DEFC0F1668327000002908C
:103EE0008327000002901C41011122CCB307F5404A
:103EF00083D6070026CA4EC606CE4AC8232006002F
:103F000023220600232406001947AA843284AE899E
:103F100001456375D70083D7670099EF9305840047
:103F2000EFE0703D2A8915C1F2406244D244B249A3
:103F30004A85424905618280A6970385070093055B
:103F40008400EFE0503B2A8965F1CE8526858532D5
:103F50009C40114708C0B387F44083D607006373C1
:103F6000D70203D5470019CDAA9488402695EFE0E3
:103F7000F03348C0F2406244D244B2494A854249D3
:103F800005618280B7D704809387470AF2405CC0FE
:103F90006244D244B2494A85424905618280411156
:103FA00026C29145AA841305400206C622C44AC00F
:103FB000EFF06F822A89914513054002EFF0AF813F
:103FC0002A8491452145EFF00F81AA874A949145B3
:103FD00021453E94EFF02F802A9481C8B24022857B
:103FE0002244924402494101828091451305C00256
:103FF000EFE07FFE2A94B240228522449244024997
:1040000041018280B7A703809387C7A71CC14CC119
:1040100091C191050CC510C9230A0500232C050088
:10402000232E0500232005028280B7A703809387F3
:10403000C7A71CC150C10CC514C9230A0500232CF5
:104040000500232E0500232005028280411122C491
:104050004AC02A842E89C14526C206C6B2844A9423
:10406000EFE0DFF5B305A440EF00012629C1A1C0B0
:104070001C41114693054002DC5B2A848297B240C2
:104080009306440040C137A7038022441307C7A703
:1040900004C918C114C5230A0500232C0500232ECA
:1040A0000500232005029244024941018280EFC0AD
:1040B000F147411122C426C22A84AE84C14506C6F6
:1040C0002694EFE0BFEFB305A440EF00E11F1C41D1
:1040D00011469305C002DC5B2A848297AA84EFE034
:1040E00030609DCC1C4022851146DC5B930540026C
:1040F0008297B2409306440040C137A70380224410
:104100001307C7A704C918C114C5230A0500232C27
:104110000500232E050023200502924441018280E0
:10412000EFC0D140411106C622C426C229C1AE84C7
:104130009DCD1C41114693054002DC5B2A84829789
:10414000B2409306440040C137A7038022441307BE
:10415000C7A704C918C114C5230A0500232C0500EC
:10416000232E050023200502924441018280EFC0E6
:10417000F13B797122D406D626D24AD04ECE2A847B
:1041800069C1B2845DCE630EC50A2E852295C145F4
:10419000B689EFE0BFE333068540A2850A85EF00CC
:1041A00001261146C1450A85EF0061213247A2462A
:1041B0001246B7C703802A84938707FF58C414C4E4
:1041C0000A851CC050C0EF00611E1C4011469305BB
:1041D00000029C47228582972A89C1452685EFE007
:1041E000FFDD33863401AA85098E4A85EFF030441D
:1041F0001C4011469305C0029C4722858297AA84E1
:10420000EFE0104E1C40228511469C47930540026A
:104210008297B25000C537A7038022541307C7A75F
:104220002322250104C918C1230A0500232C0500F7
:10423000232E05002320050292540259F2494561BC
:104240008280EFC0B12E2A840A85EF0021162285D4
:10425000EF20D357411106C622C426C24AC0F9C571
:10426000834745012A84C5E70845054711461C4197
:104270002E89230AE4009C47A1458297AA874840DB
:10428000104437A703801441130787AC9305000936
:10429000944ED0C398C35CC4232C0400114682966C
:1042A00048CC31CD832709002147B307F94083D695
:1042B0000700637FD70683D78700BDCB0844CA9722
:1042C000944318411146B6978C431C478E0582973C
:1042D000AA8431C51C402A86CA85DC57228582976C
:1042E00019ED1C402686CA859C572285829701E9D4
:1042F000B240224402492685924441018280B24064
:10430000224481440249268592444101828037A596
:1043100003801305C592EFE0404A8144D1BF37A521
:10432000038013054598EFE04049D9B7EFC011204D
:1043300083270000029083474501011106CE22CC5D
:1043400026CA4AC84EC6B9CF1841B684B7370080CE
:104350003443938767322E892A840C4DB289639C3B
:10436000F602B9CC95CD084511468A051C419C47FB
:1043700082971840AA8688C05C5F4E86CA852285CF
:10438000829719E1230A0400F2406244D244424970
:10439000B249056182802E86A685829675F5184001
:1043A0009440D9BF37A503801305459BEFE0E0405B
:1043B000F2406244D2444249B249054505618280D7
:1043C000EFC0D116011122CC2A84484D4EC6AE89C9
:1043D000914526CA4AC8B68406CE3289EFE01FBE90
:1043E000144C2A87A5C693981600B6988A08AA98EE
:1043F00001485C433107850793B717003E98E39A5D
:10440000E8FEAD47468763E40703FD5723203701E5
:104410005CC32324270194C01C4CF240D24485077E
:104420001CCC62444249B24901450561828037A5EE
:104430000380130505A0B145EFE02038F240624447
:10444000D2444249B249054505618280814675BF23
:104450001C41411122C4D84BB737008026C206C682
:10446000938787292A84AE84631CF70448411C4142
:10447000DC4B829711C5B2402244924441018280B4
:10448000484C9145EFE09FB3184CAA8705CF13160F
:1044900017003A960A063295FD56D8436313D700A3
:1044A000C4C3B107E39BA7FE1306060948404C4C62
:1044B00022441C41B2409244DC4F91464101828724
:1044C00002974DBF13060009D5B7411122C42A84B3
:1044D000484106C61C41DC5782971C442A849843F5
:1044E0003E855C478297B2402295224441018280FA
:1044F000411122C42A84484106C6232C04001C41D1
:104500001146930500099C4F829748CCB240224443
:104510001335150041018280484D91456FE01FAA77
:104520004845828005458280014582801971E2CC30
:1045300086DEA2DCA6DACAD8CED6D2D4D6D2DAD0DB
:10454000DECEE6CAEAC8EEC6834706002A8C63843C
:104550000758938CF5FF6350905937D70480832A0E
:1045600047FE37AD0380370A80003289AE89B68DA9
:104570000144130D4DB27D1A37AB0380B7AB0380F6
:1045800013075002A285B3048C0013061900638040
:10459000E7042380F400050483471900B3048C006A
:1045A000328999C3E34E94FD050423800400F6503C
:1045B00022856654D6544659B659265A965A065BF1
:1045C000F64B664CD64C464DB64D0961828083470A
:1045D0001900638FE7421387D7F91377F70FD54692
:1045E00063E6E6000A076A9718430287328955BFD7
:1045F00033878C40A5469307140063D5E64E130716
:1046000000032380E400E297130780070904238056
:10461000E700B3068C0003A70D00B687910DA548EF
:104620003D4819A0B2872E871375F70093057505CD
:1046300063E4A800930505032380B70013861700E1
:1046400093554700E360E8FE23000600368763FECB
:10465000F60003C5070083450700FD170507A30FF4
:10466000A7FEA380B700E366F7FE158E329483475A
:104670002900B3048C0009092DB7B3878C40294762
:10468000635FF74203A70D00A686910DA945254853
:104690003376B702B68785063A8513060603A38FDD
:1046A000C6FE3357B702E365A8FE238006002687BF
:1046B00063FEF40083C5070003460700FD170507E6
:1046C000A30FB7FEA380C700E366F7FE858E36947E
:1046D00083472900B3048C000909E1B503A50D0047
:1046E000910D635994031386E9FF018E93571600C9
:1046F0001306140026873E9639A02300F700050410
:1047000005076300C432B307B440AA9783C7070004
:10471000BA84E5F783472900090961B533858C40E0
:10472000EFF0927AD685EFF0E265634A05389D0D89
:1047300093FD8DFF83A54D0003A50D00A10DEF0096
:104740002344AA8711462C0068003EC4EFD0C16DF7
:10475000324726839307E002135877011378F80F46
:10476000130618F8B3764701635807009307D00281
:104770002380F400138314002300030013070008B0
:104780006307E62A930710039388F40213072300B4
:104790002300F3009307E002A300F30023010300CA
:1047A000338EE8409D4763DDC72593D5660193D7D7
:1047B0005601AE97B69793D54601AE9793D536017D
:1047C000AE9793D52601AE9793D51601AE9793D5A4
:1047D000E600AE9793D5D600AE9793D5B600AE97C8
:1047E00093D5860013D54600AE97AA97930500038C
:1047F0008D820808A301B3002302B300A302B30013
:104800002303B300A303B3002304B300B697AA8520
:10481000294FA542B3F6E703AE8E8505BE8F93867A
:104820000603A38FD5FEB3D7E703E3E5F2FF2380AA
:104830000500AA87637ED50183C50E0083C60700E5
:10484000FD1E8507A38FB7FEA380DE00E3E6D7FF3A
:10485000834601017D1E3A9E638706266375C7273E
:10486000BA87AA8519A06309FE0085052380D700B1
:1048700083C605008507E5FA13030003B386E74006
:104880009D4523806700338ED5406396D5209305E0
:10489000000331A09386F7FF6377D700B68783C6FE
:1048A000F7FFE389B6FE1383F8FF63F96722130766
:1048B000A0022380E700850793051BB2930620031F
:1048C000630DF30085052380D70083C60500138799
:1048D0001700DDC2BA87E317F3FE1383F8FF3E87A4
:1048E00045A0B3878C402947635BF71C03A60D00E6
:1048F0002687910D635A06009307D0021387140090
:104900002380F4003306C040BA862945A548B37514
:10491000A602B6878506328893850503A38FB6FE67
:104920003356A602E3E508FF23800600E370F7DABA
:1049300083C5070003460700FD170507A30FB7FE51
:10494000A380C700E366F7FE858E3694834729006F
:10495000B3048C000909B1B1B3878C400504E35658
:10496000F0C483A70D000909910D2380F40083474B
:104970000900B3048C0035B1B388E84033831701D4
:1049800023000700AA86635C06009307D002130683
:10499000F0072308F100330606419306110136881B
:1049A000A948A54EB3751603C2870508328E9385B4
:1049B0000503A30FB8FE33561603E3E5CEFF23002D
:1049C000080063FEF60083C5070003C60600FD1756
:1049D0008506A38FB6FEA380C700E3E6F6FE8347F5
:1049E000010189CF6365670011A8630967000505A8
:1049F0002300F700834705000507E5FB23000700B8
:104A0000058F3A9483472900B3048C00090951BEED
:104A10002380F400050483472900B3048C000909AE
:104A200049B683472900B3048C0009099DBE9A97B3
:104A30009DEA637DF30A13079004B7A60380230061
:104A4000E300938696B1130713001306E006E3070D
:104A5000F7FA85062300C70003C60600050765FAB6
:104A60002300070071BF6373F3081307E0042300FA
:104A7000E3001386DBB11307130093061006E30F60
:104A8000F7F605062300D700834606000507E5FA7A
:104A900023000700B5B7635FD004B386D740930EF9
:104AA000000303C3F7FFFD17B385C701238065002B
:104AB0002380D701E397F6FE93877600C9BB0504F0
:104AC00023800400EDB493070003BA862301F300AA
:104AD000938776006DBBE2840544C1BC2380070048
:104AE0003E8779BD238004003E84D1B41A87230019
:104AF000070039B7BE869387760051BB397113031F
:104B0000C10236D69A8606CE3AD83EDA42DC46DE76
:104B10001AC6293CF2402161828082801C45A14650
:104B200098433387E7400356070063FAC6000357EC
:104B3000870011C7BA979843BA9788438280832722
:104B400000000290930500026F3051375C4D79717F
:104B50005EC69C4362C406D622D426D24AD04ECE2C
:104B600052CC56CA5AC8832B45012A8CADC3014B7F
:104B7000930A000203258C00232A6C01DA85EFD00A
:104B8000506BAA891DCD131A3B000149814429A805
:104B90004C489C43850489C703254C00829708C86C
:104BA0001309C902638F990083270C010146D2972C
:104BB00080434A941C54D84BE31C57FD0C4C504C7A
:104BC000C9BF8327CC01050B9C43E365FBFAB250B8
:104BD0002254232A7C0192540259F249624AD24A51
:104BE000424BB24B224C0145456182805C4D011124
:104BF0004AC89C4356C206CE22CC26CA4EC652C4D0
:104C00005AC0832A45012A89B9C7014A0325890068
:104C1000232A4901D285EFD0D061AA891DC5131B73
:104C20003A0081440144832709010504DA979C4333
:104C3000A69798579384C40219C7584309C78C4B49
:104C4000032549000297E39089FE8327C901050ADD
:104C50009C43E36DFAFAF2406244232A5901D2449C
:104C60004249B249224A924A024B0145056182807B
:104C70005C4D797152CC9C4356CA5AC806D622D490
:104C800026D24AD04ECE5EC6832A45012A8B014ADF
:104C9000A1CF03258B00232A4B01D285EFD0705979
:104CA0002A8993193A00814401440DC983270B01D5
:104CB000CE978C43A69583AB85029384C40283A7C9
:104CC0008B0089C703254B0082971DE10325CB008C
:104CD000A2850504EFF0CFF7E31A89FC8327CB0107
:104CE000050A9C43E367FAFA232A5B0101451DA8E4
:104CF00083A74B01130700026386E7041307100A1A
:104D0000636DF70237A703808A071307074DBA9729
:104D10008C43AA8637A503801305C5B72286EFD03A
:104D2000D0290545B250225492540259F249624AA0
:104D3000D24A424BB24B45618280B7C5038093850E
:104D4000C50DC1BF83A58B01E9B75C4D5D71CAC0BC
:104D500090435C4986C6A2C4A6C24EDE52DC56DA37
:104D60005AD85ED662D466D26AD06ECE3EC64CC9E0
:104D70002A8963FCC50E0845AE8BEFD0904B2A8C78
:104D8000630D050EB7A70380B7CD03809387074D4A
:104D90008E0B814A014B930C0002938DCD0D3EC4C6
:104DA000054D85A01307100AEE856366F7002247BC
:104DB0008A07BA978C43832749008149C05B11C495
:104DC0001C4022859C478297AA898327CA00E1CF8D
:104DD00003254900A68582978327C900AA849843A2
:104DE0003E855C4B8297638CA403B1E811C41C40E0
:104DF000CE852285DC478297050B938ACA02630E13
:104E00006C0783270901DE978443D69403AA8402A2
:104E100083274A01E39897F983258A0169BF83278D
:104E20004A0113070002639FE70483258A0137A51F
:104E3000038085465A86130585BEEFD0101811C42D
:104E40001C40CE852285DC478297B6402644064921
:104E5000F259625AD25A425BB25B225C925C025DAA
:104E6000F24D268596446161828037A50380130543
:104E700045BBEFD090148544C9BFB2478144232A73
:104E8000F900E1B71307100A6377F700B7C503808D
:104E90009385C50D69BF37A703808A071307074DA0
:104EA000BA978C4369B7EFB07168AA8411C41C40EB
:104EB000CE852285DC4782972685EF2023111C456D
:104EC000A14698433387E7400358070063F6060B73
:104ED0000357870055C3BA979843411106C6BA973E
:104EE000984363F8E504139725009107BA97984310
:104EF0009946BA9798433387E7400358070063FA07
:104F000006070357670035C7BA979843BA9798437F
:104F10006371E6040A061849B297D4438E05BA9520
:104F2000DC41B2401395160036950A053E954101C5
:104F30008280B796038037960380379503809386E7
:104F4000863C1306463D9305A00A1305054DEFB0B8
:104F5000715FB796038037A60380379503809386E9
:104F6000863C1306C6C19305A00A1305054DEFB094
:104F7000715D8327000002908327000002905C4D42
:104F80005D71CAC098434EDE66D26ECE86C6A2C49C
:104F9000A6C252DC56DA5AD85ED662D46AD0AA8D3E
:104FA0000149B94C994975C3138D470093172900DE
:104FB0003E9D83270D00114C931439003E9D03261E
:104FC0000D00814B254A3306CD4083560600B14A79
:104FD0006372DC040354460015CC6A941C403E9472
:104FE0001C4063FEFB0893972B0011043E941C4069
:104FF0003E941C40B307F44003D7070063F9EC006C
:1050000083D7E70089C7A29783C7070099E7850B75
:10501000E362DCFC83270000029083A70D01139755
:105020001B005E97A697C843131B27006C005A9578
:10503000EFE00F892DE11C40B307F44083D6070051
:1050400063FDD90203D667000DCA22960306060047
:1050500081456301460783A70D013246850BA6975C
:10506000DC43338767010843EFC0D17F03260D007F
:105070003306CD408356060061BF8145E9BF83A753
:10508000CD0105099843E361E9F203A58D0101C54E
:10509000EFE0D0100145B640264496440649F25947
:1050A000625AD25A425BB25B225C925C025DF24D64
:1050B00061618280E3F0DAF683D7C700A1DFA297AF
:1050C00094432947B6979443B386D74003D6060046
:1050D000E372C7F483D6A600B6978DDE9443B697E5
:1050E000944399C2CC4385BFB796038037A603800B
:1050F000379503809386863C130646859305A00A60
:105100001305054DEFB011441C45A1469843338764
:10511000E7400356070063F5C606035787002DC313
:10512000BA979843BA97984363F7E50291078A05BF
:10513000AE9798439946BA9798433387E74003560A
:10514000070063FCC6020357670005CBBA97984374
:10515000BA9788438280B796038037960380379545
:10516000038041119386863C1306463D9305A00AB1
:105170001305054D06C6EFB0F13C832700000290F1
:105180008327000002901C45A14698433387E740DF
:105190000356070063F4C6060357870025C3BA9772
:1051A0009843BA97984363F6E50291078A05AE974C
:1051B0009843BA9798433387E7400356070063FC48
:1051C000C6020357870005CBBA979843BA9788431E
:1051D0008280B7960380379603803795038041110C
:1051E0009386863C1306463D9305A00A1305054D9C
:1051F00006C6EFB0313583270000029083270000F8
:1052000002901C45A14698433387E74003580700A6
:1052100063F5060B035787004DC3BA9798434111B6
:1052200006C6BA97984363F7E504139725009107DC
:10523000BA979843BA9798433387E74003580700D3
:1052400063FA06070357870035C7BA979843BA979A
:1052500098436371E6040A061849B297D4438E0551
:10526000BA95DC41B2401395160036950A053E9575
:1052700041018280B796038037960380379503807B
:105280009386863C1306463D9305A00A1305054DFB
:10529000EFB0512BB796038037A603803795038074
:1052A0009386863C1306C6C19305A00A1305054DD7
:1052B000EFB051298327000002908327000002905D
:1052C000B7A703809387074A1CC14CC110C554C5BA
:1052D00023280500232A050018CD0DC21C42A14633
:1052E0000147B307F64083D5070063F8B60083D7BC
:1052F000870081C73E961842329758CD82800CC9EC
:10530000828041114AC01309C50922C426C22A84D9
:10531000AE844A85814506C6EFD0DFC9B737008025
:10532000938747F95CCCB76700809387E7E13CCC73
:10533000B7670080938767E27CCCB767008093876C
:10534000E7E03CC4B76700809387E7E21CD8B76703
:105350000080938767E03CC0B7670080938767E170
:10536000232A240144DCB2407CC4232604082244BE
:1053700092440249410182801C4121469443B386F4
:10538000D74003D806006374060983D68600C1C2DD
:10539000B6979443411106C6B6979443B1C6D44319
:1053A00091071946B6979443B386D74003D80600B1
:1053B000637C060583D66600A1CAB69794432E8700
:1053C000B697904363FAC500832545090A072E97CF
:1053D0000843B2404101828037A503801305C5759B
:1053E000EFD0A03D0145F5B7B7960380379603800F
:1053F000379503809386863C1306463D9305A00AA5
:105400001305054DEFB01114832700000290832788
:10541000000002901C4121469443B386D74003D834
:1054200006006373060983D68600BDCEB697944303
:10543000411106C6B6979443A9C6D4439107B697BF
:105440009443B386D74003D80600637C060583D611
:105450008600A1CAB69794432E87B697904363FA05
:10546000C500832585090A072E970843B2404101EC
:10547000828037A5038013058578EFD0003401457D
:10548000F5B7B796038037960380379503809386E8
:10549000863C1306463D9305A00A1305054DEFB063
:1054A000710A8327000002908327000002901305F1
:1054B000C5096FD0DFAA011106CE22CC26CA4AC880
:1054C0004EC652C456C25AC0AE84130B8500B28574
:1054D0002A841306C00504C14CC181455A85368A09
:1054E000BE89BA8A4289EFC0F137D6855285EFE08E
:1054F0005FBCAA86130A84062686DA85528574D094
:105500004E87EFF0FFDB10406C509304C4098547D1
:10551000230404082326F40823280408232A040863
:10552000232C0408D2862685EFD01FA0814526852E
:10553000EFD05FA8B7370080938747F95CCCB76797
:1055400000809387E7E13CCCB7670080938767E2F0
:105550007CCCB76700809387E7E03CC4B7670080E6
:105560009387E7E21CD8B7670080938767E03CC069
:10557000B7670080938767E144C8232E2403F24075
:105580007CC4232604086244D2444249B249224AD8
:10559000924A024B056182802A8429A02A842685AA
:1055A000EFD0AFFF5285EFF04FD72285EF101322D7
:1055B000011122CC2A8406CE26CA4AC84EC652C43D
:1055C00056C22E893285130884001306C005814512
:1055D00048C0232024014285B684BE893A8A930AB2
:1055E0008406EFC03128A686AA854A86568564D0EF
:1055F0005287EFF0FFCC10406C509304C4098547EC
:10560000230404082326F40823280408232A040872
:10561000232C0408D6862685EFD01F918145268548
:10562000EFD05F99B7370080938747F95CCCB767B5
:1056300000809387E7E13CCCB7670080938767E2FF
:105640007CCCB76700809387E7E03CC4B7670080F5
:105650009387E7E21CD8B7670080938767E03CC078
:10566000B7670080938767E144C8232E3403F24074
:105670007CC4232604086244D2444249B249224AE7
:10568000924A056182802A8429A02A842685EFD047
:10569000CFF05685EFF06FC82285EF1033133C5DD5
:1056A000411122C426C206C62A849304850681C7F6
:1056B0002685EFF0AFD31305C409EFD00FEE2244D7
:1056C000B2402685924441016FF02FC51D719307AA
:1056D00085066AD886CE2A8DA2CCA6CACAC8CEC6EE
:1056E000D2C4D6C2DAC05EDE62DC66DA6ED63EC6F0
:1056F00002C23E85EFF08FC212466355A630832961
:105700000D00A14703A709003387E940835607002E
:1057100063FED71483578700638A0714CE978043AC
:105720003E941C406370F62C9317260011043E949F
:10573000144083576700369463840724BE9983A777
:105740000900BE9903254D06EFE09FDDAA8722855B
:105750003EC4EFD0802B2A8B630F051C92478144F7
:105760000149139A3700938749003EC01C40A9465F
:10577000B307F44003D7070063FAE60E83D7A70008
:10578000F5C7A2979843BA9798436378E92A131507
:1057900029009107AA978843814DB38CA70003A7DE
:1057A0000C0091473387EC400356070063F8C700AD
:1057B0000357470001C76697832D070003A7090019
:1057C00063F5ED1C03268D07824713972D00529633
:1057D0003E97832A0700104283254D00BA9A2696E9
:1057E000130686025685EFD0F064AA8B6318051A5B
:1057F00003278D0752971843269710576302061CFC
:1058000003A70C00832A460102CE3387EC4093079E
:105810000002835607006385FA12B94763FBD70479
:105820000357E70039C79307100A63E65715B7A770
:1058300003808A0A9387074DBE9A83A50A0037B56D
:10584000038013050593EFC05077854BF6406644FF
:10585000D6444649B649264A964A064B625CD25C13
:10586000425DB25D5E85F25B256182808327000028
:10587000029003254D00D68518411847029763050D
:10588000051822467408E685EFD00029AA8B5DFD35
:1058900003A70C003387EC40835607009947814BE0
:1058A000814A014563ECD70AEFD0402003A70C00E2
:1058B000A1462A8C3387EC4083550700014563F9E4
:1058C000B6000357870009C73385EC0018413A95A5
:1058D000EFD0C01D03278D0783A60C00F248529716
:1058E0001843B386DC4083D50600B30D970023A48C
:1058F0000D0023A60D0023A80D0023A00D0223A256
:105900000D0223A08D0123A2AD0023AA1D0123AC0B
:105910005D0123AE7D015146637AB60003D5460191
:1059200011C566951C413E951C41A9E30509938468
:10593000C402E31D2BE39247324585073EC25DBB9F
:10594000B947E3FDD7F4835AE700638D0A02E69A6C
:1059500083A60A00B69A83AB0A00910A0357670030
:10596000014539D3669708433A953DBFEFD00014FF
:1059700023A4AD0065BFB7C503809385C50DC1B530
:105980008149C9B3814B814AD1BF37B50380EE85C8
:105990001305058BEFC07062854B4DBD5685EFA09A
:1059A000FFA99307100A63F6A702B7C50380938582
:1059B000C50D37B503801305C58DEFC0106079B5EF
:1059C00037B50380EE851305C590EFC0105F854B9A
:1059D000B5BD37A70380931725001307074DBA9766
:1059E0008C43C1BFB79603803796038037950380F9
:1059F0009386863C1306463D9305A00A1305054D84
:105A0000EFB04134814B99B59307100A63E2570315
:105A100037A7038093972A001307074DBA978C4343
:105A200037B5038013058597EFC03059854B39BDD5
:105A3000B7C503809385C50DE5B7B796038037A634
:105A40000380379503809386863C1306467B930537
:105A5000A00A1305054DEFB0E12E411122C4130435
:105A60008506228506C6EFF06F9809C5B24022442C
:105A70004101828022852244B24041016FF02FD043
:105A8000797122D40C412A84685106D626D24AD094
:105A90004ECE52CC56CA5AC85EC662C4EFE08FFBE7
:105AA000630A051613098406AA854A85EFF03F8527
:105AB00022852939AA8411CDB25022540259F249C3
:105AC000624AD24A424BB24B224C268592544561DF
:105AD00082809309C40981454E85EFD0AFCD4A85B8
