:0200000480007A
:10000000172108001301019FEF00400E6F00000050
:040010006780000005
:10001400130101FF1305400023261100EF80D25D78
:1000240097E705009387C7E82320F50017460200E9
:100034001306868197E50500938545E6EF20C26A9D
:10004400130101FE2326A10013058000232C810047
:10005400232E1100232A9100EF80125A8325C10018
:1000640013040500EF904211179602001306860749
:1000740097F505009385456813050400EF20C266D3
:100084009304050013050400EF80925C13850400BB
:10009400EF00C446130101FE2326A10013058000CE
:1000A400232C8100232E1100232A9100EF80D254A7
:1000B4008325C10013040500EF90821117960200F6
:1000C4001306C60597F50500938505651305040019
:1000D400EF2082619304050013050400EF8052575A
:1000E40013850400EF008441B767048083C6978FAB
:1000F400130101DD03C6878F03C7A78F2324812241
:1001040003C4B78F93968600B3E6C600131707019E
:100114003367D700131484013364E4009387878F13
:100124003304F4008327040023261122232291227E
:10013400B307F44083D6070023202123232E312143
:100144003703F0FF1307400033016100637AD728B7
:1001540083D7470063860728B307F40083A5070005
:10016400930730006390F528B7E70580938707C4A9
:10017400130501212322F10CB70910002324011CCB
:1001840023260120EFA000663709F0FF9387092199
:10019400B3872700930449EBB3849700B7C6018063
:1001A400938606A31306012193050000138504001A
:1001B400EF10C22C13050121EFE0507CB7C601807B
:1001C4009386062D13060121930530001385040040
:1001D400EF10C22A13050121EF508179B7D60180AF
:1001E4009386C67F1306012193053001138504000D
:1001F400EF10C22813050121EF700159B7C6018021
:10020400938646F3130601219305500213850400D7
:10021400EF10C22613050121EF90504AB7E6018082
:100224009386C6801306012193056001138504009B
:10023400EF10C22413050121EF301177B7D60180E6
:100244009386465313060121930510001385040079
:10025400EF10C22213050121EF20C13FB7D6018060
:100264009386469D1306012193059000138504008F
:10027400EF10C22013050121EF30917BB7E6018016
:10028400938646D913060121930590011385040032
:10029400EF10C21E93870921B38727001309C9DF12
:1002A4003389270113050900130800009307000090
:1002B40037071000930601211386040093050400F8
:1002C400EF70900513050900EF8080069305000088
:1002D40013050900EF708068930405006308051492
:1002E4008327850037E50580130505B283A507003C
:1002F400EF80D11D83A7840003A707006358E002A1
:100304001304000037E9058013172400B387E700BE
:1003140083A54700130589B3EF80511B83A784008D
:100324001304140003A70700E340E4FE03A704003A
:10033400930710006306F70EB7E50580938585AA39
:1003440037E505801305C5B3EF80511837E50580FF
:1003540093051000130545B5EF80511703A78401D9
:1003640093070000630E070003A744003307F70058
:100374002300070003A7840193871700E3E6E7FE41
:1003840037E5058093051000130505B8EF801114B7
:10039400B70710003705F0FF938707211305C5DF62
:1003A400B38727003385A700EF800045630805085D
:1003B40037E50580130585B9EF8051111304F0FF6B
:1003C400B70710003705F0FF93870721B38727008D
:1003D4001305C5DF3385A700EF7090206F00C001BF
:1003E4009305000037E5058013063000130505ABBF
:1003F400EF80D10D1304F0FF3703100033016100C7
:100404008320C12213050400832441220324812272
:10041400032901228329C1211301012367800000DC
:10042400B7E50580938505AA6FF09FF137E5058050
:10043400130585AFEF8091096FF05FF8B7071000DF
:100444003705F0FF938707211305C5DFB38727001E
:10045400930500003385A700EF70005E37E5058043
:1004640093051000130585BAEF80510637E5058022
:10047400130545BCEF809105130400006FF05FF491
:10048400B707100013040500938707213705F0FF11
:10049400B38727001305C5DF3385A700EF70501419
:1004A40013050400EF008405130101FF23248100D8
:1004B400371400001304049423229100130504004C
:1004C400971406009384C4452326110023A68400B0
:1004D400EFA0C25523A4A4006314050297170600D5
:1004E40023A607449717060023AE07428320C100C2
:1004F400032481008324410013010101678000006B
:1005040023A2A40023208500232205006FF01FFEF0
:1005140063000506832705009306A000B307F54092
:1005240003D7070063FEE60203D7A7009306000083
:10053400630607003307E5008326070003D7470057
:1005440093070000630607003305E50083070500F1
:100554001385070063DCD70013850600678000005D
:100564009306400063ECE60013050000678000007A
:10057400130101FF23261100EF90524E9306000051
:100584006FF0DFFB630E05008327050203050500FA
:100594006344F5006780000013850700678000004E
:1005A400130101FF23261100EF90524B130101FFA9
:1005B400232481002326110013040500638E050201
:1005C40083A585009307600003A605009385450075
:1005D4002320C50063CEC702131626001305450069
:1005E400EFA092578320C100130504000324810067
:1005F40013010101678000008320C100232005004E
:100604001305040003248100130101016780000025
:10061400EF90D2449387050003A6470083A5050005
:10062400130101FF232611003306B64093572640D9
:10063400232481002320F5009307800163C2C702AD
:100644001304050013054500EFA012518320C100D7
:1006540013050400032481001301010167800000D5
:10066400EF90D23F130101FE232C8100232A910035
:10067400138406009304060093060000130600008A
:100684002328210123263101232E1100930905007B
:1006940013890500EF8083486314050223A0040036
:1006A4008320C10123200400032481018324410108
:1006B400032901018329C10013010102678000009D
:1006C400130604001385090093050900EF9002083E
:1006D400B717068003A6871183A6C711EF80436965
:1006E400EF90821AEF90C3566340B006638A050404
:1006F4003707008083270400630AE502130710FE0E
:1007040063D6E70023200400130500008320C10101
:100714000324810123A0A4000329010183244101AE
:100724008329C1001301010267800000E39805FCDE
:10073400938717002320F400370500406FF01FFC57
:10074400B7070080E3F6A7FAEF905231130101FED8
:10075400B7170680232C8100232631011384060059
:100764009309060083A6471203A60712232A9100C1
:1007740023282101232E1100130905009384050069
:10078400EF8083426356A008130509009385040093
:100794001306000093060000EF804338631405023B
:1007A40023A00900232004008320C1010324810124
:1007B40083244101032901018329C100130101029A
:1007C40067800000130604001305090093850400E4
:1007D400EF80D277B717068003A6871183A6C711C7
:1007E400EF800359EF90420AEF9083466342B002D0
:1007F400638E05043707008083270400630EE50237
:10080400130710FE63C8E70023A0A900E3DE07F87E
:10081400EF90D224232004008320C101032481010A
:1008240023A0090083244101032901018329C10074
:100834001301010267800000E39405FC938717000D
:100844002320F400370500406FF09FFBB7070080BA
:10085400E3F2A7FA6FF0DFFB130101FDB71706807F
:1008640023202103232E3101138906009309060056
:1008740083A6471203A6071223248102232291028E
:10088400232611029304050013840500EF8003401E
:10089400635805081385040093050400130600003B
:1008A40093060000EF804330635CA0061306C1008A
:1008B4001385040093050400EF805269B71706807E
:1008C40003A6871183A6C711EF80834AEF80D27BEA
:1008D400EF9003386346B004638005063707008051
:1008E4008327C1006300E504130710FE63D6E70203
:1008F40023A00900930700008320C102032481027E
:100904002320F90083244102032901028329C10120
:10091400130101036780000023A0A900E35EF0FC3B
:10092400EF90D213E39205FC938717002326F1007E
:10093400370500406FF05FFBB7070080E3F0A7FACC
:100944006FF01FFEB707008093C7F7FF33F7B700B8
:100954003367A700138805006302070813D745010E
:100964001377F77F9306F07F6304D704930627C0B9
:100974009395A50093576501370700401315A5000B
:10098400B3E7F5002320D6009305F7FF1355A50020
:10099400B7062000B3F7B70063EAA6043385E7007F
:1009A400B337F50093850700634C080467800000A3
:1009B4009395C5003707C0FF3375A70093D5C500CD
:1009C4002320F600B365B50063960504634A080462
:1009D4001305F0FF938507006780000023200600BD
:1009E400130500009305000067800000130517003D
:1009F4003385A700B337F50093850700E35808FA59
:100A0400B337A000B305B040B385F5403305A0402B
:100A14006780000013050000930500006780000054
:100A240013050000B705008067800000B70600804A
:100A340093C6F6FFB367B500630CD6101308000025
:100A440093080000638E070A93D6F54133C5A600C8
:100A54003308D540B3C7B60033350501B387D74053
:100A64001306F6FFB387A7401357F6411305080092
:100A74006346F00A638C0708B70800401358F50171
:100A84009397170093361600B367F80013151500F3
:100A94003307D7401306F6FF6346F000E39007FEE2
:100AA400E36E15FDB70600C0B306D50033B5A60046
:100AB4009387F7FFB307F5006350E00E1306F03F8A
:100AC400130700001305F0FF6348A70A6302A70A8F
:100AD40013D7A6001306F63F93976701B367F70091
:100AE4001316460137070080B3F5E500B367F60037
:100AF40093966601B3E7B70013880600938807004E
:100B0400130508009385080067800000B7060040BD
:100B1400E364D8F6B7060080E3F606F937030080ED
:100B2400930616009398F70133B8C60013551500C1
:100B340093D7174033E5A800138606003307E8006F
:100B4400E340F0FEE39007F6E36CA3FC6FF09FF53F
:100B540063880702635AB004B717068003A8871393
:100B640083A8C71313050800938508006780000055
:100B7400130710C0E37EE6F4130610C06FF05FF5B0
:100B8400B717068003A8071383A8471313050800A3
:100B94009385080067800000E31607F21305F03F11
:100BA400E372C5F26FF09FF163940500E31605FA52
:100BB400B717068003A8871283A8C7126FF05FF4E3
:100BC400B707008093C7F7FF33F7B7003367A70071
:100BD400938E05009388060033FED7006300071246
:100BE40013D745011377F77F1308F07F630A070DC6
:100BF4009395A50093576501370300401315A5008D
:100C0400B3E7F5001308F3FF1355A500B70520005B
:100C1400B3F7070163F4A5001303130033836700DC
:100C2400B337F3001388070063DA0E00B3356000AE
:100C3400B307F0403388B74033036040B367CE0056
:100C440013050000930500006388070A130527C0F5
:100C540013D746011377F77F9307F07F630AF704EE
:100C64009396A60093576601B70500401316A60095
:100C7400B3E7F600138EF5FF1356A600B70620005F
:100C8400B3F7C70163ECC6083386B700B337F60081
:100C940063DA0800B336C000B307F040B387D74027
:100CA4003306C040B705008093C6F5FF6310D5082E
:100CB400B717068003A5071383A5471367800000B1
:100CC4009395C5003707C0FF3375A70093D5C500BA
:100CD400B365B500639C051263C20E1A1303F0FFDB
:100CE40013880700B367CE00E38407FC370700804E
:100CF4001345F7FF6FF0DFF567800000B367CE00A0
:100D04001305000093050000E38807FE13050000A7
:100D140013030000130800006FF09FF313861500FF
:100D24003386C700B337F6006FF09FF63308C80266
:100D3400930627C0B386A60093C5E5FFB387670271
:100D440033366602B3870701B387C70013D8F74168
:100D540033E707016382B60C630C0710B347F8004E
:100D640033860741B3B7C700330700413307F74061
:100D740093D5F64193070600634AE0026304070E25
:100D8400B708004013D5F7011317170013B6160060
:100D94003367E50093971700B385C5409386F6FF44
:100DA4006346E000E31007FEE3EE17FD370600C0DC
:100DB4003386C700B337F6001307F7FFB387E7009E
:100DC4006352B0089306F03F930500001307F0FF49
:100DD40063C6E5066380E5061357A6009386F63FCF
:100DE4009397670193964601B367F700370700802E
:100DF4003378E800B3E7F60013166601B3E707019A
:100E040013050600938507006780000013030000A4
:100E1400130800006FF01FEDE30C07E8631C0802E1
:100E2400638A0702B717068003A5871383A5C71330
:100E340067800000130710C0E3F0E6FA930610C0C1
:100E44006FF09FF9E39405F81307F03FE370D7F8C8
:100E54006FF05FF7B717068003A5871283A5C71243
:100E64006780000037060040E3ECC7F06FF01FF422
:100E740013050000930500006780000013030000C1
:100E8400370800806FF01FE6B707008093C7F7FFAD
:100E940033F7B7003367A700938E050093880600E5
:100EA40033F8D700630E071213DE4501137EFE7F6D
:100EB4001307F07F6300EE0C9395A500935765012B
:100EC400370300401315A500B3E7F5001307F3FF3C
:100ED4001355A500B7052000130E2EC0B3F7E70085
:100EE40063F4A5001303130033836700B337F300DF
:100EF4001387070063CE0E103368C800630A081214
:100F040093D5460193F5F57F9307F07F1305100001
:100F14006380F5061395A60093576601B706004053
:100F24001316A600B367F5001388F6FF1356A60040
:100F340037052000938525C0B3F707016374C50006
:100F440093861600B386D700B3B7F60063DA0800B9
:100F54003336D000B307F040B387C740B306D04060
:100F6400370600801346F6FF130510006312CE0403
:100F7400678000009395C5003707C0FF3375A7004D
:100F840093D5C500B365B500639E050663C80E0C12
:100F94001303F0FF138707003368C800130510001C
:100FA400E30808FC370E0080134EFEFF6FF05FF578
:100FB4003366E300630406046356070033E6F60071
:100FC400630C06001305F0FFE344BEFA130510009A
:100FD400E3C0C5FB6356F7061305F0FF6780000006
:100FE4003368C80013050000E30408F8130E00007A
:100FF40013030000130700006FF09FF0E3D407FC15
:101004006780000013030000130700006FF0DFF88F
:10101400B3356000B307F0403368C8003387B74086
:10102400330360401305F0FFE31C08EC6780000005
:101034009305000093060000930700006FF09FF8EB
:101044006394E700E36AD3F813051000E3C2E7F200
:10105400630CF70013050000678000001303000011
:10106400370700806FF05FF3E3F666FE67800000E9
:10107400130101FD23286101130B050037050080CE
:101084003355E500232611022324810223229102F1
:1010940023202103232E3101232C410193890700AE
:1010A400232A510123267101138A0500938A06001D
:1010B40093040800930B0600EF80132F1309050017
:1010C4001384050093860A0013860B0093050A0017
:1010D40013050B00EF70D349130605009386050032
:1010E4001305090093050400EF709348B7170680B1
:1010F40003A9471403AA0714930A050093060900D9
:1011040013060A0013840500EF70132A6346A00631
:10111400B717068003A6071283A6471213850A0091
:1011240093050400EF7053286352A00A13850A0044
:10113400930504001306000093060000EF70131ECD
:101144006310050423A0090023A004008320C10226
:101154000324810283244102032901028329C1015A
:10116400032A8101832A4101032B0101832BC1003E
:101174001301010367800000930A0A0013040900A5
:101184001386040013850A0093050400EF80025CB3
:10119400B717068003A6871183A6C711EF70533DC6
:1011A400EF80826EEF80D32A6342B002638205042B
:1011B4003707008083A704006302E502130710FECB
:1011C40063C8E70023A0A900E3D207F8EF9002095F
:1011D40023A0040023A009006FF05FF7E39005FE4D
:1011E4009387170023A0F400370500406FF01FFD1C
:1011F400B7070080E3FEA7FA6FF05FFD130101FC5F
:10120400232E7101930B0500370500803355E5004B
:10121400232E1102232C8102232A91022328210345
:10122400232631032324410323225103138A070075
:1012340023206103232C8101938A0500138B06006C
:101244001309080093890800130C0600EF80D315D6
:10125400930405001384050093060B0013060C0089
:1012640093850A0013850B00EF7093301306050075
:10127400938605001385040093050400EF70532F33
:10128400B717068083AA471403AB07149304050019
:1012940093860A0013060B0013840500EF70D31025
:1012A4006344A012B71A068003A60A1283A64A1240
:1012B4001385040093050400EF70130F6354A0100A
:1012C4001385040093050400130600009306000030
:1012D400EF70D304631E050EB717068023200A009F
:1012E40083A4871403A4C714232009001307000050
:1012F4009307000013060700138504009386070074
:1013040093050400EF70431303A60A1283A64A123E
:101314009304050013840500EF7053176354050A02
:1013240013850400930504001306000093060000CF
:10133400EF7093076358A0081306C10013850400D7
:1013440093050400EF808240B717068003A6871137
:1013540083A6C711EF70D321EF800253EF80530FA0
:101364006342B00663820512370700808327C100F9
:101374006302E510130710FE63D2E70423A00900FB
:1013840093070000032701048320C103032481037E
:101394002320F70083244103032901038329C10285
:1013A400032A8102832A4102032B0102832BC101F8
:1013B400032C8101130101046780000023A0A9000C
:1013C400E352F0FCEF80926993040B0013840A004B
:1013D400130609001385040093050400EF80023707
:1013E400B717068003A6871183A6C711EF70531899
:1013F400EF808249EF80D305E346B0FC638C050897
:101404003707008083270900630CE504130710FEE7
:1014140063CEE7022320AA0013040500E3C407FAFD
:10142400370500803355F500EF80037893040500F9
:101434001305040013840500EF80037713070500E8
:1014440093870500B71A06806FF0DFEA23200900AE
:1014540023200A0013040000930700006FF05FFCD0
:10146400E39605FA938717002320F9003705004017
:101474006FF0DFF9E39005F0938717002326F1005E
:10148400370500406FF01FEFB7070080E3FEA7ECBD
:101494006FF05FF3B7070080E3F4A7F66FF09FF2F5
:1014A400130101FE232A9100930410002328210133
:1014B400130905003395A4001305F5FF232C8100BF
:1014C4002326310113040600232E110093890500FD
:1014D400EF80836D33062441930706FE130905004C
:1014E4001384050063CE0706B395F40013050000CA
:1014F400EF80930313060500938605001305090086
:1015040093050400EF70D306938709FE9304050046
:101514001384050063CC070493051000B395F5000C
:1015240013050000EF8053001306050093860500A1
:101534001385040093050400EF601370EF804202EA
:10154400EF80835E8320C101032481018324410150
:10155400032901018329C1001301010267800000EE
:10156400930500003395C4006FF09FF81305100035
:1015740093050000331535016FF0DFFA130101FD07
:10158400232E3101930905001305060023261102B9
:101594002324810223229102232021039384060021
:1015A40013890500232C4101232A510123286101B9
:1015B400930A0800138B0700232671012324810159
:1015C400930B0700130C0600EFC00363130405001C
:1015D40013850400EFC0436293850900130A0500D4
:1015E40013050900EFC0C30813090500930504009F
:1015F40013050A00EFC0C30793050500130509008E
:10160400EFB013069305050023A0AA0013090500F3
:1016140013850900EFB0D3049305050013050400F6
:10162400EFC00305930905009305050013050400A5
:10163400EFB0133D635AA00613150C0113550501B1
:10164400EFC0835B930405009305050013050400B4
:10165400EFC0030293050900EFB013519385040012
:1016640023A0AB0013050A00EFC0830083A50A0082
:10167400EFB0934F8320C102032481022320AB00E7
:1016840083244102032901028329C101032A810120
:10169400832A4101032B0101832BC100032C810008
:1016A40013010103678000009385090013050A00F4
:1016B400EFB053409307050013950401135505013A
:1016C400E3C007F813850900EFC04371EF80C21B24
:1016D400EFC0131EEFC0C34B1315050103A90A0085
:1016E400135505016FF0DFF5130101FD2326710188
:1016F400930B0500371506800325851B23248102DF
:101704001384050093850B00232611022320210353
:10171400232E3101232C4101232A51012328610165
:1017240023248101138B0700138906009309070002
:10173400930A060023229102EFB08372130C050072
:101744009305000013050B00EFB0932B130A000060
:101754006352A00883240900930504001385040040
:10176400EFB0132A93850A006344A0009304040095
:1017740013850400EFB01334130705009305040028
:1017840013850A0063400708EFB0936E93050C00BD
:10179400EFB0933DEFC08364EF80020FEFC05311AD
:1017A40093850B00EFB0533C93050400EFB0832501
:1017B400130A1A0023A0A90013050A00EFC0C343AB
:1017C40093050B00EFB0132F1309490093894900C7
:1017D400E34205F88320C1020324810283244102E9
:1017E400032901028329C101032A8101832A4101BA
:1017F400032B0101832BC100032C8100130101037E
:101804006780000013850400EFB0936693050C0015
:10181400EFB09335EFC0835CEF800207EFC053094C
:1018240093850B00EFB0533493050400EFB0831D90
:10183400130A1A0023A0A90013050A00EFC0C33B32
:101844009305050013050B00EFB0931B1309490022
:1018540093894900E340A0F06FF0DFF7130101FF23
:101864002326110023248100232291002320210117
:1018740093840500EF80421DB717068083A5C71B1C
:10188400EFB0932E13040500EFC04355EF70D27FE1
:10189400EFC0130213090500EFC083289305090064
:1018A40023A0A40013050400EFB0935CB7170680CF
:1018B40083A5071C1315150013551500EFB0931FCE
:1018C4008320C100032481008324410003290100F3
:1018D4001355F501130101016780000063820514AB
:1018E400130101FDB71706802324810223229102EC
:1018F40023202103232E3101232C4101232A5101CA
:1019040023286101232671012324810103A987115E
:1019140083A9C711232611022322A1012320B10187
:10192400138A050093040500930A06001384060035
:10193400130C0000370B0080930B10FE6F000002A5
:1019440023A00A0023200400130C1C0093848400A9
:10195400938A4A0013044400630E8A0703AD04000B
:1019640083AD4400130600009306000013050D0028
:1019740093850D00EF70831AE30405FC130604003D
:1019840013050D0093850D00EF70525C13060900DA
:1019940093860900EF70C33DEF70126FEF80432B05
:1019A4006344B00863800508832704006300650767
:1019B40063D67701232004001305000023A0AA00A6
:1019C400130C1C0093848400938A4A00130444007B
:1019D400E3168AF98320C10203248102832441028D
:1019E400032901028329C101032A8101832A4101B8
:1019F400032B0101832BC100032C8100032D410023
:101A0400832D01001301010367800000E39205FAAE
:101A1400938717002320F400370500406FF05FF927
:101A240067800000E372ABF8EF8052039346F6FF41
:101A340093D6F641B376D6003308C0406354C00051
:101A440013080000B316D5003386D5023395D502AA
:101A54006384B60A63400506370700403307E6008F
:101A64003336C7003306A600131616001357F701C2
:101A7400B367E6001307F0016344070B130708FE7E
:101A84001305000063560700130510003315050104
:101A94001305F5FF9356154013D7F7013375F50079
:101AA4003307D7003325A700B3D707413305F50023
:101AB40067800000B70600C0938616009308F0FF05
:101AC400B307D60033B7C700330615013306C70082
:101AD4001357F6411317170013571700B307F700EE
:101AE40033B7E7003307C7001317170093D7F7017D
:101AF400B367F7006FF01FF8B706004093080000C3
:101B040063580500B70600C0938616009308F0FFDB
:101B14003707008093C7F5FFE38EE5F46FF05FFAB3
:101B2400B72604803726048037250480130101FF7B
:101B34009386060D1306060E930570161305C5133A
:101B440023261100EF800273130101FF23261100E5
:101B5400634C06109387F601130760026366F70E61
:101B6400378700003388E500B7070100637EF80A71
:101B7400B707FF7F6348F6061307F7FF1306000055
:101B84003306A6029307E0003388D740930708FE84
:101B9400B385E502B338E5023386C5003305E502B3
:101BA400B308160163CA0706130610003316F600BD
:101BB400930700003387A7001305F000B306D54050
:101BC400B337F70033051601138606FE3385A700E5
:101BD400634206028320C1003355C540130101014D
:101BE400678000003306E600135706411356F6419A
:101BF4006FF01FF98320C1009307F001131515003E
:101C0400B387D740B317F5003355D70033E5A700A2
:101C14001301010167800000930710001306000000
:101C2400B39707016FF01FF9B726048037260480A5
:101C340037250480938606221306C6189305B0023E
:101C44001305451DEF800263B72604803726048000
:101C540037250480938646201306C6189305A002F0
:101C64001305451DEF800261B726048037260480E2
:101C740037250480938606171306C6189305900229
:101C84001305451DEF80025F635EB008130101FE7A
:101C940093952500232C8100232A910023263101CA
:101CA400232E1100232821011304050093040600A8
:101CB400B309B500032904009305000013050900C6
:101CC400EFB00354634AA0029307000023A0F4007A
:101CD4001304440093844400E39E89FC8320C101DF
:101CE4000324810183244101032901018329C100C3
:101CF400130101026780000023A02401130444009F
:101D040093844400E39889FA8320C1010324810168
:101D140083244101032901018329C1001301010224
:101D24006780000067800000635CB00A130101FE55
:101D3400B71706802322510183AA871BB717068091
:101D44002324410103AA471C93952500232C8100D9
:101D54002328210123263101232E1100232A910057
:101D64001304050013090600B309B5008324040015
:101D740093850A0013850400EFB083489307050098
:101D840093050A00138504006340F004EFB0434751
:101D9400634EA0022320490113044400130949009F
:101DA400E31634FD8320C10103248101832441010E
:101DB400032901018329C100032A8100832A4100E8
:101DC400130101026780000093840A002320990014
:101DD4001304440013094900E39A89F86FF09FFC47
:101DE400678000006354B00C130101FEB71706802E
:101DF4002324410103AA871C93952500232C8100E9
:101E04002328210123263101232E1100232A9100A6
:101E14001304050013090600B309B5008324040064
:101E240093050A0013850400EFB0833D9307050072
:101E340093050000138504006340F004EFB0433CB5
:101E4400634EA002930700002320F900130444000A
:101E540013094900E31434FD8320C10103248101E3
:101E640083244101032901018329C100032A81003C
:101E7400130101026780000093040A0023209900E3
:101E84001304440013094900E39A89F88320C1012B
:101E94000324810183244101032901018329C10011
:101EA400032A81001301010267800000678000009B
:101EB400635EB004130101FF939525002324810080
:101EC400232291002320210123261100130405005D
:101ED400930406003309B5000325040093844400E9
:101EE4001304440013250500EFB0936123AEA4FE50
:101EF400E31489FE8320C10003248100832441006C
:101F040003290100130101016780000067800000BC
:101F140093D8F501B388B8009307100093D81840FC
:101F240063DAB7029306060013070000B307E5005F
:101F34008387070093862600130717001398C701A9
:101F44001358C84193D74740238F06FFA38FF6FE4B
:101F5400E34E17FD93F71500638E07003305150153
:101F6400830705003306B6009397C70193D7C7418B
:101F7400A30FF6FE6780000083A7050083A6070071
:101F840093874700634A06026358D6021316260055
:101F94003386C7008325060063C0050283278500B6
:101FA40063880700939565003385B7006780000058
:101FB400832705056780070013050000678000007C
:101FC40083A50500130101FF2326110023248100AA
:101FD40003A805009307060013070500634A0604D7
:101FE4006358060593172600B387F50083A54700B9
:101FF4009307F0FF6386F5061384060083268500A5
:1020040093976500B387F600639806008327050558
:10201400E7800700930705008320C1002320F40014
:1020240003248100130500001301010167800000EF
:1020340083284701B7250480130507009306080089
:102044001386070093850527E78008008320C100D5
:1020540003248100130510001301010167800000AF
:1020640083274501B72504809385C529E7800700A8
:102074008320C10003248100130510001301010112
:102084006780000083A7050083A607006340060657
:10209400635ED60493874700131626003386C70071
:1020A4008325060063C4050483278500638C070029
:1020B400139565003385A7008347D502638807021B
:1020C4006780000083270505130101FF2326110003
:1020D400E7800700630005028347D502638C07008D
:1020E4008320C10013010101678000001305000073
:1020F400678000008320C100130500001301010163
:102104006780000083A7450083A6070093874700E4
:10211400634A06026358D602131626003386C700A4
:102124008325060063C005028327850063880700B2
:10213400939565003385B700678000008327050504
:1021440067800700130500006780000083A5450031
:10215400130101FF232611002324810003A8050095
:102164009307060013070500634A0604635806052F
:1021740093172600B387F50083A547009307F0FF64
:102184006386F5061384060083268500939765000D
:10219400B387F6006398060083270505E7800700E8
:1021A400930705008320C1002320F4000324810049
:1021B4001305000013010101678000008328470113
:1021C400B72504801305070093060800138607004B
:1021D40093850527E78008008320C100032481003C
:1021E40013051000130101016780000083274501D6
:1021F400B72504809385C529E78007008320C100A3
:1022040003248100130510001301010167800000FD
:1022140083A7050083A6070093874700634A060245
:102224006358D602131626003386C700832506009A
:1022340063C00502832785006388070093956500C2
:102244003385B70067800000832705056780070092
:10225400130500006780000083A7C50083A607005C
:1022640093874700634A06026358D6021316260072
:102274003386C7008325060063C0050283278500D3
:1022840063880700939565003385B7006780000075
:102294008327050567800700130500006780000099
:1022A40083A5C500130101FF232611002324810007
:1022B40003A805009307060013070500634A0604F4
:1022C4006358060593172600B387F50083A54700D6
:1022D4009307F0FF6386F5061384060083268500C2
:1022E40093976500B387F600639806008327050576
:1022F400E7800700930705008320C1002320F40032
:10230400032481001305000013010101678000000C
:1023140083284701B72504801305070093060800A6
:102324001386070093850527E78008008320C100F2
:1023340003248100130510001301010167800000CC
:1023440083274501B72504809385C529E7800700C5
:102354008320C1000324810013051000130101012F
:102364006780000083A7850083A607009387470042
:10237400634A06026358D602131626003386C70042
:102384008325060063C00502832785006388070050
:10239400939565003385B7006780000083270505A2
:1023A40067800700130500006780000083A585008F
:1023B400130101FF232611002324810003A8050033
:1023C4009307060013070500634A060463580605CD
:1023D40093172600B387F50083A547009307F0FF02
:1023E4006386F506138406008326850093976500AB
:1023F400B387F6006398060083270505E780070086
:10240400930705008320C1002320F40003248100E6
:1024140013050000130101016780000083284701B0
:10242400B7250480130507009306080013860700E8
:1024340093850527E78008008320C10003248100D9
:102444001305100013010101678000008327450173
:10245400B72504809385C529E78007008320C10040
:10246400032481001305100013010101678000009B
:10247400130101FD23229102232E3101232C41015A
:10248400232A5101232861012326110223248102D6
:10249400232021032326710183AAC500032BC60030
:1024A4009309050093040700138A0700638A06084A
:1024B40013850A0013840600EFB05312930B050032
:1024C40013050B0013890500EFB053111306050023
:1024D4009386050013850B0093050900EF605309EB
:1024E400130905000325C40013840500EFB0130F7E
:1024F40013060500938605001305090093050400DF
:10250400EF60D3631309050003A5C40013941500F9
:1025140013541400EFB0930C1306050093860500C2
:102524001305090093050400EF501371B7170680D3
:1025340003A6071583A64715EF6043756344A008F7
:1025440093050B0013850A00EFA0136293050000A6
:1025540013040500EFA0D34A634E050813050400D5
:10256400EFB0D3079307050003A5C4001384050047
:1025740093840700EFB093061306050093860500C5
:102584001385040093050400EF50136B2320AA0065
:102594002322BA00130500008320C1020324810210
:1025A40083244102032901028329C101032A8101F1
:1025B400832A4101032B0101832BC1001301010371
:1025C4006780000083A74901372704801307072D7C
:1025D4009306001437260480B72504801385090068
:1025E4001306462F93850532E78007001305100074
:1025F4006FF09FFA3727048083A7490113078733B5
:102604009306D0146FF01FFD130101FE138805001B
:10261400232821018325C600130905000325C800CA
:10262400232C8100232A910023263101232E11001B
:102634001384060093090700EFA0135393050000C9
:1026440093040500EFA0D33B634C050413850400F9
:10265400EFB0C378930405000325C4001384050078
:10266400EFB0C377130605009386050013850400B5
:1026740093050400EF50535C8320C10103248101BE
:1026840023A0A90023A2B900832441010329010145
:102694008329C100130500001301010267800000B3
:1026A400832749013727048037260480B72504800F
:1026B40013050900130787339306D0141306462F16
:1026C40093850532E78007008320C101032481013B
:1026D40083244101032901018329C100130510004A
:1026E400130101026780000083270600130101FD26
:1026F400232481022322910223202103232E31014A
:1027040023261102232C4101232A5101232861018C
:10271400232671012324810123229101130830000F
:102724009304050013840500138906009309070028
:1027340063820713130790006382E70A130770008C
:102744006390E704378A0000130AFAFFB78AFFFF91
:1027540093071000032BC600832B0601630CF408B7
:1027640093073000630EF40E930720006300F41AFD
:102774002320590123A04901130500006F00C00262
:10278400832745013727048037260480B725048032
:1027940013074735930630191306462F93850532E0
:1027A400E7800700130510008320C102032481027F
:1027B40083244102032901028329C101032A8101DF
:1027C400832A4101032B0101832BC100032C8100C7
:1027D400832C41001301010367800000930710005C
:1027E400032BC600832B0601130AF007930A00F893
:1027F400E318F4F693050B0013050000EFA04366FD
:10280400EFB0C35DEF704208EFB0930AB7170680CC
:1028140083A5C71C130B0500EFA0931E6340051886
:10282400B717068083A5071D13050B00EFA0932897
:102834006346A01613050B00EFB0832EB30B75018E
:1028440063C65B192320790123A049011305000005
:102854006FF09FF5130AF00F930A00006FF05FEF1B
:1028640093050B0013050000EFA0835FEFB003573F
:10287400EF708201EFB0D303371406808325C41CA4
:10288400130C0500EFA0D3176344050CB71C068096
:1028940083A50C1D13050C00EFA0D321634AA00AE5
:1028A40013050C00EFB0C327B307750163C85713B2
:1028B400371706800325871C2320F90093050B0096
:1028C400EFA0035AEFB08351EF60127CEFB0437E68
:1028D4008325C41C13040500EFA09312634A050664
:1028E40083A50C1D13050400EFA0D31C6342A006AE
:1028F40013050400EFB0C322B30B7501634C7A0DCA
:1029040023A07901130500006FF01FEAB7170680B2
:1029140003A5471C93050B0037140680EFA043540E
:10292400EFB0C34BEF605276EFB083788325C41CBD
:10293400130C0500EFA0D30C634C0500B71C0680F4
:1029440083A50C1D13050C00EFA0D316635AA00237
:1029540083A744013727048037260480B7250480E1
:10296400138504001307C7359306B0151306462FC5
:1029740093850532E7800700130510006FF0DFE24E
:1029840013050C00EFB0C319B307750163CC5705E9
:10299400371706800325871B6FF01FF283A74401B6
:1029A4003727048037260480B72504801385040064
:1029B4001307C7359306B0151306462F93850532C2
:1029C400E7800700130504006FF01FDE938B0A00F5
:1029D4006FF05FE7930B0A006FF09FF293870A0092
:1029E4006FF01FED93870A006FF09FFA130101F84F
:1029F400232C810503AC0503232A910623263107E2
:102A04002324410723206107232E7105232A9105DE
:102A14002328A10593890500232E1106232C810662
:102A240023282107232251072326B10593051000EB
:102A34002326D1002324F10023280101232A110194
:102A4400032B0108832B4108032D8108832CC10823
:102A540083240109130A0500630EBC060323450100
:102A6400B72704803727048037260480B7250480DD
:102A740013080C0093081000938747381307073A8C
:102A84009306B00D1306462F9385C53BE70003005C
:102A9400130C10008320C1070324810783244107FA
:102AA400032901078329C106032A8106832A4106D3
:102AB400032B0106832BC105832C4105032D01053E
:102AC400832DC10413050C00032C81051301010897
:102AD40067800000832A060313090600638E8A03B5
:102AE40003234501B7270480372704803726048051
:102AF400B72504809308100013880A009387473889
:102B04001307873D9306D00D1306462F9385C53BC7
:102B1400E70003006FF01FF81304070003274603C0
:102B24006300071E832707006382071803A80700B2
:102B340063520C0783A60900938696FF93F6D6FF8B
:102B4400638606028327450137270480130747421B
:102B54009306D00E37260480B72504801306462F2B
:102B640093850532E78007006FF0DFF283260600C5
:102B7400130690006386C614130620016382C614EC
:102B84003727048083274501130707469306F00E71
:102B94006FF05FFC03A5C900032CC400635E9008BA
:102BA400232CF100EFB08323930D050013050C00D3
:102BB4002324B1032326B102EFB0432283278101EA
:102BC400130F0D00938D0C002320A1022322B102C8
:102BD400130D0000930CC103130C810303A54700DC
:102BE400130F4F00232EF100232CE101EFB0031F3C
:102BF400032681028326C102938D4D00130D1D000F
:102C0400EF6003170326010283264102EF50D3022B
:102C140093860C0013060C00EFD0DFA483268103F7
:102C2400032F81018327C101232EDFFE8326C103E5
:102C340023AEDDFEE3449DFA83A7090013073000A9
:102C4400638CE71A130790006388E700130770008A
:102C5400130C0000E390E7E48327810013060400CB
:102C6400032481078320C107832441070329010723
:102C74008329C106832A4106032C8105832C41053F
:102C8400032D0105832DC10483A5070013870B00C1
:102C940093060B00832BC105032B010613050A00C1
:102CA400032A8106130101086FF01FA4372704804B
:102CB40083274501130787409306900E6FF09FE921
:102CC400638A040503234A01B72704803727048055
:102CD400938804009387C7491307C74A9306100FC4
:102CE40037260480B72504801306462F9385C53BF9
:102CF40013050A00E7000300138C0A006FF09FD944
:102D040037270480832745011307473F9306800E26
:102D14006FF05FE4832687000327890093962600DB
:102D24003307D7008328470063821403B72704803E
:102D34003727048003234A01138804009387074D2F
:102D44001307C7499306200F6FF09FF903A5C90025
:102D540093874700232EF100232CA101EFB0030831
:102D6400930D05000325C4002320B1032322B102DF
:102D7400EFB0C306032F81018327C101938D0C009B
:102D84002324A1022326B102130D0000930CC103D6
:102D9400130C810303A5070093874700232EE10149
:102DA400232CF100EFB083030326010283264102A2
:102DB400130D1D00938D4D00EF50937B032681026C
:102DC4008326C102EF50436793860C0013060C0060
:102DD400EFD05F89032FC1018326810383278101FB
:102DE400130F4F00232EDFFE8326C10323AEDDFE27
:102DF400E3429DFA6FF05FE48324C10083ACC90011
:102E0400032DC9006388040813850C00EFA0137D0B
:102E1400930D050013050D00138C0500EFA0137C22
:102E2400130605009386050013850D0093050C0019
:102E3400EF501374130C050003A5C4001389050097
:102E4400EFA0D379130605009386050013050C0043
:102E540093050900EF60834E130C05000325C4009D
:102E64001399150013591900EFA0537713060500A1
:102E74009386050013050C0093050900EF50C35B0E
:102E8400B717068003A6071583A64715EF501360EE
:102E94006340A00893050D0013850C00EFA0C34CFC
:102EA4009305000013090500EFA08335634A050864
:102EB40013050900EFA09372930A05000325C400CB
:102EC40013890500EFA0937113060500938605008E
:102ED40013850A0093050900EF50035603260101E8
:102EE4009306C103EFD00FF80327C1030326410162
:102EF40083A709003307E040930690002320E600EF
:102F0400E38CD7D413073000E388E7D46FF01FD4E1
:102F140083274A01372704801307072D93060014DB
:102F240037260480B72504801306462F938505327F
:102F340013050A00E7800700138C0A006FF09FB5A1
:102F44003727048083274A01130787339306D01455
:102F54006FF01FFD130101F92324810603A4050367
:102F64002322910623202107232671052320A1056E
:102F7400232EB1039384050023261106232E310545
:102F8400232C4105232A5105232861052324810587
:102F9400232291059305100023200101232211010E
:102FA400832B0107832E4107832D8107032DC1073E
:102FB40013090500630EB40603234501B7270480F3
:102FC4003727048037260480B725048013080400BB
:102FD40093081000938747381307073A9306B00DF8
:102FE4001306462F9385C53BE70003001304100026
:102FF4008320C106130504000324810683244106AB
:10300400032901068329C105032A8105832A410571
:10301400032B0105832BC104032C8104832C41045D
:10302400032D0104832DC1031301010767800000F0
:10303400032C060393090600631C8C04138F0600FB
:1030440083264603138A0700130B070083A7060091
:1030540083AC0700635A940703A70400130797FF80
:103064001377D7FF630E071483274501372704809E
:10307400130747429306D00E37260480B7250480F1
:103084001306462F93850532E78007006FF05FF63D
:1030940003234501B727048037270480372604809B
:1030A400B72504809308100013080C009387473851
:1030B4001307873D9306D00D1306462F9385C53B12
:1030C400E70003006FF0DFF203A4C400832AC70003
:1030D40063908C0903A547002326D1012324E10131
:1030E400EFA0D34F930C05001305040013840500CF
:1030F400EFA0D34E130605009386050013850C003C
:1031040093050400EF50D346930C050013850A0081
:1031140013840500EFA0934C130605009386050065
:1031240013850C0093050400EF5003319306C1028C
:1031340013068102EFD00FD383278102032F81006E
:10314400832EC10023A0FD008327C1022320FD009C
:1031540083A70400130730006382E7181307900065
:103164006388E7001307700013040000E392E7E8A4
:103174000324810683250A008320C1068324410693
:103184008329C105032A8105832A4105032C81046F
:10319400832C4104032D0104832DC10393860B006A
:1031A40013060B00832BC104032B0105130509002F
:1031B4000329010613870E00130101076FF0CFD214
:1031C40003270600130690006300C70213062001BC
:1031D400630CC7003727048083274501130707467C
:1031E4009306F00E6FF05FE983A6860003A78900BB
:1031F400939626003307D7008328470063801C0575
:1032040003234901B7270480372704803726048025
:10321400B725048013880C009387074D1307C7490B
:103224009306200F1306462F9385C53B130509000B
:10323400E700030013040C006FF09FDB03A5C40038
:103244002326D1012324E101938A4700EFA01339F7
:10325400930705000325CB00232CF100232EB10096
:10326400EFA0D337032F8100832EC1002328A100B0
:10327400232AB1001304000003A50A002326D10168
:103284002324E101EFA09335032681018326C101A4
:10329400938D4D0013041400EF50932D0326010168
:1032A40083264101938A4A00130D4D00EF50C31841
:1032B4009306C10213068102EFD0CFBA832681029E
:1032C400032F8100832EC10023AEDDFE8326C102BD
:1032D400232EDDFEE34294FB6FF09FE72324E101FC
:1032E40083AAC40083ACC900630E0F0813850A00C7
:1032F4002326D101EFA0932E9309050013850C001A
:1033040013840500EFA0932D130605009386050092
:103314001385090093050400EF509325032F8100C2
:1033240093090500138405000325CF00EFA0132B98
:103334001306050093860500138509009305040010
:10334400EF50D37F930905000325CB001394150098
:1033540013541400EFA09328130605009386050068
:103364001385090093050400EF50030DB717068079
:1033740003A6071583A64715EF505311832EC100EA
:103384006348A00893850C0013850A002324D10107
:10339400EF90937D9305000013040500EF905366AE
:1033A400832E8100634E0508130504002324D101F4
:1033B400EFA0D322930905000325CB001384050055
:1033C400EFA0D32113060500938605001385090099
:1033D40093050400EF504306032601009306C1023F
:1033E400EFD04FA80327C1020326410083A704009E
:1033F4003307E040930690002320E600832E8100EB
:10340400E388D7D613073000E384E7D66FF09FD55F
:1034140083274901372704801307072D93060014D7
:1034240037260480B72504801306462F938505327A
:1034340013050900E780070013040C006FF05FBB5D
:103444003727048083274901130787339306D01451
:103454006FF01FFD83A5850003258500130101FF7F
:1034640023261100EFD0C1588320C1003335A000BA
:10347400130101016780000083A68500130101FF89
:103484002322910003A7060093840500232611003C
:10349400232481002320210193051000630AB7022D
:1034A40083274501B725048013060700938505513A
:1034B400E78007008320C1000324810083244100A6
:1034C40003290100130510001301010167800000A6
:1034D40003A446001309060013050400EFD0815B22
:1034E4006354800283A74400931524001307450006
:1034F400B385F50083A607009387470013074700A9
:10350400232ED7FEE398B7FE8320C1000324810055
:103514002320A9008324410003290100130500008E
:103524001301010167800000130101F9232A5105E9
:103534002320A10523261106232481062322910694
:1035440023202107232E3105232C4105232861053F
:10355400232671052324810523229105232EB103FB
:10356400232205002304050083A70500130D85000D
:103574002320A501930A05006352F0223729048011
:10358400B7490F00379A9800938C0500938B450038
:1035940093070000130B0000130C81001309495C0E
:1035A4009389F923130AFA6783AD0B00130790007C
:1035B4006394072493D7FD41B3C4B701B384F440A3
:1035C40093DDFD01637E97469307300663F69748C3
:1035D4009307703E63FA9748B72600009387F67006
:1035E40063F8974837860100B7E5F50513870400AB
:1035F40013041000938606711306F6699385F50F7C
:103604006F00000163F6F93A6378FA3A63FEF53A1B
:1036140093070700130504003357D702130444002B
:10362400E362F6FE1306D002B3858D001305010094
:1036340023208101EFF091660327010093073006F0
:10364400B30DB70163F297049307E4FF3725000035
:10365400B387FD00930640061305F57033F7D402D3
:103664009387E7FF13860400131717003307E90055
:103674008345170003470700B3D4D402A381B700DE
:103684002381E700E36CC5FC9307900063F8972C53
:1036940093941400B304990083C7140083C40400F2
:1036A400A380FD00B726048023809D00130710002B
:1036B4009386465413060000930500001305010089
:1036C400EFF0517493040102232C91008327050029
:1036D400930D850013040500638EB731232CF1008C
:1036E400832785002320F10283274400232EF10041
:1036F4002320B4012304040083278101232204002E
:1037040003A50A0063889726032701028326C101C3
:103714006304AD2C03A68A0023A0FA0023A2DA00D6
:1037240023A4EA006300052C232CA1002320C1025A
:10373400232E010023000500032581016308950061
:103744008325010293851500EFE0414A032501001A
:10375400630885018325810093851500EFE0014905
:1037640003A70C00130B1B0083A74A00938B4B0089
:10377400E34CEBE263840702370700401307F7FFCB
:103784006380E730B7F50580130610009385054381
:1037940013850A00EF0002026F000002B7260480BE
:1037A40013072000938606541306000093050000B7
:1037B40013850A00EFF011658320C10603248106F6
:1037C40083244106032901068329C105032A8105AF
:1037D400032B0105832BC104032C8104832C410496
:1037E400032D0104832DC10313850A00832A410597
:1037F400130101076780000093D7FD41B3C4B701EB
:10380400B384F44093DDFD0163709724930730067D
:1038140063F097249307703E63F09726B726000061
:103824009387F67063FE972237860100B7E5F505A6
:103834001387040013041000938606711306F669B7
:103844009385F50F6F00000163F0F916637AFA1699
:1038540063F0F51893070700130504003357D702E4
:1038640013044400E362F6FE1306D002B3858D0010
:103874001305010023208101EFF0514203270100C9
:1038840093073006B30DB70163F297049307E4FF7F
:1038940037250000B387FD00930640061305F57035
:1038A40033F7D4029387E7FF138604001317170036
:1038B4003307E9008345170003470700B3D4D40254
:1038C400A381B7002381E700E36CC5FC9307900054
:1038D40063FC970893941400B304990083C71400FD
:1038E40083C40400A380FD00B7E6058023809D0007
:1038F40013071000938646B31306000093050000D7
:1039040013050100EFF0115093040102232C9100E0
:1039140083270500930D8500130405006386B70F04
:10392400232CF100832785002320F1028327440000
:1039340013850A00232EF100230404002320B4017C
:10394400232204000326C10183258101EFF091663F
:1039540003258101E31695DE6FF05FDF9384040392
:1039640093F4F40F6FF01FD49384040393F4F40FCF
:103974006FF09FF70326C101630E06009307100042
:10398400630EF60893850400EF70121D0326C1012F
:1039940003A50A003305C50023A2CA0023000500BD
:1039A400032581016FF0DFD8130455006FF0DFEBBE
:1039B400130455006FF01FC7130465006FF09FC612
:1039C400130465006FF05FEA130475006FF09FC580
:1039D400130475006FF05FE923A0FA0023A2DA0054
:1039E40023A4EA00232C910093040102138504000C
:1039F4006FF01FD41306000193850D001385040096
:103A0400EF7092156FF05FCE1306000193850D00E1
:103A140013850400EF7052146FF05FF183470102C5
:103A24002300F5000326C10103A50A0023A2CA004E
:103A34003305C50023000500032581016FF05FCF26
:103A4400130410006FF01FBE130410006FF0DFE1C9
:103A5400130420006FF05FE1130420006FF09FBC9B
:103A6400130440006FF05FE0130430006FF09FBB5D
:103A7400130440006FF01FBB130430006FF0DFDE4F
:103A84003725048013058554EFC0CFE08327010058
:103A940013040500638A87018325810013850700C9
:103AA40093851500EFE0811403A50A006308AD00B7
:103AB40083A58A0093851500EFE0411313050400E4
:103AC400EFC0D323130405006FF01FFE8327810189
:103AD40013040500638A97008325010213850700F8
:103AE40093851500EFE0811003250100E30E85FBAB
:103AF4008325810093851500EFE0410F6FF0DFFA15
:103B0400130405006FF05FFE03A78500832786007A
:103B1400130101FA2322510523206105832A07009A
:103B240003AB0700232C8104232821052326310518
:103B340023244105232E7103232E1104232A9104E7
:103B4400938B0500130406009309050013890600EE
:103B5400130A0B0063C46A01138A0A0013050A00DE
:103B6400EFC05173930405006356400713182A00ED
:103B74003308050193070000130EFBFF1305100023
:103B84001383FAFF63D2570983A58B003307F340ED
:103B9400131727003387E5000327470063D2670321
:103BA400832684003306FE4013162600B386C6001F
:103BB40083A846006302170B6300A7086392A80A50
:103BC4006312070623200800938717001308C8FF11
:103BD400E39A47FB23209900130500008320C105C5
:103BE4000324810583244105032901058329C10494
:103BF400032A8104832A4104032B0104832BC10378
:103C0400130101066780000063D26705032784005F
:103C1400B306FE40939626003307D70003274700D8
:103C2400631EA7009308100063541701138708004C
:103C34002320E8006FF05FF913870800E30407F816
:103C440093080700130710006FF01FFE13071000FE
:103C5400930810006FF05FFDE31807FC6FF09FF608
:103C64001305010003A94901EFF01F8C832584008B
:103C74001305810103240100EFF01F8B83268101CA
:103C8400B72504801306040093850556138509009F
:103C9400E700090003258101930701026308F50089
:103CA4008325010293851500EFD05174032501008B
:103CB400930781006308F50083258100938515002F
:103CC400EFD0D1726386040013850400EFC0D1687D
:103CD400130510006FF09FF0832781011307010281
:103CE40013040500638AE700832501021385070096
:103CF40093851500EFD0916F032501009307810090
:103D04006308F5008325810093851500EFD0116EBB
:103D14006386040013850400EFC0116413050400D6
:103D2400EFC0C37D13040500E39604FE6FF01FFF8C
:103D3400130405006FF05FFC130101F8232C8106C6
:103D4400232A9106138406009304060083A68600A2
:103D54000326860083A7850023206107232E71058F
:103D6400032B060083AB06002326310723244107D7
:103D740023225107232C8105232A9105232E110682
:103D84002328210703AC0700938C05009309050041
:103D9400130A0700938A0B0063447B01930A0B0008
:103DA40063D48A01930A0C0013850A00EFC0914E74
:103DB400130905006354500D13972A003307E500D7
:103DC4001308000093061000930EFCFF1305FBFF7D
:103DD4009385FBFF93081000635C880183A78C0024
:103DE40033860E4113162600B387C70083A8470005
:103DF40013031000635C680183A784003306054144
:103E040013162600B387C70003A34700130E100040
:103E1400635C7801832784003386054113162600EA
:103E2400B387C70003AE47009387080063541301A8
:103E3400930703006354FE0093070E00638C07008E
:103E44009387080063D468009307030063D4C70111
:103E540093070E006384D800639817036304D300A8
:103E6400639467026304DE006390C7032320F700B2
:103E7400130818001307C7FFE31E58F523202A016F
:103E8400130500006F00800A83A58C0013058100D0
:103E940003AA4901EFF04FE983A584001305010249
:103EA40083248100EFF04FE8832584001305810308
:103EB40003240102EFF04FE703278103B7250480B1
:103EC400930604001386040093850559138509009D
:103ED400E7000A0003258103930701046308F50042
:103EE4008325010493851500EFD051500325010269
:103EF400930781026308F5008325810293851500E9
:103F0400EFD0D14E03258100930701016308F5002A
:103F14008325010193851500EFD0514D63060900F7
:103F240013050900EFC05143130510008320C10796
:103F34000324810783244107032901078329C10638
:103F4400032A8106832A4106032B0106832BC1051C
:103F5400032C8105832C41051301010867800000AF
:103F6400832781031307010413040500638AE70010
:103F7400832501041385070093851500EFD01147AD
:103F840003250102930781026308F500832581025A
:103F940093851500EFD09145032581009307010116
:103FA4006308F5008325010193851500EFD01144C2
:103FB4006306090013050900EFC0113A1305040054
:103FC400EFC0C35313040500E31609FE6FF01FFF8F
:103FD400130405006FF0DFFA130405006FF0DFFB34
:103FE4001305F5FF9307000163EEA700B7270480CC
:103FF40093870769131525003385A700032505005A
:1040040067800000130500006780000013050000AE
:10401400678000008326C503638E060203A706009B
:10402400938746001307170013172700B386E6008B
:104034006382F6021306F0FF6F008000638CF600C3
:1040440003A7070093874700E31AC7FE1305100070
:10405400678000001305000067800000B70710F0B8
:1040640023A0A7F06780000083470500638C070046
:10407400370710F02320F7F08347150013051500C8
:10408400E39A07FE6780000083470500638C0700FE
:10409400370710F02320F7F08347150013051500A8
:1040A400E39A07FE6780000067800000930705001D
:1040B4000325450003A68700938605008325050094
:1040C400032746010326060103A8450083A5C7006C
:1040D40067000800032545008327050083A78700A0
:1040E4006780070083278500139515003305B50005
:1040F40003A7470183A707011315250013173700EA
:10410400B387E70083A747003385A70067800000D3
:104114009305C0016FD0912D03270501930710006B
:1041240063EAE700032545008327050083A7C70149
:1041340067800700130101FF23261100EF600212BC
:104144000327050193073000631CF700832745010B
:1041540093952500B385B70003A50500678000008B
:10416400130101FF23261100EF60420F032705010D
:1041740093071000631AF700032545008327050001
:1041840083A7C70067800700130101FF23261100DE
:10419400EF60C20C0327050193071000631AF700B0
:1041A400032545008327050083A7070167800700CF
:1041B400130101FF23261100EF60420A03270501C2
:1041C40093071000631CF7008327850093060600FD
:1041D4000325450003A647016F200010130101FFCA
:1041E40023261100EF60820783A7850013070500CB
:1041F40083A6070093874700634606046354D604E6
:10420400131626003386C7008326060063CC0602F5
:1042140003260500B74700809387070B0326460152
:104224006316F60203254500832787008325C7000C
:104234000328050003A7470103A6070183274800B5
:10424400678007001305000067800000938506005F
:104254006700060083A705001307050083A607006F
:1042640093874700634606046354D6041316260056
:104274003386C7008326060063CC060203260500A6
:10428400B74700809387070B032646016316F6029F
:1042940003254500832787008325C70003280500DD
:1042A40003A7470103A60701832748006780070087
:1042B4001305000067800000938506006700060070
:1042C40083A745001307050083A6070093874700CB
:1042D400634606046354D604131626003386C700C7
:1042E4008326060063CC060203260500B747008038
:1042F4009387070B032646016316F6020325450040
:10430400832787008325C7000328050003A74701E7
:1043140003A60701832748006780070013050000F0
:10432400678000009385060067000600B7270480B5
:10433400938747732320F5002322B5002324D50057
:104344002326C50023280500232A0500232C050065
:104354006780000063CC050063DAC50093952500EF
:10436400B386B60003A50600678000001305F0FFBE
:1043740067800000232AB5006780000083270501B9
:10438400130101FF232611001307100093F7D7FF31
:104394006384E700EF50926C032685016384050073
:1043A40063000602372504801305456DEF401112A2
:1043B4008320C10013051000130101016780000070
:1043C4008320C100232CB500130500001301010153
:1043D40067800000130101FC138505009305810229
:1043E400232E11002324C1022326D1022328E10213
:1043F400232AF102232C0103232E11032326B100C7
:10440400EF4011098320C1011301010467800000FA
:104414002328B5006780000003250501678000009C
:104424009387F5FF3305F5003355B5023305B5021F
:10443400678000003355B5023305B502678000007C
:104444001305F5FF3305B5003355B5023305B50241
:10445400678000009307200163EEA704B727048058
:1044640093878776131525003305F5008327050008
:10447400678007009307800023A0F5001305000060
:10448400678000009307100023A0F50013050000C7
:10449400678000009307400023A0F5001305000087
:1044A400678000009307200023A0F5001305000097
:1044B4006780000013051000678000009307000167
:1044C40023A0F50013050000678000001307050012
:1044D40003250500130101FE232A91003305A7409B
:1044E4000358050023282101232E1100232C8100C9
:1044F40093074000138905009304060063FA070735
:10450400835745001304100063880702B307F700BC
:1045140083A60700B387D70003A60700630E06002F
:10452400131626003386C70083A6470093874700E7
:104534003304D402E31AF6FE9307600063F4070918
:104544008357650013050000639807069305C100AF
:10455400EF409144630805028320C10103248101D3
:104564008324410103290101130101026780000032
:10457400130500009305C10013041000EF40D1415E
:10458400E31C05FC0325C10093850400EFF09FECB8
:10459400E31405FC83A704008320C10183244101A3
:1045A4003384870223208900032481010329010124
:1045B40013010102678000003307F70003050700B9
:1045C4006FF0DFF8130500006FF05FF8638C050AE5
:1045D40083274500930610006384070203A807009D
:1045E40063500003938747001307000003A60700E6
:1045F4001307170093874700B386C602E31807FF23
:1046040083278500130720016366F7063727048094
:10461400939727001307477BB387E70083A7070017
:104624006780070093078000B386F6021305000035
:1046340023A0D5006780000093074000B386F602EC
:104644001305000023A0D500678000009307100025
:10465400B386F6021305000023A0D500678000008E
:1046640093072000B386F6021305000023A0D500AB
:1046740067800000130510006780000093070001A5
:104684006FF09FFA130101FF23261100EF50123D32
:1046940083A78500130101FC23244103232E110267
:1046A400232C8102232A9102232821032326310368
:1046B40023225103130A0500638C070A032786008B
:1046C4006302070C1389060083A6860083A40600F0
:1046D400639A040683A60700832707001384050052
:1046E40063C4D700130406008327040003250900CC
:1046F4006304F50A83274A01373704803736048078
:10470400B725048013050A00130747879306400959
:104714001306868193850532E78007001305100090
:104724008320C10303248103832441030329010358
:104734008329C102032A8102832A4102130101044D
:104744006780000083274501373704801307C78536
:104754009306100937360480B72504801306868132
:1047640093850532E7800700130510006FF05FFBA7
:104774003737048083274501130707809306F00821
:104784006FF05FFD373704808327450113074784A3
:10479400930600096FF01FFC93050100232001001C
:1047A400EFF05FCB9305040013054100EFB01FE069
:1047B40083294100635E30078327840003250100B9
:1047C400130700009387470003A607001307170089
:1047D400938747003305C502E398E9FE832A8A03D9
:1047E400232CA9002320A100EFC0C11F93050500BD
:1047F40013050A00E7800A002324A9008327840004
:104804001307450083A60700938747002320D5009C
:1048140083A6070093841400938747002320D700BE
:1048240013074700E39699FE130500006FF05FEF4E
:104834000325010083248A03232CA900EFC0811AD5
:104844009305050013050A00E78004002324A9004A
:1048540003278400930705001305000003270700BE
:1048640023A0E7006FF0DFEB032545008327050055
:1048740083A78700678007006780000067800000C7
:1048840003258500130600018327050083A78700FD
:1048940067800700032545008327050083A7870059
:1048A40067800700032545008327050083A7C70009
:1048B40067800700032545008327050083A7470178
:1048C40067800700032545008327050083A70701A8
:1048D4006780070003258500130640009305000444
:1048E4008327050083A7870067800700678000008F
:1048F400130101FF232611002324810023229100A8
:10490400232021016382050803A7050393071000F0
:104914001384050093040500630EF70203A5440005
:1049240093050400232A040283270500232204009C
:104934002328040223240400032481008320C100CB
:10494400832441000329010083A7C7001301010147
:104954006780070003A9450363080902032545008E
:10496400832549008327050083A7C700E780070044
:1049740003A54400930509008327050083A7C70006
:10498400E78007006FF09FF9EF50520D9305400246
:104994006FD0C125930580006FD04125130101FF1D
:1049A4002324810023261100138405006380050459
:1049B400832785016382070203258500930506008A
:1049C40093952500832705001306400083A78700DD
:1049D400E78007002320A4008320C1000324810072
:1049E400130500001301010167800000EF50120756
:1049F40083A80500130101FC232C8102B38815410F
:104A040003D80800232A91022328210323263103F3
:104A1400232441032322510323206103232E710104
:104A2400232E1102130A4000138B05009304050082
:104A3400938B06009309060013040000930AE00018
:104A44001309F0FF637A0A0783D7480063860706D1
:104A5400B307FB0003A70700B387E70003A707001A
:104A64006370E40A1315240093874700B387A700F3
:104A740003A70700B387E70003A707003387E740CE
:104A84000356070063F4CA020357E70063000702F2
:104A9400B387E70083C70700638A070063820B02BA
:104AA4003385AB0083270500638C270113041400AE
:104AB4009389C900E36A0AF9832700007300100090
:104AC4009305C10013850900EFF05FB0631C050274
:104AD40003A584008325C100130600018327050074
:104AE40083A78700E780070023A0A90063020504C9
:104AF40083280B00B3081B4103D808006FF01FFB89
:104B0400130500008320C10303248103832441038C
:104B1400032901038329C102032A8102832A410252
:104B2400032B0102832BC1011301010467800000E0
:104B34008325C1003735048013050589EF40011929
:104B4400130510006FF01FFC130101FE232E11004A
:104B5400232C8100232A91002328210123263101BB
:104B640023244101232251016308060C130A060081
:104B740013040500938A0500930900009304800040
:104B84001309C0026F00000683D7870063840706F9
:104B9400B387FA0003A50700B387A70003A707009C
:104BA40063F8E9081395290093874700B387A700A2
:104BB40003A507003385A700EF40C148B3052503CB
:104BC40003258400130640008327050083A787007C
:104BD400E7800700630405022320AA0093891900D3
:104BE400130A8A0083A70A00B387FA4003D7070091
:104BF400E3ECE4F8832700007300100037350480E9
:104C04001305058CEF40810C130510008320C101AE
:104C14000324810183244101032901018329C10063
:104C2400032A8100832A41001301010267800000E6
:104C3400130500006FF09FFDEF50426283A705004B
:104C4400130101FE23282101B387F54003D807008F
:104C540013890500232E1100232C8100232A91009F
:104C6400232631012324410123225101930580008D
:104C740063F0051383D78700638C0710B307F9002B
:104C84001304070003A70700B387E70083A70700FF
:104C94006370F40E03270500B75700809387878D50
:104CA4000327470393040500930A0600138A0600AA
:104CB4006310F70A03A5840013064000930500045B
:104CC4008327050083A78700E78007009309050071
:104CD40083A60400930700001307040003A88603B7
:104CE4001386090093060A0093050900138504003E
:104CF400E70008006314050663880A0213143400ED
:104D0400B38A8A0083A74A0093161A00B386460121
:104D140093962600B386D70003A7460083A7060010
:104D240023A4E90023A2F9008320C1010324810103
:104D34008324410103290101032A8100832A4100BC
:104D4400138509008329C100130101026780000053
:104D5400E7000700930905006FF09FF737350480DB
:104D64001305C5A3EF309176930900006FF0DFFBC4
:104D7400B736048037360480373504809386868FAF
:104D8400130646909305A00A130505A0EF50824E22
:104D94008327000073001000130101FA83274500E4
:104DA40023244105138A0500832585012322510507
:104DB400930A05001305C100232C8104232821052F
:104DC40023263105232E1104232A9104232061056F
:104DD400232E7103232C8103232A91031309060034
:104DE40093890600232641012328F100232601028A
:104DF400EF30903013040500630E05028320C105D3
:104E040013050400032481058324410503290105B6
:104E14008329C104032A8104832A4104032B010446
:104E2400832BC103032C8103832C4103130101064B
:104E340067800000930541001305C100232201008F
:104E4400EF40901813040500E31A05FA130B490008
:104E5400930480006F00800583D787006380070672
:104E6400B307FA0083A50700B387B70003A70700B9
:104E7400637AE40403A70A00931524009387470088
:104E8400B387B70083A5070003260B000327070396
:104E940083264100B385B70013850A00E7000700A5
:104EA400130B8B00631205121304140083270A00EA
:104EB400B307FA4003D70700E3E0E4FA83270000CE
:104EC4007300100083254100130609001305C10077
:104ED400EF30105913040500E31205F203A5CA01CB
:104EE40093054000EFF0CFD3130605001307090024
:104EF40093860900930500001305C100EF40800963
:104F040013040500E31C05EE03A54A009305000104
:104F14008329810183270500032B410183A707030C
:104F2400E78007009304050003A54A001306000167
:104F3400938504008327050083A78700E780070083
:104F4400130A05006306050883AC0A01B7670080ED
:104F54009387875403A70C000327C701631EF70632
:104F6400638C091A376C008013090B0093040B003F
:104F7400930BF0FF130C0C546F0000011304140086
:104F8400938484016388890883C74401E38807FE06
:104F940003A5040093050001EFF08FCA03A70401E1
:104FA40083A70C006306770583A7C7006382870382
:104FB40083A6C40003A684009305050013850C0092
:104FC400E7800700E30C05FA130405006FF01FE304
:104FD400130410006FF09FE213850C001386040085
:104FE40093050A00E700070083AC0A016FF05FF73E
:104FF40083A6C40003A6840083A787009305050045
:1050040013850C00E7800700E30A05F61304050086
:105014006FF0DFDE03A54A0003AC0A01930400002D
:1050240083270500930BF0FF83A74702E78007005F
:1050340093971900B38737019397370093090500B5
:10504400330BFB0083474901638E070283270C005F
:10505400130681002324710183A78701938504002B
:1050640013050C00E780070013040500E31805D8B6
:10507400832781000327490093841400B387F90030
:105084002320F70013098901E31E2BFB1305C1003C
:10509400EF30102003A54A0093050A00832705007A
:1050A40083A7C700E780070003A54A0083270500FC
:1050B40083A74701E780070013040500E31005D424
:1050C40003A54A0083A5CA018327050083A7070215
:1050D400E780070013040500E31205D203A50A01C3
:1050E4008327050083A70701E780070083A50A0239
:1050F40063F6A50023A0AA029305050003A54A00B0
:10510400130600018327050083A78702E7800700B1
:10511400130405006FF09FCE03A54A008327050002
:1051240083A74702E78007006FF05FF683A70500B7
:10513400130101FE23282101B387F54003D807009A
:1051440013890500232E1100232C8100232A9100AA
:105154002326310123244101232251019305800098
:1051640063F0051183D78700638C070EB307F9003A
:105174001304070003A70700B387E70083A707000A
:105184006370F40C9309050003254500930500049E
:10519400930A06008327050013064000138A0600BD
:1051A40083A78700E780070003A70900930405008D
:1051B4001306050003288703930710001307040050
:1051C40093060A009305090013850900E700080007
:1051D400631E050463880A021314340033848A00AE
:1051E4008327440093161A00B3864601939626003B
:1051F400B386D70003A7460083A7060023A4E400D0
:1052040023A2F4008320C1010324810103290101A5
:105214008329C100032A8100832A410013850400E5
:1052240083244101130101026780000037350480A3
:10523400130585A8EF309129930400006FF09FFCBB
:10524400B736048037360480373504809386868FDA
:10525400130646909305A00A130505A0EF5082019A
:1052640083270000730010000327050093068000C5
:10527400930700003307E5400356070063F6C600B2
:10528400035787006312070603A7050063F6E706C2
:105294009385450093972700B387F50003A707007C
:1052A40093064000B387E70003A707003387E7406E
:1052B4000356070063F6C6020357470013050000B0
:1052C40063000706B387E70003A70700B387E70077
:1052D40003A70700630607041385470067800000DF
:1052E40013050000678000003305E50083270500EF
:1052F40003A70500E3EEE7F8B736048037360480E9
:1053040037350480130101FF9386868F1306C6ACDC
:105314009305A00A130505A023261100EF409275FA
:1053240067800000130101FB232611042324810458
:105334002322910423202105232E3103232C41030E
:10534400232A510323286103232671032324810381
:10535400232291032320A103232EB1012326A1009C
:10536400630C0628138D0500930746002324F100DF
:1053740083270D00371B068093068000B307FD408A
:1053840003D70700930B0000130AC000130B4B292B
:1053940063F0E62283D68700638C0620B306DD0023
:1053A40083A70600B386F60083A7060063F2FB22F8
:1053B40093972B0093864600B386F60083A70600D6
:1053C40013074000B38AF60083A70A00B387FA40A4
:1053D40003D60700637EC71C83D74700638A071C74
:1053E4008326C100B387FA0003A7070003A586003C
:1053F40013064000B387E70003A9070083270500CD
:105404001314190083A78700330424011314240000
:1054140093050400E78007002322A100630E05180A
:10542400930D0500930C0000930440009309600061
:10543400631809046F00001593050C00130504009C
:10544400EFF09FE20327040023A0AD003307E440FC
:105454000356070063F0C41203554700630C05109C
:105464003304A40003250400938C1C00938DCD0009
:105474003305A400EF30D14B23ACADFE6304991186
:1054840003A70A003387EA400356070063F2C412F5
:1054940003544700630E041033848A000327040076
:1054A4003304E4000327040063F8EC1203270D001F
:1054B40013952C00130444003304A4003307ED4077
:1054C4000325040083550700130C00003304A400D3
:1054D400637CBA000357C700630807003307ED0075
:1054E40003260700330CC7000327040023A00D0084
:1054F40023A20D003307E4408355070023A40D00C5
:105504001305000063FAB900035767006306070038
:105514003307E4000305070093858D00EF30D1477E
:10552400E30C05F037350480130545D093850C0052
:10553400EF30C179130510008320C10403248104D2
:1055440083244104032901048329C103032A810319
:10555400832A4103032B0103832BC102032C810201
:10556400832C4102032D0102832DC1011301010586
:105574006780000023A26D01938C1C00938DCD00E5
:10558400E31099F1832781000327410093068000EB
:105594009387870023ACE7FE2324F10083270D00C3
:1055A400938B1B00B307FD4003D70700E3E4E6DE5B
:1055B400832700007300100037350480130545BCB1
:1055C40093050400EF308170130510006FF0DFF6CF
:1055D400130500006FF05FF6B73604803736048099
:1055E400373504809386868F1306C6C09305A00AB8
:1055F400130505A0EF401248EF405246130101FD88
:105604002326110223248102232291022320210331
:10561400232E3101232C4101232A51012328610126
:105624006386073893040500138905001385070072
:105634009309060093050000130600041384060072
:10564400138A0700930A0700EF50D27483260400DC
:105654009307600013050000B306D44003D7060087
:1056640063FAE70083D7660063860700B307F40094
:105674000385070093050A00EF301132130B050070
:105684006316050A832604001307E000930700004D
:10569400B306D44003D60600637CC70003D7E600F4
:1056A400630807003307E40083470700B337F000BB
:1056B40093850A00A306FA0213050400EFF0DFBA8B
:1056C40013371500130717002322AA00232AEA0020
:1056D4001306C10093058A0113050400EFE01FDFE0
:1056E400130B05006314050403270400930640000C
:1056F4003307E4408357070063F0F6060355470079
:10570400630C05043305A400832705003305F50065
:10571400EF301122032704009306C0002324AA00BB
:105724003307E4408357070063E2F6048320C10291
:105734000324810283244102032901028329C10134
:10574400032A8101832A410113050B00032B010164
:105754001301010367800000B7160680938646296B
:105764002324DA009306C000E3F2F6FC8356C70054
:10577400E38E06FA3304D400832704001306800062
:105784003304F40083270400B307F44083D60700EE
:10579400E37ED6F803D78700E30A07F83307E4006B
:1057A400832507003307B7008325070063820518A4
:1057B4009305A000E3FCD5F683D7A700E38807F69A
:1057C400B307F40083A60700B387D70083A60700B6
:1057D4006380061683A74700032747002328FA009F
:1057E400832704002326EA00B307F44003D7070005
:1057F4006374E61483D7870063800714B307F40047
:1058040003A70700B387E70083AA0700638409148A
:1058140083270900130640009305C00083A787006F
:1058240013050900E78007009309050063060516C0
:105834008327090013850A0083A48700EFB0811A27
:10584400930505001306400013050900E7800400D2
:1058540023A2A900630E0514832704001307800004
:1058640013050000B307F44083D60700637CD70018
:1058740083D7870063880700B307F40003A50700F4
:105884003385A700EF30110B03A7490023A0A9001B
:105894000323040023205701635650133303644049
:1058A400035E03009307A00063F8C7098358A300AD
:1058B400130747009307000033051401638E08069D
:1058C40003260500835583003306C500032806001C
:1058D400B306B4006382050683A50600B386B6004A
:1058E40083A60600638E06056304080E832646001D
:1058F4002320D7009387170013074700E390FAFC8F
:105904001307000193070000637AC70103570301DB
:10591400630607003304E4008327040023A4F9008A
:10592400930710002328FA02232A3A036FF01FE09A
:10593400130B00006FF09FDF83270000730010003B
:1059440063F8D708939637003306D60083264600BB
:105954006FF01FFA83A70400130640009305C000EC
:1059640083A7870013850400E780070093090500D7
:105974006304050283A7040013850A0003A98700B2
:10598400EFB041069305050013064000138504009B
:10599400E70009006FF0DFEB37350480130545D2CB
:1059A400EF30C132130B10006FF05FD8EF40120BD1
:1059B40037350480130545D5EF304131130B100002
:1059C4006FF0DFD633036440035E03006FF05FF3D0
:1059D400B736048037360480373504809386868F43
:1059E400130646D89305A00A130505A0EF409208B4
:1059F40003A30500938805001308800033836840DF
:105A0400035E03009305050083A545000325850077
:105A14006370C81103588300630C080E33880801AF
:105A2400930E06001386070083270800130101FF65
:105A3400232611003308F800832708006376F7084B
:105A440013084800131727003307E800032807004A
:105A54009307400033070701032807003308074171
:105A6400035F080063F2E70B83574800638E07085F
:105A74003307F700832707003307F700832707005E
:105A840063F4F6061307470093962600B306D7007F
:105A940003A806009307C00013070000B38606019D
:105AA40063FCC7018357C30063880700B388F80009
:105AB40003A708003387E8008320C10093870E0002
:105AC400130101016FF09FB3B736048037360480A9
