:0200000480007A
:0E0000001791060013010138C52001A082806F
:10001000130101FF1305400023261100EFB0C17D3D
:1000200097670400938747842320F5001766010033
:1000300013068621976504009385C581EF50C10A98
:10004000130101FE2326A10013058000232C81004B
:10005000232E1100232A9100EFB0017A8325C100DD
:1000600013040500EFB0513117C60100130686A72F
:10007000977504009385C50313050400EF50C1066E
:100080009304050013050400EFB0817C1385040080
:10009000EF20D366130101FE2326A1001305800083
:1000A000232C8100232E1100232A9100EFB0C1746C
:1000B0008325C10013040500EFB0913117C601007C
:1000C0001306C6A5977504009385850013050400E3
:1000D000EF5081019304050013050400EFB0417750
:1000E00013850400EF209361B787038083C6D70B85
:1000F000057103C6C70B03C7E70B232C811C03C480
:10010000F70BA206D18E4207558F6204598C938754
:10011000C70B3E941C40232E111C232A911CB307AD
:10012000F44083D607002328211D2326311D417367
:1001300011471A91637ED71A83D74700638A071A3B
:10014000A2978C438D476396F51AB757048093871F
:10015000475F8803BEC3C16923240118232E011AF7
:10016000EF70C02B41799387091C8A97930449F05B
:10017000BE94B70601809386E65390038145268599
:10018000EF30D1718803EFD0A030B726018093867D
:10019000068B9003CD452685EF3051708803EF60C4
:1001A000B039B72601809386868B9003D945268582
:1001B000EF30D16E8803EFD0D060B7160180938600
:1001C000C6879003930550022685EF30316D880372
:1001D000EFB09038B7160180938686F69003A54558
:1001E0002685EF30B16B8803EFC0C020B7260180B1
:1001F0009386A6C59003E5452685EF30316A93873F
:10020000091C8A971309C9E43E994A850148814728
:10021000416794032686A285EF5020254A85EF503A
:10022000700181454A85EF506010AA84630F050E66
:100230001C45375504801305454D8C43EFE060594C
:100240009C4498436352E0020144375904801317D9
:100250002400BA97CC431305C94EEFE080579C4465
:1002600005049843E345E4FE98408547630AF70A8E
:10027000B75504809385C545375504801305054F50
:10028000EFE0205537550480854513058550EFE094
:100290004054984C814709CBD8403E972300070033
:1002A000984C8507E3EAE7FE37550480854513053A
:1002B0004553EFE00052C16741759387071C130552
:1002C000C5E48A973E95EF50702B3DC537550480A5
:1002D0001305C554EFE0E04F7D54C1674175938726
:1002E000071C8A971305C5E43E95EF50803611A888
:1002F0008145375504800D4613054546EFE0604DB6
:100300007D5441631A918320C11D22858324411DA0
:100310000324811D0329011D8329C11C3D618280A5
:10032000B75504809385454581BF37550480130533
:10033000C54AEFE0004A4DB7C16741759387071C76
:100340001305C5E48A9781453E95EF50E007375580
:10035000048085451305C555EFE0A0473755048057
:1003600013058557EFE0E046014485BFC1672A8445
:100370009387071C41758A971305C5E43E95EF5096
:10038000402D2285EF209337130101FF23248100A4
:100390003714000013040494232291001305040071
:1003A00097940400938444F12326110023A684002B
:1003B000EFD0C10723A4A40063140502979704009B
:1003C00023A207F09797040023AA07EE8320C10019
:1003D0000324810083244100130101016780000090
:1003E00023A2A40023208500232205006FF01FFE16
:1003F00021C11C41A946B307F54003D7070063F4A8
:10040000E60203D7A700814619C32A97144303D7EE
:100410004700814701C73A95830705003E8563D8A9
:10042000D70036858280914663E8E60001458280E8
:10043000411106C6EFC091028146D1BF09C91C51C6
:10044000030505006343F50082803E8582804111EB
:1004500006C6EFC0B100411122C406C62A848DC170
:100460008C4599479041910510C163C2C7020A06A5
:100470001105EFD0710EB2402285224441018280E5
:10048000B240232005002285224441018280EFC032
:10049000E17CAE87D0438C41411106C60D8E935747
:1004A000264022C41CC1E14763CBC7002A84110542
:1004B000EFD0910AB2402285224441018280EFC0F0
:1004C000E179011122CC26CA3684B28481460146E4
:1004D0004AC84EC606CEAA892E89EFB0220401ED85
:1004E00023A00400F240232004006244D244424985
:1004F000B2490561828022864E85CA85EFB01145DA
:10050000B797048003A687AC83A6C7ACEFB042269A
:10051000EFB09157EFC0C2136340B00495C93707DD
:1005200000801C406300E502055763D5E7002320E7
:1005300004000145F240624488C04249D244B249B5
:1005400005618280F5F185071CC037050040E9BFD1
:10055000B7070080E3F5A7FCEFC041700111B79722
:10056000048022CC4EC63684B28983A647AD03A64A
:1005700007AD26CA4AC806CE2A89AE84EFB0C202A9
:100580006354A0064A85A68501468146EFA01279EC
:1005900001ED23A0090023200400F2406244D2446C
:1005A0004249B2490561828022864A85A685EFB01C
:1005B000F139B797048003A687AC83A6C7ACEFB028
:1005C000221BEFB0714CEFC0A208634FB000A1C175
:1005D000370700801C406306E502055763C8E70043
:1005E00023A0A900E3DB07FAEFC041672320040042
:1005F000F240624423A00900D2444249B249056155
:100600008280E1FD85071CC037050040F9B7B707B8
:100610000080E3FFA7FAC9BF7971B79704804AD079
:100620004ECE3689B28983A647AD03A607AD22D444
:1006300026D206D6AA842E84EFB04205635605065C
:100640002685A28501468146EFA01276635EA0044E
:1006500070002685A285EFB0712FB797048003A69E
:1006600087AC83A6C7ACEFB0A210EFB0F141EFB0FA
:10067000327E634BB002A9C137070080B2476307DF
:10068000E502055763DEE70023A009008147B25069
:1006900022542320F90092540259F2494561828084
:1006A00023A0A900E355F0FEEFC0415BF9F98507EF
:1006B0003EC637050040F1B7B7070080E3FEA7FA52
:1006C000E5B7B707008093C7F7FF33F7B700498F47
:1006D0002E8825C313D745011377F77F9306F07F44
:1006E000630CD702930627C0AA0593576501370705
:1006F00000402A05CD8F14C29305F7FF2981B70664
:100700002000ED8F63ECA6023385E700B337F500D8
:10071000BE85634D08028280B2053707C0FF798D20
:10072000B1811CC2C98D9DE9634D08027D55BE850E
:100730008280232006000145814582801305170031
:100740003E95B337F500BE85E35708FCB337A000EC
:10075000B305B0409D8D3305A040828001458145A1
:1007600082800145B70500808280B706008093C66D
:10077000F6FFB367B5006307D60C01488148C1C7CF
:1007800093D6F541358D3308D540B3C7B600333520
:100790000501958F7D16898F1357F6414285634F6A
:1007A000F006ADC7B70800401358F5018607933629
:1007B0001600B367F8000605158F7D166345F00037
:1007C000E5F7E36315FFB70600C0AA9633B5A600A8
:1007D000FD17AA976354E00A1306F03F01477D55C1
:1007E0006342A708630CA70613D7A6001306F63FBB
:1007F000DA07D98F520637070080F98DD18FDA06D4
:10080000CD8F3688BE884285C6858280B706004077
:10081000E36AD8F8B7060080E3F706FB37030080E9
:10082000930616009398F70133B8C60005818587B3
:1008300033E5A80036864297E344F0FEC9F7E3614A
:10084000A3FE51B79DC36351B004B797048003A8BA
:1008500087AE83A8C7AE4285C6858280130710C0C5
:10086000E374E6F8130610C041B7B797048003A8F5
:1008700007AE83A847AE4285C68582802DF3130557
:10088000F03FE37EC5F489BF91E161F1B797048041
:1008900003A887AD83A8C7ADBDB7B707008093C7CE
:1008A000F7FF33F7B700498FAE8EB68833FED70017
:1008B0006DC713D745011377F77F1308F07F630ADD
:1008C000070BAA0593576501370300402A05CD8F12
:1008D0001308F3FF2981B7052000B3F7070163F37D
:1008E000A50005033E93B337F3003E8863DA0E009C
:1008F000B3356000B307F0403388B740330360403E
:10090000B367CE0001458145C1CB130527C013D77E
:1009100046011377F77F9307F07F6305F704AA0674
:1009200093576601B70500402A06D58F138EF5FF51
:100930002982B7062000B3F7C70163E9C6063386EC
:10094000B700B337F60063D90800B336C000B30769
:10095000F040958F3306C040B705008093C6F5FF81
:10096000631CD504B797048003A507AE83A547AEE3
:100970008280B2053707C0FF798DB181C98DFDE155
:1009800063CD0E127D533E88B367CE00E1DF37079B
:1009900000801345F7FFA5BF8280B367CE000145F5
:1009A0008145FDDB01450143014895B713861500DC
:1009B0003E96B337F60041BF3308C802930627C0FE
:1009C000AA9693C5E5FFB387670233366602C297DE
:1009D000B29713D8F74133E707016388B60879CB9C
:1009E000B347F80033860741B3B7C7003307004168
:1009F0001D8F93D5F641B2876343E0025DC7B70808
:100A0000004013D5F701060713B61600498F860775
:100A1000918DFD166345E0006DF7E3E417FF37069F
:100A200000C03E96B337F6007D17BA976352B00602
:100A30009306F03F81457D5763C9E5046383E50470
:100A40001357A6009386F63FDA07D206D98F3707E9
:100A500000803378E800D58F5A06B3E70701328566
:100A6000BE8582800143014805B7E30D07EE631799
:100A700008028DC7B797048003A587AE83A5C7AECC
:100A80008280130710C0E3FDE6FA930610C04DBF45
:100A9000DDF11307F03FE370D7FA59BFB797048031
:100AA00003A587AD83A5C7AD828037060040E3E884
:100AB000C7F4B5B7014581458280014337080080FE
:100AC000E1B5B707008093C7F7FF33F7B700498F49
:100AD000AE8EB68833F8D7006DCF13DE4501137E96
:100AE000FE7F1307F07F630FEE08AA059357650199
:100AF000370300402A05CD8F1307F3FF2981B7057F
:100B00002000130E2EC0F98F63F3A50005033E935A
:100B1000B337F3003E8763CD0E0C3368C80063071C
:100B2000080E93D5460193F5F57F9307F07F0545B1
:100B30006389F5041395A60093576601B706004034
:100B40002A06C98F1388F6FF29823705200093856E
:100B500025C0B3F707016373C5008506BE96B3B71A
:100B6000F60063D908003336D000B307F040918F08
:100B7000B306D040370600801346F6FF05456318DC
:100B8000CE028280B2053707C0FF798DB181C98D51
:100B9000A9ED63CC0E087D533E873368C800054538
:100BA000E30108FE370E0080134EFEFF9DBF336643
:100BB000E3000DCA6355070033E6F60009CA7D5508
:100BC000E341BEFC0545E3CEC5FB6355F7047D5507
:100BD00082803368C8000145E30508FA014E0143ED
:100BE000014781B7E3DD07FC82800143014775B708
:100BF000B3356000B307F0403368C8003387B740AF
:100C0000330360407D55E31E08F0828081458146B4
:100C1000814775B76394E700E36BD3FA0545E3C2F8
:100C2000E7F66308F700014582800143370700803B
:100C3000ADB7E3FA66FE828079715AC82A8B370510
:100C400000803355E50006D622D426D24AD04ECEB7
:100C500052CCBE8956CA5EC62E8AB68AC284B28B70
:100C6000EFB092142A892E84D6865E86D2855A8564
:100C7000EFA012302A86AE864A85A285EFA0522FB9
:100C8000B797048003A947AF03AA07AFAA8ACA8609
:100C900052862E84EFA052116344A004B7970480BB
:100CA00003A607AD83A647AD5685A285EFA0D20F58
:100CB000635AA0065685A28501468146EFA012061A
:100CC00015E123A0090023A00400B250225492543D
:100CD0000259F249624AD24A424BB24B4561828084
:100CE000D28A4A8426865685A285EFB02146B797D8
:100CF000048003A687AC83A6C7ACEFA07227EFB031
:100D0000A158EFB0F214634FB00095C937070080C7
:100D10009C406300E502055763C8E70023A0A900D3
:100D2000E3D507FAEFB0917323A0040023A00900D4
:100D300069BFF5F185079CC037050040E9BFB707DB
:100D40000080E3F5A7FCF9BF39715ECEAA8B3705A9
:100D500000803355E50006DE22DC26DA4AD84ED67E
:100D600052D456D23E8A5AD062CCAE8A368B428951
:100D7000C689328CEFB05203AA842E84DA8662864A
:100D8000D6855E85EFA0D21E2A86AE862685A285F0
:100D9000EFA0121EB797048083AA47AF03AB07AF3B
:100DA000AA84D6865A862E84EFA01200634CA00C2B
:100DB000B79A048003A60AAD83A64AAD2685A2850C
:100DC000EFA0827E635EA00A2685A2850146814649
:100DD000EFA0C27455E9B797048023200A0083A4CA
:100DE00087AF03A4C7AF23200900014781473A8694
:100DF0002685BE86A285EFA0220403A60AAD83A69F
:100E00004AADAA842E84EFA07208635B050626858E
:100E1000A28501468146EFA022796353A0067000A7
:100E20002685A285EFB08132B797048003A687ACF0
:100E300083A6C7ACEFA0D213EFB00145EFB05201CB
:100E40006340B004E1C937070080B247630EE50A8A
:100E5000055763D3E70223A0090081470647F250F4
:100E600062541CC3D2544259B259225A925A025B5C
:100E7000F24B624C2161828023A0A900E350F0FE76
:100E8000EFB0D15DDA8456844A862685A285EFB01C
:100E9000E12BB797048003A687AC83A6C7ACEFA06D
:100EA000320DEFB0613EEFB0A27AE34BB0FCA5C9C2
:100EB00037070080832709006301E504055763C7EE
:100EC000E7022320AA002A84E3CC07FA3705008032
:100ED0003355F500EFB0426DAA8422852E84EFB021
:100EE000A26C2A87AE87B79A048011B72320090025
:100EF00023200A0001448147D1BFE9F1850723205F
:100F0000F900370500405DBFA1F585073EC63705EE
:100F100000403DBFB7070080E3F7A7F295B7B707DA
:100F20000080E3F7A7F8A9BF011126CA85444AC883
:100F30002A893395A4007D1522CC4EC6328406CE74
:100F4000AE89EFB0626633062441930706FE2A8914
:100F50002E8463CA0704B395F4000145EFB0C27C48
:100F60002A86AE864A85A285EFA09200938709FE65
:100F7000AA842E8463CD07028545B395F50001450B
:100F8000EFB0827A2A86AE862685A285EF90D26A55
:100F9000EFA0117DEFB04259F2406244D244424981
:100FA000B2490561828081453395C40045BF05453E
:100FB000814533153501E9B779714ECEAA8932855D
:100FC00006D622D426D24AD0B6842E8952CC56CA0E
:100FD0005AC8C28A3E8B5EC662C4BA8B328CEFF0AE
:100FE000A2612A842685EFF02261CE852A8A4A856D
:100FF000EFF002082A89A2855285EFF06207AA85E0
:101000004A85EFE0F205AA8523A0AA002A894E8529
:10101000EFE01205AA852285EFF08205AA89AA854C
:101020002285EFE0F23D6357A00413150C014181C6
:10103000EFF0825CAA84AA852285EFF06203CA855C
:10104000EFE09252A68523A0AB005285EFF042025A
:1010500083A50A00EFE05251B25022542320AB0086
:1010600092540259F249624AD24A424BB24B224C44
:1010700045618280CE855285EFE0D243AA871395E1
:1010800004014181E3C607FA4E85EFF02275EFB007
:10109000A11FEFF0F221EFF0A24F420503A90A00D1
:1010A000418179B779715EC6AA8B37950480032593
:1010B00085B622D42E84DE8506D64AD04ECE52CCBA
:1010C00056CA5AC862C43E8B3689BA89B28A26D2B9
:1010D000EFE002792A8C930500005A85EFE0523246
:1010E000014A6352A00683240900A2852685EFE009
:1010F0003231D6856343A000A2842685EFE0923B7F
:101100002A87A2855685634C0704EFE07276E28554
:10111000EFE09245EFF0826CEFB00117EFF052195B
:10112000DE85EFE07244A285EFE0C22D050A23A020
:10113000A9005285EFF0424CDA85EFE0B237110991
:101140009109E34205FAB250225492540259F249ED
:10115000624AD24A424BB24B224C4561828026857C
:10116000EFE01271E285EFE03240EFF02267EFB07E
:10117000A111EFF0F213DE85EFE0123FA285EFE060
:101180006228050A23A0A9005285EFF0E246AA854D
:101190005A85EFE0F22611099109E346A0F465B7FC
:1011A000411106C622C426C24AC0AE84EFB0C1298E
:1011B000B797048083A5C7B6EFE0123B2A84EFF00F
:1011C000E261EFB0610CEFF0B20E2A89EFF0423528
:1011D000CA8588C02285EFE0B269B797048083A5ED
:1011E00007B706050581EFE0F22CB2402244924495
:1011F00002497D8141018280F1C57971B7970480F0
:1012000022D426D24AD04ECE52CC56CA5AC85EC636
:1012100062C403A987AC83A9C7AC06D66AC26EC0F4
:101220002E8AAA84B28A3684014C370B0080855BF3
:1012300019A823A00A0023200400050CA104910A88
:101240001104630D8A0503AD040083AD440001461B
:1012500081466A85EE85EFA0622C61DD22866A8573
:10126000EE85EFA0B16E4A86CE86EFA06250EFB059
:10127000A101EFB0E23D634AB004B1C51C40630D6B
:10128000650363D5770123200400014523A0AA004C
:10129000050CA104910A1104E3178AFBB2502254F1
:1012A00092540259F249624AD24A424BB24B224C02
:1012B000124D824D45618280E9F585071CC03705D6
:1012C0000040C1B78280E37BABFAEFB0311993469F
:1012D000F6FFFD86F18E3308C0406353C00001481D
:1012E000B316D5003386D5023395D502638DB60685
:1012F000634405043707004032973336C7002A9607
:1013000006067D83B367E6007D47634E0707130734
:1013100008FE0145635507000545331505017D1598
:101320009356154013D7F7017D8D36973325A700C7
:10133000B3D707413E958280B70600C08506FD58A9
:10134000B307D60033B7C700330615013A961357D3
:10135000F64106070583BA9733B7E70032970607C9
:10136000FD83D98F55B7B706004081486356050005
:10137000B70600C08506FD583707008093C7F5FF04
:10138000E384E5F875BFB7560380375603803755B9
:1013900003804111938606AD130606AE93057016C1
:1013A0001305C5B306C6EFB0F10C411106C6634183
:1013B000060E9387F60113076002636BF70A216735
:1013C0003388E500C1676375F808B707FF7F634C92
:1013D000F6047D1701463306A602B9473388D74085
:1013E000930708FEB385E502B338E5022E96330570
:1013F000E502B29863C9070405463316F600814733
:101400003387A7003D45B306D540B337F700330512
:101410001601138606FE3E95634C0600B240335516
:10142000C540410182803A96135706417D8665B7D3
:10143000B240FD470605958FB317F5003355D70029
:101440005D8D4101828085470146B39707014DBFFD
:10145000B75603803756038037550380938606C2FC
:101460001306C6B89305B002130545BDEFB0910051
:10147000B75603803756038037550380938646C09E
:101480001306C6B89305A002130545BDEFB0817ED3
:10149000B75603803756038037550380938606B7C7
:1014A0001306C6B893059002130545BDEFB0817CC5
:1014B0006351B00601118A0522CC26CA4EC606CE5B
:1014C0004AC82A84B284B309B500032904009305ED
:1014D00000004A85EFE0C2726340A002930700005B
:1014E0009CC011049104E39289FEF2406244D2440C
:1014F0004249B2490561828023A02401110491046C
:10150000E39589FCF2406244D2444249B249056104
:1015100082808280635CB0060111B797048056C256
:1015200083AA87B6B797048052C403AA47B78A052F
:1015300022CC4AC84EC606CE26CA2A843289B309AE
:10154000B5000440D6852685EFE0826BAA87D28558
:1015500026856345F002EFE0A26A6342A0022320E1
:10156000490111041109E31E34FDF2406244D244E2
:101570004249B249224A924A05618280D684232098
:10158000990011041109E39E89FAC5B7828063505E
:10159000B0080111B797048052C403AA87B78A051F
:1015A00022CC4AC84EC606CE26CA2A843289B3093E
:1015B000B5000440D2852685EFE08264AA879305B2
:1015C000000026856346F002EFE082636343A002D9
:1015D000930700002320F90011041109E31B34FDD7
:1015E000F2406244D2444249B249224A05618280B3
:1015F000D2842320990011041109E39C89FAF24056
:101600006244D2444249B249224A056182808280C2
:10161000635DB00241118A0522C426C24AC006C6D3
:101620002A84B2843309B5000840910411041325BB
:101630000500EFF0E20C23AEA4FEE31789FEB240F2
:1016400022449244024941018280828093D8F5016C
:10165000AE98854793D8184063D5B702B286014744
:10166000B307E50083870700890605071398C701BC
:101670001358C8419187238F06FFA38FF6FEE341DD
:1016800017FF93F7150089CB4695830705002E9623
:10169000F207F187A30FF6FE82809C4194439107E5
:1016A00063410602635FD6000A063E960C4263CA97
:1016B00005001C4589C79A053385B70082803C49DF
:1016C0008287014582808C41411106C622C403A84D
:1016D0000500B2872A87634A0602635806039317F8
:1016E0002600AE97CC43FD576380F504368414453D
:1016F00093976500B69781E63C498297AA87B240E6
:101700001CC0224401454101828083284701B7550E
:1017100003803A85C2863E86938505C78298B2408B
:1017200022440545410182805C49B7550380938579
:10173000C5C98297B24022440545410182809C413F
:101740009443634E0602635CD60291070A063E96F6
:101750000C4263C605021C4581CB139565003E957E
:101760008347D50289CF82803C49411106C68297C2
:1017700009C98347D50291C7B24041018280014522
:101780008280B240014541018280DC41944391074F
:1017900063410602635FD6000A063E960C4263CAA6
:1017A00005001C4589C79A053385B70082803C49EE
:1017B000828701458280CC41411106C622C403A81C
:1017C0000500B2872A87634A060263580603931707
:1017D0002600AE97CC43FD576380F504368414454C
:1017E00093976500B69781E63C498297AA87B240F5
:1017F0001CC0224401454101828083284701B7551E
:1018000003803A85C2863E86938505C78298B2409A
:1018100022440545410182805C49B7550380938588
:10182000C5C98297B24022440545410182809C414E
:101830009443910763410602635FD6000A063E9611
:101840000C4263CA05001C4589C79A053385B70059
:1018500082803C49828701458280DC459443910720
:1018600063410602635FD6000A063E960C4263CAD5
:1018700005001C4589C79A053385B70082803C491D
:10188000828701458280CC45411106C622C403A847
:101890000500B2872A87634A060263580603931736
:1018A0002600AE97CC43FD576380F504368414457B
:1018B00093976500B69781E63C498297AA87B24024
:1018C0001CC0224401454101828083284701B7554D
:1018D00003803A85C2863E86938505C78298B240CA
:1018E00022440545410182805C49B75503809385B8
:1018F000C5C98297B24022440545410182809C457A
:101900009443910763410602635FD6000A063E9640
:101910000C4263CA05001C4589C79A053385B70088
:1019200082803C498287014582808C45411106C6F0
:1019300022C403A80500B2872A87634A06026358B7
:10194000060393172600AE97CC43FD576380F5043A
:101950003684144593976500B69781E63C49829793
:10196000AA87B2401CC022440145410182808328DD
:101970004701B75503803A85C2863E86938505C7E1
:101980008298B24022440545410182805C49B755A6
:1019900003809385C5C98297B24022440545410121
:1019A0008280797126D24ECE52CC56CA5AC806D6FB
:1019B00022D44AD05EC683AAC500032BC600AA89DA
:1019C000BA843E8AB5C256853684EFE03261AA8B6E
:1019D0005A852E89EFE092602A86AE865E85CA859A
:1019E000EF9012592A8948442E84EFE0325F2A860C
:1019F000AE864A85A285EFA062342A89C844139432
:101A000015000580EFE0925D2A86AE864A85A285A4
:101A1000EF908242B797048003A607B083A647B031
:101A2000EF90D246634CA004DA855685EFE0C233CE
:101A3000930500002A84EFE0A21C63450506228579
:101A4000EFE0D259AA87C8442E84BE84EFE0125931
:101A50002A86AE862685A285EF90023E2320AA0024
:101A60002322BA000145B250225492540259F2493D
:101A7000624AD24A424BB24B4561828083A74901F8
:101A800037570380130707CD93060014375603809A
:101A9000B75503804E85130646CF938505D28297AE
:101AA0000545D1B73757038083A74901130787D36B
:101AB0009306D014E1BF01112E884AC84C462A89EA
:101AC0000325C80022CC26CA4EC606CE3684BA8963
:101AD000EFE0822993050000AA84EFE06212634CD4
:101AE00005022685EFE0924FAA8448442E84EFE059
:101AF000F24E2A86AE862685A285EF90E233F2402A
:101B0000624423A0A90023A2B900D2444249B249A9
:101B10000145056182808327490137570380375685
:101B20000380B75503804A85130787D39306D014E3
:101B3000130646CF938505D28297F2406244D24481
:101B40004249B2490545056182801C42797122D41F
:101B500026D24AD04ECE06D652CC56CA5AC85EC6F7
:101B600062C466C20D48AA842E843689BA8963800D
:101B7000070F25476389E7061D476398E702216A37
:101B80007D1AE17A8547032BC600832B0601630784
:101B9000F4068D476301F40C89476309F41423208C
:101BA000590123A04901014515A05C49375703801D
:101BB00037560380B7550380130747D5930630196E
:101BC000130646CF938505D282970545B25022541D
:101BD00092540259F249624AD24A424BB24B224CC9
:101BE000924C456182808547032BC600832B0601FA
:101BF000130AF007930A00F8E31DF4F8DA851305D9
:101C00000000EFD0F245EFE0723DEFA0E167EFE0BA
:101C1000326AB797048083A5C7B72A8BEFD0527E6C
:101C200063440514B797048083A507B85A85EFE08D
:101C30006208634BA0125A85EFE0920EAA9B63C81C
:101C40005B152320790123A04901014541B7130AFF
:101C5000F00F814A05BFDA8513050000EFD052402E
:101C6000EFE0D237EFA04162EFE092643794048056
:101C70008325C4B72A8CEFD0B2786348050AB79C95
:101C8000048083A50CB86285EFE0C202634FA00810
:101C90006285EFE0F208B307750163CE570F3797FF
:101CA0000480032587B72320F900DA85EFD0523B63
:101CB000EFE0D232EFA0415DEFE0925F8325C4B741
:101CC0002A84EFD0F2736342050683A50CB82285FF
:101CD000EFD0527E634BA0042285EFE07204AA9BF2
:101CE00063497A0B23A079010145CDB5B7970480EC
:101CF00003A547B7DA8537940480EFD07236EFE05A
:101D0000F22DEFA06158EFE0B25A8325C4B72A8CB8
:101D1000EFD0126F634B0500B79C048083A50CB80D
:101D20006285EFD032796355A002DC4837570380D3
:101D300037560380B755038026851307C7D593060A
:101D4000B015130646CF938505D282970545BDBDD4
:101D50006285EFE0E27CB307750163C057053797F2
:101D60000480032587B681B7DC4837570380375690
:101D70000380B755038026851307C7D59306B01592
:101D8000130646CF938505D28297228581B5D68BDF
:101D90004DBDD28B81BFD68719B7D687C9B7197108
:101DA000E2CC03AC0503A6DACED6D2D4DAD0DECEAE
:101DB000E6CAEAC8AE8986DEA2DCCAD8D6D2EEC6AA
:101DC000854536C63EC442C846CA0A4B9A4B2A4D80
:101DD000BA4CCA442A8A630ABC0403234501B75794
:101DE00003803757038037560380B75503806288D6
:101DF0008548938747D8130707DA9306B00D130673
:101E000046CF9385C5DB0293054CF6506654D654F5
:101E10004659B659265A965A065BF64BD64C464D4D
:101E2000B64D6285664C09618280832A0603328939
:101E3000638A8A0303234501B7570380375703801A
:101E400037560380B755038085485688938747D80F
:101E5000130787DD9306D00D130646CF9385C5DBA8
:101E6000029365B73A84585A630907141C43638385
:101E7000071003A8070063570C0583A60900E516A1
:101E8000F59A95C25C4937570380130747E29306DA
:101E9000D00E37560380B7550380130646CF93857F
:101EA00005D282979DB714422546638DC60C4946DC
:101EB000638AC60C375703805C49130707E693060D
:101EC000F00EC1BF03A5C900032CC40063539006E4
:101ED0003ECCEFE0B210AA8D62856ED42ED6EFE034
:101EE000F20FE2476A8FE68D2AD02ED2014D930C75
:101EF000C103130C8103C843110F3ECE7ACCEFE02F
:101F0000F20D2256B256910D050DEF907206025653
:101F10009256EF807272E6866286EFE08FDAE256C2
:101F2000624FF247232EDFFEF25623AEDDFEE3447E
:101F30009DFC83A709000D476387E7122547638649
:101F4000E7001D47014CE392E7ECA2472286665466
:101F5000F650D6544659B659965A664CD64C464D0C
:101F6000B64D8C435E87DA86F64B065B5285265A61
:101F70000961E1BE375703805C49130787E0930688
:101F8000900E01BF6383040503234A01B757038002
:101F900037570380A6889387C7E91307C7EA9306D4
:101FA000100F37560380B7550380130646CF93852D
:101FB000C5DB52850293568C89BD375703805C4937
:101FC000130747DF9306800EE9B5144703278900FE
:101FD0008A0636978328470063801403B757038027
:101FE0003757038003234A012688938707ED130799
:101FF000C7E99306200F75B703A5C90091073ECE28
:102000006ACCEFE0A27DAA8D48446ED02ED2EFE0DC
:10201000E27C624FF247E68D2AD42ED6014D930C16
:10202000C103130C8103884391077ACE3ECCEFE0C5
:10203000E27A02569256050D910DEF906273225688
:10204000B256EF80725FE6866286EFE08FC7724F0E
:10205000E256E247110F232EDFFEF25623AEDDFEDD
:10206000E3439DFCF9B5B24483ACC900032DC9001C
:10207000B5C06685EFE08276AA8D6A852E8CEFE08A
:10208000E2752A86AE866E85E285EF90626E2A8CB6
:10209000C8442E89EFE082742A86AE866285CA859E
:1020A000EF90D2492A8C484413991500135919000E
:1020B000EFE0C2722A86AE866285CA85EF80D2576B
:1020C000B797048003A607B083A647B0EF90025CE1
:1020D000634DA004EA856685EFD0124993050000A0
:1020E0002A89EFD0F231634605064A85EFE0026F98
:1020F000AA8A48442E89EFE0626E2A86AE8656850B
:10210000CA85EF80725342467418EFE08FBB725756
:10211000524683A709003307E040A54618C2E3866C
:10212000D7E20D47E383E7E229BD83274A0137570A
:102130000380130707CD9306001437560380B75565
:102140000380130646CF938505D252858297568C1D
:102150006DB93757038083274A01130787D3930646
:10216000D014E1BF5971A2D48059A6D2CAD0DEC61C
:10217000EAC06EDEAE8486D6CECED2CCD6CADAC85F
:10218000E2C4E6C2854542C046C2C65BD65EE65D95
:10219000765D2A89630AB40403234501B757038097
:1021A0003757038037560380B75503802288854808
:1021B000938747D8130707DA9306B00D130646CF67
:1021C0009385C5DB02930544B65022852654965468
:1021D0000659F649664AD64A464BB64B264C964CAB
:1021E000064DF25D65618280032C0603B28963119E
:1021F0008C04368F545A3E8A3A8B9C4283AC07003B
:102200006350940798406517759B6307070E5C49F8
:1022100037570380130747E29306D00E37560380E3
:10222000B7550380130646CF938505D2829769BFC1
:1022300003234501B7570380375703803756038080
:10224000B755038085486288938747D8130787DD91
:102250009306D00D130646CF9385C5DB0293ADB729
:10226000C044832AC70063998C05C84376C67AC4E4
:10227000EFE0C256AA8C22852E84EFE022562A86F1
:10228000AE866685A285EF90A24EAA8C56852E84D6
:10229000EFE0C2542A86AE866685A285EF80D239E9
:1022A00074103010EFE0EFA1A257224FB24E23A0DE
:1022B000FD00B2572320FD009C400D476383E710CB
:1022C00025476386E7001D470144E39FE7EE265458
:1022D00083250A00B6509654F649664AD64A264CDB
:1022E000964C064DF25DDE865A86B64B464B4A85C5
:1022F00006597687656191B818422546630DC70077
:102300004946630AC700375703805C49130707E64D
:102310009306F00E21B7944603A789008A063697E4
:1023200083284700638B1C0303234901B7570380AD
:102330003757038037560380B755038066889387E5
:1023400007ED1307C7E99306200F130646CF9385C1
:10235000C5DB4A850293628485BDC84476C67AC4CB
:10236000938A4700EFE08247AA870325CB003ECC43
:102370002ECEEFE0A246224FB24E2AC82ECA01440A
:1023800003A50A0076C67AC4EFE042456246F246EB
:10239000910D0504EF90C23D4246D246910A110DBF
:1023A000EF80922974103010EFE0AF91A256224FC7
:1023B000B24E23AEDDFEB256232EDDFEE34294FD87
:1023C000E5BD7AC483AAC40083ACC90063070F06C5
:1023D000568576C6EFE08240AA8966852E84EFE0B6
:1023E000E23F2A86AE864E85A285EF906238224F64
:1023F000AA892E840325CF00EFE0423E2A86AE86CE
:102400004E85A285EF909213AA890325CB001394E1
:1024100015000580EFE0823C2A86AE864E85A285B7
:10242000EF809221B797048003A607B083A647B038
:10243000EF90C225B24E6341A006E685568576C46C
:10244000EFD09212930500002A84EFD0627BA24E57
:1024500063480506228576C4EFE04238AA89032541
:10246000CB002E84EFE082372A86AE864E85A28589
:10247000EF80921C02467410EFE0AF843257124690
:102480009C403307E040A54618C2A24EE381D7E442
:102490000D47E38EE7E205BD8327490137570380E7
:1024A000130707CD9306001437560380B7550380F2
:1024B000130646CF938505D24A858297628429B355
:1024C0003757038083274901130787D39306D01416
:1024D000E1BF8C450845411106C6EF106152B2407C
:1024E0003335A000410182809445411126C29842B3
:1024F000AE8406C622C44AC085456300B7025C4963
:10250000B75503803A86938505F18297B2402244FD
:1025100092440249054541018280C04232892285A8
:10252000EF108154635F8000DC4093152400130793
:102530004500BE95944391071107232ED7FEE39BD8
:10254000B7FEB24022442320A9009244024901452B
:10255000410182805971D6CAEAC086D6A2D4A6D2D9
:10256000CAD0CECED2CCDAC8DEC6E2C4E6C26EDEB7
:1025700023220500230405009C41130D8500232020
:10258000A501AA8A6358F01A37590380B7490F008A
:10259000379A9800AE8C938B45008147014B130C02
:1025A0008100130949FC9389F923130AFA6783AD63
:1025B0000B002547639A071A93D7FD41B3C4B701AF
:1025C0009D8C93DDFD01637D97349307300663FF97
:1025D00097349307703E63FF973489669387F6704C
:1025E00063FC97346166B7E5F50526870544938655
:1025F00006711306F6699385F50F39A063FFF92A72
:102600006370FA2C63F4F52CBA8722853357D7020E
:102610001104E365F6FE1306D002B3858D000A852A
:1026200062C0EF30B107024793073006BA9D63FCE2
:1026300097029307E4FF0965EE979306400613059A
:10264000F57033F7D402F917268606074A978345B3
:10265000170003470700B3D4D402A381B700238136
:10266000E700E360C5FEA54763FA97208604CA9495
:1026700083C7140083C40400A380FD00B756038001
:1026800023809D000547938646F4014681450A85CF
:10269000EF305117041026CC1C41930D85002A847D
:1026A0006386B7253ECC1C453ED05C403ECE232001
:1026B000B40123040400E2472322040003A50A0016
:1026C0006388971C0257F2466308AD2003A68A0070
:1026D00023A0FA0023A2DA0023A4EA006304052061
:1026E0002ACC32D002CE2300050062456306950055
:1026F00082558505EF10916F024563068501A2455D
:102700008505EF10B16E03A70C00050B83A74A00E7
:10271000910BE34EEBE899CF370700407D176381BB
:10272000E722B77504800546938545DE5685EF3070
:10273000712819A8B75603800947938606F4014605
:1027400081455685EF30110CB650265496540659E3
:10275000F649664A464BB64B264C964C064DF25D02
:102760005685D64A6561828093D7FD41B3C4B701CF
:102770009D8C93DDFD016377971A9307300663F50F
:10278000971A9307703E63FB971A89669387F670D2
:1027900063F0971A6166B7E5F505268705449386C9
:1027A00006711306F6699385F50F39A063F4F910E5
:1027B000637BFA1063FFF510BA8722853357D7027F
:1027C0001104E365F6FE1306D002B3858D000A8579
:1027D00062C0EF30A16C024793073006BA9D63FCDC
:1027E00097029307E4FF0965EE97930640061305E9
:1027F000F57033F7D402F917268606074A97834502
:10280000170003470700B3D4D402A381B700238184
:10281000E700E360C5FEA54763F797068604CA9400
:1028200083C7140083C40400A380FD00B75604804E
:1028300023809D0005479386864E014681450A8583
:10284000EF30417C041026CC1C41930D85002A8476
:102850006384B70B3ECC1C453ED05C4056853ECED3
:10286000230404002320B401232204007246E2451D
:10287000EF3051146245E31D95E6BDBD938404031A
:1028800093F4F40FE5BB9384040393F4F40F79BF3E
:10289000724611CA85476307F606A685EFB0C14B9D
:1028A000724603A50A00329523A2CA002300050040
:1028B00062450DBD1304550039B713045500A1BB83
:1028C0001304650089BB13046500F5BD130475008E
:1028D00099B313047500C5BD23A0FA0023A2DA0042
:1028E00023A4EA0026CC04102685EDBB4146EE85E4
:1028F0002685EFB0614655BB4146EE852685EFB093
:10290000A145A1BF834701022300F500724603A53C
:102910000A0023A2CA003295230005006245D9B3FC
:102920000544D5B9054445B5094471BD0944E5B12F
:10293000114451BD0D44C5B11144F1B90D4461B507
:1029400037550380130585F4EFD0CFF482472A84EE
:1029500063878701A2453E858505EF10314903A5B0
:102960000A006307AD0083A58A008505EF101148B2
:102970002285EF00A3582A84DDB7E2472A846387C3
:10298000970082553E858505EF1051460245E308C4
:1029900085FDA2458505EF107145D1B72A84FDB7A5
:1029A00098451C461D71D6C2DAC0832A070003ABC6
:1029B0000700A2CCCAC8CEC6D2C45EDE86CEA6CAE6
:1029C000AE8B3284AA8936895A8A63C36A01568AD1
:1029D0005285EF106109AA84635A400513182A0032
:1029E0002A988147130EFBFF05451383FAFF63DD29
:1029F000570583A58B003307F3400A072E975843EA
:102A000063DF670114443306FE400A06B29683A8CA
:102A1000460063041707630AA7046392A8061DEF24
:102A20002320080085077118E39347FD23209900B0
:102A30000145F6406644D6444649B649264A964A78
:102A4000064BF25B2561828063D667031844B306A8
:102A5000FE408A0636975843631AA7008548635399
:102A6000170146872320E80075BF468755DBBA88E3
:102A70000547F5B705478548DDB775F355B70A85AE
:102A800003A94901C13C0C4428080244E134E24650
:102A9000B75503802286938505F64E8502996245D7
:102AA0001C106306F50082558505EF103134024590
:102AB0003C006306F500A2458505EF10313381C463
:102AC0002685EF1061010545ADB7E24718102A844D
:102AD0006387E70082553E858505EF103131024559
:102AE0003C006306F500A2458505EF10313081C436
:102AF0002685EF00717E2285EF0043402A84EDF8A1
:102B0000DDBF2A84E9BF1971A2DCA6DA3684B2845B
:102B1000944610469C45DAD0DECE032B060083ABEC
:102B20000600CED6D2D4D6D2E2CCE6CA86DECAD849
:102B300003AC0700AE8CAA893A8ADE8A63437B0124
:102B4000DA8A63D38A01E28A5685EF00F1712A8915
:102B5000635C500913972A002A9701488546930E13
:102B6000FCFF1305FBFF9385FBFF8548635A880133
:102B700083A78C0033860E410A06B29783A84700CC
:102B80000543635968019C44330605410A06B29720
:102B900003A34700054E635978011C443386054161
:102BA0000A06B29703AE4700C687635313019A879C
:102BB0006353FE00F28781CBC68763D368009A8790
:102BC00063D3C701F2876384D80063931703630458
:102BD000D300639F67006304DE00639BC7011CC3CF
:102BE00005087117E31358F923202A010145B5A000
:102BF00083A58C00280003AA4901A93A8C44081037
:102C0000A244893A0C4428180254A9326257B75595
:102C10000380A2862686938505F94E85029A625521
:102C20009C006306F50086458505EF10311C0255B2
:102C30003C106306F500A2558505EF10311B2245B7
:102C40001C086306F500C2458505EF10311A6305BF
:102C500009004A85EF0051680545F6506654D65480
:102C60004659B659265A965A065BF64B664CD64CD0
:102C700009618280E25798002A846387E7008645CD
:102C80003E858505EF10911602553C106306F50050
:102C9000A2558505EF10911522451C086306F50025
:102CA000C2458505EF109114630509004A85EF00C0
:102CB000B1622285EF0083242A84E31909FED5BF7F
:102CC0002A84D9B72A84C9BF7D15C14763EAA70002
:102CD000B7570380938707090A053E95084182800C
:102CE0000145828001458280545D9DC29842938750
:102CF000460005070A07BA96638CF6007D5619A0B0
:102D00006388F60098439107E31CC7FE054582805F
:102D100001458280B70710F023A0A7F08280834787
:102D2000050089CB370710F02320F7F08347150003
:102D30000505FDFB82808347050089CB370710F02E
:102D40002320F7F0834715000505FDFB8280828074
:102D5000AA8748419047AE860C41584A104A03A8BA
:102D60004500CC47028848411C419C4782871C454E
:102D7000139515002E95D84B9C4B0A050E07BA9754
:102D8000DC433E958280F1456F1051061849854716
:102D900063E6E70048411C41DC4F8287411106C6CB
:102DA000EF90D16B18498D476317F7005C498A058E
:102DB000BE9588418280411106C6EF90316A18495C
:102DC00085476316F70048411C41DC478287411163
:102DD00006C6EF90B168184985476316F700484169
:102DE0001C419C4B8287411106C6EF903167184900
:102DF00085476318F7001C45B2864841D04B6F10D9
:102E0000A057411106C6EF9071659C452A879443EF
:102E10009107634B06026359D6020A063E96144296
:102E200063C406021041B7370080938707D5504A24
:102E3000631EF60048411C474C4703280500D84B49
:102E4000904B83274800828701458280B6850286A1
:102E50009C412A8794439107634B06026359D6022B
:102E60000A063E96144263C406021041B73700803A
:102E7000938707D5504A631EF60048411C474C47CC
:102E800003280500D84B904B8327480082870145D3
:102E90008280B6850286DC412A8794439107634B82
:102EA00006026359D6020A063E96144263C406021D
:102EB0001041B7370080938707D5504A631EF6004C
:102EC00048411C474C4703280500D84B904B8327AB
:102ED0004800828701458280B6850286B757038005
:102EE000938747131CC14CC114C550C52328050046
:102EF000232A0500232C0500828063C8050063D6C1
:102F0000C5008A05AE96884282807D5582804CC974
:102F100082801C49411106C60547F59B6384E70082
:102F2000EF90D153104D91C119CA37550380130545
:102F3000450DEFB0100AB240054541018280B24014
:102F40000CCD01454101828039712E852C1006CEB1
:102F500032D436D63AD83EDA42DC46DE2EC6EFB060
:102F60007004F240216182800CC98280084982800D
:102F70009387F5FF3E953355B5023305B502828040
:102F80003355B5023305B50282807D152E95335534
:102F9000B5023305B5028280C94763EAA702B75775
:102FA0000380938787160A053E951C418287A147B7
:102FB0009CC10145828085479CC101458280914723
:102FC0009CC10145828089479CC10145828005459D
:102FD0008280C1479CC1014582802A870841011136
:102FE00026CA3305A740035805004AC806CE22CC9E
:102FF00091472E89B28463F4070583574500054441
:1030000091CFBA979443B697904309CA0A063E9661
:10301000D44391073304D402E31CF6FE994763F9C5
:103020000705835765000145A1E36C00EFB0302E22
:1030300009CDF2406244D244424905618280014593
:103040006C000544EFB0B02C6DF53245A685A9376C
:103050006DF19C40F240D2443384870223208900E2
:1030600062444249056182803E970305070075BFAF
:10307000014565BFADC95C41854691CF03A80700F6
:10308000635B000191070147904305079107B386F1
:10309000C602E31B07FF1C4549476362F704375725
:1030A00003808A071307471BBA979C438287A1476F
:1030B000B386F602014594C182809147B386F60239
:1030C000014594C182808547B386F602014594C1CB
:1030D00082808947B386F602014594C18280054506
:1030E0008280C147F1B7411106C6EF9031379C4548
:1030F000397152D406DE22DC26DA4AD84ED656D2B0
:103100002A8AC1C3184651C7368994468442A1E829
:1031100094431C432E8463C3D70032841C40032590
:1031200009006300F50883274A01375703803756A3
:103130000380B7550380528513074727930640093C
:1031400013068621938505D282970545F250625475
:10315000D2544259B259225A925A216182805C4912
:10316000375703801307C725930610093756038086
:10317000B755038013068621938505D282970545AE
:10318000F1B7375703805C49130707209306F0080F
:10319000F1BF375703805C491307472493060009A2
:1031A000F1B78A8502C0CD3BA2854800EFD0AFAA17
:1031B0009249635830051C440245014791079043EA
:1031C000050791073305C502E39BE9FE832A8A03BD
:1031D000232CA9002AC0EF005102AA855285829AA9
:1031E0002324A9001C44130745009443910714C1EC
:1031F00094438504910714C31107E39B99FE01458D
:10320000B1B7024583248A03232CA900EF00E17E95
:10321000AA85528582942324A9001844AA870145CF
:10322000184398C325B748411C419C478287828038
:103230008280084541461C419C47828748411C4189
:103240009C47828748411C41DC47828748411C419A
:10325000DC4B828748411C419C4B828708451146C4
:10326000930500041C419C4782878280411106C659
:1032700022C426C24AC0A9C9985985472E84AA8467
:103280006304F702C840A285232A04021C412322BA
:10329000040023280402232404002244B240924460
:1032A0000249DC474101828703A94503630E0900F7
:1032B0004841832549001C41DC478297C840CA85A4
:1032C0001C41DC4782977DBFEF9051199305400266
:1032D0006F10C131A1456F106131411122C406C682
:1032E0002E8485C11C4D89CB0845B2858A051C41B9
:1032F00011469C47829708C0B240224401454101D3
:103300008280EF90B11583A80500397122DCB38863
:10331000154103D8080026DA4AD84ED652D456D2E0
:103320005AD05ECE06DE114A2E8BAA84B68BB289A5
:103330000144B94A7D5963790A0583D74800A9C772
:10334000DA979843BA9798436378E40613152400F4
:103350009107AA979843BA9798433387E740035653
:10336000070063FFCA000357E70019CBBA9783C76A
:10337000070099C7638D0B005E951C416389270187
:103380000504B109E36B0AFB8327000002906C007F
:103390004E85EFF03FCE15E18844B24541461C41D1
:1033A0009C47829723A0A90005C583280B00B3087A
:1033B0001B4103D80800E9B70145F2506254D254CA
:1033C0004259B259225A925A025BF24B21618280D1
:1033D000B2453755038013050529EFB0803F0545F9
:1033E000E9BF011106CE22CC26CA4AC84EC652C435
:1033F00056C259C2328A2A84AE8A8149A14413092D
:10340000C00235A883D78700B9C3D6978843AA9747
:10341000984363F1E906139529009107AA97884319
:103420003E95EFB00060B3052503084411461C41EA
:103430009C47829705C12320AA008509210A83A7FA
:103440000A00B387FA4003D70700E3EDE4FA8327C5
:1034500000000290375503801305052CEFB060374C
:103460000545F2406244D2444249B249224A924A56
:10347000056182800145F5B7EF90417E9C410111C5
:103480004AC8B387F54003D807002E8906CE22CC60
:1034900026CA4EC652C456C2A14563F0050D83D755
:1034A0008700C5CFCA973A849843BA979C436376FE
:1034B000F4081841B73700809387C725585BAA8462
:1034C000B28A368A6310F7068844114693050004D1
:1034D0001C419C478297AA8994408147228703A870
:1034E00086034E86D286CA85268502981DED6381A5
:1034F0000A020E04A29A83A74A0093161A00D296D3
:103500008A06BE96D8429C4223A4E90023A2F90071
:10351000F2406244D2444249224A924A4E85B2491C
:10352000056182800297AA8945BF3755038013053C
:10353000C543EFB0002A8149E1BFB7560380375633
:103540000380375503809386862F130646309305F4
:10355000A00A13050540EF90E17183270000029057
:103560001D715C41D2C42E8A0C4DD6C2AA8A680055
:10357000A2CCCAC8CEC686CEA6CADAC05EDE62DCDF
:1035800066DA3289B68952C63EC802D6EF20900864
:103590002A8419CDF64022856644D6444649B64968
:1035A000264A964A064BF25B625CD25C25618280B9
:1035B0004C00680002C2EF30602B2A8461FD130BBF
:1035C0004900A1441DA883D78700A1C3D2978C438B
:1035D000AE979843637EE40203A70A009315240084
:1035E0009107AE978C4303260B00185B9246BE955D
:1035F00056850297210B71E1050483270A00B30762
:10360000FA4003D70700E3E0E4FC832700000290C0
:1036100092454A866800EF20B0222A8425FD03A542
:10362000CA019145EFF0DF942A864A87CE8681450C
:103630006800EF20B0442A8431FD03A54A00C1454B
:10364000E2491C41524B9C5B8297AA8403A54A0025
:103650004146A6851C419C4782972A8A2DC183AC8E
:103660000A01B74700809387C74D03A70C00584F46
:103670006319F704638C0910374C00805A89DA8487
:10368000FD5B130C8C4D29A00504E104638B8904B8
:1036900083C74401F5DB8840C145EFF01F8F984890
:1036A00083A70C0063067703DC47638A8701D44451
:1036B0009044AA856685829761D92A84E1BD054434
:1036C000D1BD66852686D285029783AC0A015DB797
:1036D000D44490449C47AA856685829755D52A8410
:1036E00055BD03A54A0003AC0A0181441C41FD5BA2
:1036F000DC53829793971900CE978E07AA893E9B39
:103700008347490195C383270C0030005EC49C4F5A
:10371000A685628582972A84E31E05E6A2470327D1
:1037200049008504CE971CC36109E31B2BFD68008B
:10373000EF20807E03A54A00D2851C41DC4782979A
:1037400003A54A001C41DC4B82972A84E31405E45C
:1037500003A54A0083A5CA011C419C5382972A8471
:10376000E31A05E203A50A011C419C4B829783A53D
:103770000A0263F5A50023A0AA02AA8503A54A00B0
:1037800041461C419C5782972A8429B503A54A00CB
:103790001C41DC53829761BF9C4101114AC8B38729
:1037A000F54003D807002E8906CE22CC26CA4EC685
:1037B00052C456C2A14563F3050B83D78700D9CF06
:1037C000CA973A849843BA979C436379F406AA89C6
:1037D000484193050004B28A1C411146368A9C4731
:1037E000829703A70900AA842A86032887038547AE
:1037F0002287D286CA854E8502980DE9638E0A001B
:103800000E0456945C4093161A00D2968A06BE9611
:10381000D8429C4298C4DCC0F24062444249B2495A
:10382000224A924A2685D244056182803755038018
:1038300013058548EFA0F0798144F9BFB75603809E
:1038400037560380375503809386862F13064630FC
:103850009305A00A13050540EF90C141832700009E
:1038600002901841A14681473307E54003560700FF
:1038700063F5C600035787001DEF984163F2E70424
:1038800091058A07AE9798439146BA979843338734
:10389000E7400356070063FEC60003574700014593
:1038A00031C3BA979843BA9798430DCF1385470011
:1038B0008280014582803A951C419841E3E2E7FC11
:1038C000B7560380375603803755038041119386DE
:1038D000862F1306C64C9305A00A1305054006C69D
:1038E000EF90413982805D7186C6A2C4A6C2CAC06B
:1038F0004EDE52DC56DA5AD85ED662D466D26AD030
:103900006ECE2AC66302061E2E8D930746003EC465
:1039100083270D00379B0480A146B307FD4003D7E2
:103920000700814B314A130B4BC463F1E61883D671
:103930008700638D0616EA969C42BE969C4263F30E
:10394000FB1893972B009106BE969C421147B38AB1
:10395000F60083A70A00B387FA4003D6070063770F
:10396000C71483D7470063830714B246D69798439A
:1039700088461146BA9703A907001C411314190081
:103980009C474A940A04A28582972AC263030512BF
:10399000AA8D814C91449949631D0902C5A8E2850D
:1039A0002285C135184023A0AD003307E4400356FB
:1039B000070063F7C40C0355470079C12A940840F7
:1039C000850CB10D2295EFB0E00F23ACADFE630F77
:1039D000990B03A70A003387EA400356070063F7F1
:1039E000C40C0354470079C0569418403A941840C8
:1039F00063FCEC0C03270D0013952C0011042A9492
:103A00003307ED40084083550700014C2A94637941
:103A1000BA000357C70009C76A971043330CC700A1
:103A2000184023A00D0023A20D003307E440835566
:103A3000070023A40D00014563F8B9000357670090
:103A400001C722970305070093858D00EFB0200C76
:103A500039D53755038013054570E685EFA07057BB
:103A60000545B640264496440649F259625AD25A50
:103A7000425BB25B225C925C025DF24D61618280CE
:103A800023A26D01850CB10DE31599F5A2471247EC
:103A9000A146A10723ACE7FE3EC483270D00850B9A
:103AA000B307FD4003D70700E3E3E6E88327000000
:103AB0000290375503801305455CA285EFA0705135
:103AC000054545B7014571BFB7560380375603809A
:103AD000375503809386862F1306C6609305A00A88
:103AE00013050540EF900119EF904117797106D643
:103AF00022D426D24AD04ECE52CC56CA5AC8638F50
:103B00000726AA842E893E85B289814513060004C2
:103B100036843E8ABA8AEFA0E147144099470145AE
:103B2000B306D44003D7060063F8E70083D76600E6
:103B300081C7A29703850700D285EFA0507D2A8B0D
:103B400041E1144039478147B306D44003D606000B
:103B5000637AC70003D7E60011C72297834707009F
:103B6000B337F000D685A306FA022285DD39133774
:103B7000150005072322AA00232AEA0070009305F6
:103B80008A012285EFF06FC52A8B1DE91840914606
:103B90003307E4408357070063FFF60203554700ED
:103BA0001DC922951C413E95EFA0D0711840B14629
:103BB0002324AA003307E4408357070063E6F60294
:103BC000B250225492540259F249624AD24A5A855A
:103BD000424B45618280B7960480938646C4232475
:103BE000DA00B146E3FEF6FC8356C700F1DA3694FC
:103BF0001C4021463E941C40B307F44083D6070086
:103C0000E370D6FC03D7870045DF22970C432E973D
:103C10000C43638E0510A945E3F4D5FA83D7A700BA
:103C2000C5D3A2979443B697944363820610DC43AE
:103C300058432328FA001C402326EA00B307F44027
:103C400003D707006377E60E83D78700FDC3A297EB
:103C50009843BA9783AA07006387090E8327090050
:103C60001146B1459C474A858297AA896300051091
:103C70008327090056858447EFF03058AA851146FE
:103C80004A85829423A2A900630C050E1C4021479B
:103C90000145B307F44083D607006378D70083D784
:103CA000870081C7A29788433E95EFA0D06103A704
:103CB000490023A0A90003230400232057016359CE
:103CC000500D33036440035E0300A94763F3C70745
:103CD0008358A3001107814733051401638B08043F
:103CE0001041835583002A9603280600B306B400CA
:103CF000A9C18C42AE96944263800605630F080802
:103D0000544214C385071107E39AFAFC41478147DF
:103D10006377C7010357030119C33A941C4023A4D6
:103D2000F90085472328FA02232A3A0351BD014BA3
:103D300041BD83270000029063F1D70693963700B8
:103D4000369654427DBF9C401146B1459C4726851E
:103D50008297AA8901CD9C40568503A98700EFF080
:103D6000D049AA8511462685029929BF3755038077
:103D700013054572EFA0F025054B99B5EF80116E44
:103D80003755038013054575EFA0B024054B0DBDD5
:103D900033036440035E030095BFB7560380375674
:103DA0000380375503809386862F13064678930544
:103DB000A00A13050540EF80F16B03A30500AE8850
:103DC000214833836840035E0300AA85CC4108453F
:103DD0006372C80D03588300630E080A4698B28EBA
:103DE0003E8683270800411106C63E9883270800B7
:103DF000637FF70411080A074297032807009147D9
:103E000042970328070033080741035F080063F067
:103E1000E70983574800A5CF3E971C433E971C43B4
:103E200063F7F60411078A06BA9603A80600B1479D
:103E30000147C29663F9C7018357C30089C7BE987B
:103E400003A708004697B240F687410145B1B7562F
:103E5000038037560380375503809386862F1306D9
:103E600046309305A00A13050540EF80B160B756B0
:103E7000038037560380375503809386862F1306B9
:103E8000C6609305A00A13050540EF80B15E832745
:103E9000000002908327000002901C41011122CCF7
:103EA000B307F54083D6070026CA4EC606CE4AC8D9
:103EB0002320060023220600232406001947AA8493
:103EC0003284AE8901456375D70083D7670099EFC7
:103ED00093058400EFA0B0432A8915C1F2406244E3
:103EE000D244B2494A85424905618280A69703853A
:103EF000070093058400EFA090412A8965F1CE85E3
:103F0000268585329C40114708C0B387F44083D68C
:103F100007006373D70203D5470019CDAA948840E0
:103F20002695EFA0303A48C0F2406244D244B249EC
:103F30004A85424905618280B7970480938747C4C8
:103F4000F2405CC06244D244B2494A8542490561AC
:103F50008280411126C29145AA841305400206C6FB
:103F600022C44AC0EFF06F822A89914513054002AE
:103F7000EFF0AF812A8491452145EFF00F81AA87A8
:103F80004A94914521453E94EFF02F802A9481C8B0
:103F9000B2402285224492440249410182809145E7
:103FA0001305C002EFE07FFE2A94B240228522442E
:103FB0009244024941018280B76703809387C79A80
:103FC0001CC14CC191C191050CC510C9230A050043
:103FD000232C0500232E0500232005028280B767CD
:103FE00003809387C79A1CC150C10CC514C9230A0A
:103FF0000500232C0500232E0500232005028280C6
:10400000411122C44AC02A842E89C14526C206C64F
:10401000B2844A94EFE0DFF5B305A440EFC0402C32
:1040200029C1A1C01C41114693054002DC5B2A84D2
:104030008297B2409306440040C137670380224410
:104040001307C79A04C918C114C5230A0500232CF5
:104050000500232E05002320050292440249410158
:104060008280EF80B13F411122C426C22A84AE84EF
:10407000C14506C62694EFE0BFEFB305A440EFC0EC
:1040800020261C4111469305C002DC5B2A848297DE
:10409000AA84EFA070669DCC1C4022851146DC5B93
:1040A000930540028297B2409306440040C13767AF
:1040B000038022441307C79A04C918C114C5230AF0
:1040C0000500232C0500232E050023200502924421
:1040D00041018280EF809138411106C622C426C278
:1040E00029C1AE849DCD1C41114693054002DC5B85
:1040F0002A848297B2409306440040C13767038008
:1041000022441307C79A04C918C114C5230A05001D
:10411000232C0500232E0500232005029244410193
:104120008280EF80B133797122D406D626D24AD06C
:104130004ECE2A8469C1B2845DCE630EC50A2E8537
:104140002295C145B689EFE0BFE333068540A285DD
:104150000A85EFC0402C1146C1450A85EFC0A02753
:104160003247A2461246B78703802A84938707B94D
:1041700058C414C40A851CC050C0EFC0A0241C4001
:104180001146930500029C47228582972A89C145E2
:104190002685EFE0FFDD33863401AA85098E4A8546
:1041A000EFB0704A1C4011469305C0029C4722851F
:1041B0008297AA84EFA050541C40228511469C4748
:1041C000930540028297B25000C53767038022549E
:1041D0001307C79A2322250104C918C1230A050021
:1041E000232C0500232E050023200502925402599A
:1041F000F24945618280EF8071262A840A85EFC0EA
:10420000601C2285EFE0924F411106C622C426C2EF
:104210004AC0F9C5834745012A84C5E708450547D3
:1042200011461C412E89230AE4009C47A145829730
:10423000AA87484010443767038014411307879FBB
:1042400093050009944ED0C398C35CC4232C04008A
:104250001146829648CC31CD832709002147B30708
:10426000F94083D60700637FD70683D78700BDCB8D
:104270000844CA97944318411146B6978C431C478B
:104280008E058297AA8431C51C402A86CA85DC57D0
:104290002285829719ED1C402686CA859C57228567
:1042A000829701E9B24022440249268592444101A5
:1042B0008280B240224481440249268592444101D1
:1042C0008280376503801305C585EFA08050814447
:1042D000D1BF376503801305458BEFA0804FD9B759
:1042E000EF80D11783270000029083474501011119
:1042F00006CE22CC26CA4AC84EC6B9CF1841B684CB
:10430000B737008034439387A72D2E892A840C4D1C
:10431000B289639CF602B9CC95CD084511468A0551
:104320001C419C4782971840AA8688C05C5F4E86D5
:10433000CA852285829719E1230A0400F24062446B
:10434000D2444249B249056182802E86A685829672
:1043500075F518409440D9BF376503801305458E25
:10436000EFA02047F2406244D2444249B249054599
:1043700005618280EF80910E011122CC2A84484D84
:104380004EC6AE89914526CA4AC8B68406CE328941
:10439000EFE01FBE144C2A87A5C693981600B69866
:1043A0008A08AA9801485C433107850793B717002C
:1043B0003E98E39AE8FEAD47468763E40703FD575E
:1043C000232037015CC32324270194C01C4CF240F6
:1043D000D24485071CCC62444249B249014505617B
:1043E00082803765038013050593B145EFA0603ED9
:1043F000F2406244D2444249B24905450561828097
:10440000814675BF1C41411122C4D84BB73700808B
:1044100026C206C69387C7242A84AE84631CF70489
:1044200048411C41DC4B829711C5B2402244924462
:1044300041018280484C9145EFE09FB3184CAA8718
:1044400005CF131617003A960A063295FD56D84343
:104450006313D700C4C3B107E39BA7FE1306060985
:1044600048404C4C22441C41B2409244DC4F91469F
:104470004101828702974DBF13060009D5B741114C
:1044800022C42A84484106C61C41DC5782971C443A
:104490002A8498433E855C478297B2402295224405
:1044A00041018280411122C42A84484106C6232C3E
:1044B00004001C411146930500099C4F829748CC8B
:1044C000B24022441335150041018280484D914588
:1044D0006FE01FAA484582800545828001458280A1
:1044E0001971E2CC86DEA2DCA6DACAD8CED6D2D446
:1044F000D6D2DAD0DECEE6CAEAC8EEC683470600D8
:104500002A8C63840758938CF5FF63509059379732
:104510000480832A47B8376D0380370A80003289C8
:10452000AE89B68D0144130D4DA57D1A376B0380FE
:10453000B76B038013075002A285B3048C001306E7
:1045400019006380E7042380F40005048347190001
:10455000B3048C00328999C3E34E94FD0504238093
:104560000400F65022856654D6544659B659265A48
:10457000965A065BF64B664CD64C464DB64D0961D5
:10458000828083471900638FE7421387D7F9137737
:10459000F70FD54663E6E6000A076A9718430287D5
:1045A000328955BF33878C40A5469307140063D5E5
:1045B000E64E130700032380E400E2971307800709
:1045C00009042380E700B3068C0003A70D00B6871B
:1045D000910DA5483D4819A0B2872E871375F700A5
:1045E0009305750563E4A800930505032380B700D0
:1045F0001386170093554700E360E8FE230006008A
:10460000368763FEF60003C5070083450700FD17E4
:104610000507A30FA7FEA380B700E366F7FE158E7C
:10462000329483472900B3048C0009092DB7B3875E
:104630008C402947635FF74203A70D00A686910DC2
:10464000A94525483376B702B68785063A8513060D
:104650000603A38FC6FE3357B702E365A8FE238087
:104660000600268763FEF40083C5070003460700A3
:10467000FD170507A30FB7FEA380C700E366F7FE8B
:10468000858E369483472900B3048C000909E1B56F
:1046900003A50D00910D635994031386E9FF018E64
:1046A000935716001306140026873E9639A0230060
:1046B000F700050405076300C432B307B440AA97A6
:1046C00083C70700BA84E5F783472900090961B564
:1046D00033858C40EFB05272D685EFB0A25D634A4D
:1046E00005389D0D93FD8DFF83A54D0003A50D009D
:1046F000A10DEFC0E23BAA8711462C0068003EC422
:10470000EF908165324726839307E00213587701C3
:104710001378F80F130618F8B376470163580700AB
:104720009307D0022380F4001383140023000300B6
:10473000130700086307E62A930710039388F4021F
:10474000130723002300F3009307E002A300F30004
:1047500023010300338EE8409D4763DDC72593D5D1
:10476000660193D75601AE97B69793D54601AE979B
:1047700093D53601AE9793D52601AE9793D5160102
:10478000AE9793D5E600AE9793D5D600AE9793D566
:10479000B600AE9793D5860013D54600AE97AA977C
:1047A000930500038D820808A301B3002302B30020
:1047B000A302B3002303B300A303B3002304B30095
:1047C000B697AA85294FA542B3F6E703AE8E8505B5
:1047D000BE8F93860603A38FD5FEB3D7E703E3E529
:1047E000F2FF23800500AA87637ED50183C50E00F2
:1047F00083C60700FD1E8507A38FB7FEA380DE00DA
:10480000E3E6D7FF834601017D1E3A9E63870626B5
:104810006375C727BA87AA8519A06309FE008505B5
:104820002380D70083C605008507E5FA130300033C
:10483000B386E7409D4523806700338ED54063965D
:10484000D5209305000331A09386F7FF6377D70047
:10485000B68783C6F7FFE389B6FE1383F8FF63F9D3
:1048600067221307A0022380E700850793051BA595
:1048700093062003630DF30085052380D70083C6CC
:10488000050013871700DDC2BA87E317F3FE138311
:10489000F8FF3E8745A0B3878C402947635BF71C30
:1048A00003A60D002687910D635A06009307D002D8
:1048B000138714002380F4003306C040BA862945CC
:1048C000A548B375A602B687850632889385050389
:1048D000A38FB6FE3356A602E3E508FF2380060049
:1048E000E370F7DA83C5070003460700FD170507E5
:1048F000A30FB7FEA380C700E366F7FE858E36944C
:1049000083472900B3048C000909B1B1B3878C40F7
:104910000504E356F0C483A70D000909910D238017
:10492000F40083470900B3048C0035B1B388E84034
:104930003383170123000700AA86635C06009307F0
:10494000D0021306F0072308F10033060641930650
:1049500011013688A948A54EB3751603C28705080C
:10496000328E93850503A30FB8FE33561603E3E595
:10497000CEFF2300080063FEF60083C5070003C6D0
:104980000600FD178506A38FB6FEA380C700E3E6E9
:10499000F6FE8347010189CF6365670011A86309AB
:1049A000670005052300F700834705000507E5FBC1
:1049B00023000700058F3A9483472900B3048C0035
:1049C000090951BE2380F400050483472900B3047C
:1049D0008C00090949B683472900B3048C000909F2
:1049E0009DBE9A979DEA637DF30A13079004B7660C
:1049F00003802300E300938696A413071300130695
:104A0000E006E307F7FA85062300C70003C60600A1
:104A1000050765FA2300070071BF6373F3081307E6
:104A2000E0042300E3001386DBA4130713009306BE
:104A30001006E30FF7F605062300D70083460600AD
:104A40000507E5FA23000700B5B7635FD004B38616
:104A5000D740930E000303C3F7FFFD17B385C701CB
:104A6000238065002380D701E397F6FE93877600C5
:104A7000C9BB050423800400EDB493070003BA8684
:104A80002301F300938776006DBBE2840544C1BC2B
:104A9000238007003E8779BD238004003E84D1B483
:104AA0001A872300070039B7BE869387760051BB6B
:104AB00039711303C10236D69A8606CE3AD83EDA49
:104AC00042DC46DE1AC6293CF240216182808280A7
:104AD0001C45A14698433387E7400356070063FA15
:104AE000C6000357870011C7BA979843BA978843FF
:104AF0008280832700000290930500026FF0102F40
:104B00005C4D79715EC69C4362C406D622D426D21F
:104B10004AD04ECE52CC56CA5AC8832B45012A8C55
:104B2000ADC3014B930A000203258C00232A6C01BC
:104B3000DA85EF909071AA891DCD131A3B000149C7
:104B4000814429A84C489C43850489C703254C000F
:104B5000829708C81309C902638F990083270C0143
:104B60000146D29780434A941C54D84BE31C57FD0E
:104B70000C4C504CC9BF8327CC01050B9C43E3650B
:104B8000FBFAB2502254232A7C0192540259F24972
:104B9000624AD24A424BB24B224C01454561828067
:104BA0005C4D01114AC89C4356C206CE22CC26CA8F
:104BB0004EC652C45AC0832A45012A89B9C7014A40
:104BC00003258900232A4901D285EF901068AA891C
:104BD0001DC5131B3A0081440144832709010504C4
:104BE000DA979C43A69798579384C40219C75843F1
:104BF00009C78C4B032549000297E39089FE832760
:104C0000C901050A9C43E36DFAFAF2406244232A83
:104C10005901D2444249B249224A924A024B0145C3
:104C2000056182805C4D797152CC9C4356CA5AC84A
:104C300006D622D426D24AD04ECE5EC6832A45015D
:104C40002A8B014AA1CF03258B00232A4B01D28551
:104C5000EF90B05F2A8993193A00814401440DC94D
:104C600083270B01CE978C43A69583AB8502938453
:104C7000C40283A78B0089C703254B0082971DE1DF
:104C80000325CB00A2850504EFF0CFF7E31A89FCDA
:104C90008327CB01050A9C43E367FAFA232A5B01C9
:104CA00001451DA883A74B01130700026386E70493
:104CB0001307100A636DF702376703808A0713072B
:104CC0000740BA978C43AA86376503801305C5AAA7
:104CD0002286EF9010300545B2502254925402596A
:104CE000F249624AD24A424BB24B45618280B78553
:104CF00003809385C5C7C1BF83A58B01E9B75C4D10
:104D00005D71CAC090435C4986C6A2C4A6C24EDE8D
:104D100052DC56DA5AD85ED662D466D26AD06ECEEB
:104D20003EC64CC92A8963FCC50E0845AE8BEF9080
:104D3000D0512A8C630D050EB7670380B78D0380B1
:104D4000938707408E0B814A014B930C0002938D91
:104D5000CDC73EC4054D85A01307100AEE856366D6
:104D6000F70022478A07BA978C4383274900814975
:104D7000C05B11C41C4022859C478297AA89832767
:104D8000CA00E1CF03254900A68582978327C90081
:104D9000AA8498433E855C4B8297638CA403B1E858
:104DA00011C41C40CE852285DC478297050B938A6F
:104DB000CA02630E6C0783270901DE978443D694E9
:104DC00003AA840283274A01E39897F983258A017D
:104DD00069BF83274A0113070002639FE704832505
:104DE0008A013765038085465A86130585B1EF90A1
:104DF000501E11C41C40CE852285DC478297B640E8
:104E000026440649F259625AD25A425BB25B225C8E
:104E1000925C025DF24D2685964461618280376521
:104E20000380130545AEEF90D01A8544C9BFB24741
:104E30008144232AF900E1B71307100A6377F700CA
:104E4000B78503809385C5C769BF376703808A0725
:104E500013070740BA978C4369B7EF703160AA8493
:104E600011C41C40CE852285DC4782972685EFE061
:104E7000E2081C45A14698433387E74003580700E2
:104E800063F6060B0357870055C3BA979843411141
:104E900006C6BA97984363F8E5041397250091076F
:104EA000BA9798439946BA9798433387E74003588F
:104EB000070063FA06070357670035C7BA97984398
:104EC000BA9798436371E6040A061849B297D44327
:104ED0008E05BA95DC41B2401395160036950A0549
:104EE0003E9541018280B75603803756038037557F
:104EF00003809386862F130646309305A00A130578
:104F00000540EF703157B756038037660380375539
:104F100003809386862F1306C6B49305A00A130553
:104F20000540EF7031558327000002908327000071
:104F300002905C4D5D71CAC098434EDE66D26ECE63
:104F400086C6A2C4A6C252DC56DA5AD85ED662D44D
:104F50006AD0AA8D0149B94C994975C3138D470090
:104F6000931729003E9D83270D00114C931439009F
:104F70003E9D03260D00814B254A3306CD408356C6
:104F80000600B14A6372DC040354460015CC6A94EF
:104F90001C403E941C4063FEFB0893972B001104B9
:104FA0003E941C403E941C40B307F44003D70700D6
:104FB00063F9EC0083D7E70089C7A29783C707008E
:104FC00099E7850BE362DCFC83270000029083A74E
:104FD0000D0113971B005E97A697C843131B27006C
:104FE0006C005A95EFE00F892DE11C40B307F440A7
:104FF00083D6070063FDD90203D667000DCA229647
:105000000306060081456301460783A70D0132466A
:10501000850BA697DC43338767010843EF809177C0
:1050200003260D003306CD408356060061BF81453F
:10503000E9BF83A7CD0105099843E361E9F203A520
:105040008D0101C5EFA010170145B64026449644D6
:105050000649F259625AD25A425BB25B225C925CB8
:10506000025DF24D61618280E3F0DAF683D7C7001A
:10507000A1DFA29794432947B6979443B386D740BC
:1050800003D60600E372C7F483D6A600B6978DDE7A
:105090009443B697944399C2CC4385BFB7560380D7
:1050A00037560380375503809386862F130646783C
:1050B0009305A00A13050540EF70D13B1C45A1469E
:1050C00098433387E7400356070063F5C606035746
:1050D00087002DC3BA979843BA97984363F7E502C0
:1050E00091078A05AE9798439946BA9798433387B4
:1050F000E7400356070063FCC6020357670005CB71
:10510000BA979843BA9788438280B7560380375638
:1051100003803755038041119386862F130646304E
:105120009305A00A1305054006C6EF70B134832726
:10513000000002908327000002901C45A14698437E
:105140003387E7400356070063F4C606035787001A
:1051500025C3BA979843BA97984363F6E502910737
:105160008A05AE979843BA9798433387E74003562A
:10517000070063FCC6020357870005CBBA97984324
:10518000BA9788438280B7560380375603803755D5
:10519000038041119386862F130646309305A00A9B
:1051A0001305054006C6EF70F12C8327000002901E
:1051B0008327000002901C45A14698433387E740AF
:1051C0000358070063F5060B035787004DC3BA97D2
:1051D0009843411106C6BA97984363F7E5041397BD
:1051E00025009107BA979843BA9798433387E740C9
:1051F0000358070063FA06070357870035C7BA97B5
:105200009843BA9798436371E6040A061849B2971F
:10521000D4438E05BA95DC41B240139516003695FD
:105220000A053E9541018280B756038037560380B8
:10523000375503809386862F130646309305A00AC0
:1052400013050540EF701123B756038037660380BE
:10525000375503809386862F1306C6B49305A00A9C
:1052600013050540EF70112183270000029083276A
:1052700000000290B76703809387073D1CC14CC1B3
:1052800010C554C523280500232A050018CD0DC2DA
:105290001C42A1460147B307F64083D5070063F8D7
:1052A000B60083D7870081C73E961842329758CD03
:1052B00082800CC9828041114AC01309C50922C4E9
:1052C00026C22A84AE844A85814506C6EFD0DFC94E
:1052D000B7370080938787F45CCCB76700809387EB
:1052E00027DD3CCCB76700809387A7DD7CCCB76710
:1052F0000080938727DC3CC4B7670080938727DE54
:105300001CD8B76700809387A7DB3CC0B7670080D5
:105310009387A7DC232A240144DCB2407CC42326E3
:105320000408224492440249410182801C412146E2
:105330009443B386D74003D806006374060983D626
:105340008600C1C2B6979443411106C6B6979443EE
:10535000B1C6D44391071946B6979443B386D74054
:1053600003D80600637C060583D66600A1CAB697FB
:1053700094432E87B697904363FAC5008325450969
:105380000A072E970843B2404101828037650380A7
:105390001305C568EF90E0430145F5B7B7560380A4
:1053A00037560380375503809386862F1306463081
:1053B0009305A00A13050540EF70D10B8327000069
:1053C00002908327000002901C4121469443B3863B
:1053D000D74003D806006373060983D68600BDCE86
:1053E000B6979443411106C6B6979443A9C6D443D1
:1053F0009107B6979443B386D74003D80600637CE1
:10540000060583D68600A1CAB69794432E87B69721
:10541000904363FAC500832585090A072E97084340
:10542000B24041018280376503801305856BEF90A0
:10543000403A0145F5B7B7560380375603803755D4
:1054400003809386862F130646309305A00A130522
:105450000540EF703102832700000290832700008F
:1054600002901305C5096FD0DFAA011106CE22CC28
:1054700026CA4AC84EC652C456C25AC0AE84130B7E
:105480008500B2852A841306C00504C14CC181453C
:105490005A85368ABE89BA8A4289EF80B12FD6856D
:1054A0005285EFE05FBCAA86130A84062686DA8559
:1054B000528574D04E87EFF0FFDB10406C509304A0
:1054C000C4098547230404082326F4082328040874
:1054D000232A0408232C0408D2862685EFD01FA097
:1054E00081452685EFD05FA8B7370080938787F482
:1054F0005CCCB7670080938727DD3CCCB767008022
:105500009387A7DD7CCCB7670080938727DC3CC4FA
:10551000B7670080938727DE1CD8B7670080938722
:10552000A7DB3CC0B76700809387A7DC44C8232E65
:105530002403F2407CC4232604086244D244424936
:10554000B249224A924A024B056182802A8429A0EC
:105550002A842685EFD0AFFF5285EFF04FD7228502
:10556000EFD0D219011122CC2A8406CE26CA4AC80D
:105570004EC652C456C22E893285130884001306C3
:10558000C005814548C0232024014285B684BE89D8
:105590003A8A930A8406EF80F11FA686AA854A8676
:1055A000568564D05287EFF0FFCC10406C509304C6
:1055B000C4098547230404082326F4082328040883
:1055C000232A0408232C0408D6862685EFD01F91B1
:1055D00081452685EFD05F99B7370080938787F4A0
:1055E0005CCCB7670080938727DD3CCCB767008031
:1055F0009387A7DD7CCCB7670080938727DC3CC40A
:10560000B7670080938727DE1CD8B7670080938731
:10561000A7DB3CC0B76700809387A7DC44C8232E74
:105620003403F2407CC4232604086244D244424935
:10563000B249224A924A056182802A8429A02A849A
:105640002685EFD0CFF05685EFF06FC82285EFD0DA
:10565000F20A3C5D411122C426C206C62A84930484
:10566000850681C72685EFF0AFD31305C409EFD0B7
:105670000FEE2244B2402685924441016FF02FC5BF
:105680001D71930785066AD886CE2A8DA2CCA6CA3C
:10569000CAC8CEC6D2C4D6C2DAC05EDE62DC66DA62
:1056A0006ED63EC602C23E85EFF08FC212466355EB
:1056B000A63083290D00A14703A709003387E940DD
:1056C0008356070063FED71483578700638A071445
:1056D000CE9780433E941C406370F62C93172600AF
:1056E00011043E9414408357670036946384072462
:1056F000BE9983A70900BE9903254D06EFE09FDD03
:10570000AA8722853EC4EF90C0312A8B630F051C07
:10571000924781440149139A3700938749003EC05C
:105720001C40A946B307F44003D7070063FAE60E0E
:1057300083D7A700F5C7A2979843BA979843637891
:10574000E92A131529009107AA978843814DB38C44
:10575000A70003A70C0091473387EC4003560700CE
:1057600063F8C7000357470001C76697832D0700FA
:1057700003A7090063F5ED1C03268D0782471397E5
:105780002D0052963E97832A0700104283254D0034
:10579000BA9A2696130686025685EF90306BAA8B2E
:1057A0006318051A03278D07529718432697105739
:1057B0006302061C03A70C00832A460102CE33872E
:1057C000EC4093070002835607006385FA12B9473D
:1057D00063FBD7040357E70039C79307100A63E652
:1057E0005715B76703808A0A93870740BE9A83A537
:1057F0000A003775038013050586EF80907D854B81
:10580000F6406644D6444649B649264A964A064B6F
:10581000625CD25C425DB25D5E85F25B2561828036
:1058200083270000029003254D00D68518411847B4
:1058300002976305051822467408E685EF90402F0D
:10584000AA8B5DFD03A70C003387EC40835607004D
:105850009947814B814A014563ECD70AEF90802636
:1058600003A70C00A1462A8C3387EC408355070020
:10587000014563F9B6000357870009C73385EC007B
:1058800018413A95EF90002403278D0783A60C005A
:10589000F24852971843B386DC4083D50600B30D17
:1058A000970023A40D0023A60D0023A80D0023A01C
:1058B0000D0223A20D0223A08D0123A2AD0023AA75
:1058C0001D0123AC5D0123AE7D015146637AB60014
:1058D00003D5460111C566951C413E951C41A9E3BF
:1058E00005099384C402E31D2BE3924732458507E3
:1058F0003EC25DBBB947E3FDD7F4835AE700638D31
:105900000A02E69A83A60A00B69A83AB0A00910AB5
:1059100003576700014539D3669708433A953DBF61
:10592000EF90401A23A4AD0065BFB785038093852F
:10593000C5C7C1B58149C9B3814B814AD1BF37655C
:105940000380EE851305057EEF80B068854B4DBD65
:105950005685EFA0FFA99307100A63F6A702B78543
:1059600003809385C5C7377503801305C580EF8015
:10597000506679B537750380EE851305C583EF80D2
:105980005065854BB5BD3767038093172500130716
:105990000740BA978C43C1BFB75603803756038080
:1059A000375503809386862F130646309305A00A49
:1059B00013050540EF70012C814B99B59307100A30
:1059C00063E257033767038093972A001307074062
:1059D000BA978C43377503801305858AEF80705F13
:1059E000854B39BDB78503809385C5C7E5B7B756E5
:1059F000038037660380375503809386862F13060E
:105A0000466E9305A00A13050540EF70A1264111CB
:105A100022C413048506228506C6EFF06F9809C5D7
:105A2000B24022444101828022852244B240410199
:105A30006FF02FD0797122D40C412A84685106D698
:105A400026D24AD04ECE52CC56CA5AC85EC662C47E
:105A5000EFE08FFB630A051613098406AA854A85C1
:105A6000EFF03F8522852939AA8411CDB250225406
:105A70000259F249624AD24A424BB24B224C268525
:105A80009254456182809309C40981454E85EFD0C7
:105A9000AFCD4A85EFF0CF86AA8469F985454E855A
:105AA000EFD08FCC4A85EFF0EF97AA8461F189455A
:105AB0004E85EFD06FCB305C0C40685093060409E4
:105AC000EFE0BF82AA845DF1832504094E85EFD003
:105AD0000FC41C40A14698433387E7400356070094
