:0200000480007A
:1000000017D10A00130181E2EF00400E6F000000DB
:040010006780000005
:10001400130101FF1305400023261100EF709261C4
:10002400979708009387872C2320F5001726020052
:100034001306867E979508009385052AEF10C267FC
:10004400130101FE2326A10013058000232C810047
:10005400232E1100232A9100EF70D25D8325C10065
:1000640013040500EF800215178602001306460BE1
:1000740097B50800938505AC13050400EF10C2631F
:100084009304050013050400EF7052601385040007
:10009400EF004400130101FE2326A1001305800094
:1000A400232C8100232E1100232A9100EF709258F3
:1000B4008325C10013040500EF8042151786020052
:1000C4001306860997B508009385C5A8130504008F
:1000D400EF10825E9304050013050400EF70125BB9
:1000E40013850400EFF0137BB757048083C6574091
:1000F400130101E003C6474003C76740232C811E58
:1001040003C4774093968600B3E6C600131707012D
:100114003367D700131484013364E40093874740A2
:100124003304F40083270400232E111E232A911E76
:10013400B307F44083D607002328211F2326311F49
:100144003703FFFF1307400033016100637AD726AA
:1001540083D7470063860726B307F40083A5070007
:10016400930730006390F526B79708809387C707F5
:100174001305011E232EF10AB70901002320011AD9
:10018400232E011CEFA0D0183709FFFF9387091E07
:10019400B38727009304C9EDB3849700B7B60180F1
:1001A4009386C6A41306011E93050000138504005C
:1001B400EF00822E1305011EEFF0500AB7B601803E
:1001C4009386C62E1306011E930530001385040082
:1001D400EF00822C1305011EEF508124B7D6018055
:1001E400938686811306011E93053001138504004E
:1001F400EF00822A1305011EEF905074B7D60180D8
:10020400938686821306011E9305600113850400FC
:10021400EF0082281305011EEF600130B7B601809C
:10022400938606F51306011E9305500213850400F8
:10023400EF0082261305011EEF308108B7C6018046
:100244009386069F1306011E9305900013850400F0
:10025400EF0082241305011EEF305121B7D601802F
:10026400938606DB1306011E930590011385040093
:10027400EF0082229387091EB3872700130949E2FE
:1002840033892701130509001308000093070000B0
:10029400370701009306011E13860400930504002A
:1002A400EF70502B13050900EF80402C93050000DC
:1002B40013050900EF70500E93040500630805143C
:1002C40083278500379508801305C5F583A50700A6
:1002D400EF70817983A7840003A707006358E002C5
:1002E400130400003799088013172400B387E7002C
:1002F40083A54700130549F7EF70017783A78400AE
:100304001304140003A70700E340E4FE03A704005A
:10031400930710006306F70EB7950880938545EEA2
:1003240037950880130585F7EF70017437950880B9
:1003340093051000130505F9EF70017303A78401F9
:1003440093070000630E070003A744003307F70078
:100354002300070003A7840193871700E3E6E7FE61
:1003640037950880930510001305C5FBEF70C16F26
:10037400B70701003705FFFF9387071E130545E202
:10038400B38727003385A700EF80C06A6308050898
:1003940037950880130545FDEF70016D1304F0FFD8
:1003A400B70701003705FFFF9387071EB3872700B0
:1003B400130545E23385A700EF7050466F00C00176
:1003C4009305000037950880130630001305C5EE29
:1003D400EF7081691304F0FF3703010033016100FA
:1003E4008320C11F130504008324411F0324811F9C
:1003F4000329011F8329C11E130101206780000006
:10040400B79508809385C5ED6FF09FF13795088007
:10041400130545F3EF7041656FF05FF8B70701000E
:100424003705FFFF9387071E130545E2B3872700AF
:10043400930500003385A700EF70D003379508803B
:1004440093051000130545FEEF700162379508808F
:1004540013050500EF704161130400006FF05FF4B1
:10046400B7070100130405009387071E3705FFFF34
:10047400B3872700130545E23385A700EF70103AD0
:1004840013050400EFF01341130101FF232481003D
:10049400371400001304049423229100130504006C
:1004A40097D408009384448B2326110023A6840048
:1004B400EF90825D23A4A4006314050297D708007B
:1004C40023A2078A97D7080023AA07888320C1009C
:1004D400032481008324410013010101678000008B
:1004E40023A2A40023208500232205006FF01FFE11
:1004F40063000506832705009306A000B307F540B3
:1005040003D7070063FEE60203D7A70093060000A3
:10051400630607003307E5008326070003D7470077
:1005240093070000630607003305E5008307050011
:100534001385070063DCD70013850600678000007D
:100544009306400063ECE60013050000678000009A
:10055400130101FF23261100EF80125493060000BB
:100564006FF0DFFB630E050083270502030505001A
:100574006344F5006780000013850700678000006E
:10058400130101FF23261100EF801251130101FF13
:10059400232481002326110013040500638E050221
:1005A40083A585009307600003A605009385450095
:1005B4002320C50063CEC702131626001305450089
:1005C400EF90525F8320C1001305040003248100CF
:1005D40013010101678000008320C100232005006E
:1005E4001305040003248100130101016780000046
:1005F400EF80924A9387050003A6470083A5050070
:10060400130101FF232611003306B64093572640F9
:10061400232481002320F5009307800163C2C702CD
:100624001304050013054500EF90D2588320C10040
:1006340013050400032481001301010167800000F5
:10064400EF809245130101FE232C8100232A91009F
:1006540013840600930406009306000013060000AA
:100664002328210123263101232E1100930905009B
:1006740013890500EF70531A6314050223A00400C4
:100684008320C10123200400032481018324410128
:10069400032901018329C1001301010267800000BD
:1006A400130604001385090093050900EF80C20DA9
:1006B400B7C7088003A6875583A6C755EF70133BB9
:1006C400EF804220EF8093346340B006638A0504D0
:1006D4003707008083270400630AE502130710FE2E
:1006E40063D6E70023200400130500008320C10122
:1006F4000324810123A0A4000329010183244101CF
:100704008329C1001301010267800000E39805FCFE
:10071400938717002320F400370500406FF01FFC77
:10072400B7070080E3F6A7FAEF801237130101FE42
:10073400B7C70880232C81002326310113840600C7
:100744009309060083A6475603A60756232A910059
:1007540023282101232E1100130905009384050089
:10076400EF7053146356A008130509009385040021
:100774001306000093060000EF70130A63140502C9
:1007840023A00900232004008320C1010324810144
:1007940083244101032901018329C10013010102BA
:1007A4006780000013060400130509009385040004
:1007B400EF70927DB7C7088003A6875583A6C755F7
:1007C400EF70D32AEF800210EF8053246342B0020B
:1007D400638E05043707008083270400630EE50257
:1007E400130710FE63C8E70023A0A900E3DE07F89F
:1007F400EF80922A232004008320C1010324810175
:1008040023A0090083244101032901018329C10094
:100814001301010267800000E39405FC938717002D
:100824002320F400370500406FF09FFBB7070080DA
:10083400E3F2A7FA6FF0DFFB130101FDB7C70880ED
:1008440023202103232E3101138906009309060076
:1008540083A6475603A60756232481022322910226
:10086400232611029304050013840500EF70D311AD
:10087400635805081385040093050400130600005B
:1008840093060000EF701302635CA0061306C10018
:100894001385040093050400EF70126FB7C7088036
:1008A40003A6875583A6C755EF70531CEF808201BA
:1008B400EF80D3156346B0046380050637070080D4
:1008C4008327C1006300E504130710FE63D6E70223
:1008D40023A00900930700008320C102032481029E
:1008E4002320F90083244102032901028329C10141
:1008F400130101036780000023A0A900E35EF0FC5C
:10090400EF809219E39205FC938717002326F100E8
:10091400370500406FF05FFBB7070080E3F0A7FAEC
:100924006FF01FFEB707008093C7F7FF33F7B700D8
:100934003367A700138805006302070813D745012E
:100944001377F77F9306F07F6304D704930627C0D9
:100954009395A50093576501370700401315A5002B
:10096400B3E7F5002320D6009305F7FF1355A50040
:10097400B7062000B3F7B70063EAA6043385E7009F
:10098400B337F50093850700634C080467800000C3
:100994009395C5003707C0FF3375A70093D5C500ED
:1009A4002320F600B365B50063960504634A080482
:1009B4001305F0FF938507006780000023200600DD
:1009C400130500009305000067800000130517005D
:1009D4003385A700B337F50093850700E35808FA79
:1009E400B337A000B305B040B385F5403305A0404C
:1009F4006780000013050000930500006780000075
:100A040013050000B705008067800000B70600806A
:100A140093C6F6FFB367B500630CD6101308000045
:100A240093080000638E070A93D6F54133C5A600E8
:100A34003308D540B3C7B60033350501B387D74073
:100A44001306F6FFB387A7401357F64113050800B2
:100A54006346F00A638C0708B70800401358F50191
:100A64009397170093361600B367F8001315150013
:100A74003307D7401306F6FF6346F000E39007FE02
:100A8400E36E15FDB70600C0B306D50033B5A60066
:100A94009387F7FFB307F5006350E00E1306F03FAA
:100AA400130700001305F0FF6348A70A6302A70AAF
:100AB40013D7A6001306F63F93976701B367F700B1
:100AC4001316460137070080B3F5E500B367F60057
:100AD40093966601B3E7B70013880600938807006E
:100AE400130508009385080067800000B7060040DE
:100AF400E364D8F6B7060080E3F606F9370300800E
:100B0400930616009398F70133B8C60013551500E1
:100B140093D7174033E5A800138606003307E8008F
:100B2400E340F0FEE39007F6E36CA3FC6FF09FF55F
:100B340063880702635AB004B7C7088003A88757BD
:100B440083A8C75713050800938508006780000031
:100B5400130710C0E37EE6F4130610C06FF05FF5D0
:100B6400B7C7088003A8075783A847571305080089
:100B74009385080067800000E31607F21305F03F31
:100B8400E372C5F26FF09FF163940500E31605FA72
:100B9400B7C7088003A8875683A8C7566FF05FF4C9
:100BA400370800801348F8FFB377B800B3E7A7000D
:100BB4009388060013830600B37ED8006382071669
:100BC40013D745011377F77F9307F07F138F050041
:100BD400630CF70E135865019395A500370E00407A
:100BE4001315A50033E805019306FEFF1355A50070
:100BF400B70720003378D80063F4A700130E1E0053
:100C0400330EC80133380E0193060800635A0F00EF
:100C1400B337C001B3060041B386F640330EC0417A
:100C240033E8CE001305000093050000130727C026
:100C34006306080E93D7480193F7F77F9305F07F77
:100C44006386B70C130101FF9398A80093556601BE
:100C5400370500401316A600B3E5B800232611009B
:100C64009308F5FF23248100232291001356A60044
:100C740037082000B3F515016374C8001305150087
:100C84003385A500B335B500635A03003336A0009D
:100C9400B305B040B385C5403305A040B704008018
:100CA40013C6F4FF631EC708B7C7088003A5075718
:100CB40083A547578320C100032481008324410076
:100CC40013010101678000009395C500B707C0FFB9
:100CD40033F5A70093D5C500B365B5006396051435
:100CE400634C0F1A130EF0FF9306080033E8CE008E
:100CF400630E080093D748013707008093F7F77F06
:100D04009305F07F1347F7FFE39EB7F2B7C7088058
:100D140003A5075783A54757678000006780000035
:100D240033E8CE001305000093050000E30808FE35
:100D340013070000130E0000930600006FF09FEFEE
:100D4400938727C013060E003384E700EFD04328AF
:100D540013D8F54193C4E4FFB3E70501630C940C85
:100D640063860712B345B800B3860541B3B5D50011
:100D7400B3070041B387B740130704009385060007
:100D84001356F441634AF002638C070EB70800401F
:100D940013D5F5019397170093361700B367F50041
:100DA400939515003306D6401307F7FF6346F0000A
:100DB400E39007FEE3EE15FDB70600C0B386D50049
:100DC400B3B5B6009387F7FFB387F500635AC0083D
:100DD4001307F03F130600009305F0FF634EB606B9
:100DE4006308B6061307F73F13D6A6009395670169
:100DF4008320C1000324810093174701B365B60023
:100E040037070080B3E7B7003378E80093966601AC
:100E1400B3E7070183244100138506009385070087
:100E24001301010167800000130E00009306000007
:100E34006FF0DFEBE38A07E6631C0802638A0502AE
:100E4400B7C7088003A5875783A5C7576FF09FE6E8
:100E5400130610C0E378C7F8130710C06FF09FF8AB
:100E6400E31C06F69305F03FE3F8E5F66FF05FF652
:100E7400B7C7088003A5875683A5C7566FF09FE3BD
:100E8400B7060040E3E4D5F06FF01FF3130500004C
:100E9400930500006FF01FE2130E0000B7060080F8
:100EA4006FF0DFE4B707008093C7F7FF33F7B700AD
:100EB4003367A700938E05009388060033F8D700A4
:100EC400630E071213DE4501137EFE7F1307F07FC6
:100ED4006300EE0C9395A50093576501370300401A
:100EE4001315A500B3E7F5001307F3FF1355A50089
:100EF400B7052000130E2EC0B3F7E70063F4A50076
:100F04001303130033836700B337F3001387070019
:100F140063CE0E103368C800630A081293D54601E5
:100F240093F5F57F9307F07F130510006380F506B2
:100F34001395A60093576601B70600401316A60042
:100F4400B367F5001388F6FF1356A6003705200093
:100F5400938525C0B3F707016374C5009386160013
:100F6400B386D700B3B7F60063DA08003336D0008F
:100F7400B307F040B387C740B306D04037060080BC
:100F84001346F6FF130510006312CE0467800000B9
:100F94009395C5003707C0FF3375A70093D5C500E7
:100FA400B365B500639E050663C80E0C1303F0FF1A
:100FB400138707003368C80013051000E30808FC12
:100FC400370E0080134EFEFF6FF05FF53366E300CB
:100FD400630406046356070033E6F600630C060058
:100FE4001305F0FFE344BEFA13051000E3C0C5FB8C
:100FF4006356F7061305F0FF678000003368C800E6
:1010040013050000E30408F8130E000013030000A6
:10101400130700006FF09FF0E3D407FC6780000023
:1010240013030000130700006FF0DFF8B33560000E
:10103400B307F0403368C8003387B74033036040D8
:101044001305F0FFE31C08EC678000009305000023
:1010540093060000930700006FF09FF86394E70085
:10106400E36AD3F813051000E3C2E7F2630CF70058
:101074001305000067800000130300003707008099
:101084006FF05FF3E3F666FE67800000130101FD75
:1010940023286101130B0500370500803355E50053
:1010A40023261102232481022322910223202103D7
:1010B400232E3101232C410193890700232A510156
:1010C40023267101138A0500938A060093040800FD
:1010D400930B0600EF800309130905001384050030
:1010E40093860A0013860B0093050A0013050B0070
:1010F400EF70C31713060500938605001305090056
:1011040093050400EF708316B7C7088003A94758F6
:1011140003AA0758930A05009306090013060A0058
:1011240013840500EF6013786346A006B7C70880F0
:1011340003A6075683A6475613850A0093050400A1
:10114400EF6053766352A00A13850A0093050400E6
:101154001306000093060000EF60136C631005048F
:1011640023A0090023A004008320C10203248102D8
:1011740083244102032901028329C101032A810135
:10118400832A4101032B0101832BC10013010103B5
:1011940067800000930A0A00130409001386040000
:1011A40013850A0093050400EF70025EB7C7088038
:1011B40003A6875583A6C755EF70430BEF70827063
:1011C400EF80C3046342B0026382050437070080E2
:1011D40083A704006302E502130710FE63C8E70057
:1011E40023A0A900E3D207F8EF80020B23A0040098
:1011F40023A009006FF05FF7E39005FE93871700C3
:1012040023A0F400370500406FF01FFDB7070080EE
:10121400E3FEA7FA6FF05FFD130101FC232E7101B9
:10122400930B0500370500803355E500232E11028A
:10123400232C8102232A910223282103232631030C
:101244002324410323225103138A0700232061032B
:10125400232C8101938A0500138B060013090800CF
:1012640093890800130C0600EF70D36F93040500F4
:101274001384050093060B0013060C0093850A00E3
:1012840013850B00EF60937E13060500938605001B
:101294001385040093050400EF60537DB7C70880ED
:1012A40083AA475803AB07589304050093860A00A2
:1012B40013060B0013840500EF60D35E6344A01291
:1012C400B7CA088003A60A5683A64A5613850400A3
:1012D40093050400EF60135D6354A01013850400AC
:1012E400930504001306000093060000EF60D35238
:1012F400631E050EB7C7088023200A0083A48758FD
:1013040003A4C75823200900130700009307000013
:101314001306070013850400938607009305040051
:10132400EF60435103A60A5683A64A569304050068
:1013340013840500EF6053656354050A13850400A4
:10134400930504001306000093060000EF60935514
:101354006358A0081306C100138504009305040014
:10136400EF708242B7C7088003A6875583A6C75586
:10137400EF60D36FEF700255EF7053696342B006AC
:1013840063820512370700808327C1006302E510DA
:10139400130710FE63D2E70423A00900930700009B
:1013A400032701048320C103032481032320F700BE
:1013B40083244103032901038329C102032A8102EF
:1013C400832A4102032B0102832BC101032C8101D7
:1013D400130101046780000023A0A900E352F0FC7C
:1013E400EF70926B93040B0013840A001306090038
:1013F4001385040093050400EF700239B7C7088011
:1014040003A6875583A6C755EF605366EF70824BDA
:10141400EF70D35FE346B0FC638C050837070080A8
:1014240083270900630CE504130710FE63CEE7026B
:101434002320AA0013040500E3C407FA370500803B
:101444003355F500EF70135293040500130504009F
:1014540013840500EF7013511307050093870500EB
:10146400B7CA08806FF0DFEA2320090023200A00AE
:1014740013040000930700006FF05FFCE39605FA85
:10148400938717002320F900370500406FF0DFF938
:10149400E39005F0938717002326F10037050040F9
:1014A4006FF01FEFB7070080E3FEA7EC6FF05FF368
:1014B400B7070080E3F4A7F66FF09FF2130101FE73
:1014C400232A910093041000232821011309050005
:1014D4003395A4001305F5FF232C81002326310145
:1014E40013040600232E110093890500EF7093471F
:1014F40033062441930706FE1309050013840500EF
:1015040063CE0706B395F40013050000EF70935DF6
:1015140013060500938605001305090093050400CE
:10152400EF60D354938709FE9304050013840500E8
:1015340063CC070493051000B395F5001305000070
:10154400EF70535A130605009386050013850400B3
:1015540093050400EF60032EEF704204EF7093389C
:101564008320C10103248101832441010329010152
:101574008329C10013010102678000009305000064
:101584003395C4006FF09FF8130510009305000015
:10159400331535016FF0DFFA130101FD232E3101FC
:1015A4009309050013050600232611022324810252
:1015B400232291022320210393840600138905002A
:1015C400232C4101232A510123286101930A080095
:1015D400138B07002326710123248101930B070039
:1015E400130C0600EFC04303130405001385040025
:1015F400EFC0830293850900130A0500130509004F
:10160400EFB01329130905009305040013050A001C
:10161400EFB013289305050013050900EFB0831DEF
:101624009305050023A0AA001309050013850900EA
:10163400EFB0431C9305050013050400EFB05325D8
:10164400930905009305050013050400EFB0835AC0
:10165400635AA00613150C0113550501EFB0D37B93
:10166400930405009305050013050400EFB053220D
:1016740093050900EFB0836E9385040023A0AB00AB
:1016840013050A00EFB0D32083A50A00EFB0036D61
:101694008320C102032481022320AB00832441025E
:1016A400032901028329C101032A8101832A4101FB
:1016B400032B0101832BC100032C810013010103BF
:1016C400678000009385090013050A00EFB0C35D2D
:1016D400930705001395040113550501E3C007F8AA
:1016E40013850900EFC08311EF70C21DEFC0033EE4
:1016F400EFB0136C1315050103A90A001355050176
:101704006FF0DFF5130101FD23267101930B050032
:1017140037C508800325855F2324810213840500CF
:1017240093850B002326110223202103232E31014C
:10173400232C4101232A51012328610123248101FF
:10174400138B07001389060093090700930A060008
:1017540023229102EFB0030A130C05009305000045
:1017640013050B00EFB00349130A00006352A008ED
:10177400832409009305040013850400EFB0834714
:1017840093850A006344A0009304040013850400B5
:10179400EFB08351130705009305040013850A0075
:1017A40063400708EFB0D30E93050C00EFB0035B62
:1017B400EFC0C304EF700211EFC0433193850B00F7
:1017C400EFB0C35993050400EFA0133D130A1A00A8
:1017D40023A0A90013050A00EFB0136493050B00BE
:1017E400EFB0834C1309490093894900E34205F89B
:1017F4008320C102032481028324410203290102BC
:101804008329C101032A8101832A4101032B010198
:10181400832BC100032C81001301010367800000A6
:1018240013850400EFB0D30693050C00EFB0035307
:10183400EFB0D37CEF700209EFC0432993850B000E
:10184400EFB0C35193050400EFA01335130A1A0037
:1018540023A0A90013050A00EFB0135C930505004B
:1018640013050B00EFB003391309490093894900AC
:10187400E340A0F06FF0DFF7130101FF232611000E
:101884002324810023229100232021019384050035
:10189400EF70421FB7C7088083A5C75FEFB0034C42
:1018A40013040500EFB09375EF70C201EFC003227B
:1018B40013090500EFB0D3489305090023A0A40041
:1018C40013050400EFB0C37CB7C7088083A5076085
:1018D4001315150013551500EFB0033D8320C10007
:1018E4000324810083244100032901001355F501D9
:1018F400130101016780000063820514130101FDD7
:10190400B7C70880232481022322910223202103C4
:10191400232E3101232C4101232A51012328610163
:10192400232671012324810103A9875583A9C7555F
:10193400232611022322A1012320B101138A0500C9
:1019440093040500930A060013840600130C000098
:10195400370B0080930B10FE6F00000223A00A00D7
:1019640023200400130C1C0093848400938A4A00EF
:1019740013044400630E8A0703AD040083AD4400DE
:10198400130600009306000013050D0093850D0057
:10199400EF608368E30405FC1306040013050D00DF
:1019A40093850D00EF60525E1306090093860900CB
:1019B400EF60D30BEF601271EF7053056344B0080E
:1019C40063800508832704006300650763D67701F5
:1019D400232004001305000023A0AA00130C1C00FC
:1019E40093848400938A4A0013044400E3168AF91A
:1019F4008320C102032481028324410203290102BA
:101A04008329C101032A8101832A4101032B010196
:101A1400832BC100032C8100032D4100832D010081
:101A24001301010367800000E39205FA938717000E
:101A34002320F400370500406FF05FF96780000051
:101A4400E372ABF8EF705205130101FF2324810008
:101A54001344F6FF23229100232021011354F4415F
:101A6400232611001389050033748600B304C04093
:101A74006354C0009304000033148500130604006B
:101A84009356F441130509009355F941EFC04354AB
:101A9400630E240B63CA0506370700403307A7000B
:101AA4003335A7003305B500131515001357F70197
:101AB400B367E5001307F001634E970A138704FE2A
:101AC4001305000063560700130510003315950035
:101AD4001305F5FF8320C1000324810013D7F70108
:101AE400935615403307D7003375F5003325A70007
:101AF400B3D7974003290100832441003305F5003F
:101B04001301010167800000370700C013071700A5
:101B14001306F0FFB306A70033B7A6003305B600DB
:101B2400B307A70013D7F74113171700135717006C
:101B3400B306D70033B5E6003305F50013151500D9
:101B440093D7F601B367F5006FF0DFF6370700406F
:101B54001306000063D80500370700C013071700F9
:101B64001306F0FFB70600809347F9FFE304D9F4A6
:101B74006FF05FFAB7260480372604803725048087
:101B8400938606C6130606C7930570161305C5CCBF
:101B9400EF700272130101FF232611002324810038
:101BA400634E06129387F60113076002138406003E
:101BB4006366F710B78600003387D500B7070100C6
:101BC400637EF70CB707FF7F6340F6061386F6FFC4
:101BD40093060000EFC0C33F9307E00033878740BC
:101BE400930707FE63C20706130610003316F600B8
:101BF400930700003387A7001305F00033048540E2
:101C0400B337F7003305B600930604FE3385A70007
:101C140063C206068320C100032481003355D540E6
:101C24001301010167800000B307D60013D60741F2
:101C340093D6F741EFC0C3399307E0003387874059
:101C4400930707FEE3D207FA93071000B397E70060
:101C54003387A7001305F000330485401306000002
:101C6400B337F7003305B600930604FE3385A700A7
:101C7400E3D206FA9307F00113151500B3878740E2
:101C84008320C100B317F500335587000324810076
:101C940033E5A7001301010167800000B726048023
:101CA4003726048037250480938606DB1306C6D1C5
:101CB4009305B002130545D6EF70825FB726048002
:101CC4003726048037250480938646D91306C6D167
:101CD4009305A002130545D6EF70825DB7260480F4
:101CE4003726048037250480938606D01306C6D190
:101CF40093059002130545D6EF70825B635EB008CE
:101D0400130101FE93952500232C8100232A9100C1
:101D140023263101232E1100232821011304050059
:101D240093040600B309B5000329040093050000D9
:101D340013050900EFA0136C634AA0029307000087
:101D440023A0F4001304440093844400E39E89FC1C
:101D54008320C1010324810183244101032901015A
:101D64008329C100130101026780000023A024011C
:101D74001304440093844400E39889FA8320C10146
:101D84000324810183244101032901018329C10022
:101D9400130101026780000067800000635CB00AE1
:101DA400130101FEB7C708802322510183AA875F6C
:101DB400B7C708802324410103AA476093952500EF
:101DC400232C81002328210123263101232E1100F5
:101DD400232A91001304050013090600B309B50072
:101DE4008324040093850A0013850400EFA0936004
:101DF4009307050093050A00138504006340F0046B
:101E0400EFA0535F634EA002232049011304440052
:101E140013094900E31634FD8320C1010324810121
:101E240083244101032901018329C100032A81007C
:101E3400832A4100130101026780000093840A0091
:101E4400232099001304440013094900E39A89F8F4
:101E54006FF09FFC678000006354B00C130101FE17
:101E6400B7C708802324410103AA876093952500FE
:101E7400232C81002328210123263101232E110044
:101E8400232A91001304050013090600B309B500C1
:101E94008324040093050A0013850400EFA09355DE
:101EA4009307050093050000138504006340F004C4
:101EB400EFA05354634EA002930700002320F900BF
:101EC4001304440013094900E31434FD8320C101C1
:101ED4000324810183244101032901018329C100D1
:101EE400032A8100130101026780000093040A00A1
:101EF400232099001304440013094900E39A89F844
:101F04008320C101032481018324410103290101A8
:101F14008329C100032A81001301010267800000A4
:101F240067800000635EB004130101FF93952500F0
:101F34002324810023229100232021012326110040
:101F440013040500930406003309B50003250400B7
:101F5400938444001304440013250500EFB0437C2C
:101F640023AEA4FEE31489FE8320C1000324810070
:101F7400832441000329010013010101678000004B
:101F84006780000093D8F501B388B8009307100068
:101F940093D8184063DAB7029306060013070000CB
:101FA400B307E5008387070093862600130717000D
:101FB4001398C7011358C84193D74740238F06FF8E
:101FC400A38FF6FEE34E17FD93F71500638E07000B
:101FD40033051501830705003306B6009397C7013F
:101FE40093D7C741A30FF6FE6780000083A70500BF
:101FF40083A6070093874700634A06026358D60204
:10200400131626003386C7008325060063C0050225
:102014008327850063880700939565003385B7009F
:10202400678000008327050567800700130500000B
:102034006780000083A50500130101FF232611001A
:102044002324810003A80500930706001307050055
:10205400634A06046358060593172600B387F50000
:1020640083A547009307F0FF6386F50613840600F3
:102074008326850093976500B387F600639806006E
:1020840083270505E7800700930705008320C10027
:102094002320F4000324810013050000130101012F
:1020A4006780000083284701B725048013050700D3
:1020B4009306080013860700938505E0E78008006F
:1020C4008320C100032481001305100013010101C2
:1020D4006780000083274501B72504809385C5E206
:1020E400E78007008320C10003248100130510004A
:1020F400130101016780000083A7050083A6070080
:1021040063400606635ED6049387470013162600D1
:102114003386C7008325060063C40504832785002E
:10212400638C0700139565003385A7008347D502A8
:10213400638807026780000083270505130101FFF8
:1021440023261100E7800700630005028347D502B8
:10215400638C07008320C100130101016780000024
:1021640013050000678000008320C10013050000F0
:10217400130101016780000083A7450083A60700BF
:1021840093874700634A06026358D6021316260053
:102194003386C7008325060063C0050283278500B4
:1021A40063880700939565003385B7006780000056
:1021B400832705056780070013050000678000007A
:1021C40083A54500130101FF232611002324810068
:1021D40003A805009307060013070500634A0604D5
:1021E4006358060593172600B387F50083A54700B7
:1021F4009307F0FF6386F5061384060083268500A3
:1022040093976500B387F600639806008327050556
:10221400E7800700930705008320C1002320F40012
:1022240003248100130500001301010167800000ED
:1022340083284701B7250480130507009306080087
:1022440013860700938505E0E78008008320C1001A
:1022540003248100130510001301010167800000AD
:1022640083274501B72504809385C5E2E7800700ED
:102274008320C10003248100130510001301010110
:102284006780000083A7050083A6070093874700A3
:10229400634A06026358D602131626003386C70023
:1022A4008325060063C00502832785006388070031
:1022B400939565003385B700678000008327050583
:1022C40067800700130500006780000083A7C5002E
:1022D40083A6070093874700634A06026358D60221
:1022E400131626003386C7008325060063C0050243
:1022F4008327850063880700939565003385B700BD
:102304006780000083270505678007001305000028
:102314006780000083A5C500130101FF2326110077
:102324002324810003A80500930706001307050072
:10233400634A06046358060593172600B387F5001D
:1023440083A547009307F0FF6386F5061384060010
:102354008326850093976500B387F600639806008B
:1023640083270505E7800700930705008320C10044
:102374002320F4000324810013050000130101014C
:102384006780000083284701B725048013050700F0
:102394009306080013860700938505E0E78008008C
:1023A4008320C100032481001305100013010101DF
:1023B4006780000083274501B72504809385C5E223
:1023C400E78007008320C100032481001305100067
:1023D400130101016780000083A7850083A607001D
:1023E40093874700634A06026358D60213162600F1
:1023F4003386C7008325060063C005028327850052
:1024040063880700939565003385B70067800000F3
:102414008327050567800700130500006780000017
:1024240083A58500130101FF2326110023248100C5
:1024340003A805009307060013070500634A060472
:102444006358060593172600B387F50083A5470054
:102454009307F0FF6386F506138406008326850040
:1024640093976500B387F6006398060083270505F4
:10247400E7800700930705008320C1002320F400B0
:10248400032481001305000013010101678000008B
:1024940083284701B7250480130507009306080025
:1024A40013860700938505E0E78008008320C100B8
:1024B400032481001305100013010101678000004B
:1024C40083274501B72504809385C5E2E78007008B
:1024D4008320C100032481001305100013010101AE
:1024E40067800000130101FD23229102232E310194
:1024F400232C4101232A510123286101232611029F
:1025040023248102232021032326710183AAC500E9
:10251400032BC6009309050093040700138A0700E0
:10252400638A060813850A0013840600EFB0032D9E
:10253400930B050013050B0013890500EFB0032C62
:10254400130605009386050013850B009305090007
:10255400EF50D351130905000325C400138405006B
:10256400EFB0C3291306050093860500130509007F
:1025740093050400EF6043381309050003A5C40064
:102584001394150013541400EFB0432713060500E9
:10259400938605001305090093050400EF50832971
:1025A400B7C7088003A6075983A64759EF50D33D00
:1025B4006344A00893050B0013850A00EFA0037A77
:1025C4009305000013040500EFA0C362634E0508E1
:1025D40013050400EFB083229307050003A5C4008C
:1025E4001384050093840700EFB04321130605000C
:1025F400938605001385040093050400EF5083239C
:102604002320AA002322BA00130500008320C1025C
:102614000324810283244102032901028329C10185
:10262400032A8101832A4101032B0101832BC10069
:10263400130101036780000083A749013727048041
:10264400130707E69306001437260480B725048091
:1026540013850900130646E8938505EBE780070018
:10266400130510006FF09FFA3727048083A74901F0
:10267400130787EC9306D0146FF01FFD130101FEBE
:1026840013880500232821018325C60013090500AA
:102694000325C800232C8100232A9100232631011D
:1026A400232E11001384060093090700EFA0036B87
:1026B4009305000093040500EFA0C353634C050485
:1026C40013850400EFB08313930405000325C400AD
:1026D40013840500EFB083121306050093860500EA
:1026E4001385040093050400EF50C3148320C10133
:1026F4000324810123A0A90023A2B900832441015A
:10270400032901018329C1001305000013010102FB
:102714006780000083274901372704803726048017
:10272400B725048013050900130787EC9306D0141A
:10273400130646E8938505EBE78007008320C10173
:102744000324810183244101032901018329C10058
:10275400130510001301010267800000832706009F
:10276400130101FD2324810223229102232021034A
:10277400232E310123261102232C4101232A510146
:10278400232861012326710123248101232291013D
:102794001308300093040500138405001389060010
:1027A4009309070063820713130790006382E70A03
:1027B400130770006390E704378A0000130AFAFFD6
:1027C400B78AFFFF93071000032BC600832B060173
:1027D400630CF40893073000630EF40E9307200093
:1027E4006300F41A2320590123A0490113050000B2
:1027F4006F00C002832745013727048037260480F1
:10280400B7250480130747EE93063019130646E8EC
:10281400938505EBE7800700130510008320C102B0
:102824000324810283244102032901028329C10173
:10283400032A8101832A4101032B0101832BC10057
:10284400032C8100832C41001301010367800000E5
:1028540093071000032BC600832B0601130AF0070D
:10286400930A00F8E318F4F693050B00130500002F
:10287400EF905378EFA09378EF60C204EFB0032594
:10288400B7C7088083A5C760130B0500EFA0833684
:1028940063400518B7C7088083A5076113050B00BB
:1028A400EFA083406346A01613050B00EFA0534925
:1028B400B30B750163C65B192320790123A0490179
:1028C400130500006FF09FF5130AF00F930A000040
:1028D4006FF05FEF93050B0013050000EF90937109
:1028E400EFA0D371EF50127EEFB0431E37C40880BF
:1028F4008325C460130C0500EFA0C32F6344050CAB
:10290400B7CC088083A50C6113050C00EFA0C33974
:10291400634AA00A13050C00EFA09342B3077501A4
:1029240063C8571337C70880032587602320F9003D
:1029340093050B00EF90136CEFA0536CEF5092785B
:10294400EFB0C3188325C46013040500EFA0832AE5
:10295400634A050683A50C6113050400EFA0C33484
:102964006342A00613050400EFA0933DB30B750169
:10297400634C7A0D23A07901130500006FF01FEA60
:10298400B7C7088003A5476093050B0037C40880C8
:10299400EF905366EFA09366EF50D272EFB003133B
:1029A4008325C460130C0500EFA0C324634C050009
:1029B400B7CC088083A50C6113050C00EFA0C32ECF
:1029C400635AA00283A74401372704803726048072
:1029D400B7250480138504001307C7EE9306B015CA
:1029E400130646E8938505EBE780070013051000FE
:1029F4006FF0DFE213050C00EFA09334B307750109
:102A040063CC570537C708800325875F6FF01FF233
:102A140083A744013727048037260480B725048020
:102A2400138504001307C7EE9306B015130646E892
:102A3400938505EBE7800700130504006FF01FDEA4
:102A4400938B0A006FF05FE7930B0A006FF09FF21D
:102A540093870A006FF01FED93870A006FF09FFAC7
:102A6400130101F8232C810503AC0503232A9106E5
:102A7400232631072324410723206107232E7105D0
:102A8400232A91052328A10593890500232E1106E5
:102A9400232C810623282107232251072326B1054D
:102AA400930510002326D1002324F10023280101DB
:102AB400232A1101032B0108832B4108032D8108CC
:102AC400832CC10883240109130A0500630EBC0684
:102AD40003234501B7270480372704803726048061
:102AE400B725048013080C0093081000938747F15E
:102AF400130707F39306B00D130646E89385C5F450
:102B0400E7000300130C10008320C107032481078E
:102B140083244107032901078329C106032A810667
:102B2400832A4106032B0106832BC105832C41050F
:102B3400032D0105832DC10413050C00032C81050D
:102B44001301010867800000832A060313090600A5
:102B5400638E8A0303234501B72704803727048043
:102B640037260480B72504809308100013880A00D0
:102B7400938747F1130787F69306D00D130646E8AB
:102B84009385C5F4E70003006FF01FF813040700F2
:102B9400032746036300071E832707006382071881
:102BA40003A8070063520C0783A60900938696FFC7
:102BB40093F6D6FF638606028327450137270480F0
:102BC400130747FB9306D00E37260480B7250480ED
:102BD400130646E8938505EBE78007006FF0DFF204
:102BE40083260600130690006386C614130620018C
:102BF4006382C6143727048083274501130707FF20
:102C04009306F00E6FF05FFC03A5C900032CC4000B
:102C1400635E9008232CF100EFA0533E930D050052
:102C240013050C002324B1032326B102EFA0133DA6
:102C340083278101130F0D00938D0C002320A10223
:102C44002322B102130D0000930CC103130C810362
:102C540003A54700130F4F00232EF100232CE1019D
:102C6400EFA0D339032681028326C102938D4D0040
:102C7400130D1D00EF50835F0326010283264102DA
:102C8400EF40533B93860C0013060C00EFD09F9B40
:102C940083268103032F81018327C101232EDFFEB5
:102CA4008326C10323AEDDFEE3449DFA83A7090016
:102CB40013073000638CE71A130790006388E7005A
:102CC40013077000130C0000E390E7E483278100EE
:102CD40013060400032481078320C10783244107CA
:102CE400032901078329C106832A4106032C810590
:102CF400832C4105032D0105832DC10483A5070001
:102D040013870B0093060B00832BC105032B0106CD
:102D140013050A00032A8106130101086FF01FA49A
:102D24003727048083274501130787F99306900EFC
:102D34006FF09FE9638A040503234A01B7270480DF
:102D440037270480938804009387C7021307C703B7
:102D54009306100F37260480B7250480130646E82F
:102D64009385C5F413050A00E7000300138C0A00D9
:102D74006FF09FD93727048083274501130747F84D
:102D84009306800E6FF05FE4832687000327890093
:102D9400939626003307D7008328470063821403E1
:102DA400B72704803727048003234A0113880400CB
:102DB400938707061307C7029306200F6FF09FF946
:102DC40003A5C90093874700232EF100232CA101FA
:102DD400EFA0D322930D05000325C4002320B103E3
:102DE4002322B102EFA09321032F81018327C10184
:102DF400938D0C002324A1022326B102130D00009D
:102E0400930CC103130C810303A5070093874700A8
:102E1400232EE101232CF100EFA0531E032601020F
:102E240083264102130D1D00938D4D00EF50034482
:102E3400032681028326C102EF40D31F93860C0030
:102E440013060C00EFD01F80032FC10183268103DA
:102E540083278101130F4F00232EDFFE8326C10336
:102E640023AEDDFEE3429DFA6FF05FE48324C100EC
:102E740083ACC900032DC9006388040813850C00C2
:102E8400EFA0D317930D050013050D00138C050057
:102E9400EFA0D316130605009386050013850D00D5
:102EA40093050C00EF50833C130C050003A5C400EC
:102EB40013890500EFA093141306050093860500FB
:102EC40013050C0093050900EF501323130C0500A0
:102ED4000325C4001399150013591900EFA0131208
:102EE400130605009386050013050C0093050900DD
:102EF400EF405314B7C7088003A6075983A6475960
:102F0400EF5083286340A00893050D0013850C003F
:102F1400EF90D3649305000013090500EF90934DDF
:102F2400634A050813050900EFA0530D930A050031
:102F34000325C40013890500EFA0530C13060500F4
:102F44009386050013850A0093050900EF40930E4C
:102F5400032601019306C103EFD0CFEE0327C1037B
:102F64000326410183A709003307E040930690003C
:102F74002320E600E38CD7D413073000E388E7D49A
:102F84006FF01FD483274A0137270480130707E60D
:102F94009306001437260480B7250480130646E8F8
:102FA400938505EB13050A00E7800700138C0A00DC
:102FB4006FF09FB53727048083274A01130787ECF6
:102FC4009306D0146FF01FFD130101F92324810629
:102FD40003A4050323229106232021072326710538
:102FE4002320A105232EB103938405002326110673
:102FF400232E3105232C4105232A5105232861055D
:103004002324810523229105930510002320010127
:1030140023221101832B0107832E4107832D81076E
:10302400032DC10713090500630EB40603234501EC
:10303400B72704803727048037260480B725048007
:103044001308040093081000938747F1130707F34C
:103054009306B00D130646E89385C5F4E700030014
:10306400130410008320C106130504000324810601
:1030740083244106032901068329C105032A810506
:10308400832A4105032B0105832BC104032C8104EE
:10309400832C4104032D0104832DC1031301010773
:1030A40067800000032C060393090600631C8C044C
:1030B400138F060083264603138A0700130B0700A9
:1030C40083A7060083AC0700635A940703A7040090
:1030D400130797FF1377D7FF630E07148327450160
:1030E40037270480130747FB9306D00E3726048046
:1030F400B7250480130646E8938505EBE7800700AF
:103104006FF05FF603234501B72704803727048057
:1031140037260480B72504809308100013080C0098
:10312400938747F1130787F69306D00D130646E8F5
:103134009385C5F4E70003006FF0DFF203A4C40035
:10314400832AC70063908C0903A547002326D10175
:103154002324E101EFA0836A930C05001305040006
:1031640013840500EFA08369130605009386050008
:1031740013850C0093050400EF50430F930C0500D6
:1031840013850A0013840500EFA0436713060500A6
:103194009386050013850C0093050400EF408369B2
:1031A4009306C10213068102EFD0CFC9832781029F
:1031B400032F8100832EC10023A0FD008327C102B9
:1031C4002320FD0083A70400130730006382E7185F
:1031D400130790006388E7001307700013040000CE
:1031E400E392E7E80324810683250A008320C106CD
:1031F400832441068329C105032A8105832A4105C5
:10320400032C8104832C4104032D0104832DC10369
:1032140093860B0013060B00832BC104032B0105BB
:10322400130509000329010613870E001301010782
:103234006FF0CFD203270600130690006300C70285
:1032440013062001630CC700372704808327450138
:10325400130707FF9306F00E6FF05FE983A686005D
:1032640003A78900939626003307D70083284700D5
:1032740063801C0503234901B72704803727048092
:1032840037260480B725048013880C00938707062B
:103294001307C7029306200F130646E89385C5F467
:1032A40013050900E700030013040C006FF09FDB13
:1032B40003A5C4002326D1012324E101938A4700F6
:1032C400EFA0C353930705000325CB00232CF10083
:1032D400232EB100EFA08352032F8100832EC1005F
:1032E4002328A100232AB1001304000003A50A0027
:1032F4002326D1012324E101EFA0435003268101B9
:103304008326C101938D4D0013041400EF401376FE
:103314000326010183264101938A4A00130D4D00BF
:10332400EF4043519306C10213068102EFD08FB1DF
:1033340083268102032F8100832EC10023AEDDFE8C
:103344008326C102232EDDFEE34294FB6FF09FE748
:103354002324E10183AAC40083ACC900630E0F08CF
:1033640013850A002326D101EFA0434993090500E0
:1033740013850C0013840500EFA0434813060500D1
:10338400938605001385090093050400EF40136E2E
:10339400032F810093090500138405000325CF0042
:1033A400EFA0C345130605009386050013850900A5
:1033B40093050400EF504354930905000325CB0003
:1033C4001394150013541400EFA04343130605008F
:1033D400938605001385090093050400EF40834597
:1033E400B7C7088003A6075983A64759EF40D359A6
:1033F400832EC1006348A00893850C0013850A003E
:103404002324D101EF9093159305000013040500C4
:10341400EF90437E832E8100634E0508130504005C
:103424002324D101EFA0833D930905000325CB009C
:1034340013840500EFA0833C130605009386050062
:103444001385090093050400EF40C33E03260100E1
:103454009306C102EFD00F9F0327C1020326410048
:1034640083A704003307E040930690002320E6007E
:10347400832E8100E388D7D613073000E384E7D690
:103484006FF09FD58327490137270480130707E688
:103494009306001437260480B7250480130646E8F3
:1034A400938505EB13050900E780070013040C005E
:1034B4006FF05FBB3727048083274901130787EC2C
:1034C4009306D0146FF01FFD83A5850003258500A6
:1034D400130101FF23261100EFC041538320C100D3
:1034E4003335A000130101016780000083A6850025
:1034F400130101FF2322910003A706009384050012
:103504002326110023248100232021019305100088
:10351400630AB70283274501B72504801306070011
:103524009385050AE78007008320C10003248100F6
:103534008324410003290100130510001301010134
:103544006780000003A44600130906001305040065
:10355400EFC001566354800283A7440093152400EE
:1035640013074500B385F50083A60700938747003A
:1035740013074700232ED7FEE398B7FE8320C1002C
:10358400032481002320A90083244100032901008E
:10359400130500001301010167800000130101F805
:1035A400232E7105232E1106232C8106232A91062E
:1035B40023282107232631072324410723225107E7
:1035C40023206107232C8105232A91052328A105A3
:1035D4002326B105232205002304050083A7050043
:1035E400130785002322B1002326E1002320E500F0
:1035F400930B05006356F024832741003729048088
:10360400B7490F00379A9800938C4700130C0000B9
:1036140093070000130949159389F923130AFA67DC
:10362400639E072683A70C009306900013D7F741E7
:10363400B344F70093D7F701B384E4402324F100A3
:1036440063F6964C9307300663FE974C9307703EDF
:1036540063F2974EB72500009387F57063F0974E99
:10366400B78A010037EBF505138504001304100035
:10367400138D0571938AFA69130BFB0F6F00000118
:1036840063FEB93F6370BA416376BB4193050D0095
:10369400930D0500EFA0531D130704001304440009
:1036A400E3E0BAFF032B8100930781011306D002E4
:1036B400B3058B00130501012328F100EFE0115B32
:1036C400832A010193073006B38A6A0163FA9704D7
:1036D4001304E4FF372B000033848A00130BFB70C0
:1036E4009305400613850400EFA0931C131D1500D9
:1036F4009305400613850400EFA01317B307A9012F
:1037040083C6170003C7070093870400A300D400EF
:103714002300E400930405001304E4FFE362FBFCCC
:103724009307900063F2973093941400B3049900C4
:1037340083C7140083C40400A380FA00B72604805E
:1037440023809A00130710009386460D1306000089
:103754009305000013050101EFE0D1679304010311
:103764002324910283270500930A8500130405008E
:10377400638857352324F102832785002328F10227
:10378400832744002326F102232054012304040048
:10379400832781022322040003A50B006382972A56
:1037A4000326C100032701038326C102630CA62E4E
:1037B40003A68B0023A0FB0023A2DB0023A4EB00C1
:1037C4006308052E2324A1022328C1022326010213
:1037D4002300050003258102630895008325010366
:1037E40093851500EFD0013C032501019307810166
:1037F4006308F5008325810193851500EFD0813A94
:1038040083274100130C1C00938C4C0003A7070072
:1038140083A74B00E346ECE06384070237070040CC
:103824001307F7FF6384E732B7B508801306100067
:103834009385C58613850B00EFE0D1746F000002F9
:10384400B7260480130720009386060D1306000094
:103854009305000013850B00EFE0D1578320C107C7
:103864000324810783244107032901078329C1060F
:10387400032A8106832A4106032B0106032C8105B2
:10388400832C4105032D0105832DC10413850B00F1
:10389400832BC105130101086780000083A70C0076
:1038A4009306900013D7F741B344F70093D7F70179
:1038B400B384E4402324F10063FE96249307300686
:1038C40063FE97249307703E63FE9726B725000096
:1038D4009387F57063FC9724B78A010037EBF505ED
:1038E4001385040013041000138D0571938AFA697B
:1038F400130BFB0F6F00000163FEB9176378BA194D
:10390400637EBB1993050D00930D0500EFA0C375ED
:103914001307040013044400E3E0BAFF032B8100FF
:10392400930781011306D002B3058B00130501012F
:103934002328F100EFE09133832A01019307300635
:10394400B38A6A0163FA97041304E4FF372B000077
:1039540033848A00130BFB7093054006138504001F
:10396400EFA00375131D150093054006138504008D
:10397400EFA0836FB307A90183C6170003C707002D
:1039840093870400A300D4002300E40093040500FB
:103994001304E4FFE362FBFC9307900063FC9708C5
:1039A40093941400B304990083C7140083C40400DF
:1039B400A380FA00B796088023809A0013071000AA
:1039C400938606F713060000930500001305010112
:1039D400EFE051409304010323249102832705005F
:1039E400930A8500130405006386570F2324F1020C
:1039F400832785002328F1028327440013850B00C5
:103A04002326F1022304040023205401232204006A
:103A14000326C10283258102EFE0D15603258102EA
:103A2400E31E95DA6FF05FDC9384040393F4F40FE0
:103A34006FF0DFD09384040393F4F40F6FF09FF7D7
:103A44000326C102630E060093071000630EF608F6
:103A540093850400EF6012160326C10203A50B0030
:103A64003305C50023A2CB002300050003258102F2
:103A74006FF0DFD5130457006FF05FEA13045700AB
:103A84006FF05FC2130467006FF0DFC113046700B7
:103A94006FF0DFE8130477006FF0DFC013047700E2
:103AA4006FF0DFE723A0FB0023A2DB0023A4EB00DD
:103AB4002324910293040103138504006FF01FD1A2
:103AC4001306000193850A0013850400EF60920E2B
:103AD4006FF01FCB1306000193850A0013850400C1
:103AE400EF60520D6FF05FF1834701032300F5008F
:103AF4000326C10203A50B0023A2CB003305C50096
:103B040023000500032581026FF05FCC130410002D
:103B14006FF05FB9130410006FF05FE0130420002E
:103B24006FF0DFDF130420006FF0DFB713044000F1
:103B34006FF0DFDE130430006FF0DFB613044000D3
:103B44006FF05FB6130430006FF05FDD372504803B
:103B54001305850DEFC00FD48327010113078101DD
:103B640013040500638AE700832581011385070098
:103B740093851500EFD0010303A50B008327C10033
:103B84006388A70083A58B0093851500EFD081017E
:103B940013050400EFC00350130405006FF0DFFDAC
:103BA4008327810213040500638A97008325010398
:103BB4001385070093851500EFC0D17E032501010D
:103BC40093078101E30AF5FA8325810193851500A2
:103BD400EFC0517D6FF05FFA130405006FF01FFE14
:103BE40003A7850083278600130101FA23225105C8
:103BF40023206105832A070003AB0700232C8104DB
:103C0400232821052326310523244105232E71036E
:103C1400232E1104232A9104938B05001304060018
:103C24009309050013890600130A0B0063C46A0193
:103C3400138A0A0013050A00EFB091679304050084
:103C44006356400713182A00330805019307000040
:103C5400130EFBFF130510001383FAFF63D25709F9
:103C640083A58B003307F340131727003387E50040
:103C74000327470063D26703832684003306FE408C
:103C840013162600B386C60083A846006302170BEA
:103C94006300A7086392A80A63120706232008009A
:103CA400938717001308C8FFE39A47FB2320990062
:103CB400130500008320C1050324810583244105E5
:103CC400032901058329C104032A8104832A4104A9
:103CD400032B0104832BC103130101066780000039
:103CE40063D2670503278400B306FE40939626003B
:103CF4003307D70003274700631EA700930810006B
:103D040063541701138708002320E8006FF05FF95C
:103D140013870800E30407F893080700130710004B
:103D24006FF01FFE13071000930810006FF05FFD83
:103D3400E31807FC6FF09FF61305010003A949017E
:103D4400EFF0DF858325840013058101032401003E
:103D5400EFF0DF8483268101B72504801306040075
:103D64009385050F13850900E700090003258101E8
:103D7400930701026308F50083250102938515006A
:103D8400EFC0516203250100930781006308F50029
:103D94008325810093851500EFC0D16063860400FC
:103DA40013850400EFB0115D130510006FF09FF050
:103DB400832781011307010213040500638AE700C6
:103DC400832501021385070093851500EFC0915DDB
:103DD40003250100930781006308F5008325810012
:103DE40093851500EFC0115C6386040013850400FD
:103DF400EFB0515813050400EFC0C32913040500A4
:103E0400E39604FE6FF01FFF130405006FF05FFCE0
:103E1400130101F8232C8106232A9106138406003A
:103E24009304060083A686000326860083A78500E4
:103E340023206107232E7105032B060083AB0600A4
:103E4400232631072324410723225107232C8105EC
:103E5400232A9105232E11062328210703AC0700EA
:103E6400938C050093090500130A0700938A0B003D
:103E740063447B01930A0B0063D48A01930A0C0008
:103E840013850A00EFB0D142130905006354500DA5
:103E940013972A003307E500130800009306100067
:103EA400930EFCFF1305FBFF9385FBFF93081000A3
:103EB400635C880183A78C0033860E4113162600A9
:103EC400B387C70083A8470013031000635C68012D
:103ED40083A784003306054113162600B387C70061
:103EE40003A34700130E1000635C7801832784004A
:103EF4003386054113162600B387C70003AE470077
:103F04009387080063541301930703006354FE006E
:103F140093070E00638C07009387080063D468003E
:103F24009307030063D4C70193070E006384D8008A
:103F3400639817036304D300639467026304DE0089
:103F44006390C7032320F700130818001307C7FF63
:103F5400E31E58F523202A01130500006F00800A90
:103F640083A58C001305810003AA4901EFF00FE338
:103F740083A584001305010283248100EFF00FE27E
:103F8400832584001305810303240102EFF00FE16C
:103F940003278103B72504809306040013860400D5
:103FA4009385051213850900E7000A0003258103A0
:103FB400930701046308F500832501049385150024
:103FC400EFC0513E03250102930781026308F50007
:103FD4008325810293851500EFC0D13C0325810020
:103FE400930701016308F5008325010193851500FA
:103FF400EFC0513B6306090013050900EFB0913788
:10400400130510008320C10703248107832441077B
:10401400032901078329C106032A8106832A41064D
:10402400032B0106832BC105032C8105832C410539
:10403400130101086780000083278103130701042B
:1040440013040500638AE700832501041385070030
:1040540093851500EFC011350325010293078102F2
:104064006308F5008325810293851500EFC0913321
:1040740003258100930701016308F50083250101ED
:1040840093851500EFC0113263060900130509007A
:10409400EFB0512E13050400EFB0D37F13040500D5
:1040A400E31609FE6FF01FFF130405006FF0DFFA3B
:1040B400130405006FF0DFFB1305F5FF9307000100
:1040C40063EEA700B7270480938707221315250002
:1040D4003385A70003250500678000001305000051
:1040E4006780000013050000678000008326C50375
:1040F400638E060203A70600938746001307170082
:1041040013172700B386E6006382F6021306F0FF56
:104114006F008000638CF60003A7070093874700B5
:10412400E31AC7FE130510006780000013050000A2
:1041340067800000B70710F023A0A7F06780000095
:1041440083470500638C0700370710F02320F7F03E
:104154008347150013051500E39A07FE67800000E6
:1041640083470500638C0700370710F02320F7F01E
:104174008347150013051500E39A07FE67800000C6
:1041840067800000930705000325450003A6870008
:1041940093860500832505000327460103260601AF
:1041A40003A8450083A5C700670008000325450050
:1041B4008327050083A7870067800700832785007E
:1041C400139515003305B50003A7470183A707011D
:1041D4001315250013173700B387E70083A747009B
:1041E4003385A700678000009305C0016FC0911B51
:1041F400032705019307100063EAE7000325450040
:104204008327050083A7C70167800700130101FF07
:1042140023261100EF5042080327050193073000BD
:10422400631CF7008327450193952500B385B700E8
:1042340003A5050067800000130101FF2326110078
:10424400EF5082050327050193071000631AF70056
:10425400032545008327050083A7C700678007005F
:10426400130101FF23261100EF5002030327050168
:1042740093071000631AF700032545008327050000
:1042840083A7070167800700130101FF232611009C
:10429400EF5082000327050193071000631CF70009
:1042A40083278500930606000325450003A64701DE
:1042B4006F20801D130101FF23261100EF40D27DE2
:1042C40083A785001307050083A60700938747008B
:1042D400634606046354D604131626003386C700C7
:1042E4008326060063CC060203260500B747008038
:1042F40093878718032646016316F60203254500B3
:10430400832787008325C7000328050003A74701E7
:1043140003A60701832748006780070013050000F0
:1043240067800000938506006700060083A70500E8
:104334001307050083A60700938747006346060416
:104344006354D604131626003386C700832606005A
:1043540063CC060203260500B747008093878718BD
:10436400032646016316F6020325450083278700CA
:104374008325C7000328050003A7470103A60701F7
:10438400832748006780070013050000678000004A
:10439400938506006700060083A745001307050000
:1043A40083A6070093874700634606046354D60434
:1043B400131626003386C7008326060063CC060244
:1043C40003260500B7470080938787180326460114
:1043D4006316F60203254500832787008325C7005B
:1043E4000328050003A7470103A607018327480004
:1043F40067800700130500006780000093850600AE
:1044040067000600B72704809387472C2320F50014
:104414002322B5002324D5002326C5002328050024
:10442400232A0500232C05006780000063CC0500C7
:1044340063DAC50093952500B386B60003A506008C
:10444400678000001305F0FF67800000232AB50091
:104454006780000083270501130101FF2326110053
:104464001307100093F7D7FF6384E700EF40D2628D
:104474000326850163840500630006023725048052
:1044840013054526EF30415E8320C100130510005B
:1044940013010101678000008320C100232CB500B3
:1044A400130500001301010167800000130101FCE2
:1044B4001385050093058102232E11002324C102D4
:1044C4002326D1022328E102232AF102232C01030B
:1044D400232E11032326B100EF3041558320C1015F
:1044E40013010104678000002328B50067800000E1
:1044F40003250501678000009387F5FF130101FF81
:104504003305F500232611002324810013840500BC
:10451400EF90933593050400EF9053298320C10055
:10452400032481001301010167800000130101FFCE
:10453400232611002324810013840500EF90D33235
:1045440093050400EF9093268320C1000324810087
:1045540013010101678000001305F5FF130101FF3A
:104564003305B5002326110023248100138405009C
:10457400EF90932F93050400EF9053238320C10001
:1045840003248100130101016780000093072001C7
:1045940063EEA704B72704809387872F131525009C
:1045A4003305F50083270500678007009307800023
:1045B40023A0F50013050000678000009307100096
:1045C40023A0F50013050000678000009307400056
:1045D40023A0F50013050000678000009307200066
:1045E40023A0F500130500006780000013051000E8
:1045F400678000009307000123A0F5001305000065
:1046040067800000130101FC23225103832A050063
:10461400232E710123263103B30A554183DB0A009B
:1046240023244103232E1102232C8102232A9102E5
:10463400232821032320610393074000138A0500E4
:104644009309060063FE770903D44A0013090500A1
:1046540093041000630C04023304850083270400D0
:104664003304F400032B040063020B02131B2B001E
:10467400330B6401832544001385040013044400B0
:10468400EF90D31293040500E3168BFE93076000AA
:1046940063FE770983D76A00130500006392070855
:1046A4009305C100EF30D12113040500630605040E
:1046B4008320C103130504000324810383244103DD
:1046C400032901038329C102032A8102832A4102A7
:1046D400032B0102832BC101130101046780000035
:1046E400130500009305C100EF30911D93041000E1
:1046F40013040500E31E05FA0325C1009385090090
:10470400EFF0DFE813040500E31405FA03A509003C
:1047140093850400EF9093092320AA006FF05FF9BA
:104724003309F900030509006FF09FF71305000032
:104734006FF01FF7130101FE232E1100232C8100BB
:10474400232A910023282101232631012324410116
:10475400638C050A0324450093090500138A0500A8
:1047640013051000630404020329040063502003AA
:10477400130444009304000083250400938414006C
:1047840013044400EF909302E39824FF83A7890065
:10479400130720016362F7063727048093972700E5
:1047A40013074734B387E70083A707006780070030
:1047B40093058000EF90837F2320AA001305000057
:1047C4008320C101032481018324410103290101C0
:1047D4008329C100032A81001301010267800000BC
:1047E400930540006FF01FFD930510006FF09FFCD0
:1047F400930520006FF01FFC130510006FF05FFCA1
:10480400930500016FF01FFBEF40122983A7850079
:10481400130101FC23282103232E1102232C8102DE
:10482400232A910223263103232441032322510303
:104834002320610313090500638E070A03278600FA
:104844006304070C9389060083A6860083A40600EC
:10485400639C040683A607008327070013840500CE
:1048640063C4D700130406008327040003A50900CA
:104874006306F50A83274901372704803726048015
:10488400B725048013050900130747409306400920
:104894001306863A938505EBE7800700130510009D
:1048A4008320C103032481038324410303290103D7
:1048B4008329C102032A8102832A4102032B0102B4
:1048C4001301010467800000832745013727048012
:1048D4001307C73E9306100937260480B7250480C2
:1048E4001306863A938505EBE7800700130510004D
:1048F4006FF01FFB3727048083274501130707390F
:104904009306F0086FF05FFD372704808327450185
:104914001307473D930600096FF01FFC9305010040
:1049240023200100EFF09FC6930504001305410006
:10493400EFB0DFC5032B410063526009032A8400F2
:1049440083270100930A0000130A4A0083250A0002
:1049540013850700938A1A00EF90436593070500B7
:10496400130A4A00E3145BFF032A890323ACA9005A
:104974002320A100EFB0C108930505001305090029
:10498400E7000A0023A4A900832784001307450035
:1049940083A60700938747002320D50083A607003A
:1049A40093841400938747002320D70013074700FC
:1049B400E3169BFE130500006FF09FEE0325010034
:1049C4008324890323ACA900EFB081039305050078
:1049D40013050900E780040023A4A9000327840029
:1049E40093070500130500000327070023A0E70031
:1049F4006FF01FEB032545008327050083A787007D
:104A04006780070067800000678000000325850039
:104A1400130600018327050083A78700678007002A
:104A2400032545008327050083A7870067800700C7
:104A3400032545008327050083A7C7006780070077
:104A4400032545008327050083A7470167800700E6
:104A5400032545008327050083A707016780070016
:104A640003258500130640009305000483270500F1
:104A740083A787006780070067800000130101FF98
:104A840023261100232481002322910023202101C5
:104A94006382050803A70503930710001384050028
:104AA40093040500630EF70203A544009305040074
:104AB400232A040283270500232204002328040256
:104AC40023240400032481008320C10083244100A3
:104AD4000329010083A7C7001301010167800700B0
:104AE40003A94503630809020325450083254900FA
:104AF4008327050083A7C700E780070003A54400B8
:104B0400930509008327050083A7C700E7800700F2
:104B14006FF09FF9EF404278930540026FC081081F
:104B2400930580006FC00108130101FF2324810055
:104B3400232611001384050063800504832785015F
:104B440063820702032585009305060093952500DB
:104B5400832705001306400083A78700E78007002A
:104B64002320A4008320C100032481001305000036
:104B74001301010167800000EF40027283A8050061
:104B8400130101FC232C8102B388154103D80800CA
:104B9400232A9102232821032326310323244103BA
:104BA4002322510323206103232E7101232E11029A
:104BB400130A4000138B050093040500938B060031
:104BC4009309060013040000930AE0001309F0FFA0
:104BD400637A0A0783D7480063860706B307FB0096
:104BE40003A70700B387E70003A707006370E40A7D
:104BF4001315240093874700B387A70003A7070072
:104C0400B387E70003A707003387E740035607008D
:104C140063F4CA020357E70063000702B387E7009F
:104C240083C70700638A070063820B023385AB00E6
:104C340083270500638C2701130414009389C9009A
:104C4400E36A0AF983270000730010009305C1008A
:104C540013850900EFF01FAE631C050203A5840051
:104C64008325C100130600018327050083A787005D
:104C7400E780070023A0A9006302050483280B0032
:104C8400B3081B4103D808006FF01FFB1305000095
:104C94008320C103032481038324410303290103E3
:104CA4008329C102032A8102832A4102032B0102C0
:104CB400832BC10113010104678000008325C10017
:104CC4003725048013050542EF20115A13051000FF
:104CD4006FF01FFC130101FE232E1100232C810011
:104CE400232A910023282101232631012324410171
:104CF400630C060E9309060013040500138A0500CD
:104D040013090000930480006F00400783D78700D5
:104D1400638E0706B307FA0003A50700B387A7004D
:104D240003A707006370E90A131529009387470056
:104D3400B387A70003A507003385A700EF3001233D
:104D4400930705000325840093951700B385F500A8
:104D54000327050093952500B385F54003278700B5
:104D64001306400093952500E7000700630405023D
:104D740023A0A900130919009389890083270A0035
:104D8400B307FA4003D70700E3E2E4F883270000FF
:104D9400730010003725048013050545EF20D14C1E
:104DA4008320C101032481018324410103290101DA
:104DB4008329C100032A8100130510001301010295
:104DC400678000008320C101032481018324410101
:104DD400032901018329C100032A8100130500006E
:104DE4001301010267800000EF40024B83A7050016
:104DF400130101FE23282101B387F54003D80700DE
:104E040013890500232E1100232C8100232A9100ED
:104E140023263101232441012322510193058000DB
:104E240063F0051383D78700638C0710B307F90079
:104E34001304070003A70700B387E70083A707004D
:104E44006370F40E03270500B7570080938747A6C5
:104E54000327470393040500930A0600138A0600F8
:104E64006310F70A03A584001306400093050004A9
:104E74008327050083A78700E780070093090500BF
:104E840083A60400930700001307040003A8860305
:104E94001386090093060A0093050900138504008C
:104EA400E70008006314050663880A02131434003B
:104EB400B38A8A0083A74A0093161A00B386460170
:104EC40093962600B386D70003A7460083A706005F
:104ED40023A4E90023A2F9008320C1010324810152
:104EE4008324410103290101032A8100832A41000B
:104EF400138509008329C1001301010267800000A2
:104F0400E7000700930905006FF09FF73725048039
:104F14001305C55CEF205135930900006FF0DFFBEA
:104F2400B726048037260480372504809386864874
:104F3400130646499305A00A13050559EF40423765
:104F44008327000073001000130101FA8327450032
:104F540023244105138A0500832585012322510555
:104F6400930A05001305C100232C8104232821057D
:104F740023263105232E1104232A910423206105BD
:104F8400232E7103232C8103232A91031309060082
:104F940093890600232641012328F10023260102D8
:104FA400EF30503913040500630E05028320C10558
:104FB4001305040003248105832441050329010505
:104FC4008329C104032A8104832A4104032B010495
:104FD400832BC103032C8103832C4103130101069A
:104FE40067800000930541001305C10023220100DE
:104FF400EF40502113040500E31A05FA130B49008E
:10500400930480006F00800583D7870063800706C0
:10501400B307FA0083A50700B387B70003A7070007
:10502400637AE40403A70A009315240093874700D6
:10503400B387B70083A5070003260B0003270703E4
:1050440083264100B385B70013850A00E7000700F3
:10505400130B8B00631205121304140083270A0038
:10506400B307FA4003D70700E3E0E4FA832700001C
:105074007300100083254100130609001305C100C5
:10508400EF30D06113040500E31205F203A5CA0151
:1050940093054000EFF04FC61306050013070900FF
:1050A40093860900930500001305C100EF404012E8
:1050B40013040500E31C05EE03A54A009305000153
:1050C4008329810183270500032B410183A707035B
:1050D400E78007009304050003A54A0013060001B6
:1050E400938504008327050083A78700E7800700D2
:1050F400130A05006306050883AC0A01B76700803C
:105104009387876F03A70C000327C701631EF70665
:10511400638C091A376C008013090B0093040B008D
:10512400930BF0FF130C0C6F6F00000113041400B9
:10513400938484016388890883C74401E38807FE54
:1051440003A5040093050001EFF00FC103A70401B8
:1051540083A70C006306770583A7C70063828703D0
:1051640083A6C40003A684009305050013850C00E0
:10517400E7800700E30C05FA130405006FF01FE352
:10518400130410006FF09FE213850C0013860400D3
:1051940093050A00E700070083AC0A016FF05FF78C
:1051A40083A6C40003A6840083A787009305050093
:1051B40013850C00E7800700E30A05F613040500D5
:1051C4006FF0DFDE03A54A0003AC0A01930400007C
:1051D40083270500930BF0FF83A74702E7800700AE
:1051E40093971900B3873701939737009309050004
:1051F400330BFB0083474901638E070283270C00AE
:10520400130681002324710183A787019385040079
:1052140013050C00E780070013040500E31805D804
:10522400832781000327490093841400B387F9007E
:105234002320F70013098901E31E2BFB1305C1008A
:10524400EF30D02803A54A0093050A008327050000
:1052540083A7C700E780070003A54A00832705004A
:1052640083A74701E780070013040500E31005D472
:1052740003A54A0083A5CA018327050083A7070263
:10528400E780070013040500E31205D203A50A0111
:105294008327050083A70701E780070083A50A0287
:1052A40063F6A50023A0AA029305050003A54A00FE
:1052B400130600018327050083A78702E780070000
:1052C400130405006FF09FCE03A54A008327050051
:1052D40083A74702E78007006FF05FF683A7050006
:1052E400130101FE23282101B387F54003D80700E9
:1052F40013890500232E1100232C8100232A9100F9
:1053040023263101232441012322510193058000E6
:1053140063F0051183D78700638C070EB307F90088
:105324001304070003A70700B387E70083A7070058
:105334006370F40C930905000325450093050004EC
:10534400930A06008327050013064000138A06000B
:1053540083A78700E780070003A7090093040500DB
:10536400130605000328870393071000130704009E
:1053740093060A009305090013850900E700080055
:10538400631E050463880A021314340033848A00FC
:105394008327440093161A00B38646019396260089
:1053A400B386D70003A7460083A7060023A4E4001E
:1053B40023A2F4008320C1010324810103290101F4
:1053C4008329C100032A8100832A41001385040034
:1053D4008324410113010102678000003725048002
:1053E40013058561EF204168930400006FF09FFC72
:1053F400B7260480372604803725048093868648A0
:10540400130646499305A00A13050559EF30526A5D
:105414008327000073001000032705009306800013
:10542400930700003307E5400356070063F6C60000
:10543400035787006312070603A7050063F6E70610
:105444009385450093972700B387F50003A70700CA
:1054540093064000B387E70003A707003387E740BC
:105464000356070063F6C6020357470013050000FE
:1054740063000706B387E70003A70700B387E700C5
:1054840003A707006306070413854700678000002D
:1054940013050000678000003305E500832705003D
:1054A40003A70500E3EEE7F8B72604803726048057
:1054B40037250480130101FF938686481306C665C9
:1054C4009305A00A1305055923261100EF30525EF7
:1054D40067800000130101FB2326110423248104A7
:1054E4002322910423202105232E3103232C41035D
:1054F400232A5103232861032326710323248103D0
:10550400232291032320A103232EB1012326A100EA
:10551400630C0628138D0500930746002324F1002D
:1055240083270D0037CB088093068000B307FD4026
:1055340003D70700930B0000130AC000130B4B6D35
:1055440063F0E62283D68700638C0620B306DD0071
:1055540083A70600B386F60083A7060063F2FB2246
:1055640093972B0093864600B386F60083A7060024
:1055740013074000B38AF60083A70A00B387FA40F2
:1055840003D60700637EC71C83D74700638A071CC2
:105594008326C100B387FA0003A7070003A586008A
:1055A40013064000B387E70003A90700832705001B
:1055B4001314190083A7870033042401131424004F
:1055C40093050400E78007002322A100630E051859
:1055D400930D0500930C00009304400093096000B0
:1055E400631809046F00001593050C0013050400EB
:1055F400EFF09FE20327040023A0AD003307E4404B
:105604000356070063F0C41203554700630C0510EA
:105614003304A40003250400938C1C00938DCD0057
:105624003305A400EF20512323ACADFE630499118C
:1056340003A70A003387EA400356070063F2C41243
:1056440003544700630E041033848A0003270400C4
:105654003304E4000327040063F8EC1203270D006D
:1056640013952C00130444003304A4003307ED40C5
:105674000325040083550700130C00003304A40021
:10568400637CBA000357C700630807003307ED00C3
:1056940003260700330CC7000327040023A00D00D2
:1056A40023A20D003307E4408355070023A40D0013
:1056B4001305000063FAB900035767006306070087
:1056C4003307E4000305070093858D00EF20511F85
:1056D400E30C05F0373504801305458993850C00E8
:1056E400EF208138130510008320C10403248104B2
:1056F40083244104032901048329C103032A810368
:10570400832A4103032B0103832BC102032C81024F
:10571400832C4102032D0102832DC10113010105D4
:105724006780000023A26D01938C1C00938DCD0033
:10573400E31099F183278100032741009306800039
:105744009387870023ACE7FE2324F10083270D0011
:10575400938B1B00B307FD4003D70700E3E4E6DEA9
:105764008327000073001000372504801305457556
:1057740093050400EF20412F130510006FF0DFF6AE
:10578400130500006FF05FF6B72604803726048007
:1057940037250480938686481306C6799305A00AA4
:1057A40013050559EF30D230EF30122F130101FDEC
:1057B4002326110223248102232291022320210380
:1057C400232E3101232C4101232A51012328610175
:1057D40063860738930405001389050013850700C1
:1057E40093090600930500001306000413840600C1
:1057F400138A0700930A0700EF40925F8326040090
:105804009307600013050000B306D44003D70600D5
:1058140063FAE70083D7660063860700B307F400E2
:105824000385070093050A00EF209109130B050077
:105834006316050A832604001307E000930700009B
:10584400B306D44003D60600637CC70003D7E60042
:10585400630807003307E40083470700B337F00009
:1058640093850A00A306FA0213050400EFF0DFBAD9
:1058740013371500130717002322AA00232AEA006E
:105884001306C10093058A0113050400EFE09FD7B6
:10589400130B05006314050403270400930640005A
:1058A4003307E4408357070063F0F60603554700C7
:1058B400630C05043305A400832705003305F500B4
:1058C400EF208179032704009306C0002324AA0053
:1058D4003307E4408357070063E2F6048320C102E0
:1058E4000324810283244102032901028329C10183
:1058F400032A8101832A410113050B00032B0101B3
:105904001301010367800000B7C608809386466DC3
:105914002324DA009306C000E3F2F6FC8356C700A2
:10592400E38E06FA3304D4008327040013068000B0
:105934003304F40083270400B307F44083D607003C
:10594400E37ED6F803D78700E30A07F83307E400B9
:10595400832507003307B7008325070063820518F2
:105964009305A000E3FCD5F683D7A700E38807F6E8
:10597400B307F40083A60700B387D70083A6070004
:105984006380061683A74700032747002328FA00ED
:10599400832704002326EA00B307F44003D7070053
:1059A4006374E61483D7870063800714B307F40095
:1059B40003A70700B387E70083AA070063840914D9
:1059C40083270900130640009305C00083A78700BE
:1059D40013050900E780070093090500630605160F
:1059E4008327090013850A0083A48700EFA04101DF
:1059F400930505001306400013050900E780040021
:105A040023A2A900630E0514832704001307800052
:105A140013050000B307F44083D60700637CD70066
:105A240083D7870063880700B307F40003A5070042
:105A34003385A700EF20816203A7490023A0A900B2
:105A44000323040023205701635650133303644097
:105A5400035E03009307A00063F8C7098358A300FB
:105A6400130747009307000033051401638E0806EB
:105A740003260500835583003306C500032806006A
:105A8400B306B4006382050683A50600B386B60098
:105A940083A60600638E06056304080E832646006B
:105AA4002320D7009387170013074700E390FAFCDD
:105AB4001307000193070000637AC701035703012A
:105AC400630607003304E4008327040023A4F900D9
