:0200000480007A
:0E00000017110A0013018152C52001A0828051
:10001000130101FF1305400023261100EFD0410713
:1000200097E707009387C79C2320F50017860100F8
:10003000130606AB97E507009385459AEF605114C8
:10004000130101FE2326A10013058000232C81004B
:10005000232E1100232A9100EFD081038325C100B4
:1000600013040500EFD0C13A17D60100130606317C
:1000700097F507009385451C13050400EF605110A8
:100080009304050013050400EFD001061385040056
:10009000EF404370130101FE2326A10013058000E9
:1000A000232C8100232E1100232A9100EFC0517EC2
:1000B0008325C10013040500EFD0013B17D60100D2
:1000C0001306462F97F507009385051913050400BD
:1000D000EF60110B9304050013050400EFD0C1007D
:1000E00013850400EF40036BB7A7038083C657B0A6
:1000F000017103C647B003C767B0232C811E03C438
:1001000077B0A206D18E4207558F6204598C93872F
:1001100047B03E941C40232E111E232A911EB30784
:10012000F44083D607002328211F2326311F417363
:1001300011471A91637AD71C83D747006386071C3F
:10014000A2978C438D476392F51CB7D7078093879E
:10015000C77788133EDFC1692320011A232E011CB3
:10016000EF70802D41799387091E8A979304C9ED1A
:10017000BE94B7260180938686D890138145268544
:10018000EF5061768813EFA0B013B72601809386F5
:10019000263190138D452685EF50E1748813EFE0EA
:1001A0006052B73601809386A60F9013CD45268501
:1001B000EF5061738813EF60F039B7360180938692
:1001C00026109013D9452685EF50E1718813EFF082
:1001D0008002B72601809386660C90139305500227
:1001E0002685EF5041708813EFC0505AB726018022
:1001F0009386267B9013A5452685EF50C16E881304
:10020000EFD08042B73601809386464A9013E54589
:100210002685EF50416D9387091E8A97130949E29D
:100220003E994A8501488147416794132686A285F5
:10023000EF5060254A85EF50B00181454A85EF5067
:10024000A010AA84630005101C4537D5078013054C
:10025000C5658C43EFF0905C9C4498436352E00288
:10026000014437D9078013172400BA97CC431305EC
:100270004967EFF0B05A9C4405049843E345E4FE17
:1002800098408547630BF70AB7D507809385455E8D
:1002900037D5078013058567EFF0505837D50780AD
:1002A000854513050569EFF07057984C814709CBD8
:1002B000D8403E9723000700984C8507E3EAE7FE05
:1002C00037D5078085451305C56BEFF03055C167FD
:1002D00041759387071E130545E28A973E95EF50B7
:1002E000B02B25C937D507801305456DEFF01053A6
:1002F0007D54C16741759387071E8A97130545E2B0
:100300003E95EF50C03611A8814537D507800D4680
:100310001305C55EEFF090507D5441631A91832020
:10032000C11F22858324411F0324811F0329011F2C
:100330008329C11E130101208280B7D507809385D0
:10034000C55DB9B737D5078013054563EFF0104D8C
:1003500045B7C16741759387071E130545E28A9724
:1003600081453E95EF50000837D507808545130538
:10037000456EEFF0B04A37D5078013050570EFF0F2
:10038000F0490144BDB7C1672A849387071E4175B0
:100390008A97130545E23E95EF50602D2285EF4088
:1003A000633F0000130101FF232481003714000084
:1003B00013040494232291001305040097140800E9
:1003C0009384C4092326110023A68400EFE0910F33
:1003D00023A4A400631405029717080023A60708A6
:1003E0009717080023AE07068320C100032481006D
:1003F00083244100130101016780000023A2A400AF
:1004000023208500232205006FF01FFE21C11C411F
:10041000A946B307F54003D7070063F4E60203D704
:10042000A700814619C32A97144303D74700814781
:1004300001C73A95830705003E8563D8D700368506
:100440008280914663E8E60001458280411106C63C
:10045000EFE0410A8146D1BF09C91C5103050500DF
:100460006343F50082803E858280411106C6EFE03D
:100470006108411122C406C62A848DC18C45994762
:100480009041910510C163C2C7020A061105EFF041
:100490002116B2402285224441018280B2402320AD
:1004A00005002285224441018280EFE0A104AE874D
:1004B000D0438C41411106C60D8E9357264022C46D
:1004C0001CC1E14763CBC7002A841105EFF041123C
:1004D000B2402285224441018280EFE0A101011156
:1004E00022CC26CA3684B284814601464AC84EC60A
:1004F00006CEAA892E89EFC0F20B01ED23A00400DD
:10050000F240232004006244D2444249B2490561CA
:10051000828022864E85CA85EFD0C14CB7170880ED
:1005200003A687C583A6C7C5EFC0122EEFD0415FD3
:10053000EFD0921B6340B00495C9370700801C4080
:100540006300E502055763D5E70023200400014559
:10055000F240624488C04249D244B2490561828077
:10056000F5F185071CC037050040E9BFB7070080DB
:10057000E3F5A7FCEFD011780111B717088022CC62
:100580004EC63684B28983A647C603A607C626CAC6
:100590004AC806CE2A89AE84EFC0920A6354A006E8
:1005A0004A85A68501468146EFC0D20001ED23A011
:1005B000090023200400F2406244D2444249B24977
:1005C0000561828022864A85A685EFD0A141B717B2
:1005D000088003A687C583A6C7C5EFC0F222EFD067
:1005E0002154EFD07210634FB000A1C137070080D3
:1005F0001C406306E502055763C8E70023A0A90075
:10060000E3DB07FAEFD0116F23200400F2406244CD
:1006100023A00900D2444249B24905618280E1FD2C
:1006200085071CC037050040F9B7B7070080E3FF16
:10063000A7FAC9BF7971B71708804AD04ECE36895C
:10064000B28983A647C603A607C622D426D206D6F9
:10065000AA842E84EFC0120D635605062685A28556
:1006600001468146EFC0C27D635EA004700026850E
:10067000A285EFD02137B717088003A687C583A6C8
:10068000C7C5EFC07218EFD0A149EFD0F205634B98
:10069000B002A9C137070080B2476307E5020557DA
:1006A00063DEE70023A009008147B25022542320D3
:1006B000F90092540259F2494561828023A0A900B1
:1006C000E355F0FEEFD01163F9F985073EC6370513
:1006D0000040F1B7B7070080E3FEA7FAE5B7B70718
:1006E000008093C7F7FF33F7B700498F2E8825C3E3
:1006F00013D745011377F77F9306F07F630CD7027A
:10070000930627C0AA0593576501370700402A05BD
:10071000CD8F14C29305F7FF2981B7062000ED8F16
:1007200063ECA6023385E700B337F500BE85634D61
:1007300008028280B2053707C0FF798DB1811CC2E3
:10074000C98D9DE9634D08027D55BE8582802320B9
:100750000600014581458280130517003E95B33799
:10076000F500BE85E35708FCB337A000B305B040E1
:100770009D8D3305A04082800145814582800145E1
:10078000B70500808280B706008093C6F6FFB36786
:10079000B5006307D60C01488148C1C793D6F5411F
:1007A000358D3308D540B3C7B60033350501958F75
:1007B0007D16898F1357F6414285634FF006ADC70A
:1007C000B70800401358F501860793361600B36743
:1007D000F8000605158F7D166345F000E5F7E36325
:1007E00015FFB70600C0AA9633B5A600FD17AA9755
:1007F0006354E00A1306F03F01477D556342A708A2
:10080000630CA70613D7A6001306F63FDA07D98FA5
:10081000520637070080F98DD18FDA06CD8F3688E2
:10082000BE884285C6858280B7060040E36AD8F854
:10083000B7060080E3F706FB370300809306160037
:100840009398F70133B8C6000581858733E5A80082
:1008500036864297E344F0FEC9F7E361A3FE51B741
:100860009DC36351B004B717088003A887C783A846
:10087000C7C74285C6858280130710C0E374E6F8B7
:10088000130610C041B7B717088003A807C783A88D
:1008900047C74285C68582802DF31305F03FE37E6E
:1008A000C5F489BF91E161F1B717088003A887C635
:1008B00083A8C7C6BDB7B707008093C7F7FF33F754
:1008C000B700498FAE8EB68833FED7006DC713D7F9
:1008D00045011377F77F1308F07F630A070BAA051A
:1008E00093576501370300402A05CD8F1308F3FFA6
:1008F0002981B7052000B3F7070163F3A5000503BD
:100900003E93B337F3003E8863DA0E00B3356000E0
:10091000B307F0403388B74033036040B367CE007D
:1009200001458145C1CB130527C013D74601137775
:10093000F77F9307F07F6305F704AA0693576601D4
:10094000B70500402A06D58F138EF5FF2982B7061A
:100950002000B3F7C70163E9C6063386B700B33793
:10096000F60063D90800B336C000B307F040958F96
:100970003306C040B705008093C6F5FF631CD5045D
:10098000B717088003A507C783A547C78280B205AC
:100990003707C0FF798DB181C98DFDE163CD0E129E
:1009A0007D533E88B367CE00E1DF370700801345F3
:1009B000F7FFA5BF8280B367CE0001458145FDDB0F
:1009C00001450143014895B7138615003E96B3379C
:1009D000F60041BF3308C802930627C0AA9693C504
:1009E000E5FFB387670233366602C297B29713D822
:1009F000F74133E707016388B60879CBB347F800BE
:100A000033860741B3B7C700330700411D8F93D525
:100A1000F641B2876343E0025DC7B708004013D5D3
:100A2000F701060713B61600498F8607918DFD164C
:100A30006345E0006DF7E3E417FF370600C03E961C
:100A4000B337F6007D17BA976352B0069306F03FAE
:100A500081457D5763C9E5046383E5041357A60008
:100A60009386F63FDA07D206D98F370700803378AE
:100A7000E800D58F5A06B3E707013285BE8582802C
:100A80000143014805B7E30D07EE631708028DC760
:100A9000B717088003A587C783A5C7C78280130738
:100AA00010C0E3FDE6FA930610C04DBFDDF1130759
:100AB000F03FE370D7FA59BFB717088003A587C680
:100AC00083A5C7C6828037060040E3E8C7F4B5B700
:100AD000014581458280014337080080E1B5B707B1
:100AE000008093C7F7FF33F7B700498FAE8EB68803
:100AF00033F8D7006DCF13DE4501137EFE7F130759
:100B0000F07F630FEE08AA05935765013703004095
:100B10002A05CD8F1307F3FF2981B7052000130E97
:100B20002EC0F98F63F3A50005033E93B337F3009E
:100B30003E8763CD0E0C3368C8006307080E93D55B
:100B4000460193F5F57F9307F07F05456389F5042A
:100B50001395A60093576601B70600402A06C98F71
:100B60001388F6FF298237052000938525C0B3F747
:100B700007016373C5008506BE96B3B7F60063D957
:100B800008003336D000B307F040918FB306D04051
:100B9000370600801346F6FF05456318CE028280B3
:100BA000B2053707C0FF798DB181C98DA9ED63CC3E
:100BB0000E087D533E873368C8000545E30108FEF3
:100BC000370E0080134EFEFF9DBF3366E3000DCA53
:100BD0006355070033E6F60009CA7D55E341BEFCC4
:100BE0000545E3CEC5FB6355F7047D558280336828
:100BF000C8000145E30508FA014E0143014781B7EA
:100C0000E3DD07FC82800143014775B7B33560001F
:100C1000B307F0403368C8003387B7403303604000
:100C20007D55E31E08F0828081458146814775B776
:100C30006394E700E36BD3FA0545E3C2E7F6630884
:100C4000F70001458280014337070080ADB7E3FA22
:100C500066FE828079715AC82A8B37050080335529
:100C6000E50006D622D426D24AD04ECE52CCBE893A
:100C700056CA5EC62E8AB68AC284B28BEFD0421C98
:100C80002A892E84D6865E86D2855A85EFC0C237E1
:100C90002A86AE864A85A285EFC00237B71708803C
:100CA00003A947C803AA07C8AA8ACA8652862E84FF
:100CB000EFC002196344A004B717088003A607C653
:100CC00083A647C65685A285EFC08217635AA00641
:100CD0005685A28501468146EFC0C20D15E123A0CD
:100CE000090023A00400B250225492540259F24940
:100CF000624AD24A424BB24B45618280D28A4A84D0
:100D000026865685A285EFC0F14DB717088003A649
:100D100087C583A6C7C5EFC0222FEFC07160EFD093
:100D2000A21C634FB00095C9370700809C40630048
:100D3000E502055763C8E70023A0A900E3D507FA39
:100D4000EFD0417B23A0040023A0090069BFF5F187
:100D500085079CC037050040E9BFB7070080E3F571
:100D6000A7FCF9BF39715ECEAA8B370500803355D9
:100D7000E50006DE22DC26DA4AD84ED652D456D218
:100D80003E8A5AD062CCAE8A368B4289C689328C72
:100D9000EFD0020BAA842E84DA866286D6855E8521
:100DA000EFC082262A86AE862685A285EFC0C225A0
:100DB000B717088083AA47C803AB07C8AA84D6869A
:100DC0005A862E84EFC0C207634CA00CB71A088065
:100DD00003A60AC683A64AC62685A285EFC0420698
:100DE000635EA00A2685A28501468146EFB0927C0B
:100DF00055E9B717088023200A0083A487C803A4F5
:100E0000C7C823200900014781473A862685BE8648
:100E1000A285EFB0F20B03A60AC683A64AC6AA842F
:100E20002E84EFC02210635B05062685A28501464D
:100E30008146EFC0E2006353A00670002685A285BC
:100E4000EFC0513AB717088003A687C583A6C7C568
:100E5000EFC0821BEFC0D14CEFD002096340B00459
:100E6000E1C937070080B247630EE50A055763D32F
:100E7000E70223A0090081470647F25062541CC3D1
:100E8000D2544259B259225A925A025BF24B624CE6
:100E90002161828023A0A900E350F0FEEFD081659C
:100EA000DA8456844A862685A285EFC0B133B71707
:100EB000088003A687C583A6C7C5EFC0E214EFC0AC
:100EC0003146EFD06202E34BB0FCA5C93707008082
:100ED000832709006301E504055763C7E702232060
:100EE000AA002A84E3CC07FA370500803355F500C1
:100EF000EFC01275AA8422852E84EFC072742A87EF
:100F0000AE87B71A088011B72320090023200A00F2
:100F100001448147D1BFE9F185072320F900370556
:100F200000405DBFA1F585073EC6370500403DBFC7
:100F3000B7070080E3F7A7F295B7B7070080E3F79C
:100F4000A7F8A9BF011126CA85444AC82A89339542
:100F5000A4007D1522CC4EC6328406CEAE89EFC0E9
:100F6000326E33062441930706FE2A892E8463CA13
:100F70000704B395F4000145EFD082042A86AE86BB
:100F80004A85A285EFC04208938709FEAA842E8471
:100F900063CD07028545B395F5000145EFD04202C8
:100FA0002A86AE862685A285EFB08272EFC0D10474
:100FB000EFC01261F2406244D2444249B249056135
:100FC000828081453395C40045BF05458145331571
:100FD0003501E9B779714ECEAA89328506D622D479
:100FE00026D24AD0B6842E8952CC56CA5AC8C28A52
:100FF0003E8B5EC662C4BA8B328CEF0073692A8462
:101000002685EF00F368CE852A8A4A85EF00D30F44
:101010002A89A2855285EF00330FAA854A85EF0001
:10102000A30DAA8523A0AA002A894E85EF00C30C30
:10103000AA852285EF00530DAA89AA852285EF0093
:10104000A3456357A00413150C014181EF005364BD
:10105000AA84AA852285EF00330BCA85EF00435A84
:10106000A68523A0AB005285EF00130A83A50A00D2
:10107000EF000359B25022542320AB00925402597E
:10108000F249624AD24A424BB24B224C45618280BD
:10109000CE855285EF00834BAA87139504014181C9
:1010A000E3C607FA4E85EF00F37CEFC07127EF101F
:1010B000A329EF007357420503A90A00418179B7BC
:1010C00079715EC6AA8B37150880032585CF22D497
:1010D0002E84DE8506D64AD04ECE52CC56CA5AC889
:1010E00062C43E8B3689BA89B28A26D2EF00C30029
:1010F0002A8C930500005A85EF00033A014A635297
:10110000A00683240900A2852685EF00E338D68552
:101110006343A000A2842685EF0043432A87A2856B
:101120005685634C0704EF00237EE285EF00434DB4
:10113000EF005374EFC0D11EEF100321DE85EF00E6
:10114000234CA285EFF09235050A23A0A900528511
:10115000EF001354DA85EF00633F11099109E34270
:1011600005FAB250225492540259F249624AD24AC4
:10117000424BB24B224C456182802685EF00C378FA
:10118000E285EF00E347EF00F36EEFC07119EF1057
:10119000A31BDE85EF00C346A285EFF03230050ABF
:1011A00023A0A9005285EF00B34EAA855A85EF000F
:1011B000A32E11099109E346A0F465B7411106C6B3
:1011C00022C426C24AC0AE84EFC09131B71708804E
:1011D00083A5C7CFEF00C3422A84EF00B369EFC0F5
:1011E0003114EF1063162A89EF00133DCA8588C0B9
:1011F0002285EF006371B717088083A507D0060525
:101200000581EF00A334B2402244924402497D811B
:1012100041018280F1C57971B717088022D426D2A6
:101220004AD04ECE52CC56CA5AC85EC662C403A932
:1012300087C583A9C7C506D66AC26EC02E8AAA848E
:10124000B28A3684014C370B0080855B19A823A035
:101250000A0023200400050CA104910A1104630D67
:101260008A0503AD040083AD4400014681466A85CA
:10127000EE85EFB0323461DD22866A85EE85EFC0FF
:1012800061764A86CE86EFB03258EFC07109EFC062
:10129000B245634AB004B1C51C40630D650363D514
:1012A000770123200400014523A0AA00050CA10416
:1012B000910A1104E3178AFBB25022549254025946
:1012C000F249624AD24A424BB24B224C124D824DF5
:1012D00045618280E9F585071CC037050040C1B72C
:1012E0008280E37BABFAEFD0E1209346F6FFFD86E8
:1012F000F18E3308C0406353C0000148B316D500D7
:101300003386D5023395D502638DB6066344050452
:101310003707004032973336C7002A9606067D838A
:10132000B367E6007D47634E0707130708FE0145D4
:10133000635507000545331505017D159356154086
:1013400013D7F7017D8D36973325A700B3D7074113
:101350003E958280B70600C08506FD58B307D600CB
:1013600033B7C700330615013A961357F6410607FF
:101370000583BA9733B7E70032970607FD83D98F05
:1013800055B7B7060040814863560500B70600C050
:101390008506FD583707008093C7F5FFE384E5F81D
:1013A00075BFB766038037660380376503804111D8
:1013B0009386063613060637930570161305C53C4B
:1013C00006C6EFD0A114411106C66341060E9387ED
:1013D000F60113076002636BF70A21673388E500A3
:1013E000C1676375F808B707FF7F634CF6047D1784
:1013F00001463306A602B9473388D740930708FE53
:10140000B385E502B338E5022E963305E502B298BE
:1014100063C9070405463316F60081473387A700E2
:101420003D45B306D540B337F700330516011386A3
:1014300006FE3E95634C0600B2403355C54041015F
:1014400082803A96135706417D8665B7B240FD47C4
:101450000605958FB317F5003355D7005D8D410113
:10146000828085470146B39707014DBFB766038069
:1014700037660380376503809386064B1306C641A3
:101480009305B00213054546EFD04108B7660380C7
:101490003766038037650380938646491306C64145
:1014A0009305A00213054546EFD04106B7660380B9
:1014B0003766038037650380938606401306C6416E
:1014C0009305900213054546EFD041046351B006E1
:1014D00001118A0522CC26CA4EC606CE4AC82A84E5
:1014E000B284B309B50003290400930500004A85BE
:1014F000EFF0927A6340A002930700009CC01104B1
:101500009104E39289FEF2406244D2444249B249D6
:101510000561828023A0240111049104E39589FCD4
:10152000F2406244D2444249B249056182808280DD
:10153000635CB0060111B717088056C283AA87CF33
:10154000B717088052C403AA47D08A0522CC4AC8DC
:101550004EC606CE26CA2A843289B309B500044095
:10156000D6852685EFF05273AA87D28526856345F6
:10157000F002EFF072726342A002232049011104CD
:101580001109E31E34FDF2406244D2444249B2499B
:10159000224A924A05618280D68423209900110450
:1015A0001109E39E89FAC5B782806350B008011122
:1015B000B717088052C403AA87D08A0522CC4AC82C
:1015C0004EC606CE26CA2A843289B309B500044025
:1015D000D2852685EFF0526CAA87930500002685F8
:1015E0006346F002EFF0526B6343A00293070000E2
:1015F0002320F90011041109E31B34FDF240624479
:10160000D2444249B249224A05618280D2842320D1
:10161000990011041109E39C89FAF2406244D24412
:101620004249B249224A056182808280635DB002EC
:1016300041118A0522C426C24AC006C62A84B28441
:101640003309B50008409104110413250500EF008B
:10165000B31423AEA4FEE31789FEB24022449244A1
:10166000024941018280828093D8F501AE98854776
:1016700093D8184063D5B702B2860147B307E50097
:1016800083870700890605071398C7011358C841C7
:101690009187238F06FFA38FF6FEE34117FF93F791
:1016A000150089CB4695830705002E96F207F18732
:1016B000A30FF6FE82809C4194439107634106028A
:1016C000635FD6000A063E960C4263CA05001C45BD
:1016D00089C79A053385B70082803C4982870145D6
:1016E00082808C41411106C622C403A80500B2873E
:1016F0002A87634A06026358060393172600AE97AB
:10170000CC43FD576380F5043684144593976500F8
:10171000B69781E63C498297AA87B2401CC0224412
:1017200001454101828083284701B76503803A85DE
:10173000C2863E86938505508298B2402244054574
:10174000410182805C49B76503809385C5528297C9
:10175000B24022440545410182809C419443634E3E
:101760000602635CD60291070A063E960C4263C6E7
:1017700005021C4581CB139565003E958347D50234
:1017800089CF82803C49411106C6829709C98347A7
:10179000D50291C7B2404101828001458280B240AA
:1017A000014541018280DC41944391076341060277
:1017B000635FD6000A063E960C4263CA05001C45CC
:1017C00089C79A053385B70082803C4982870145E5
:1017D0008280CC41411106C622C403A80500B2870D
:1017E0002A87634A06026358060393172600AE97BA
:1017F000CC43FD576380F504368414459397650008
:10180000B69781E63C498297AA87B2401CC0224421
:1018100001454101828083284701B76503803A85ED
:10182000C2863E86938505508298B2402244054583
:10183000410182805C49B76503809385C5528297D8
:10184000B24022440545410182809C419443910766
:1018500063410602635FD6000A063E960C4263CAE5
:1018600005001C4589C79A053385B70082803C492D
:10187000828701458280DC459443910763410602DB
:10188000635FD6000A063E960C4263CA05001C45FB
:1018900089C79A053385B70082803C498287014514
:1018A0008280CC45411106C622C403A80500B28738
:1018B0002A87634A06026358060393172600AE97E9
:1018C000CC43FD576380F504368414459397650037
:1018D000B69781E63C498297AA87B2401CC0224451
:1018E00001454101828083284701B76503803A851D
:1018F000C2863E86938505508298B24022440545B3
:10190000410182805C49B76503809385C552829707
:10191000B24022440545410182809C459443910791
:1019200063410602635FD6000A063E960C4263CA14
:1019300005001C4589C79A053385B70082803C495C
:101940008287014582808C45411106C622C403A8C6
:101950000500B2872A87634A060263580603931775
:101960002600AE97CC43FD576380F50436841445BA
:1019700093976500B69781E63C498297AA87B24063
:101980001CC0224401454101828083284701B7657C
:1019900003803A85C2863E86938505508298B24080
:1019A00022440545410182805C49B76503809385E7
:1019B000C5528297B2402244054541018280797127
:1019C00026D24ECE52CC56CA5AC806D622D44AD0B7
:1019D0005EC683AAC500032BC600AA89BA843E8AC4
:1019E000B5C256853684EF00E368AA8B5A852E89E6
:1019F000EF0043682A86AE865E85CA85EFB0C26076
:101A00002A8948442E84EF00E3662A86AE864A85FA
:101A1000A285EFB0323C2A89C84413941500058092
:101A2000EF0043652A86AE864A85A285EFA0524A1A
:101A3000B717088003A607C983A647C9EFB0824E2F
:101A4000634CA004DA855685EFF0923B93050000C5
:101A50002A84EFF07224634505062285EF00836136
:101A6000AA87C8442E84BE84EF00C3602A86AE864F
:101A70002685A285EFA0D2452320AA002322BA0002
:101A80000145B250225492540259F249624AD24A54
:101A9000424BB24B4561828083A74901376703807F
:101AA000130707569306001437660380B765038053
:101AB0004E85130646589385055B82970545D1B739
:101AC0003767038083A749011307875C9306D01407
:101AD000E1BF01112E884AC84C462A890325C80057
:101AE00022CC26CA4EC606CE3684BA89EFF05231D1
:101AF00093050000AA84EFF0321A634C0502268594
:101B0000EF004357AA8448442E84EF00A3562A8648
:101B1000AE862685A285EFA0B23BF240624423A0A8
:101B2000A90023A2B900D2444249B2490145056146
:101B30008280832749013767038037660380B76552
:101B400003804A851307875C9306D0141306465812
:101B50009385055B8297F2406244D2444249B24980
:101B60000545056182801C42797122D426D24AD073
:101B70004ECE06D652CC56CA5AC85EC662C466C29B
:101B80000D48AA842E843689BA896380070F2547B9
:101B90006389E7061D476398E702216A7D1AE17AA7
:101BA0008547032BC600832B06016307F4068D4788
:101BB0006301F40C89476309F4142320590123A01D
:101BC0004901014515A05C493767038037660380EA
:101BD000B76503801307475E93063019130646580E
:101BE0009385055B82970545B25022549254025961
:101BF000F249624AD24A424BB24B224C924C456166
:101C000082808547032BC600832B0601130AF00749
:101C1000930A00F8E31DF4F8DA8513050000EFF0ED
:101C2000A24DEF002345EFB0B16FEF00E371B7179E
:101C3000088083A5C7D02A8BEFF0120663440514F1
:101C4000B717088083A507D15A85EFF03210634B90
:101C5000A0125A85EF004316AA9B63C85B15232088
:101C6000790123A04901014541B7130AF00F814AC8
:101C700005BFDA8513050000EFF00248EF00833F4F
:101C8000EFB0116AEF00436C371408808325C4D08D
:101C90002A8CEFF072006348050AB71C088083A500
:101CA0000CD16285EFF0920A634FA0086285EF00C5
:101CB000A310B307750163CE570F371708800325AC
:101CC00087D02320F900DA85EFF00243EF00833A52
:101CD000EFB01165EF0043678325C4D02A84EFF08D
:101CE000A27B6342050683A50CD12285EFF0120684
:101CF000634BA0042285EF00230CAA9B63497A0B57
:101D000023A079010145CDB5B717088003A547D0B9
:101D1000DA8537140880EFF0223EEF00A335EFB0EC
:101D20003160EF0063628325C4D02A8CEFF0C27665
:101D3000634B0500B71C088083A50CD16285EFF0CA
:101D4000F2006355A002DC483767038037660380E2
:101D5000B765038026851307C75E9306B015130683
:101D600046589385055B82970545BDBD6285EF00AA
:101D7000A304B307750163C057053717088003250F
:101D800087CF81B7DC483767038037660380B76544
:101D9000038026851307C75E9306B01513064658C1
:101DA0009385055B8297228581B5D68B4DBDD28BFD
:101DB00081BFD68719B7D687C9B71971E2CC03ACF2
:101DC0000503A6DACED6D2D4DAD0DECEE6CAEAC889
:101DD000AE8986DEA2DCCAD8D6D2EEC6854536C626
:101DE0003EC442C846CA0A4B9A4B2A4DBA4CCA4412
:101DF0002A8A630ABC0403234501B7670380376757
:101E0000038037660380B7650380628885489387BF
:101E10004761130707639306B00D13064658938571
:101E2000C5640293054CF6506654D6544659B659CB
:101E3000265A965A065BF64BD64C464DB64D6285F1
:101E4000664C09618280832A06033289638A8A0389
:101E500003234501B7670380376703803766038034
:101E6000B76503808548568893874761130787665F
:101E70009306D00D130646589385C564029365B743
:101E80003A84585A630907141C436383071003A854
:101E9000070063570C0583A60900E516F59A95C25D
:101EA0005C49376703801307476B9306D00E37668C
:101EB0000380B7650380130646589385055B8297B8
:101EC0009DB714422546638DC60C4946638AC60CED
:101ED000376703805C491307076F9306F00EC1BF95
:101EE00003A5C900032CC400635390063ECCEF0049
:101EF0006318AA8D62856ED42ED6EF00A317E24731
:101F00006A8FE68D2AD02ED2014D930CC103130C9B
:101F10008103C843110F3ECE7ACCEF00A3152256A1
:101F2000B256910D050DEFB0220E02569256EFA05B
:101F3000227AE6866286EFE08FDAE256624FF24757
:101F4000232EDFFEF25623AEDDFEE3449DFC83A785
:101F500009000D476387E71225476386E7001D47A1
:101F6000014CE392E7ECA24722866654F650D65421
:101F70004659B659965A664CD64C464DB64D8C438A
:101F80005E87DA86F64B065B5285265A0961E1BE0A
:101F9000376703805C49130787699306900E01BF7A
:101FA0006383040503234A01B7670380376703800F
:101FB000A6889387C7721307C7739306100F3766F7
:101FC0000380B7650380130646589385C564528520
:101FD0000293568C89BD376703805C4913074768B5
:101FE0009306800EE9B51447032789008A063697C1
:101FF0008328470063801403B76703803767038033
:1020000003234A012688938707761307C77293062E
:10201000200F75B703A5C90091073ECE6ACCEF002B
:102020006305AA8D48446ED02ED2EF00A304624F00
:10203000F247E68D2AD42ED6014D930CC103130C22
:102040008103884391077ACE3ECCEF00A30202566B
:102050009256050D910DEFA0327B2256B256EFA09D
:102060002267E6866286EFE08FC7724FE256E2474C
:10207000110F232EDFFEF25623AEDDFEE3439DFC5F
:10208000F9B5B24483ACC900032DC900B5C066855B
:10209000EFF0527EAA8D6A852E8CEFF0B27D2A86F3
:1020A000AE866E85E285EFA032762A8CC8442E89F2
:1020B000EFF0527C2A86AE866285CA85EFB08251E7
:1020C0002A8C48441399150013591900EFF0927A9D
:1020D0002A86AE866285CA85EFA0825FB717088020
:1020E00003A607C983A647C9EFA0D263634DA00426
:1020F000EA856685EFF0C250930500002A89EFF06B
:10210000A239634605064A85EFF0D276AA8A48448A
:102110002E89EFF032762A86AE865685CA85EFA0E4
:10212000225B42467418EFE08FBB7257524683A77A
:1021300009003307E040A54618C2E386D7E20D4701
:10214000E383E7E229BD83274A013767038013074A
:1021500007569306001437660380B765038013069D
:1021600046589385055B52858297568C6DB93767C3
:10217000038083274A011307875C9306D014E1BFCD
:102180005971A2D48059A6D2CAD0DEC6EAC06EDE8A
:10219000AE8486D6CECED2CCD6CADAC8E2C4E6C2E7
:1021A000854542C046C2C65BD65EE65D765D2A893D
:1021B000630AB40403234501B767038037670380CC
:1021C00037660380B7650380228885489387476117
:1021D000130707639306B00D130646589385C5642D
:1021E00002930544B6502285265496540659F64962
:1021F000664AD64A464BB64B264C964C064DF25D87
:1022000065618280032C0603B28963118C04368FCA
:10221000545A3E8A3A8B9C4283AC07006350940721
:1022200098406517759B6307070E5C493767038005
:102230001307476B9306D00E37660380B76503809C
:10224000130646589385055B829769BF03234501B2
:10225000B76703803767038037660380B7650380FD
:102260008548628893874761130787669306D00D78
:10227000130646589385C5640293ADB7C044832ABC
:10228000C70063998C05C84376C67AC4EFF0925EA6
:10229000AA8C22852E84EFF0F25D2A86AE866685B2
:1022A000A285EFA07256AA8C56852E84EFF0925C20
:1022B0002A86AE866685A285EFA082417410301012
:1022C000EFE0EFA1A257224FB24E23A0FD00B2577C
:1022D0002320FD009C400D476383E710254763865C
:1022E000E7001D470144E39FE7EE265483250A00DB
:1022F000B6509654F649664AD64A264C964C064D38
:10230000F25DDE865A86B64B464B4A85065976877D
:10231000656191B818422546630DC7004946630AB6
:10232000C700376703805C491307076F9306F00EF9
:1023300021B7944603A789008A0636978328470069
:10234000638B1C0303234901B7670380376703804E
:1023500037660380B765038066889387077613071F
:10236000C7729306200F130646589385C5644A85A5
:102370000293628485BDC84476C67AC4938A4700B6
:10238000EFF0524FAA870325CB003ECC2ECEEFF0C4
:10239000724E224FB24E2AC82ECA014403A50A002B
:1023A00076C67AC4EFF0124D6246F246910D0504EE
:1023B000EFA092454246D246910A110DEFA042315C
:1023C00074103010EFE0AF91A256224FB24E23AE00
:1023D000DDFEB256232EDDFEE34294FDE5BD7AC458
:1023E00083AAC40083ACC90063070F06568576C66E
:1023F000EFF05248AA8966852E84EFF0B2472A860C
:10240000AE864E85A285EFA03240224FAA892E8447
:102410000325CF00EFF012462A86AE864E85A285B0
:10242000EFB0421BAA890325CB0013941500058049
:10243000EFF052442A86AE864E85A285EFA042294F
:10244000B717088003A607C983A647C9EFA0922D36
:10245000B24E6341A006E685568576C4EFF0421A77
:10246000930500002A84EFF02203A24E634805067C
:10247000228576C4EFF01240AA890325CB002E8472
:10248000EFF0523F2A86AE864E85A285EFA0422409
:1024900002467410EFE0AF84325712469C40330777
:1024A000E040A54618C2A24EE381D7E40D47E38E73
:1024B000E7E205BD83274901376703801307075605
:1024C0009306001437660380B765038013064658E9
:1024D0009385055B4A858297628429B337670380B9
:1024E000832749011307875C9306D014E1BF8C450D
:1024F0000845411106C6EF205155B2403335A000C2
:10250000410182809445411126C29842AE8406C69C
:1025100022C44AC085456300B7025C49B7650380A1
:102520003A869385057A8297B240224492440249C2
:10253000054541018280C04232892285EF207157D2
:10254000635F8000DC409315240013074500BE95AF
:10255000944391071107232ED7FEE39BB7FEB240A9
:1025600022442320A900924402490145410182806E
:102570005971D6CAEAC086D6A2D4A6D2CAD0CECEC7
:10258000D2CCDAC8DEC6E2C4E6C26EDE2322050083
:10259000230405009C41130D85002320A501AA8A70
:1025A0006358F01A37790380B7490F00379A9800BB
:1025B000AE8C938B45008147014B130C81001309AE
:1025C00049859389F923130AFA6783AD0B002547E0
:1025D000639A071A93D7FD41B3C4B7019D8C93DD6D
:1025E000FD01637D97349307300663FF97349307AB
:1025F000703E63FF973489669387F67063FC973467
:102600006166B7E5F50526870544938606711306CE
:10261000F6699385F50F39A063FFF92A6370FA2CE8
:1026200063F4F52CBA8722853357D7021104E3658A
:10263000F6FE1306D002B3858D000A8562C0EF5006
:10264000610F024793073006BA9D63FC9702930718
:10265000E4FF0965EE97930640061305F57033F71E
:10266000D402F917268606074A97834517000347C1
:102670000700B3D4D402A381B7002381E700E3604D
:10268000C5FEA54763FA97208604CA9483C7140041
:1026900083C40400A380FD00B766038023809D00EF
:1026A00005479386467D014681450A85EF50011F07
:1026B000041026CC1C41930D85002A846386B7251F
:1026C0003ECC1C453ED05C403ECE2320B4012304CA
:1026D0000400E2472322040003A50A006388971C34
:1026E0000257F2466308AD2003A68A0023A0FA0031
:1026F00023A2DA0023A4EA00630405202ACC32D006
:1027000002CE2300050062456306950082558505CB
:10271000EF304177024563068501A2458505EF301C
:10272000617603A70C00050B83A74A00910BE34ECB
:10273000EBE899CF370700407D176381E722B7F5B3
:10274000078005469385C5F65685EF50213019A8B8
:10275000B766038009479386067D01468145568505
:10276000EF50C113B650265496540659F649664A9E
:10277000464BB64B264C964C064DF25D5685D64AD6
:102780006561828093D7FD41B3C4B7019D8C93DD11
:10279000FD016377971A9307300663F5971A93073D
:1027A000703E63FB971A89669387F67063F0971AF9
:1027B0006166B7E5F505268705449386067113061D
:1027C000F6699385F50F39A063F4F910637BFA106D
:1027D00063FFF510BA8722853357D7021104E365EA
:1027E000F6FE1306D002B3858D000A8562C0EF4065
:1027F0007174024793073006BA9D63FC97029307F2
:10280000E4FF0965EE97930640061305F57033F76C
:10281000D402F917268606074A978345170003470F
:102820000700B3D4D402A381B7002381E700E3609B
:10283000C5FEA54763F797068604CA9483C71400AC
:1028400083C40400A380FD00B7D6078023809D00C9
:10285000054793860667014681450A85EF500104C6
:10286000041026CC1C41930D85002A846384B70B89
:102870003ECC1C453ED05C4056853ECE2304040031
:102880002320B401232204007246E245EF50011CCC
:102890006245E31D95E6BDBD9384040393F4F40FF4
:1028A000E5BB9384040393F4F40F79BF724611CA15
:1028B00085476307F606A685EFC09153724603A5C8
:1028C0000A00329523A2CA002300050062450DBD0F
:1028D0001304550039B713045500A1BB1304650058
:1028E00089BB13046500F5BD1304750099B3130487
:1028F0007500C5BD23A0FA0023A2DA0023A4EA00D4
:1029000026CC04102685EDBB4146EE852685EFC01A
:10291000314E55BB4146EE852685EFC0714DA1BFB6
:10292000834701022300F500724603A50A0023A293
:10293000CA003295230005006245D9B30544D5B9D4
:10294000054445B5094471BD0944E5B1114451BD83
:102950000D44C5B11144F1B90D4461B5376503802B
:102960001305857DEFD00FF382472A8463878701A3
:10297000A2453E858505EF30E15003A50A006307B7
:10298000AD0083A58A008505EF30C14F2285EF1089
:1029900073602A84DDB7E2472A84638797008255F3
:1029A0003E858505EF30014E0245E30885FDA245D1
:1029B0008505EF30214DD1B72A84FDB798451C46D7
:1029C0001D71D6C2DAC0832A070003AB0700A2CC70
:1029D000CAC8CEC6D2C45EDE86CEA6CAAE8B32844C
:1029E000AA8936895A8A63C36A01568A5285EF20BA
:1029F000510CAA84635A400513182A002A9881476B
:102A0000130EFBFF05451383FAFF63DD570583A50E
:102A10008B003307F3400A072E97584363DF6701A3
:102A200014443306FE400A06B29683A846006304A7
:102A30001707630AA7046392A8061DEF2320080066
:102A400085077118E39347FD232099000145F6405F
:102A50006644D6444649B649264A964A064BF25B36
:102A60002561828063D667031844B306FE408A0658
:102A700036975843631AA700854863531701468762
:102A80002320E80075BF468755DBBA880547F5B7B0
:102A900005478548DDB775F355B70A8503A9490190
:102AA000C13C0C4428080244E134E246B765038087
:102AB00022869385057F4E85029962451C10630628
:102AC000F50082558505EF30E13B02453C00630689
:102AD000F500A2458505EF30E13A81C42685EF2057
:102AE00051040545ADB7E24718102A846387E70013
:102AF00082553E858505EF30E13802453C0063068E
:102B0000F500A2458505EF30E13781C42685EF2029
:102B100051012285EF1013482A84EDF8DDBF2A8485
:102B2000E9BF1971A2DCA6DA3684B2849446104655
:102B30009C45DAD0DECE032B060083AB0600CED652
:102B4000D2D4D6D2E2CCE6CA86DECAD803AC07001D
:102B5000AE8CAA893A8ADE8A63437B01DA8A63D320
:102B60008A01E28A5685EF20C1742A89635C500984
:102B700013972A002A9701488546930EFCFF1305F8
:102B8000FBFF9385FBFF8548635A880183A78C0070
:102B900033860E410A06B29783A84700054363595E
:102BA00068019C44330605410A06B29703A3470017
:102BB000054E635978011C44338605410A06B297D5
:102BC00003AE4700C687635313019A876353FE0021
:102BD000F28781CBC68763D368009A8763D3C70126
:102BE000F2876384D800639317036304D300639F61
:102BF00067006304DE00639BC7011CC305087117EF
:102C0000E31358F923202A010145B5A083A58C00C0
:102C1000280003AA4901A93A8C440810A244893A21
:102C20000C4428180254A9326257B7750380A28653
:102C30002686938505824E85029A62559C0063061E
:102C4000F50086458505EF30E12302553C1063060B
:102C5000F500A2558505EF30E12222451C086306E8
:102C6000F500C2458505EF30E121630509004A857D
:102C7000EF20216B0545F6506654D6544659B65997
:102C8000265A965A065BF64B664CD64C09618280F2
:102C9000E25798002A846387E70086453E858505CC
:102CA000EF30411E02553C106306F500A255850524
:102CB000EF30411D22451C086306F500C24585051D
:102CC000EF30411C630509004A85EF2081652285AC
:102CD000EF10532C2A84E31909FED5BF2A84D9B7F3
:102CE0002A84C9BF7D15C14763EAA700B77703806F
:102CF000938707920A053E950841828001458280AC
:102D000001458280545D9DC2984293874600050725
:102D10000A07BA96638CF6007D5619A06388F60000
:102D200098439107E31CC7FE0545828001458280D8
:102D3000B70710F023A0A7F082808347050089CB56
:102D4000370710F02320F7F0834715000505FDFB3A
:102D500082808347050089CB370710F02320F7F0E6
:102D6000834715000505FDFB82808280AA874841C4
:102D70009047AE860C41584A104A03A84500CC47FC
:102D8000028848411C419C4782871C4513951500C9
:102D90002E95D84B9C4B0A050E07BA97DC433E95FF
:102DA0008280F1456F30010E1849854763E6E700E0
:102DB00048411C41DC4F8287411106C6EFB0817348
:102DC00018498D476317F7005C498A05BE9588410D
:102DD0008280411106C6EFB0E1711849854763163C
:102DE000F70048411C41DC478287411106C6EFB01D
:102DF0006170184985476316F70048411C419C4B98
:102E00008287411106C6EFB0E16E18498547631805
:102E1000F7001C45B2864841D04B6F10A0574111B6
:102E200006C6EFB0216D9C452A8794439107634BFA
:102E300006026359D6020A063E96144263C406028D
:102E40001041B73700809387C7D6504A631EF600FB
:102E500048411C474C4703280500D84B904B83271B
:102E60004800828701458280B68502869C412A8778
:102E700094439107634B06026359D6020A063E96B5
:102E8000144263C406021041B73700809387C7D647
:102E9000504A631EF60048411C474C470328050072
:102EA000D84B904B83274800828701458280B685A6
:102EB0000286DC412A8794439107634B06026359DB
:102EC000D6020A063E96144263C406021041B73782
:102ED00000809387C7D6504A631EF60048411C47BE
:102EE0004C4703280500D84B904B83274800828726
:102EF00001458280B6850286B77703809387479C19
:102F00001CC14CC114C550C523280500232A050047
:102F1000232C0500828063C8050063D6C5008A059E
:102F2000AE96884282807D5582804CC982801C4941
:102F3000411106C60547F59B6384E700EFB0815B4E
:102F4000104D91C119CA3775038013054596EFD00E
:102F5000E00CB240054541018280B2400CCD0145F4
:102F60004101828039712E852C1006CE32D436D69E
:102F70003AD83EDA42DC46DE2EC6EFD04007F240B9
:102F8000216182800CC98280084982809387F5FF85
:102F90003E953355B5023305B50282803355B502EF
:102FA0003305B50282807D152E953355B502330564
:102FB000B5028280C94763EAA702B7770380938787
:102FC000879F0A053E951C418287A1479CC1014508
:102FD000828085479CC10145828091479CC1014503
:102FE000828089479CC10145828005458280C14716
:102FF0009CC1014582802A870841011126CA3305F8
:10300000A740035805004AC806CE22CC91472E8916
:10301000B28463F4070583574500054491CFBA97FE
:103020009443B697904309CA0A063E96D443910743
:103030003304D402E31CF6FE994763F9070583576E
:1030400065000145A1E36C00EFD0003109CDF240ED
:103050006244D24442490561828001456C000544C6
:10306000EFD0802F6DF53245A685A9376DF19C40D4
:10307000F240D244338487022320890062444249CB
:10308000056182803E970305070075BF014565BF56
:10309000ADC95C41854691CF03A80700635B000181
:1030A00091070147904305079107B386C602E31BCA
:1030B00007FF1C4549476362F704377703808A0797
:1030C000130747A4BA979C438287A147B386F602A9
:1030D000014594C182809147B386F602014594C1AF
:1030E00082808547B386F602014594C18280894774
:1030F000B386F602014594C1828005458280C147AE
:10310000F1B7411106C6EFB0E13E9C45397152D48A
:1031100006DE22DC26DA4AD84ED656D22A8AC1C327
:10312000184651C7368994468442A1E894431C430B
:103130002E8463C3D70032841C400325090063003A
:10314000F50883274A013777038037760380B76510
:1031500003805285130747B093064009130686AAD9
:103160009385055B82970545F2506254D2544259CB
:10317000B259225A925A216182805C493777038082
:103180001307C7AE9306100937760380B76503802F
:10319000130686AA9385055B82970545F1B73777B5
:1031A00003805C49130707A99306F008F1BF37773E
:1031B00003805C49130747AD93060009F1B78A8580
:1031C00002C0CD3BA2854800EFD0AFAA9249635818
:1031D00030051C44024501479107904305079107BC
:1031E0003305C502E39BE9FE832A8A03232CA90049
:1031F0002AC0EF202105AA855285829A2324A9009E
:103200001C44130745009443910714C1944385045B
:10321000910714C31107E39B99FE0145B1B702451D
:1032200083248A03232CA900EF20C101AA8552859B
:1032300082942324A9001844AA870145184398C3FF
:1032400025B748411C419C4782878280828008457F
:1032500041461C419C47828748411C419C478287CC
:1032600048411C41DC47828748411C41DC4B828736
:1032700048411C419C4B8287084511469305000438
:103280001C419C4782878280411106C622C426C207
:103290004AC0A9C9985985472E84AA846304F702B5
:1032A000C840A285232A04021C41232204002328AB
:1032B0000402232404002244B24092440249DC4721
:1032C0004101828703A94503630E09004841832514
:1032D00049001C41DC478297C840CA851C41DC4735
:1032E00082977DBFEFB00121930540026F20913995
:1032F000A1456F203139411122C406C62E8485C1F3
:103300001C4D89CB0845B2858A051C4111469C4756
:10331000829708C0B2402244014541018280EFB04B
:10332000611D83A80500397122DCB388154103D8DB
:10333000080026DA4AD84ED652D456D25AD05ECE9B
:1033400006DE114A2E8BAA84B68BB2890144B94A93
:103350007D5963790A0583D74800A9C7DA9798434E
:10336000BA9798436378E406131524009107AA9747
:103370009843BA9798433387E7400356070063FFA3
:10338000CA000357E70019CBBA9783C7070099C74C
:10339000638D0B005E951C41638927010504B1090B
:1033A000E36B0AFB8327000002906C004E85EFF070
:1033B0003FCE15E18844B24541461C419C47829767
:1033C00023A0A90005C583280B00B3081B4103D81F
:1033D0000800E9B70145F2506254D2544259B2593B
:1033E000225A925A025BF24B21618280B2453775B4
:1033F0000380130505B2EFC070420545E9BF011116
:1034000006CE22CC26CA4AC84EC652C456C259C29B
:10341000328A2A84AE8A8149A1441309C00235A8A0
:1034200083D78700B9C3D6978843AA97984363F197
:10343000E906139529009107AA9788433E95EFC0A6
:10344000F062B3052503084411461C419C4782974E
:1034500005C12320AA008509210A83A70A00B38792
:10346000FA4003D70700E3EDE4FA83270000029057
:1034700037750380130505B5EFC0503A0545F24096
:103480006244D2444249B249224A924A056182804A
:103490000145F5B7EFB001069C4101114AC8B38759
:1034A000F54003D807002E8906CE22CC26CA4EC688
:1034B00052C456C2A14563F0050D83D78700C5CF1E
:1034C000CA973A849843BA979C436376F4081841A4
:1034D000B737008093878727585BAA84B28A368AD9
:1034E0006310F70688441146930500041C419C476D
:1034F0008297AA8994408147228703A886034E8633
:10350000D286CA85268502981DED63810A020E04C3
:10351000A29A83A74A0093161A00D2968A06BE96EC
:10352000D8429C4223A4E90023A2F900F24062445D
:10353000D2444249224A924A4E85B249056182806C
:103540000297AA8945BF377503801305C5CCEFC024
:10355000F02C8149E1BFB776038037760380377559
:103560000380938686B8130646B99305A00A13050F
:1035700005C9EFA0B1798327000002901D715C415D
:10358000D2C42E8A0C4DD6C2AA8A6800A2CCCAC860
:10359000CEC686CEA6CADAC05EDE62DC66DA3289C4
:1035A000B68952C63EC802D6EF2090082A8419CDAB
:1035B000F64022856644D6444649B649264A964A8C
:1035C000064BF25B625CD25C256182804C00680035
:1035D00002C2EF30602B2A8461FD130B4900A14425
:1035E0001DA883D78700A1C3D2978C43AE97984379
:1035F000637EE40203A70A00931524009107AE97A7
:103600008C4303260B00185B9246BE9556850297A5
:10361000210B71E1050483270A00B307FA4003D7A1
:103620000700E3E0E4FC83270000029092454A860D
:103630006800EF20B0222A8425FD03A5CA01914528
:10364000EFF0DF942A864A87CE8681456800EF2016
:10365000B0442A8431FD03A54A00C145E2491C411A
:10366000524B9C5B8297AA8403A54A004146A685DB
:103670001C419C4782972A8A2DC183AC0A01B74717
:1036800000809387874F03A70C00584F6319F704F6
:10369000638C0910374C00805A89DA84FD5B130C67
:1036A0004C4F29A00504E104638B890483C74401BE
:1036B000F5DB8840C145EFF01F8F984883A70C00C9
:1036C00063067703DC47638A8701D4449044AA8564
:1036D0006685829761D92A84E1BD0544D1BD66859E
:1036E0002686D285029783AC0A015DB7D444904404
:1036F0009C47AA856685829755D52A8455BD03A522
:103700004A0003AC0A0181441C41FD5BDC538297F3
:1037100093971900CE978E07AA893E9B834749014C
:1037200095C383270C0030005EC49C4FA68562853C
:1037300082972A84E31E05E6A247032749008504F1
:10374000CE971CC36109E31B2BFD6800EF20807E30
:1037500003A54A00D2851C41DC47829703A54A0095
:103760001C41DC4B82972A84E31405E403A54A003C
:1037700083A5CA011C419C5382972A84E31A05E25F
:1037800003A50A011C419C4B829783A50A0263F59D
:10379000A50023A0AA02AA8503A54A0041461C4110
:1037A0009C5782972A8429B503A54A001C41DC5303
:1037B000829761BF9C4101114AC8B387F54003D885
:1037C00007002E8906CE22CC26CA4EC652C456C247
:1037D000A14563F3050B83D78700D9CFCA973A84F5
:1037E0009843BA979C436379F406AA8948419305A4
:1037F0000004B28A1C411146368A9C47829703A76F
:103800000900AA842A860328870385472287D2864F
:10381000CA854E8502980DE9638E0A000E045694FF
:103820005C4093161A00D2968A06BE96D8429C42F5
:1038300098C4DCC0F24062444249B249224A924AEA
:103840002685D2440561828037750380130585D1B2
:10385000EFC0C07C8144F9BFB77603803776038020
:1038600037750380938686B8130646B99305A00A78
:10387000130505C9EFA09149832700000290184164
:10388000A14681473307E5400356070063F5C600AC
:10389000035787001DEF984163F2E70491058A07FB
:1038A000AE9798439146BA9798433387E7400356BB
:1038B000070063FEC60003574700014531C3BA97AE
:1038C0009843BA9798430DCF1385470082800145EE
:1038D00082803A951C419841E3E2E7FCB776038089
:1038E00037760380377503804111938686B81306B7
:1038F000C6D59305A00A130505C906C6EFA0114158
:1039000082805D7186C6A2C4A6C2CAC04EDE52DCE9
:1039100056DA5AD85ED662D466D26AD06ECE2AC63D
:103920006302061E2E8D930746003EC483270D00BA
:10393000371B0880A146B307FD4003D70700814B22
:10394000314A130B4BDD63F1E61883D68700638D94
:103950000616EA969C42BE969C4263F3FB18939728
:103960002B009106BE969C421147B38AF60083A7AE
:103970000A00B387FA4003D607006377C71483D7DA
:10398000470063830714B246D6979843884611468A
:10399000BA9703A907001C41131419009C474A94C5
:1039A0000A04A28582972AC263030512AA8D814C5C
:1039B00091449949631D0902C5A8E2852285C13554
:1039C000184023A0AD003307E4400356070063F717
:1039D000C40C0355470079C12A940840850CB10DE9
:1039E0002295EFC0D01223ACADFE630F990B03A755
:1039F0000A003387EA400356070063F7C40C0354F8
:103A0000470079C0569418403A94184063FCEC0C77
:103A100003270D0013952C0011042A943307ED4061
:103A2000084083550700014C2A946379BA00035774
:103A3000C70009C76A971043330CC700184023A07A
:103A40000D0023A20D003307E4408355070023A493
:103A50000D00014563F8B9000357670001C72297BD
:103A60000305070093858D00EFC0100F39D537751A
:103A70000380130545F9E685EFC0405A0545B64079
:103A8000264496440649F259625AD25A425BB25BC6
:103A9000225C925C025DF24D6161828023A26D0125
:103AA000850CB10DE31599F5A2471247A146A10770
:103AB00023ACE7FE3EC483270D00850BB307FD4012
:103AC00003D70700E3E3E6E8832700000290377599
:103AD0000380130545E5A285EFC04054054545B771
:103AE000014571BFB7760380377603803775038051
:103AF000938686B81306C6E99305A00A130505C97F
:103B0000EFA0D120EFA0111F797106D622D426D2C2
:103B10004AD04ECE52CC56CA5AC8638F0726AA84C2
:103B20002E893E85B28981451306000436843E8A7B
:103B3000BA8AEFB0B14F144099470145B306D4405B
:103B400003D7060063F8E70083D7660081C7A29712
:103B500003850700D285EFC030002A8B41E1144075
:103B600039478147B306D44003D60600637AC700BD
:103B700003D7E60011C7229783470700B337F00049
:103B8000D685A306FA022285DD391337150005070D
:103B90002322AA00232AEA00700093058A012285C5
:103BA000EFF06FC52A8B1DE9184091463307E440BA
:103BB0008357070063FFF602035547001DC922958E
:103BC0001C413E95EFC0A0741840B1462324AA00C2
:103BD0003307E4408357070063E6F602B2502254ED
:103BE00092540259F249624AD24A5A85424B45617F
:103BF0008280B7160880938646DD2324DA00B1461A
:103C0000E3FEF6FC8356C700F1DA36941C402146E9
:103C10003E941C40B307F44083D60700E370D6FC03
:103C200003D7870045DF22970C432E970C43638E02
:103C30000510A945E3F4D5FA83D7A700C5D3A29709
:103C40009443B697944363820610DC435843232879
:103C5000FA001C402326EA00B307F44003D707000C
:103C60006377E60E83D78700FDC3A2979843BA9780
:103C700083AA07006387090E832709001146B1450F
:103C80009C474A858297AA8963000510832709000B
:103C900056858447EF10015BAA8511464A858294B8
:103CA00023A2A900630C050E1C4021470145B30760
:103CB000F44083D607006378D70083D7870081C795
:103CC000A29788433E95EFC0A06403A7490023A0B4
:103CD000A90003230400232057016359500D330327
:103CE0006440035E0300A94763F3C7078358A3003A
:103CF0001107814733051401638B08041041835574
:103D000083002A9603280600B306B400A9C18C429A
:103D1000AE96944263800605630F0808544214C3AC
:103D200085071107E39AFAFC414781476377C7018A
:103D30000357030119C33A941C4023A4F900854793
:103D40002328FA02232A3A0351BD014B41BD8327A0
:103D50000000029063F1D7069396370036965442DE
:103D60007DBF9C401146B1459C4726858297AA8914
:103D700001CD9C40568503A98700EF10A14CAA8570
:103D800011462685029929BF37750380130545FB27
:103D9000EFC0C028054B99B5EFA0C17537750380FA
:103DA000130545FEEFC08027054B0DBD330364406E
:103DB000035E030095BFB7760380377603803775BF
:103DC0000380938686B8130646019305A00A13055F
:103DD00005C9EFA0A17303A30500AE882148338372
:103DE0006840035E0300AA85CC4108456372C80D94
:103DF00003588300630E080A4698B28E3E868327D6
:103E00000800411106C63E9883270800637FF70427
:103E100011080A0742970328070091474297032891
:103E2000070033080741035F080063F0E709835781
:103E30004800A5CF3E971C433E971C4363F7F6040A
:103E400011078A06BA9603A80600B1470147C29631
:103E500063F9C7018357C30089C7BE9803A7080049
:103E60004697B240F687410145B1B7760380377671
:103E7000038037750380938686B8130646B9930589
:103E8000A00A130505C9EFA06168B77603803776ED
:103E9000038037750380938686B81306C6E99305B9
:103EA000A00A130505C9EFA06166832700000290F0
:103EB0008327000002901C41011122CCB307F5407A
:103EC00083D6070026CA4EC606CE4AC8232006005F
:103ED00023220600232406001947AA843284AE89CF
:103EE00001456375D70083D7670099EF9305840078
:103EF000EFC080462A8915C1F2406244D244B249DB
:103F00004A85424905618280A6970385070093058B
:103F10008400EFC060442A8965F1CE85268585320C
:103F20009C40114708C0B387F44083D607006373F1
:103F3000D70203D5470019CDAA9488402695EFC033
:103F4000003D48C0F2406244D244B2494A854249E9
:103F500005618280B7170880938747DDF2405CC017
:103F60006244D244B2494A85424905618280411186
:103F700026C29145AA841305400206C622C44AC03F
:103F8000EFF06F822A89914513054002EFF0AF816F
:103F90002A8491452145EFF00F81AA874A949145E3
:103FA00021453E94EFF02F802A9481C8B2402285AB
:103FB0002244924402494101828091451305C00286
:103FC000EFE07FFE2A94B2402285224492440249C7
:103FD00041018280B77703809387C7231CC14CC1FE
:103FE00091C191050CC510C9230A0500232C0500B9
:103FF000232E0500232005028280B7770380938754
:10400000C7231CC150C10CC514C9230A0500232CA9
:104010000500232E0500232005028280411122C4C1
:104020004AC02A842E89C14526C206C6B2844A9453
:10403000EFE0DFF5B305A440EFD0302F29C1A1C0D8
:104040001C41114693054002DC5B2A848297B240F2
:104050009306440040C13777038022441307C723E7
:1040600004C918C114C5230A0500232C0500232EFA
:104070000500232005029244024941018280EFA0FD
:104080006147411122C426C22A84AE84C14506C6B6
:104090002694EFE0BFEFB305A440EFD010291C41F8
:1040A00011469305C002DC5B2A848297AA84EFC084
:1040B00040699DCC1C4022851146DC5B9305400283
:1040C0008297B2409306440040C137770380224470
:1040D0001307C72304C918C114C5230A0500232CDC
:1040E0000500232E05002320050292444101828011
:1040F000EFA04140411106C622C426C229C1AE84A8
:104100009DCD1C41114693054002DC5B2A848297B9
:10411000B2409306440040C137770380224413071E
:10412000C72304C918C114C5230A0500232C0500A0
:10413000232E050023200502924441018280EFA036
:10414000613B797122D406D626D24AD04ECE2A843B
:1041500069C1B2845DCE630EC50A2E852295C14524
:10416000B689EFE0BFE333068540A2850A85EFD02C
:10417000302F1146C1450A85EFD0902A3247A2461A
:104180001246B79703802A849387875D58C414C466
:104190000A851CC050C0EFD090271C4011469305E3
:1041A00000029C47228582972A89C1452685EFE037
:1041B000FFDD33863401AA85098E4A85EFD0404D54
:1041C0001C4011469305C0029C4722858297AA8411
:1041D000EFC020571C40228511469C4793054002A2
:1041E0008297B25000C53777038022541307C72344
:1041F0002322250104C918C1230A0500232C050028
:10420000232E05002320050292540259F2494561EC
:104210008280EFA0212E2A840A85EFD0501F2285AC
:10422000EF004357411106C622C426C24AC0F9C551
:10423000834745012A84C5E70845054711461C41C7
:104240002E89230AE4009C47A1458297AA8748400B
:10425000104437770380144113078728930500091A
:10426000944ED0C398C35CC4232C0400114682969C
:1042700048CC31CD832709002147B307F94083D6C5
:104280000700637FD70683D78700BDCB0844CA9752
:10429000944318411146B6978C431C478E0582976C
:1042A000AA8431C51C402A86CA85DC57228582979C
:1042B00019ED1C402686CA859C572285829701E904
:1042C000B240224402492685924441018280B24094
:1042D00022448144024926859244410182803775F7
:1042E00003801305C50EEFB070538144D1BF3775FD
:1042F000038013054514EFB07052D9B7EFA0811FAA
:1043000083270000029083474501011106CE22CC8D
:1043100026CA4AC84EC6B9CF1841B684B7370080FE
:1043200034439387672F2E892A840C4DB289639C6E
:10433000F602B9CC95CD084511468A051C419C472B
:1043400082971840AA8688C05C5F4E86CA852285FF
:10435000829719E1230A0400F2406244D2444249A0
:10436000B249056182802E86A685829675F5184031
:104370009440D9BF3775038013054517EFB0104A35
:10438000F2406244D2444249B24905450561828007
:10439000EFA04116011122CC2A84484D4EC6AE89A9
:1043A000914526CA4AC8B68406CE3289EFE01FBEC0
:1043B000144C2A87A5C693981600B6988A08AA981E
:1043C00001485C433107850793B717003E98E39A8D
:1043D000E8FEAD47468763E40703FD572320370116
:1043E0005CC32324270194C01C4CF240D2448507AF
:1043F0001CCC62444249B24901450561828037754F
:1044000003801305051CB145EFB05041F2406244F2
:10441000D2444249B249054505618280814675BF53
:104420001C41411122C4D84BB737008026C206C6B2
:10443000938787262A84AE84631CF70448411C4175
:10444000DC4B829711C5B2402244924441018280E4
:10445000484C9145EFE09FB3184CAA8705CF13163F
:1044600017003A960A063295FD56D8436313D700D3
:10447000C4C3B107E39BA7FE1306060948404C4C92
:1044800022441C41B2409244DC4F91464101828754
:1044900002974DBF13060009D5B7411122C42A84E3
:1044A000484106C61C41DC5782971C442A84984325
:1044B0003E855C478297B24022952244410182802A
:1044C000411122C42A84484106C6232C04001C4101
:1044D0001146930500099C4F829748CCB240224474
:1044E0001335150041018280484D91456FE01FAAA8
:1044F0004845828005458280014582801971E2CC61
:1045000086DEA2DCA6DACAD8CED6D2D4D6D2DAD00B
:10451000DECEE6CAEAC8EEC6834706002A8C63846C
:104520000758938CF5FF6350905937170880832AFA
:1045300047D1377D0380370A80003289AE89B68D36
:104540000144130D4D2E7D1A377B0380B77B03800A
:1045500013075002A285B3048C0013061900638070
:10456000E7042380F400050483471900B3048C009A
:10457000328999C3E34E94FD050423800400F6506C
:1045800022856654D6544659B659265A965A065B21
:10459000F64B664CD64C464DB64D0961828083473A
:1045A0001900638FE7421387D7F91377F70FD546C2
:1045B00063E6E6000A076A9718430287328955BF07
:1045C00033878C40A5469307140063D5E64E130746
:1045D00000032380E400E297130780070904238087
:1045E000E700B3068C0003A70D00B687910DA54820
:1045F0003D4819A0B2872E871375F70093057505FE
:1046000063E4A800930505032380B7001386170011
:1046100093554700E360E8FE23000600368763FEFB
:10462000F60003C5070083450700FD170507A30F24
:10463000A7FEA380B700E366F7FE158E329483478A
:104640002900B3048C0009092DB7B3878C40294792
:10465000635FF74203A70D00A686910DA945254883
:104660003376B702B68785063A8513060603A38F0D
:10467000C6FE3357B702E365A8FE238006002687EF
:1046800063FEF40083C5070003460700FD17050716
:10469000A30FB7FEA380C700E366F7FE858E3694AE
:1046A00083472900B3048C000909E1B503A50D0077
:1046B000910D635994031386E9FF018E93571600F9
:1046C0001306140026873E9639A02300F700050440
:1046D00005076300C432B307B440AA9783C7070035
:1046E000BA84E5F783472900090961B533858C4011
:1046F000EFD0027AD685EFC07265634A05389D0D0A
:1047000093FD8DFF83A54D0003A50D00A10DEFD0F6
:10471000B243AA8711462C0068003EC4EFA0516D39
:10472000324726839307E002135877011378F80F76
:10473000130618F8B3764701635807009307D002B1
:104740002380F400138314002300030013070008E0
:104750006307E62A930710039388F40213072300E4
:104760002300F3009307E002A300F30023010300FA
:10477000338EE8409D4763DDC72593D5660193D707
:104780005601AE97B69793D54601AE9793D53601AD
:10479000AE9793D52601AE9793D51601AE9793D5D4
:1047A000E600AE9793D5D600AE9793D5B600AE97F8
:1047B00093D5860013D54600AE97AA9793050003BC
:1047C0008D820808A301B3002302B300A302B30043
:1047D0002303B300A303B3002304B300B697AA8551
:1047E000294FA542B3F6E703AE8E8505BE8F9386AB
:1047F0000603A38FD5FEB3D7E703E3E5F2FF2380DB
:104800000500AA87637ED50183C50E0083C6070015
:10481000FD1E8507A38FB7FEA380DE00E3E6D7FF6A
:10482000834601017D1E3A9E638706266375C7276E
:10483000BA87AA8519A06309FE0085052380D700E1
:1048400083C605008507E5FA13030003B386E74036
:104850009D4523806700338ED5406396D520930510
:10486000000331A09386F7FF6377D700B68783C62E
:10487000F7FFE389B6FE1383F8FF63F96722130796
:10488000A0022380E700850793051B2E93062003D3
:10489000630DF30085052380D70083C605001387C9
:1048A0001700DDC2BA87E317F3FE1383F8FF3E87D4
:1048B00045A0B3878C402947635BF71C03A60D0016
:1048C0002687910D635A06009307D00213871400C0
:1048D0002380F4003306C040BA862945A548B37545
:1048E000A602B6878506328893850503A38FB6FE98
:1048F0003356A602E3E508FF23800600E370F7DAEB
:1049000083C5070003460700FD170507A30FB7FE81
:10491000A380C700E366F7FE858E3694834729009F
:10492000B3048C000909B1B1B3878C400504E35688
:10493000F0C483A70D000909910D2380F40083477B
:104940000900B3048C0035B1B388E8403383170104
:1049500023000700AA86635C06009307D0021306B3
:10496000F0072308F100330606419306110136884B
:10497000A948A54EB3751603C2870508328E9385E4
:104980000503A30FB8FE33561603E3E5CEFF23005D
:10499000080063FEF60083C5070003C60600FD1786
:1049A0008506A38FB6FEA380C700E3E6F6FE834725
:1049B000010189CF6365670011A8630967000505D8
:1049C0002300F700834705000507E5FB23000700E8
:1049D000058F3A9483472900B3048C00090951BE1E
:1049E0002380F400050483472900B3048C000909DF
:1049F00049B683472900B3048C0009099DBE9A97E4
:104A00009DEA637DF30A13079004B77603802300C1
:104A1000E3009386962D130713001306E006E307C1
:104A2000F7FA85062300C70003C60600050765FAE6
:104A30002300070071BF6373F3081307E00423002A
:104A4000E3001386DB2D1307130093061006E30F14
:104A5000F7F605062300D700834606000507E5FAAA
:104A600023000700B5B7635FD004B386D740930E29
:104A7000000303C3F7FFFD17B385C701238065005B
:104A80002380D701E397F6FE93877600C9BB050420
:104A900023800400EDB493070003BA862301F300DA
:104AA000938776006DBBE2840544C1BC2380070078
:104AB0003E8779BD238004003E84D1B41A87230049
:104AC000070039B7BE869387760051BB397113034F
:104AD000C10236D69A8606CE3AD83EDA42DC46DEA7
:104AE0001AC6293CF2402161828082801C45A14681
:104AF00098433387E7400356070063FAC60003571D
:104B0000870011C7BA979843BA9788438280832752
:104B100000000290930500026F10C1365C4D797160
:104B20005EC69C4362C406D622D426D24AD04ECE5C
:104B300052CC56CA5AC8832B45012A8CADC3014BAF
:104B4000930A000203258C00232A6C01DA85EFB05A
:104B50006074AA891DCD131A3B000149814429A81C
:104B60004C489C43850489C703254C00829708C89C
:104B70001309C902638F990083270C010146D2975C
:104B800080434A941C54D84BE31C57FD0C4C504CAA
:104B9000C9BF8327CC01050B9C43E365FBFAB250E8
:104BA0002254232A7C0192540259F249624AD24A81
:104BB000424BB24B224C0145456182805C4D011154
:104BC0004AC89C4356C206CE22CC26CA4EC652C400
:104BD0005AC0832A45012A89B9C7014A0325890099
:104BE000232A4901D285EFB0E06AAA891DC5131BAB
:104BF0003A0081440144832709010504DA979C4364
:104C0000A69798579384C40219C7584309C78C4B79
:104C1000032549000297E39089FE8327C901050A0D
:104C20009C43E36DFAFAF2406244232A5901D244CC
:104C30004249B249224A924A024B014505618280AB
:104C40005C4D797152CC9C4356CA5AC806D622D4C0
:104C500026D24AD04ECE5EC6832A45012A8B014A0F
:104C6000A1CF03258B00232A4B01D285EFB08062B0
:104C70002A8993193A00814401440DC983270B0105
:104C8000CE978C43A69583AB85029384C40283A7F9
:104C90008B0089C703254B0082971DE10325CB00BC
:104CA000A2850504EFF0CFF7E31A89FC8327CB0137
:104CB000050A9C43E367FAFA232A5B0101451DA814
:104CC00083A74B01130700026386E7041307100A4A
:104CD000636DF702378703808A07130707C9BA97FE
:104CE0008C43AA86377503801305C5332286EFB03F
:104CF000E0320545B250225492540259F249624AB8
:104D0000D24A424BB24B45618280B795038093856E
:104D1000456CC1BF83A58B01E9B75C4D5D71CAC00D
:104D200090435C4986C6A2C4A6C24EDE52DC56DA67
:104D30005AD85ED662D466D26AD06ECE3EC64CC910
:104D40002A8963FCC50E0845AE8BEFB0A0542A8CAF
:104D5000630D050EB7870380B79D0380938707C94E
:104D60008E0B814A014B930C0002938D4D6C3EC417
:104D7000054D85A01307100AEE856366F7002247EC
:104D80008A07BA978C43832749008149C05B11C4C5
:104D90001C4022859C478297AA898327CA00E1CFBD
:104DA00003254900A68582978327C900AA849843D2
:104DB0003E855C4B8297638CA403B1E811C41C4010
:104DC000CE852285DC478297050B938ACA02630E43
:104DD0006C0783270901DE978443D69403AA8402D3
:104DE00083274A01E39897F983258A0169BF8327BE
:104DF0004A0113070002639FE70483258A01377580
:104E0000038085465A861305853AEFB0202111C4E8
:104E10001C40CE852285DC478297B6402644064951
:104E2000F259625AD25A425BB25B225C925C025DDA
:104E3000F24D2685964461618280377503801305A3
:104E40004537EFB0A01D8544C9BFB2478144232A2E
:104E5000F900E1B71307100A6377F700B7950380ED
:104E60009385456C69BF378703808A07130707C995
:104E7000BA978C4369B7EF90E167AA8411C41C40CC
:104E8000CE852285DC4782972685EFF0B2101C453F
:104E9000A14698433387E7400358070063F6060BA3
:104EA0000357870055C3BA979843411106C6BA976E
:104EB000984363F8E504139725009107BA97984340
:104EC0009946BA9798433387E7400358070063FA37
:104ED00006070357670035C7BA979843BA979843B0
:104EE0006371E6040A061849B297D4438E05BA9551
:104EF000DC41B2401395160036950A053E954101F6
:104F00008280B77603803776038037750380938677
:104F100086B8130646B99305A00A130505C9EF9094
:104F2000E15EB7760380377603803775038093861A
:104F300086B81306C63D9305A00A130505C9EF9070
:104F4000E15C8327000002908327000002905C4D03
:104F50005D71CAC098434EDE66D26ECE86C6A2C4CC
:104F6000A6C252DC56DA5AD85ED662D46AD0AA8D6E
:104F70000149B94C994975C3138D4700931729000E
:104F80003E9D83270D00114C931439003E9D03264E
:104F90000D00814B254A3306CD4083560600B14AA9
:104FA0006372DC040354460015CC6A941C403E94A2
:104FB0001C4063FEFB0893972B0011043E941C4099
:104FC0003E941C40B307F44003D7070063F9EC009C
:104FD00083D7E70089C7A29783C7070099E7850BA6
:104FE000E362DCFC83270000029083A70D01139786
:104FF0001B005E97A697C843131B27006C005A95A9
:10500000EFE00F892DE11C40B307F44083D6070081
:1050100063FDD90203D667000DCA22960306060077
:1050200081456301460783A70D013246850BA6978C
:10503000DC43338767010843EFA0417F03260D005F
:105040003306CD408356060061BF8145E9BF83A783
:10505000CD0105099843E361E9F203A58D0101C57E
:10506000EFC0E0190145B640264496440649F2597E
:10507000625AD25A425BB25B225C925C025DF24D94
:1050800061618280E3F0DAF683D7C700A1DFA297DF
:1050900094432947B6979443B386D74003D6060076
:1050A000E372C7F483D6A600B6978DDE9443B69715
:1050B000944399C2CC4385BFB7760380377603808B
:1050C00037750380938686B8130646019305A00AB8
:1050D000130505C9EF9081431C45A14698433387CA
:1050E000E7400356070063F5C606035787002DC344
:1050F000BA979843BA97984363F7E50291078A05F0
:10510000AE9798439946BA9798433387E74003563A
:10511000070063FCC6020357670005CBBA979843A4
:10512000BA9788438280B7760380377603803775D5
:1051300003804111938686B8130646B99305A00AE9
:10514000130505C906C6EF90613C83270000029055
:105150008327000002901C45A14698433387E7400F
:105160000356070063F4C6060357870025C3BA97A2
:105170009843BA97984363F6E50291078A05AE977C
:105180009843BA9798433387E7400356070063FC78
:10519000C6020357870005CBBA979843BA9788434E
:1051A0008280B7760380377603803775038041119C
:1051B000938686B8130646B99305A00A130505C958
:1051C00006C6EF90A13483270000029083270000D9
:1051D00002901C45A14698433387E74003580700D7
:1051E00063F5060B035787004DC3BA9798434111E7
:1051F00006C6BA97984363F7E5041397250091070D
:10520000BA979843BA9798433387E7400358070003
:1052100063FA06070357870035C7BA979843BA97CA
:1052200098436371E6040A061849B297D4438E0581
:10523000BA95DC41B2401395160036950A053E95A5
:1052400041018280B776038037760380377503800B
:10525000938686B8130646B99305A00A130505C9B7
:10526000EF90C12AB77603803776038037750380C5
:10527000938686B81306C63D9305A00A130505C993
:10528000EF90C1288327000002908327000002903E
:10529000B7870380938707C61CC14CC110C554C58E
:1052A00023280500232A050018CD0DC21C42A14663
:1052B0000147B307F64083D5070063F8B60083D7EC
:1052C000870081C73E961842329758CD82800CC91C
:1052D000828041114AC01309C50922C426C22A840A
:1052E000AE844A85814506C6EFD0DFC9B737008056
:1052F000938747F65CCCB76700809387E7DE3CCCAA
:10530000B7670080938767DF7CCCB767008093879F
:10531000E7DD3CC4B76700809387E7DF1CD8B76739
:105320000080938767DD3CC0B7670080938767DEA6
:10533000232A240144DCB2407CC4232604082244EE
:1053400092440249410182801C4121469443B38624
:10535000D74003D806006374060983D68600C1C20D
:10536000B6979443411106C6B6979443B1C6D44349
:1053700091071946B6979443B386D74003D80600E1
:10538000637C060583D66600A1CAB69794432E8730
:10539000B697904363FAC500832545090A072E97FF
:1053A0000843B24041018280378503801305C5F16F
:1053B000EFA0D0460145F5B7B77603803776038076
:1053C00037750380938686B8130646B99305A00AFD
:1053D000130505C9EF9081138327000002908327EE
:1053E000000002901C4121469443B386D74003D865
:1053F00006006373060983D68600BDCEB697944334
:10540000411106C6B6979443A9C6D4439107B697EF
:105410009443B386D74003D80600637C060583D641
:105420008600A1CAB69794432E87B697904363FA35
:10543000C500832585090A072E970843B24041011C
:10544000828037850380130585F4EFA0303D014548
:10545000F5B7B77603803776038037750380938678
:1054600086B8130646B99305A00A130505C9EF903F
:10547000E1098327000002908327000002901305B2
:10548000C5096FD0DFAA011106CE22CC26CA4AC8B0
:105490004EC652C456C25AC0AE84130B8500B285A4
:1054A0002A841306C00504C14CC181455A85368A39
:1054B000BE89BA8A4289EFA06137D6855285EFE06E
:1054C0005FBCAA86130A84062686DA85528574D0C4
:1054D0004E87EFF0FFDB10406C509304C409854702
:1054E000230404082326F40823280408232A040894
:1054F000232C0408D2862685EFD01FA0814526855F
:10550000EFD05FA8B7370080938747F65CCCB767CA
:1055100000809387E7DE3CCCB7670080938767DF26
:105520007CCCB76700809387E7DD3CC4B767008019
:105530009387E7DF1CD8B7670080938767DD3CC09F
:10554000B7670080938767DE44C8232E2403F240A8
:105550007CC4232604086244D2444249B249224A08
:10556000924A024B056182802A8429A02A842685DA
:10557000EFD0AFFF5285EFF04FD72285EFF08221B9
:10558000011122CC2A8406CE26CA4AC84EC652C46D
:1055900056C22E893285130884001306C005814542
:1055A00048C0232024014285B684BE893A8A930AE2
:1055B0008406EFA0A127A686AA854A86568564D0D0
:1055C0005287EFF0FFCC10406C509304C40985471C
:1055D000230404082326F40823280408232A0408A3
:1055E000232C0408D6862685EFD01F918145268579
:1055F000EFD05F99B7370080938747F65CCCB767E9
:1056000000809387E7DE3CCCB7670080938767DF35
:105610007CCCB76700809387E7DD3CC4B767008028
:105620009387E7DF1CD8B7670080938767DD3CC0AE
:10563000B7670080938767DE44C8232E3403F240A7
:105640007CC4232604086244D2444249B249224A17
:10565000924A056182802A8429A02A842685EFD077
:10566000CFF05685EFF06FC82285EFF0A2123C5DB7
:10567000411122C426C206C62A849304850681C726
:105680002685EFF0AFD31305C409EFD00FEE224407
:10569000B2402685924441016FF02FC51D719307DA
:1056A00085066AD886CE2A8DA2CCA6CACAC8CEC61E
:1056B000D2C4D6C2DAC05EDE62DC66DA6ED63EC620
:1056C00002C23E85EFF08FC212466355A630832991
:1056D0000D00A14703A709003387E940835607005F
:1056E00063FED71483578700638A0714CE978043DD
:1056F0003E941C406370F62C9317260011043E94D0
:10570000144083576700369463840724BE9983A7A7
:105710000900BE9903254D06EFE09FDDAA8722858B
:105720003EC4EFA0B0342A8B630F051C924781441E
:105730000149139A3700938749003EC01C40A9468F
:10574000B307F44003D7070063FAE60E83D7A70038
:10575000F5C7A2979843BA9798436378E92A131537
:1057600029009107AA978843814DB38CA70003A70E
:105770000C0091473387EC400356070063F8C700DD
:105780000357470001C76697832D070003A7090049
:1057900063F5ED1C03268D07824713972D00529663
:1057A0003E97832A0700104283254D00BA9A269619
:1057B000130686025685EFB0006EAA8B6318051A91
:1057C00003278D0752971843269710576302061C2C
:1057D00003A70C00832A460102CE3387EC409307CF
:1057E0000002835607006385FA12B94763FBD704AA
:1057F0000357E70039C79307100A63E65715B787C1
:1058000003808A0A938707C9BE9A83A50A00378551
:1058100003801305050FEFA07000854BF64066442A
:10582000D6444649B649264A964A064B625CD25C43
:10583000425DB25D5E85F25B256182808327000058
:10584000029003254D00D68518411847029763053D
:10585000051822467408E685EFA03032AA8B5DFD5C
:1058600003A70C003387EC40835607009947814B10
:10587000814A014563ECD70AEFA0702903A70C0009
:10588000A1462A8C3387EC4083550700014563F914
:10589000B6000357870009C73385EC0018413A95D5
:1058A000EFA0F02603278D0783A60C00F24852973D
:1058B0001843B386DC4083D50600B30D970023A4BC
:1058C0000D0023A60D0023A80D0023A00D0223A286
:1058D0000D0223A08D0123A2AD0023AA1D0123AC3C
:1058E0005D0123AE7D015146637AB60003D54601C2
:1058F00011C566951C413E951C41A9E30509938499
:10590000C402E31D2BE39247324585073EC25DBBCF
:10591000B947E3FDD7F4835AE700638D0A02E69A9C
:1059200083A60A00B69A83AB0A00910A0357670060
:10593000014539D3669708433A953DBFEFA0301D26
:1059400023A4AD0065BFB79503809385456CC1B5B1
:105950008149C9B3814B814AD1BF37850380EE8528
:1059600013050507EFA0806B854B4DBD5685EFA055
:10597000FFA99307100A63F6A702B79503809385E2
:10598000456C378503801305C509EFA0206979B5FB
:1059900037850380EE851305C50CEFA02068854B85
:1059A000B5BD3787038093172500130707C9BA973A
:1059B0008C43C1BFB7760380377603803775038089
:1059C000938686B8130646B99305A00A130505C940
:1059D000EF80D133814B99B59307100A63E25703E7
:1059E0003787038093972A00130707C9BA978C4318
:1059F0003785038013058513EFA04062854B39BDC1
:105A0000B79503809385456CE5B7B77603803786F5
:105A1000038037750380938686B8130646F793058F
:105A2000A00A130505C9EF80712E411122C4130489
:105A30008506228506C6EFF06F9809C5B24022445C
:105A40004101828022852244B24041016FF02FD073
:105A5000797122D40C412A84685106D626D24AD0C4
:105A60004ECE52CC56CA5AC85EC662C4EFE08FFB17
:105A7000630A051613098406AA854A85EFF03F8557
:105A800022852939AA8411CDB25022540259F249F3
:105A9000624AD24A424BB24B224C2685925445610F
:105AA00082809309C40981454E85EFD0AFCD4A85E8
:105AB000EFF0CF86AA8469F985454E85EFD08FCC6B
:105AC0004A85EFF0EF97AA8461F189454E85EFD0C2
:105AD0006FCB305C0C40685093060409EFE0BF8246
