:0200000480007A
:0E0000001771070013010130C52001A0828096
:10001000130101FF1305400023261100EFE0016FDB
:10002000973705009387077A2320F500179601007C
:100030001306C6129735050093858577EF70117CFE
:10004000130101FE2326A10013058000232C81004B
:10005000232E1100232A9100EFE0416B8325C1007C
:1000600013040500EFE0912217F601001306C6986D
:1000700097550500938585F913050400EF701178F5
:100080009304050013050400EFE0C16D138504001F
:10009000EF501358130101FE2326A1001305800021
:1000A000232C8100232E1100232A9100EFE001660A
:1000B0008325C10013040500EFE0D12217F60100EB
:1000C0001306069797550500938545F6130504001A
:1000D000EF70D1729304050013050400EFE081680E
:1000E00013850400EF50D352B7B7038083C697201F
:1000F000130101DD03C6872003C7A7202324812223
:1001000003C4B720A206D18E4207558F6204598CD2
:10011000938787203E941C4023261122232291227C
:10012000B307F44083D6070023202123232E312157
:100130003703F0FF11471A91637DD71E83D747001D
:100140006389071EA2978C438D476395F51EB737C9
:10015000058093870755080CBEC3B70910002324F8
:10016000011C23260120EF7060303709F0FF9387D0
:1001700009218A97930449EBBE94B7360180938690
:10018000663B100C81452685EF60D158080CEFA026
:100190007016B746018093860694100C8D4526850F
:1001A000EF605157080CEFF06028B7460180938646
:1001B0008672100CCD452685EF60D155080CEF00F6
:1001C0006166B73601809386466F100C9305500226
:1001D0002685EF603154080CEF60103BB746018074
:1001E00093860673100CD9452685EF60B152080C32
:1001F000EFE00014B746018093868654100C8545C5
:100200002685EF603151080CEFC0905BB746018046
:10021000938606DE100CA5452685EF60B14F080CCD
:10022000EFE00017B7560180938626AD100CE54528
:100230002685EF60314E938709218A971309C9DF1C
:100240003E994A850148814737071000140C2686DD
:10025000A285EF5080264A85EF50D00281454A851D
:10026000EF50C011AA84630505101C453735058081
:10027000130505438C43EF10413D9C449843635262
:10028000E00201443739058013172400BA97CC43A4
:1002900013058944EF10613B9C4405049843E345F2
:1002A000E4FE984085476300F70CB73505809385D9
:1002B000853B373505801305C544EF1001393735C7
:1002C0000580854513054546EF102138984C814738
:1002D00009CBD8403E9723000700984C8507E3EAF6
:1002E000E7FE37350580854513050549EF10E135F3
:1002F000B70710003705F0FF938707211305C5DF07
:100300008A973E95EF50902C3DC9373505801305EF
:10031000854AEF1081337D54B70710003705F0FF91
:10032000938707218A971305C5DF3E95EF50603705
:1003300011A88145373505800D461305053CEF10A2
:10034000C1307D54370310001A918320C1222285C9
:100350008324412203248122032901228329C121EC
:10036000130101238280B73505809385053B91B742
:100370003735058013058540EF10212D69BFB7077C
:1003800010003705F0FF938707211305C5DF8A9713
:1003900081453E95EF50400837350580854513056A
:1003A000854BEF10812A373505801305454DEF1039
:1003B000C129014495B7B70710002A849387072104
:1003C0003705F0FF8A971305C5DF3E95EF50602D86
:1003D0002285EF50F3230000130101FF2324810045
:1003E0003714000013040494232291001305040021
:1003F00097740500938404E42326110023A6840047
:10040000EFF0117423A4A40063140502977705008C
:1004100023A807E29777050023A007E28320C10005
:10042000032481008324410013010101678000003F
:1004300023A2A40023208500232205006FF01FFEC5
:1004400021C11C41A946B307F54003D7070063F457
:10045000E60203D7A700814619C32A97144303D79E
:100460004700814701C73A95830705003E8563D859
:10047000D70036858280914663E8E6000145828098
:10048000411106C6EFF0C16E8146D1BF09C91C51AA
:10049000030505006343F50082803E85828041119B
:1004A00006C6EFF0E16C411122C406C62A848DC154
:1004B0008C4599479041910510C163C2C7020A0655
:1004C0001105EF00A27AB2402285224441018280C8
:1004D000B240232005002285224441018280EFF0B2
:1004E0002169AE87D0438C41411106C60D8E9357CA
:1004F000264022C41CC1E14763CBC7002A841105F2
:10050000EF00C276B2402285224441018280EFF0A2
:100510002166011122CC26CA3684B2848146014666
:100520004AC84EC606CEAA892E89EFD0727001ED58
:1005300023A00400F240232004006244D244424934
:10054000B2490561828022864E85CA85EFE051312D
:10055000B777058003A687A283A6C7A2EFE0821221
:10056000EFE0D143EFF002006340B00495C93707D4
:1005700000801C406300E502055763D5E700232097
:1005800004000145F240624488C04249D244B24965
:1005900005618280F5F185071CC037050040E9BF81
:1005A000B7070080E3F5A7FCEFF0815C0111B77796
:1005B000058022CC4EC63684B28983A647A303A603
:1005C00007A326CA4AC806CE2A89AE84EFD0126F86
:1005D0006354A0064A85A68501468146EFD0526540
:1005E00001ED23A0090023200400F2406244D2441C
:1005F0004249B2490561828022864A85A685EFE09C
:100600003126B777058003A687A283A6C7A2EFE0AD
:100610006207EFE0B138EFE0F274634FB000A1C1C0
:10062000370700801C406306E502055763C8E700F2
:1006300023A0A900E3DB07FAEFF081532320040095
:10064000F240624423A00900D2444249B249056104
:100650008280E1FD85071CC037050040F9B7B70768
:100660000080E3FFA7FAC9BF7971B77705804AD048
:100670004ECE3689B28983A647A303A607A322D408
:1006800026D206D6AA842E84EFD092716356050630
:100690002685A28501468146EFD05262635EA004A2
:1006A00070002685A285EFE0B11BB777058003A611
:1006B00087A283A6C7A2EFD0F27CEFE0312EEFE055
:1006C000726A634BB002A9C137070080B247630763
:1006D000E502055763DEE70023A009008147B25019
:1006E00022542320F90092540259F2494561828034
:1006F00023A0A900E355F0FEEFF08147F9F9850743
:100700003EC637050040F1B7B7070080E3FEA7FA01
:10071000E5B7B707008093C7F7FF33F7B700498FF6
:100720002E8825C313D745011377F77F9306F07FF3
:10073000630CD702930627C0AA05935765013707B4
:1007400000402A05CD8F14C29305F7FF2981B70613
:100750002000ED8F63ECA6023385E700B337F50088
:10076000BE85634D08028280B2053707C0FF798DD0
:10077000B1811CC2C98D9DE9634D08027D55BE85BE
:1007800082802320060001458145828013051700E1
:100790003E95B337F500BE85E35708FCB337A0009C
:1007A000B305B0409D8D3305A04082800145814551
:1007B00082800145B70500808280B706008093C61D
:1007C000F6FFB367B5006307D60C01488148C1C77F
:1007D00093D6F541358D3308D540B3C7B6003335D0
:1007E0000501958F7D16898F1357F6414285634F1A
:1007F000F006ADC7B70800401358F50186079336D9
:100800001600B367F8000605158F7D166345F000E6
:10081000E5F7E36315FFB70600C0AA9633B5A60057
:10082000FD17AA976354E00A1306F03F01477D5570
:100830006342A708630CA70613D7A6001306F63F6A
:10084000DA07D98F520637070080F98DD18FDA0683
:10085000CD8F3688BE884285C6858280B706004027
:10086000E36AD8F8B7060080E3F706FB3703008099
:10087000930616009398F70133B8C6000581858763
:1008800033E5A80036864297E344F0FEC9F7E361FA
:10089000A3FE51B79DC36351B004B777058003A889
:1008A00087A483A8C7A44285C6858280130710C089
:1008B000E374E6F8130610C041B7B777058003A8C4
:1008C00007A483A847A44285C68582802DF313051B
:1008D000F03FE37EC5F489BF91E161F1B777058010
:1008E00003A887A383A8C7A3BDB7B707008093C792
:1008F000F7FF33F7B700498FAE8EB68833FED700C7
:100900006DC713D745011377F77F1308F07F630A8C
:10091000070BAA0593576501370300402A05CD8FC1
:100920001308F3FF2981B7052000B3F7070163F32C
:10093000A50005033E93B337F3003E8863DA0E004B
:10094000B3356000B307F0403388B74033036040ED
:10095000B367CE0001458145C1CB130527C013D72E
:1009600046011377F77F9307F07F6305F704AA0624
:1009700093576601B70500402A06D58F138EF5FF01
:100980002982B7062000B3F7C70163E9C60633869C
:10099000B700B337F60063D90800B336C000B30719
:1009A000F040958F3306C040B705008093C6F5FF31
:1009B000631CD504B777058003A507A483A547A4C6
:1009C0008280B2053707C0FF798DB181C98DFDE105
:1009D00063CD0E127D533E88B367CE00E1DF37074B
:1009E00000801345F7FFA5BF8280B367CE000145A5
:1009F0008145FDDB01450143014895B7138615008C
:100A00003E96B337F60041BF3308C802930627C0AD
:100A1000AA9693C5E5FFB387670233366602C2978D
:100A2000B29713D8F74133E707016388B60879CB4B
:100A3000B347F80033860741B3B7C7003307004117
:100A40001D8F93D5F641B2876343E0025DC7B708B7
:100A5000004013D5F701060713B61600498F860725
:100A6000918DFD166345E0006DF7E3E417FF37064F
:100A700000C03E96B337F6007D17BA976352B006B2
:100A80009306F03F81457D5763C9E5046383E50420
:100A90001357A6009386F63FDA07D206D98F370799
:100AA00000803378E800D58F5A06B3E70701328516
:100AB000BE8582800143014805B7E30D07EE631749
:100AC00008028DC7B777058003A587A483A5C7A4AF
:100AD0008280130710C0E3FDE6FA930610C04DBFF5
:100AE000DDF11307F03FE370D7FA59BFB777058000
:100AF00003A587A383A5C7A3828037060040E3E848
:100B0000C7F4B5B7014581458280014337080080AD
:100B1000E1B5B707008093C7F7FF33F7B700498FF8
:100B2000AE8EB68833F8D7006DCF13DE4501137E45
:100B3000FE7F1307F07F630FEE08AA059357650148
:100B4000370300402A05CD8F1307F3FF2981B7052E
:100B50002000130E2EC0F98F63F3A50005033E930A
:100B6000B337F3003E8763CD0E0C3368C8006307CC
:100B7000080E93D5460193F5F57F9307F07F054561
:100B80006389F5041395A60093576601B7060040E4
:100B90002A06C98F1388F6FF29823705200093851E
:100BA00025C0B3F707016373C5008506BE96B3B7CA
:100BB000F60063D908003336D000B307F040918FB8
:100BC000B306D040370600801346F6FF054563188C
:100BD000CE028280B2053707C0FF798DB181C98D01
:100BE000A9ED63CC0E087D533E873368C8000545E8
:100BF000E30108FE370E0080134EFEFF9DBF3366F3
:100C0000E3000DCA6355070033E6F60009CA7D55B7
:100C1000E341BEFC0545E3CEC5FB6355F7047D55B6
:100C200082803368C8000145E30508FA014E01439C
:100C3000014781B7E3DD07FC82800143014775B7B7
:100C4000B3356000B307F0403368C8003387B7405E
:100C5000330360407D55E31E08F082808145814664
:100C6000814775B76394E700E36BD3FA0545E3C2A8
:100C7000E7F66308F70001458280014337070080EB
:100C8000ADB7E3FA66FE828079715AC82A8B3705C0
:100C900000803355E50006D622D426D24AD04ECE67
:100CA00052CCBE8956CA5EC62E8AB68AC284B28B20
:100CB000EFE0D2002A892E84D6865E86D2855A85B8
:100CC000EFD0521C2A86AE864A85A285EFD0921BB1
:100CD000B777058003A947A503AA07A5AA8ACA86EC
:100CE00052862E84EFD0827D6344A004B7770580BE
:100CF00003A607A383A647A35685A285EFD0027C4F
:100D0000635AA0065685A28501468146EFD04272FD
:100D100015E123A0090023A00400B25022549254EC
:100D20000259F249624AD24A424BB24B4561828033
:100D3000D28A4A8426865685A285EFE06132B7774B
:100D4000058003A687A283A6C7A2EFD0B213EFE067
:100D5000E144EFE03201634FB00095C937070080EE
:100D60009C406300E502055763C8E70023A0A90083
:100D7000E3D507FAEFE0D15F23A0040023A0090028
:100D800069BFF5F185079CC037050040E9BFB7078B
:100D90000080E3F5A7FCF9BF39715ECEAA8B370559
:100DA00000803355E50006DE22DC26DA4AD84ED62E
:100DB00052D456D23E8A5AD062CCAE8A368B428901
:100DC000C689328CEFE0826FAA842E84DA8662862E
:100DD000D6855E85EFD0120B2A86AE862685A28543
:100DE000EFD0520AB777058083AA47A503AB07A5C2
:100DF000AA84D6865A862E84EFD0426C634CA00C0F
:100E0000B77A058003A60AA383A64AA32685A285EE
:100E1000EFD0C26A635EA00A2685A285014681469C
:100E2000EFD0026155E9B777058023200A0083A43B
:100E300087A503A4C7A523200900014781473A8657
:100E40002685BE86A285EFC0727003A60AA383A67C
:100E50004AA3AA842E84EFD0A274635B050626857C
:100E6000A28501468146EFD062656353A0067000FB
:100E70002685A285EFE0C11EB777058003A687A26D
:100E800083A6C7A2EFD01200EFE04131EFE0826D00
:100E90006340B004E1C937070080B247630EE50A3A
:100EA000055763D3E70223A0090081470647F250A4
:100EB00062541CC3D2544259B259225A925A025B0C
:100EC000F24B624C2161828023A0A900E350F0FE26
:100ED000EFE0114ADA8456844A862685A285EFE03F
:100EE0002118B777058003A687A283A6C7A2EFD0F3
:100EF0006279EFE0A12AEFE0E266E34BB0FCA5C91E
:100F000037070080832709006301E504055763C79D
:100F1000E7022320AA002A84E3CC07FA37050080E1
:100F20003355F500EFE08259AA8422852E84EFE044
:100F3000E2582A87AE87B77A058011B723200900C7
:100F400023200A0001448147D1BFE9F1850723200E
:100F5000F900370500405DBFA1F585073EC637059E
:100F600000403DBFB7070080E3F7A7F295B7B7078A
:100F70000080E3F7A7F8A9BF011126CA85444AC833
:100F80002A893395A4007D1522CC4EC6328406CE24
:100F9000AE89EFE0A25233062441930706FE2A8968
:100FA0002E8463CA0704B395F4000145EFE002699B
:100FB0002A86AE864A85A285EFD0C26C938709FE49
:100FC000AA842E8463CD07028545B395F5000145BB
:100FD000EFE0C2662A86AE862685A285EFC012574C
:100FE000EFD05169EFE08245F2406244D244424979
:100FF000B2490561828081453395C40045BF0545EE
:10100000814533153501E9B779714ECEAA8932850C
:1010100006D622D426D24AD0B6842E8952CC56CABD
:101020005AC8C28A3E8B5EC662C4BA8B328CEF202D
:10103000E34D2A842685EF20634DCE852A8A4A8592
:10104000EF1053742A89A2855285EF10B373AA85D5
:101050004A85EF102372AA8523A0AA002A894E850B
:10106000EF104371AA852285EF10D371AA89AA8552
:101070002285EF10332A6357A00413150C01418118
:10108000EF20C348AA84AA852285EF10B36FCA85D2
:10109000EF10D33EA68523A0AB005285EF10936ED0
:1010A00083A50A00EF10933DB25022542320AB00D9
:1010B00092540259F249624AD24A424BB24B224CF4
:1010C00045618280CE855285EF101330AA87139533
:1010D00004014181E3C607FA4E85EF206361EFE02A
:1010E000E10BEF20330EEF20E33B420503A90A009A
:1010F000418179B779715EC6AA8B37750580032562
:1011000085AC22D42E84DE8506D64AD04ECE52CC73
:1011100056CA5AC862C43E8B3689BA89B28A26D268
:10112000EF1043652A8C930500005A85EF10931E3B
:10113000014A6352A00683240900A2852685EF1088
:10114000731DD6856343A000A2842685EF10D327A4
:101150002A87A2855685634C0704EF10B362E285A7
:10116000EF10D331EF20C358EFE04103EF20930598
:10117000DE85EF10B330A285EF10031A050A23A015
:10118000A9005285EF208338DA85EF10F323110987
:101190009109E34205FAB250225492540259F2499D
:1011A000624AD24A424BB24B224C4561828026852C
:1011B000EF10535DE285EF10732CEF206353EFD0F7
:1011C000F17DEF203300DE85EF10532BA285EF1069
:1011D000A314050A23A0A9005285EF202333AA8572
:1011E0005A85EF10331311099109E346A0F465B74E
:1011F000411106C622C426C24AC0AE84EFE00116E1
:10120000B777058083A5C7ACEF1053272A84EF205A
:10121000234EEFD0B178EF20E37A2A89EF208321A3
:10122000CA8588C02285EF10F355B777058083A55E
:1012300007AD06050581EF103319B24022449244F0
:1012400002497D8141018280F1C57971B7770580BE
:1012500022D426D24AD04ECE52CC56CA5AC85EC6E6
:1012600062C403A987A283A9C7A206D66AC26EC0B8
:101270002E8AAA84B28A3684014C370B0080855BA3
:1012800019A823A00A0023200400050CA104910A38
:101290001104630D8A0503AD040083AD44000146CB
:1012A00081466A85EE85EFD0A21861DD22866A85C7
:1012B000EE85EFD0F15A4A86CE86EFD0A23CEFD031
:1012C000F16DEFE0222A634AB004B1C51C40630D02
:1012D000650363D5770123200400014523A0AA00FC
:1012E000050CA104910A1104E3178AFBB2502254A1
:1012F00092540259F249624AD24A424BB24B224CB2
:10130000124D824D45618280E9F585071CC0370585
:101310000040C1B78280E37BABFAEFE071059346F2
:10132000F6FFFD86F18E3308C0406353C0000148CC
:10133000B316D5003386D5023395D502638DB60634
:10134000634405043707004032973336C7002A96B6
:1013500006067D83B367E6007D47634E07071307E4
:1013600008FE0145635507000545331505017D1548
:101370009356154013D7F7017D8D36973325A70077
:10138000B3D707413E958280B70600C08506FD5859
:10139000B307D60033B7C700330615013A96135783
:1013A000F64106070583BA9733B7E7003297060779
:1013B000FD83D98F55B7B7060040814863560500B5
:1013C000B70600C08506FD583707008093C7F5FFB4
:1013D000E384E5F875BFB7860380378603803785D9
:1013E000038041119386069E1306069F930570168F
:1013F0001305C5A406C6EFE02179411106C6634175
:10140000060E9387F60113076002636BF70A2167E4
:101410003388E500C1676375F808B707FF7F634C41
:10142000F6047D1701463306A602B9473388D74034
:10143000930708FEB385E502B338E5022E9633051F
:10144000E502B29863C9070405463316F6008147E2
:101450003387A7003D45B306D540B337F7003305C2
:101460001601138606FE3E95634C0600B2403355C6
:10147000C540410182803A96135706417D8665B783
:10148000B240FD470605958FB317F5003355D700D9
:101490005D8D4101828085470146B39707014DBFAD
:1014A000B78603803786038037850380938606B32B
:1014B0001306C6A99305B002130545AEEFE0C16C53
:1014C000B78603803786038037850380938646B1CD
:1014D0001306C6A99305A002130545AEEFE0C16A45
:1014E000B78603803786038037850380938606A8F6
:1014F0001306C6A993059002130545AEEFE0C16837
:101500006351B00601118A0522CC26CA4EC606CE0A
:101510004AC82A84B284B309B5000329040093059C
:1015200000004A85EF10035F6340A00293070000AC
:101530009CC011049104E39289FEF2406244D244BB
:101540004249B2490561828023A02401110491041B
:10155000E39589FCF2406244D2444249B2490561B4
:1015600082808280635CB0060111B777058056C225
:1015700083AA87ACB777058052C403AA47AD8A0512
:1015800022CC4AC84EC606CE26CA2A843289B3095E
:10159000B5000440D6852685EF10C357AA87D285AB
:1015A00026856345F002EF10E3566342A002232034
:1015B000490111041109E31E34FDF2406244D24492
:1015C0004249B249224A924A05618280D684232048
:1015D000990011041109E39E89FAC5B7828063500E
:1015E000B0080111B777058052C403AA87AD8A05F8
:1015F00022CC4AC84EC606CE26CA2A843289B309EE
:10160000B5000440D2852685EF10C350AA87930504
:10161000000026856346F002EF10C34F6343A0022B
:10162000930700002320F90011041109E31B34FD86
:10163000F2406244D2444249B249224A0561828062
:10164000D2842320990011041109E39C89FAF24005
:101650006244D2444249B249224A05618280828072
:10166000635DB00241118A0522C426C24AC006C683
:101670002A84B2843309B50008409104110413256B
:101680000500EF10337923AEA4FEE31789FEB240C4
:1016900022449244024941018280828093D8F5011C
:1016A000AE98854793D8184063D5B702B2860147F4
:1016B000B307E50083870700890605071398C7016C
:1016C0001358C8419187238F06FFA38FF6FEE3418D
:1016D00017FF93F7150089CB4695830705002E96D3
:1016E000F207F187A30FF6FE82809C419443910795
:1016F00063410602635FD6000A063E960C4263CA47
:1017000005001C4589C79A053385B70082803C498E
:101710008287014582808C41411106C622C403A8FC
:101720000500B2872A87634A0602635806039317A7
:101730002600AE97CC43FD576380F50436841445EC
:1017400093976500B69781E63C498297AA87B24095
:101750001CC0224401454101828083284701B7858E
:1017600003803A85C2863E86938505B88298B2404A
:1017700022440545410182805C49B78503809385F9
:10178000C5BA8297B24022440545410182809C41FE
:101790009443634E0602635CD60291070A063E96A6
:1017A0000C4263C605021C4581CB139565003E952E
:1017B0008347D50289CF82803C49411106C6829772
:1017C00009C98347D50291C7B240410182800145D2
:1017D0008280B240014541018280DC4194439107FF
:1017E00063410602635FD6000A063E960C4263CA56
:1017F00005001C4589C79A053385B70082803C499E
:10180000828701458280CC41411106C622C403A8CB
:101810000500B2872A87634A0602635806039317B6
:101820002600AE97CC43FD576380F50436841445FB
:1018300093976500B69781E63C498297AA87B240A4
:101840001CC0224401454101828083284701B7859D
:1018500003803A85C2863E86938505B88298B24059
:1018600022440545410182805C49B7850380938508
:10187000C5BA8297B24022440545410182809C410D
:101880009443910763410602635FD6000A063E96C1
:101890000C4263CA05001C4589C79A053385B70009
:1018A00082803C49828701458280DC4594439107D0
:1018B00063410602635FD6000A063E960C4263CA85
:1018C00005001C4589C79A053385B70082803C49CD
:1018D000828701458280CC45411106C622C403A8F7
:1018E0000500B2872A87634A0602635806039317E6
:1018F0002600AE97CC43FD576380F504368414452B
:1019000093976500B69781E63C498297AA87B240D3
:101910001CC0224401454101828083284701B785CC
:1019200003803A85C2863E86938505B88298B24088
:1019300022440545410182805C49B7850380938537
:10194000C5BA8297B24022440545410182809C4538
:101950009443910763410602635FD6000A063E96F0
:101960000C4263CA05001C4589C79A053385B70038
:1019700082803C498287014582808C45411106C6A0
:1019800022C403A80500B2872A87634A0602635867
:10199000060393172600AE97CC43FD576380F504EA
:1019A0003684144593976500B69781E63C49829743
:1019B000AA87B2401CC0224401454101828083288D
:1019C0004701B78503803A85C2863E86938505B870
:1019D0008298B24022440545410182805C49B78526
:1019E00003809385C5BA8297B240224405454101E0
:1019F0008280797126D24ECE52CC56CA5AC806D6AB
:101A000022D44AD05EC683AAC500032BC600AA8989
:101A1000BA843E8AB5C256853684EF10734DAA8BC0
:101A20005A852E89EF10D34C2A86AE865E85CA85EC
:101A3000EFC052452A8948442E84EF10734B2A8602
:101A4000AE864A85A285EFD0A2202A89C844139485
:101A500015000580EF10D3492A86AE864A85A285F7
:101A6000EFC0C22EB777058003A607A683A647A6B8
:101A7000EFC01233634CA004DA855685EF100320C3
:101A8000930500002A84EF10E308634505062285CC
:101A9000EF101346AA87C8442E84BE84EF10534526
:101AA0002A86AE862685A285EFC0422A2320AA0078
:101AB0002322BA000145B250225492540259F249ED
:101AC000624AD24A424BB24B4561828083A74901A8
:101AD00037870380130707BE9306001437860380F9
:101AE000B78503804E85130646C0938505C382974C
:101AF0000545D1B73787038083A74901130787C4FA
:101B00009306D014E1BF01112E884AC84C462A8999
:101B10000325C80022CC26CA4EC606CE3684BA8912
:101B2000EF10C31593050000AA84EF00B37E634C49
:101B300005022685EF10D33BAA8448442E84EF107B
:101B4000333B2A86AE862685A285EFC02220F2404E
:101B5000624423A0A90023A2B900D2444249B24959
:101B600001450561828083274901378703803786D5
:101B70000380B78503804A85130787C49306D01472
:101B8000130646C0938505C38297F2406244D2444F
:101B90004249B2490545056182801C42797122D4CF
:101BA00026D24AD04ECE06D652CC56CA5AC85EC6A7
:101BB00062C466C20D48AA842E843689BA896380BD
:101BC000070F25476389E7061D476398E702216AE7
:101BD0007D1AE17A8547032BC600832B0601630734
:101BE000F4068D476301F40C89476309F41423203C
:101BF000590123A04901014515A05C49378703809D
:101C000037860380B7850380130747C693063019CC
:101C1000130646C0938505C382970545B2502254EA
:101C200092540259F249624AD24A424BB24B224C78
:101C3000924C456182808547032BC600832B0601A9
:101C4000130AF007930A00F8E31DF4F8DA85130588
:101C50000000EF003332EF10B329EFD02154EF1022
:101C60007356B777058083A5C7AD2A8BEF00936ABB
:101C700063440514B777058083A507AE5A85EF0046
:101C8000B374634BA0125A85EF10C37AAA9B63C842
:101C90005B152320790123A04901014541B7130AAF
:101CA000F00F814A05BFDA8513050000EF00932C81
:101CB000EF101324EFD0814EEF10D350377405800E
:101CC0008325C4AD2A8CEF00F3646348050AB77C12
:101CD000058083A50CAE6285EF00136F634FA008EB
:101CE0006285EF102375B307750163CE570F377701
:101CF0000580032587AD2320F900DA85EF009327BF
:101D0000EF10131FEFD08149EF10D34B8325C4ADE3
:101D10002A84EF0033606342050683A50CAE22855A
:101D2000EF00936A634BA0042285EF10A370AA9B77
:101D300063497A0B23A079010145CDB5B7770580BA
:101D400003A547ADDA8537740580EF00B322EF10A5
:101D5000331AEFD0A144EF10F3468325C4AD2A8C8B
:101D6000EF00535B634B0500B77C058083A50CAE89
:101D70006285EF0073656355A002DC4837870380F6
:101D800037860380B785038026851307C7C6930669
:101D9000B015130646C0938505C382970545BDBDA2
:101DA0006285EF102369B307750163C05705377764
:101DB0000580032587AC81B7DC48378703803786E9
:101DC0000380B785038026851307C7C69306B01521
:101DD000130646C0938505C38297228581B5D68BAD
:101DE0004DBDD28B81BFD68719B7D687C9B71971B8
:101DF000E2CC03AC0503A6DACED6D2D4DAD0DECE5E
:101E0000E6CAEAC8AE8986DEA2DCCAD8D6D2EEC659
:101E1000854536C63EC442C846CA0A4B9A4B2A4D2F
:101E2000BA4CCA442A8A630ABC0403234501B78713
:101E300003803787038037860380B78503806288F5
:101E40008548938747C9130707CB9306B00D130640
:101E500046C09385C5CC0293054CF6506654D654C3
:101E60004659B659265A965A065BF64BD64C464DFD
:101E7000B64D6285664C09618280832A06033289E9
:101E8000638A8A0303234501B7870380378703806A
:101E900037860380B785038085485688938747C96E
:101EA000130787CE9306D00D130646C09385C5CC85
:101EB000029365B73A84585A630907141C43638335
:101EC000071003A8070063570C0583A60900E51651
:101ED000F59A95C25C4937870380130747D3930669
:101EE000D00E37860380B7850380130646C09385DE
:101EF00005C382979DB714422546638DC60C49469B
:101F0000638AC60C378703805C49130707D793069B
:101F1000F00EC1BF03A5C900032CC4006353900693
:101F20003ECCEF10E37CAA8D62856ED42ED6EF10E6
:101F3000237CE2476A8FE68D2AD02ED2014D930C86
:101F4000C103130C8103C843110F3ECE7ACCEF10AE
:101F5000237A2256B256910D050DEFC0A272025699
:101F60009256EFB0B25EE6866286EFE08FDAE25616
:101F7000624FF247232EDFFEF25623AEDDFEE3442E
:101F80009DFC83A709000D476387E71225476386F9
:101F9000E7001D47014CE392E7ECA2472286665416
:101FA000F650D6544659B659965A664CD64C464DBC
:101FB000B64D8C435E87DA86F64B065B5285265A11
:101FC0000961E1BE378703805C49130787D1930617
:101FD000900E01BF6383040503234A01B787038082
:101FE00037870380A6889387C7DA1307C7DB930672
:101FF000100F37860380B7850380130646C093858C
:10200000C5CC52850293568C89BD378703805C49C5
:10201000130747D09306800EE9B5144703278900BC
:102020008A0636978328470063801403B7870380A6
:102030003787038003234A012688938707DE130727
:10204000C7DA9306200F75B703A5C90091073ECEE6
:102050006ACCEF10E369AA8D48446ED02ED2EF10FF
:102060002369624FF247E68D2AD42ED6014D930C98
:10207000C103130C8103884391077ACE3ECCEF1045
:10208000236702569256050D910DEFC0A25F2256AE
:10209000B256EFB0B24BE6866286EFE08FC7724F62
:1020A000E256E247110F232EDFFEF25623AEDDFE8D
:1020B000E3439DFCF9B5B24483ACC900032DC900CC
:1020C000B5C06685EF10C362AA8D6A852E8CEF10AD
:1020D00023622A86AE866E85E285EFC0A25A2A8CDC
:1020E000C8442E89EF10C3602A86AE866285CA85F1
:1020F000EFC012362A8C4844139915001359190061
:10210000EF10035F2A86AE866285CA85EFB012445F
:10211000B777058003A607A683A647A6EFC0424867
:10212000634DA004EA856685EF00533593050000F2
:102130002A89EF00331E634605064A85EF10435B8C
:10214000AA8A48442E89EF10A35A2A86AE8656855D
:10215000CA85EFB0B23F42467418EFE08FBB7257AA
:10216000524683A709003307E040A54618C2E3861C
:10217000D7E20D47E383E7E229BD83274A0137878A
:102180000380130707BE9306001437860380B785C4
:102190000380130646C0938505C352858297568CEB
:1021A0006DB93787038083274A01130787C49306D5
:1021B000D014E1BF5971A2D48059A6D2CAD0DEC6CC
:1021C000EAC06EDEAE8486D6CECED2CCD6CADAC80F
:1021D000E2C4E6C2854542C046C2C65BD65EE65D45
:1021E000765D2A89630AB40403234501B787038017
:1021F0003787038037860380B78503802288854828
:10220000938747C9130707CB9306B00D130646C043
:102210009385C5CC02930544B65022852654965426
:102220000659F649664AD64A464BB64B264C964C5A
:10223000064DF25D65618280032C0603B28963114D
:102240008C04368F545A3E8A3A8B9C4283AC0700EA
:102250006350940798406517759B6307070E5C49A8
:1022600037870380130747D39306D00E3786038042
:10227000B7850380130646C0938505C3829769BF5F
:1022800003234501B78703803787038037860380A0
:10229000B785038085486288938747C9130787CE2F
:1022A0009306D00D130646C09385C5CC0293ADB7F7
:1022B000C044832AC70063998C05C84376C67AC494
:1022C000EF100343AA8C22852E84EF1063422A86E6
:1022D000AE866685A285EFC0E23AAA8C56852E842A
:1022E000EF1003412A86AE866685A285EFB01226DE
:1022F00074103010EFE0EFA1A257224FB24E23A08E
:10230000FD00B2572320FD009C400D476383E7107A
:1023100025476386E7001D470144E39FE7EE265407
:1023200083250A00B6509654F649664AD64A264C8A
:10233000964C064DF25DDE865A86B64B464B4A8574
:1023400006597687656191B818422546630DC70026
:102350004946630AC700378703805C49130707D7DC
:102360009306F00E21B7944603A789008A06369794
:1023700083284700638B1C0303234901B78703802D
:102380003787038037860380B78503806688938705
:1023900007DE1307C7DA9306200F130646C093859E
:1023A000C5CC4A850293628485BDC84476C67AC48A
:1023B000938A4700EF10C333AA870325CB003ECC96
:1023C0002ECEEF10E332224FB24E2AC82ECA01445D
:1023D00003A50A0076C67AC4EF1083316246F2463E
:1023E000910D0504EFC0022A4246D246910A110D12
:1023F000EFB0D21574103010EFE0AF91A256224F1B
:10240000B24E23AEDDFEB256232EDDFEE34294FD36
:10241000E5BD7AC483AAC40083ACC90063070F0674
:10242000568576C6EF10C32CAA8966852E84EF10D8
:10243000232C2A86AE864E85A285EFC0A224224F89
:10244000AA892E840325CF00EF10832A2A86AE8620
:102450004E85A285EFC0C27FAA890325CB001394C5
:1024600015000580EF10C3282A86AE864E85A2850A
:10247000EFB0D20DB777058003A607A683A647A6BF
:10248000EFC00212B24E6341A006E685568576C4BF
:10249000EF00C37E930500002A84EF00A367A24EDD
:1024A00063480506228576C4EF108324AA89032594
:1024B000CB002E84EF10C3232A86AE864E85A285DC
:1024C000EFB0D20802467410EFE0AF8432571246E4
:1024D0009C403307E040A54618C2A24EE381D7E4F2
:1024E0000D47E38EE7E205BD832749013787038067
:1024F000130707BE9306001437860380B785038051
:10250000130646C0938505C34A858297628429B322
:102510003787038083274901130787C49306D014A4
:10252000E1BF8C450845411106C6EF40E134B24099
:102530003335A000410182809445411126C2984262
:10254000AE8406C622C44AC085456300B7025C4912
:10255000B78503803A86938505E28297B24022448C
:1025600092440249054541018280C0423289228558
:10257000EF400137635F8000DC40931524001307B0
:102580004500BE95944391071107232ED7FEE39B88
:10259000B7FEB24022442320A900924402490145DB
:1025A000410182805971D6CAEAC086D6A2D4A6D289
:1025B000CAD0CECED2CCDAC8DEC6E2C4E6C26EDE67
:1025C00023220500230405009C41130D85002320D0
:1025D000A501AA8A6358F01A37890380B7490F000A
:1025E000379A9800AE8C938B45008147014B130CB2
:1025F0008100130949ED9389F923130AFA6783AD22
:102600000B002547639A071A93D7FD41B3C4B7015E
:102610009D8C93DDFD01637D97349307300663FF46
:1026200097349307703E63FF973489669387F670FB
:1026300063FC97346166B7E5F50526870544938604
:1026400006711306F6699385F50F39A063FFF92A21
:102650006370FA2C63F4F52CBA8722853357D702BE
:102660001104E365F6FE1306D002B3858D000A85DA
:1026700062C0EF60E173024793073006BA9D63FCC6
:1026800097029307E4FF0965EE979306400613054A
:10269000F57033F7D402F917268606074A97834563
:1026A000170003470700B3D4D402A381B7002381E6
:1026B000E700E360C5FEA54763FA97208604CA9445
:1026C00083C7140083C40400A380FD00B786038081
:1026D00023809D000547938646E5014681450A858E
:1026E000EF609103041026CC1C41930D85002A84D1
:1026F0006386B7253ECC1C453ED05C403ECE2320B1
:10270000B40123040400E2472322040003A50A00C5
:102710006388971C0257F2466308AD2003A68A001F
:1027200023A0FA0023A2DA0023A4EA006304052010
:102730002ACC32D002CE2300050062456306950004
:1027400082558505EF40D15B024563068501A245B0
:102750008505EF40F15A03A70C00050B83A74A003B
:10276000910BE34EEBE899CF370700407D1763816B
:10277000E722B75505800546938505D45685EF6059
:10278000B11419A8B78603800947938606E5014668
:1027900081455685EF604178B650265496540659C7
:1027A000F649664A464BB64B264C964C064DF25DB2
:1027B0005685D64A6561828093D7FD41B3C4B7017F
:1027C0009D8C93DDFD016377971A9307300663F5BF
:1027D000971A9307703E63FB971A89669387F67082
:1027E00063F0971A6166B7E5F50526870544938679
:1027F00006711306F6699385F50F39A063F4F91095
:10280000637BFA1063FFF510BA8722853357D7022E
:102810001104E365F6FE1306D002B3858D000A8528
:1028200062C0EF60E158024793073006BA9D63FC2F
:1028300097029307E4FF0965EE9793064006130598
:10284000F57033F7D402F917268606074A978345B1
:10285000170003470700B3D4D402A381B700238134
:10286000E700E360C5FEA54763F797068604CA94B0
:1028700083C7140083C40400A380FD00B73605801D
:1028800023809D00054793864644014681450A857D
:10289000EF608168041026CC1C41930D85002A84CA
:1028A0006384B70B3ECC1C453ED05C4056853ECE83
:1028B000230404002320B401232204007246E245CD
:1028C000EF6091006245E31D95E6BDBD938404036E
:1028D00093F4F40FE5BB9384040393F4F40F79BFEE
:1028E000724611CA85476307F606A685EFE00138F0
:1028F000724603A50A00329523A2CA0023000500F0
:1029000062450DBD1304550039B713045500A1BB32
:102910001304650089BB13046500F5BD130475003D
:1029200099B313047500C5BD23A0FA0023A2DA00F1
:1029300023A4EA0026CC04102685EDBB4146EE8593
:102940002685EFE0A13255BB4146EE852685EFE0B6
:10295000E131A1BF834701022300F500724603A5C0
:102960000A0023A2CA003295230005006245D9B3AC
:102970000544D5B9054445B5094471BD0944E5B1DF
:10298000114451BD0D44C5B11144F1B90D4461B5B7
:1029900037850380130585E5EFD0CFEF82472A8482
:1029A00063878701A2453E858505EF40713503A504
:1029B0000A006307AD0083A58A008505EF40513406
:1029C0002285EF30E3442A84DDB7E2472A84638717
:1029D000970082553E858505EF4091320245E30818
:1029E00085FDA2458505EF40B131D1B72A84FDB7F9
:1029F00098451C461D71D6C2DAC0832A070003AB76
:102A00000700A2CCCAC8CEC6D2C45EDE86CEA6CA95
:102A1000AE8B3284AA8936895A8A63C36A01568A80
:102A20005285EF30F16BAA84635A400513182A00CF
:102A30002A988147130EFBFF05451383FAFF63DDD8
:102A4000570583A58B003307F3400A072E97584399
:102A500063DF670114443306FE400A06B29683A87A
:102A6000460063041707630AA7046392A8061DEFD4
:102A70002320080085077118E39347FD2320990060
:102A80000145F6406644D6444649B649264A964A28
:102A9000064BF25B2561828063D667031844B30658
:102AA000FE408A0636975843631AA7008548635349
:102AB000170146872320E80075BF468755DBBA8893
:102AC0000547F5B705478548DDB775F355B70A855E
:102AD00003A94901C13C0C4428080244E134E24600
:102AE000B78503802286938505E74E850299624566
:102AF0001C106306F50082558505EF4071200245E4
:102B00003C006306F500A2458505EF40711F81C4B6
:102B10002685EF30F1630545ADB7E24718102A84EA
:102B20006387E70082553E858505EF40711D0245AC
:102B30003C006306F500A2458505EF40711C81C489
:102B40002685EF30F1602285EF30832C2A84EDF862
:102B5000DDBF2A84E9BF1971A2DCA6DA3684B2840B
:102B6000944610469C45DAD0DECE032B060083AB9C
:102B70000600CED6D2D4D6D2E2CCE6CA86DECAD8F9
:102B800003AC0700AE8CAA893A8ADE8A63437B01D4
:102B9000DA8A63D38A01E28A5685EF3071542A8932
:102BA000635C500913972A002A9701488546930EC3
:102BB000FCFF1305FBFF9385FBFF8548635A8801E3
:102BC00083A78C0033860E410A06B29783A847007C
:102BD0000543635968019C44330605410A06B297D0
:102BE00003A34700054E635978011C443386054111
:102BF0000A06B29703AE4700C687635313019A874C
:102C00006353FE00F28781CBC68763D368009A873F
:102C100063D3C701F2876384D80063931703630407
:102C2000D300639F67006304DE00639BC7011CC37E
:102C300005087117E31358F923202A010145B5A0AF
:102C400083A58C00280003AA4901A93A8C440810E6
:102C5000A244893A0C4428180254A9326257B78515
:102C60000380A2862686938505EA4E85029A6255E0
:102C70009C006306F50086458505EF407108025506
:102C80003C106306F500A2558505EF40710722450B
:102C90001C086306F500C2458505EF407106630513
:102CA00009004A85EF30D14A0545F6506654D6549E
:102CB0004659B659265A965A065BF64B664CD64C80
:102CC00009618280E25798002A846387E70086457D
:102CD0003E858505EF40D10202553C106306F500A4
:102CE000A2558505EF40D10122451C086306F50079
:102CF000C2458505EF40D100630509004A85EF30E4
:102D000031452285EF30C3102A84E31909FED5BF6F
:102D10002A84D9B72A84C9BF7D15C14763EAA700B1
:102D2000B7870380938707FA0A053E95084182809A
:102D30000145828001458280545D9DC298429387FF
:102D4000460005070A07BA96638CF6007D5619A05F
:102D50006388F60098439107E31CC7FE054582800F
:102D600001458280B70710F023A0A7F08280834737
:102D7000050089CB370710F02320F7F083471500B3
:102D80000505FDFB82808347050089CB370710F0DE
:102D90002320F7F0834715000505FDFB8280828024
:102DA000AA8748419047AE860C41584A104A03A86A
:102DB0004500CC47028848411C419C4782871C45FE
:102DC000139515002E95D84B9C4B0A050E07BA9704
:102DD000DC433E958280F1456F40817218498547FA
:102DE00063E6E70048411C41DC4F8287411106C67B
:102DF000EFC0115818498D476317F7005C498A05E1
:102E0000BE9588418280411106C6EFC071561849AF
:102E100085476316F70048411C41DC478287411112
:102E200006C6EFC0F154184985476316F7004841BC
:102E30001C419C4B8287411106C6EFC07153184953
:102E400085476318F7001C45B2864841D04B6F1088
:102E5000A057411106C6EFC0B1519C452A87944343
:102E60009107634B06026359D6020A063E96144246
:102E700063C406021041B7370080938707DA504ACF
:102E8000631EF60048411C474C4703280500D84BF9
:102E9000904B83274800828701458280B685028651
:102EA0009C412A8794439107634B06026359D602DB
:102EB0000A063E96144263C406021041B7370080EA
:102EC000938707DA504A631EF60048411C474C4777
:102ED00003280500D84B904B832748008287014583
:102EE0008280B6850286DC412A8794439107634B32
:102EF00006026359D6020A063E96144263C40602CD
:102F00001041B7370080938707DA504A631EF600F6
:102F100048411C474C4703280500D84B904B83275A
:102F20004800828701458280B6850286B787038084
:102F3000938747041CC14CC114C550C52328050004
:102F4000232A0500232C0500828063C8050063D670
:102F5000C5008A05AE96884282807D5582804CC924
:102F600082801C49411106C60547F59B6384E70032
:102F7000EFC01140104D91C119CA37850380130568
:102F800045FEEFE0806CB240054541018280B240D1
:102F90000CCD01454101828039712E852C1006CE61
:102FA00032D436D63AD83EDA42DC46DE2EC6EFE0E0
:102FB000E066F240216182800CC9828008498280EB
:102FC0009387F5FF3E953355B5023305B5028280F0
:102FD0003355B5023305B50282807D152E953355E4
:102FE000B5023305B5028280C94763EAA702B787F5
:102FF0000380938787070A053E951C418287A14776
:103000009CC10145828085479CC1014582809147D2
:103010009CC10145828089479CC10145828005454C
:103020008280C1479CC1014582802A8708410111E5
:1030300026CA3305A740035805004AC806CE22CC4D
:1030400091472E89B28463F40705835745000544F0
:1030500091CFBA979443B697904309CA0A063E9611
:10306000D44391073304D402E31CF6FE994763F975
:103070000705835765000145A1E36C00EFE0B01040
:1030800009CDF2406244D244424905618280014543
:103090006C000544EFE0300F6DF53245A685A93789
:1030A0006DF19C40F240D244338487022320890092
:1030B00062444249056182803E970305070075BF5F
:1030C000014565BFADC95C41854691CF03A80700A6
:1030D000635B000191070147904305079107B386A1
:1030E000C602E31B07FF1C4549476362F7043787A5
:1030F00003808A071307470CBA979C438287A1472E
:10310000B386F602014594C182809147B386F602E8
:10311000014594C182808547B386F602014594C17A
:1031200082808947B386F602014594C182800545B5
:103130008280C147F1B7411106C6EFC071239C459B
:10314000397152D406DE22DC26DA4AD84ED656D25F
:103150002A8AC1C3184651C7368994468442A1E8D9
:1031600094431C432E8463C3D70032841C40032540
:1031700009006300F50883274A01378703803786F3
:103180000380B785038052851307471893064009CB
:1031900013068612938505C382970545F250625443
:1031A000D2544259B259225A925A216182805C49C2
:1031B000378703801307C7169306100937860380E5
:1031C000B785038013068612938505C3829705454C
:1031D000F1B7378703805C49130707119306F0089E
:1031E000F1BF378703805C49130747159306000931
:1031F000F1B78A8502C0CD3BA2854800EFD0AFAAC7
:103200009249635830051C44024501479107904399
:10321000050791073305C502E39BE9FE832A8A036C
:10322000232CA9002AC0EF30C164AA855285829A56
:103230002324A9001C44130745009443910714C19B
:1032400094438504910714C31107E39B99FE01453C
:10325000B1B7024583248A03232CA900EF306161B2
:10326000AA85528582942324A9001844AA8701457F
:10327000184398C325B748411C419C4782878280E8
:103280008280084541461C419C47828748411C4139
:103290009C47828748411C41DC47828748411C414A
:1032A000DC4B828748411C419C4B82870845114674
:1032B000930500041C419C4782878280411106C609
:1032C00022C426C24AC0A9C9985985472E84AA8417
:1032D0006304F702C840A285232A04021C4123226A
:1032E000040023280402232404002244B240924410
:1032F0000249DC474101828703A94503630E0900A7
:103300004841832549001C41DC478297C840CA8553
:103310001C41DC4782977DBFEFC0910593054002B9
:103320006F40011EA1456F40A11D411122C406C678
:103330002E8485C11C4D89CB0845B2858A051C4168
:1033400011469C47829708C0B24022440145410182
:103350008280EFC0F10183A80500397122DCB388B7
:10336000154103D8080026DA4AD84ED652D456D290
:103370005AD05ECE06DE114A2E8BAA84B68BB28955
:103380000144B94A7D5963790A0583D74800A9C722
:10339000DA979843BA9798436378E40613152400A4
:1033A0009107AA979843BA9798433387E740035603
:1033B000070063FFCA000357E70019CBBA9783C71A
:1033C000070099C7638D0B005E951C416389270137
:1033D0000504B109E36B0AFB8327000002906C002F
:1033E0004E85EFF03FCE15E18844B24541461C4181
:1033F0009C47829723A0A90005C583280B00B3082A
:103400001B4103D80800E9B70145F2506254D25479
:103410004259B259225A925A025BF24B2161828080
:10342000B245378503801305051AEFE000220545F4
:10343000E9BF011106CE22CC26CA4AC84EC652C4E4
:1034400056C259C2328A2A84AE8A8149A1441309DC
:10345000C00235A883D78700B9C3D6978843AA97F7
:10346000984363F1E906139529009107AA978843C9
:103470003E95EFE08042B3052503084411461C4108
:103480009C47829705C12320AA008509210A83A7AA
:103490000A00B387FA4003D70700E3EDE4FA832775
:1034A00000000290378503801305051DEFE0E01949
:1034B0000545F2406244D2444249B249224A924A06
:1034C000056182800145F5B7EFC0816A9C41011119
:1034D0004AC8B387F54003D807002E8906CE22CC10
:1034E00026CA4EC652C456C2A14563F0050D83D705
:1034F0008700C5CFCA973A849843BA979C436376AE
:10350000F4081841B73700809387C72A585BAA840C
:10351000B28A368A6310F706884411469305000480
:103520001C419C478297AA8994408147228703A81F
:1035300086034E86D286CA85268502981DED638154
:103540000A020E04A29A83A74A0093161A00D29682
:103550008A06BE96D8429C4223A4E90023A2F90021
:10356000F2406244D2444249224A924A4E85B249CC
:10357000056182800297AA8945BF378503801305BC
:10358000C534EFE0800C8149E1BFB7860380378600
:103590000380378503809386862013064621930592
:1035A000A00A13050531EFC0215E832700000290B9
:1035B0001D715C41D2C42E8A0C4DD6C2AA8A680005
:1035C000A2CCCAC8CEC686CEA6CADAC05EDE62DC8F
:1035D00066DA3289B68952C63EC802D6EF20900814
:1035E0002A8419CDF64022856644D6444649B64918
:1035F000264A964A064BF25B625CD25C2561828069
:103600004C00680002C2EF30602B2A8461FD130B6E
:103610004900A1441DA883D78700A1C3D2978C433A
:10362000AE979843637EE40203A70A009315240033
:103630009107AE978C4303260B00185B9246BE950C
:1036400056850297210B71E1050483270A00B30711
:10365000FA4003D70700E3E0E4FC83270000029070
:1036600092454A866800EF20B0222A8425FD03A5F2
:10367000CA019145EFF0DF942A864A87CE868145BC
:103680006800EF20B0442A8431FD03A54A00C145FB
:10369000E2491C41524B9C5B8297AA8403A54A00D5
:1036A0004146A6851C419C4782972A8A2DC183AC3E
:1036B0000A01B74700809387C75203A70C00584FF1
:1036C0006319F704638C0910374C00805A89DA8437
:1036D000FD5B130C8C5229A00504E104638B890463
:1036E00083C74401F5DB8840C145EFF01F8F984840
:1036F00083A70C0063067703DC47638A8701D44401
:103700009044AA856685829761D92A84E1BD0544E3
:10371000D1BD66852686D285029783AC0A015DB746
:10372000D44490449C47AA856685829755D52A84BF
:1037300055BD03A54A0003AC0A0181441C41FD5B51
:10374000DC53829793971900CE978E07AA893E9BE8
:103750008347490195C383270C0030005EC49C4F0A
:10376000A685628582972A84E31E05E6A247032781
:1037700049008504CE971CC36109E31B2BFD68003B
:10378000EF20807E03A54A00D2851C41DC4782974A
:1037900003A54A001C41DC4B82972A84E31405E40C
:1037A00003A54A0083A5CA011C419C5382972A8421
:1037B000E31A05E203A50A011C419C4B829783A5ED
:1037C0000A0263F5A50023A0AA02AA8503A54A0060
:1037D00041461C419C5782972A8429B503A54A007B
:1037E0001C41DC53829761BF9C4101114AC8B387D9
:1037F000F54003D807002E8906CE22CC26CA4EC635
:1038000052C456C2A14563F3050B83D78700D9CFB5
:10381000CA973A849843BA979C436379F406AA8975
:10382000484193050004B28A1C411146368A9C47E0
:10383000829703A70900AA842A860328870385475D
:103840002287D286CA854E8502980DE9638E0A00CA
:103850000E0456945C4093161A00D2968A06BE96C1
:10386000D8429C4298C4DCC0F24062444249B2490A
:10387000224A924A2685D244056182803785038098
:1038800013058539EFD0705C8144F9BFB78603809A
:10389000378603803785038093868620130646216A
:1038A0009305A00A13050531EFC0012E8327000000
:1038B00002901841A14681473307E54003560700AF
:1038C00063F5C600035787001DEF984163F2E704D4
:1038D00091058A07AE9798439146BA9798433387E4
:1038E000E7400356070063FEC60003574700014543
:1038F00031C3BA979843BA9798430DCF13854700C1
:103900008280014582803A951C419841E3E2E7FCC0
:10391000B7860380378603803785038041119386FD
:1039200086201306C63D9305A00A1305053106C679
:10393000EFC0812582805D7186C6A2C4A6C2CAC0BE
:103940004EDE52DC56DA5AD85ED662D466D26AD0DF
:103950006ECE2AC66302061E2E8D930746003EC415
:1039600083270D00377B0580A146B307FD4003D7B1
:103970000700814B314A130B4BBA63F1E61883D62B
:103980008700638D0616EA969C42BE969C4263F3BE
:10399000FB1893972B009106BE969C421147B38A61
:1039A000F60083A70A00B387FA4003D607006377BF
:1039B000C71483D7470063830714B246D69798434A
:1039C00088461146BA9703A907001C411314190031
:1039D0009C474A940A04A28582972AC2630305126F
:1039E000AA8D814C91449949631D0902C5A8E285BD
:1039F0002285C135184023A0AD003307E4400356AB
:103A0000070063F7C40C0355470079C12A940840A6
:103A1000850CB10D2295EFD0707223ACADFE630F13
:103A2000990B03A70A003387EA400356070063F7A0
:103A3000C40C0354470079C0569418403A94184077
:103A400063FCEC0C03270D0013952C0011042A9441
:103A50003307ED40084083550700014C2A946379F1
:103A6000BA000357C70009C76A971043330CC70051
:103A7000184023A00D0023A20D003307E440835516
:103A8000070023A40D00014563F8B9000357670040
:103A900001C722970305070093858D00EFD0B06E14
:103AA00039D53785038013054561E685EFD0F039B8
:103AB0000545B640264496440649F259625AD25A00
:103AC000425BB25B225C925C025DF24D616182807E
:103AD00023A26D01850CB10DE31599F5A24712479C
:103AE000A146A10723ACE7FE3EC483270D00850B4A
:103AF000B307FD4003D70700E3E3E6E883270000B0
:103B00000290378503801305454DA285EFD0F03331
:103B1000054545B7014571BFB786038037860380E9
:103B200037850380938686201306C6519305A00A25
:103B300013050531EFC04105EFC08103797106D649
:103B400022D426D24AD04ECE52CC56CA5AC8638FFF
:103B50000726AA842E893E85B28981451306000472
:103B600036843E8ABA8AEFD0213414409947014501
:103B7000B306D44003D7060063F8E70083D7660096
:103B800081C7A29703850700D285EFD0D05F2A8B2B
:103B900041E1144039478147B306D44003D60600BB
:103BA000637AC70003D7E60011C72297834707004F
:103BB000B337F000D685A306FA022285DD39133724
:103BC000150005072322AA00232AEA0070009305A6
:103BD0008A012285EFF06FC52A8B1DE918409146B6
:103BE0003307E4408357070063FFF602035547009D
:103BF0001DC922951C413E95EFD050541840B14646
:103C00002324AA003307E4408357070063E6F60243
:103C1000B250225492540259F249624AD24A5A8509
:103C2000424B45618280B7760580938646BA23244D
:103C3000DA00B146E3FEF6FC8356C700F1DA3694AB
:103C40001C4021463E941C40B307F44083D6070035
:103C5000E370D6FC03D7870045DF22970C432E97ED
:103C60000C43638E0510A945E3F4D5FA83D7A7006A
:103C7000C5D3A2979443B697944363820610DC435E
:103C800058432328FA001C402326EA00B307F440D7
:103C900003D707006377E60E83D78700FDC3A2979B
:103CA0009843BA9783AA07006387090E8327090000
:103CB0001146B1459C474A858297AA896300051041
:103CC0008327090056858447EF20B13AAA8511461B
:103CD0004A85829423A2A900630C050E1C4021474B
:103CE0000145B307F44083D607006378D70083D734
:103CF000870081C7A29788433E95EFD0504403A721
:103D0000490023A0A900032304002320570163597D
:103D1000500D33036440035E0300A94763F3C707F4
:103D20008358A3001107814733051401638B0804EE
:103D30001041835583002A9603280600B306B40079
:103D4000A9C18C42AE96944263800605630F0808B1
:103D5000544214C385071107E39AFAFC414781478F
:103D60006377C7010357030119C33A941C4023A486
:103D7000F90085472328FA02232A3A0351BD014B53
:103D800041BD83270000029063F1D7069396370068
:103D9000369654427DBF9C401146B1459C472685CE
:103DA0008297AA8901CD9C40568503A98700EF2000
:103DB000512CAA8511462685029929BF3785038093
:103DC00013054563EFD07008054B99B5EFB0515A14
:103DD0003785038013054566EFD03007054B0DBDD1
:103DE00033036440035E030095BFB78603803786C4
:103DF00003803785038093868620130646699305E2
:103E0000A00A13050531EFB0315803A30500AE88B1
:103E1000214833836840035E0300AA85CC410845EE
:103E20006372C80D03588300630E080A4698B28E69
:103E30003E8683270800411106C63E988327080066
:103E4000637FF70411080A07429703280700914788
:103E500042970328070033080741035F080063F017
:103E6000E70983574800A5CF3E971C433E971C4364
:103E700063F7F60411078A06BA9603A80600B1474D
:103E80000147C29663F9C7018357C30089C7BE982B
:103E900003A708004697B240F687410145B1B786AF
:103EA0000380378603803785038093868620130638
:103EB00046219305A00A13050531EFB0F14CB786F2
:103EC0000380378603803785038093868620130618
:103ED000C6519305A00A13050531EFB0F14A8327B7
:103EE000000002908327000002901C41011122CCA7
:103EF000B307F54083D6070026CA4EC606CE4AC889
:103F00002320060023220600232406001947AA8442
:103F10003284AE8901456375D70083D7670099EF76
:103F200093058400EFD030262A8915C1F2406244FF
:103F3000D244B2494A85424905618280A6970385E9
:103F4000070093058400EFD010242A8965F1CE85FF
:103F5000268585329C40114708C0B387F44083D63C
:103F600007006373D70203D5470019CDAA94884090
:103F70002695EFD0B01C48C0F2406244D244B2490A
:103F80004A85424905618280B7770580938747BAA1
:103F9000F2405CC06244D244B2494A85424905615C
:103FA0008280411126C29145AA841305400206C6AB
:103FB00022C44AC0EFF06F822A899145130540025E
:103FC000EFF0AF812A8491452145EFF00F81AA8758
:103FD0004A94914521453E94EFF02F802A9481C860
:103FE000B240228522449244024941018280914597
:103FF0001305C002EFE07FFE2A94B24022852244DE
:104000009244024941018280B79703809387C78B0E
:104010001CC14CC191C191050CC510C9230A0500F2
:10402000232C0500232E0500232005028280B7974C
:1040300003809387C78B1CC150C10CC514C9230AC8
:104040000500232C0500232E050023200502828075
:10405000411122C44AC02A842E89C14526C206C6FF
:10406000B2844A94EFE0DFF5B305A440EFF0C00E50
:1040700029C1A1C01C41114693054002DC5B2A8482
:104080008297B2409306440040C137970380224490
:104090001307C78B04C918C114C5230A0500232CB4
:1040A0000500232E05002320050292440249410108
:1040B0008280EFB0F12B411122C426C22A84AE8443
:1040C000C14506C62694EFE0BFEFB305A440EFF06C
:1040D000A0081C4111469305C002DC5B2A8482972C
:1040E000AA84EFD0F0489DCC1C4022851146DC5BB1
:1040F000930540028297B2409306440040C137972F
:10410000038022441307C78B04C918C114C5230AAE
:104110000500232C0500232E0500232005029244D0
:1041200041018280EFB0D124411106C622C426C2CB
:1041300029C1AE849DCD1C41114693054002DC5B34
:104140002A848297B2409306440040C13797038087
:1041500022441307C78B04C918C114C5230A0500DC
:10416000232C0500232E0500232005029244410143
:104170008280EFB0F11F797122D406D626D24AD0C0
:104180004ECE2A8469C1B2845DCE630EC50A2E85E7
:104190002295C145B689EFE0BFE333068540A2858D
:1041A0000A85EFF0C00E1146C1450A85EFF0200ADE
:1041B0003247A2461246B7B703802A849387C7CDF9
:1041C00058C414C40A851CC050C0EFF020071C401E
:1041D0001146930500029C47228582972A89C14592
:1041E0002685EFE0FFDD33863401AA85098E4A85F6
:1041F000EFE0F02C1C4011469305C0029C4722853D
:104200008297AA84EFD0D0361C40228511469C4765
:10421000930540028297B25000C53797038022541D
:104220001307C78B2322250104C918C1230A0500DF
:10423000232C0500232E0500232005029254025949
:10424000F24945618280EFB0B1122A840A85EFE01D
:10425000F07E2285EF10D33B411106C622C426C250
:104260004AC0F9C5834745012A84C5E70845054783
:1042700011461C412E89230AE4009C47A1458297E0
:10428000AA8748401044379703801441130787904A
:1042900093050009944ED0C398C35CC4232C04003A
:1042A0001146829648CC31CD832709002147B307B8
:1042B000F94083D60700637FD70683D78700BDCB3D
:1042C0000844CA97944318411146B6978C431C473B
:1042D0008E058297AA8431C51C402A86CA85DC5780
:1042E0002285829719ED1C402686CA859C57228517
:1042F000829701E9B2402244024926859244410155
:104300008280B24022448144024926859244410180
:104310008280378503801305C576EFD00033814452
:10432000D1BF378503801305457CEFD00032D9B764
:10433000EFB011048327000002908347450101116B
:1043400006CE22CC26CA4AC84EC6B9CF1841B6847A
:10435000B737008034439387A7322E892A840C4DC7
:10436000B289639CF602B9CC95CD084511468A0501
:104370001C419C4782971840AA8688C05C5F4E8685
:10438000CA852285829719E1230A0400F24062441B
:10439000D2444249B249056182802E86A685829622
:1043A00075F518409440D9BF378503801305457FC4
:1043B000EFD0A029F2406244D2444249B2490545B7
:1043C00005618280EFB0C17A011122CC2A84484D68
:1043D0004EC6AE89914526CA4AC8B68406CE3289F1
:1043E000EFE01FBE144C2A87A5C693981600B69816
:1043F0008A08AA9801485C433107850793B71700DC
:104400003E98E39AE8FEAD47468763E40703FD570D
:10441000232037015CC32324270194C01C4CF240A5
:10442000D24485071CCC62444249B249014505612A
:1044300082803795038013050584B145EFD0E020D5
:10444000F2406244D2444249B24905450561828046
:10445000814675BF1C41411122C4D84BB73700803B
:1044600026C206C69387C7292A84AE84631CF70434
:1044700048411C41DC4B829711C5B2402244924412
:1044800041018280484C9145EFE09FB3184CAA87C8
:1044900005CF131617003A960A063295FD56D843F3
:1044A0006313D700C4C3B107E39BA7FE1306060935
:1044B00048404C4C22441C41B2409244DC4F91464F
:1044C0004101828702974DBF13060009D5B74111FC
:1044D00022C42A84484106C61C41DC5782971C44EA
:1044E0002A8498433E855C478297B24022952244B5
:1044F00041018280411122C42A84484106C6232CEE
:1045000004001C411146930500099C4F829748CC3A
:10451000B24022441335150041018280484D914537
:104520006FE01FAA48458280054582800145828050
:104530001971E2CC86DEA2DCA6DACAD8CED6D2D4F5
:10454000D6D2DAD0DECEE6CAEAC8EEC68347060087
:104550002A8C63840758938CF5FF63509059377702
:104560000580832A47AE379D0380370A8000328951
:10457000AE89B68D0144130D4D967D1A379B03808D
:10458000B79B038013075002A285B3048C00130667
:1045900019006380E7042380F400050483471900B1
:1045A000B3048C00328999C3E34E94FD0504238043
:1045B0000400F65022856654D6544659B659265AF8
:1045C000965A065BF64B664CD64C464DB64D096185
:1045D000828083471900638FE7421387D7F91377E7
:1045E000F70FD54663E6E6000A076A971843028785
:1045F000328955BF33878C40A5469307140063D595
:10460000E64E130700032380E400E29713078007B8
:1046100009042380E700B3068C0003A70D00B687CA
:10462000910DA5483D4819A0B2872E871375F70054
:104630009305750563E4A800930505032380B7007F
:104640001386170093554700E360E8FE2300060039
:10465000368763FEF60003C5070083450700FD1794
:104660000507A30FA7FEA380B700E366F7FE158E2C
:10467000329483472900B3048C0009092DB7B3870E
:104680008C402947635FF74203A70D00A686910D72
:10469000A94525483376B702B68785063A851306BD
:1046A0000603A38FC6FE3357B702E365A8FE238037
:1046B0000600268763FEF40083C507000346070053
:1046C000FD170507A30FB7FEA380C700E366F7FE3B
:1046D000858E369483472900B3048C000909E1B51F
:1046E00003A50D00910D635994031386E9FF018E14
:1046F000935716001306140026873E9639A0230010
:10470000F700050405076300C432B307B440AA9755
:1047100083C70700BA84E5F783472900090961B513
:1047200033858C40EFE0925ED685EFE0E249634A44
:1047300005389D0D93FD8DFF83A54D0003A50D004C
:10474000A10DEFF02228AA8711462C0068003EC474
:10475000EFC0C151324726839307E0021358770117
:104760001378F80F130618F8B3764701635807005B
:104770009307D0022380F400138314002300030066
:10478000130700086307E62A930710039388F402CF
:10479000130723002300F3009307E002A300F300B4
:1047A00023010300338EE8409D4763DDC72593D581
:1047B000660193D75601AE97B69793D54601AE974B
:1047C00093D53601AE9793D52601AE9793D51601B2
:1047D000AE9793D5E600AE9793D5D600AE9793D516
:1047E000B600AE9793D5860013D54600AE97AA972C
:1047F000930500038D820808A301B3002302B300D0
:10480000A302B3002303B300A303B3002304B30044
:10481000B697AA85294FA542B3F6E703AE8E850564
:10482000BE8F93860603A38FD5FEB3D7E703E3E5D8
:10483000F2FF23800500AA87637ED50183C50E00A1
:1048400083C60700FD1E8507A38FB7FEA380DE0089
:10485000E3E6D7FF834601017D1E3A9E6387062665
:104860006375C727BA87AA8519A06309FE00850565
:104870002380D70083C605008507E5FA13030003EC
:10488000B386E7409D4523806700338ED54063960D
:10489000D5209305000331A09386F7FF6377D700F7
:1048A000B68783C6F7FFE389B6FE1383F8FF63F983
:1048B00067221307A0022380E700850793051B9654
:1048C00093062003630DF30085052380D70083C67C
:1048D000050013871700DDC2BA87E317F3FE1383C1
:1048E000F8FF3E8745A0B3878C402947635BF71CE0
:1048F00003A60D002687910D635A06009307D00288
:10490000138714002380F4003306C040BA8629457B
:10491000A548B375A602B687850632889385050338
:10492000A38FB6FE3356A602E3E508FF23800600F8
:10493000E370F7DA83C5070003460700FD17050794
:10494000A30FB7FEA380C700E366F7FE858E3694FB
:1049500083472900B3048C000909B1B1B3878C40A7
:104960000504E356F0C483A70D000909910D2380C7
:10497000F40083470900B3048C0035B1B388E840E4
:104980003383170123000700AA86635C06009307A0
:10499000D0021306F0072308F10033060641930600
:1049A00011013688A948A54EB3751603C2870508BC
:1049B000328E93850503A30FB8FE33561603E3E545
:1049C000CEFF2300080063FEF60083C5070003C680
:1049D0000600FD178506A38FB6FEA380C700E3E699
:1049E000F6FE8347010189CF6365670011A863095B
:1049F000670005052300F700834705000507E5FB71
:104A000023000700058F3A9483472900B3048C00E4
:104A1000090951BE2380F400050483472900B3042B
:104A20008C00090949B683472900B3048C000909A1
:104A30009DBE9A979DEA637DF30A13079004B7968B
:104A400003802300E3009386969513071300130653
:104A5000E006E307F7FA85062300C70003C6060051
:104A6000050765FA2300070071BF6373F308130796
:104A7000E0042300E3001386DB951307130093067D
:104A80001006E30FF7F605062300D700834606005D
:104A90000507E5FA23000700B5B7635FD004B386C6
:104AA000D740930E000303C3F7FFFD17B385C7017B
:104AB000238065002380D701E397F6FE9387760075
:104AC000C9BB050423800400EDB493070003BA8634
:104AD0002301F300938776006DBBE2840544C1BCDB
:104AE000238007003E8779BD238004003E84D1B433
:104AF0001A872300070039B7BE869387760051BB1B
:104B000039711303C10236D69A8606CE3AD83EDAF8
:104B100042DC46DE1AC6293CF24021618280828056
:104B20001C45A14698433387E7400356070063FAC4
:104B3000C6000357870011C7BA979843BA978843AE
:104B40008280832700000290930500026F20511B92
:104B50005C4D79715EC69C4362C406D622D426D2CF
:104B60004AD04ECE52CC56CA5AC8832B45012A8C05
:104B7000ADC3014B930A000203258C00232A6C016C
:104B8000DA85EFC01054AA891DCD131A3B000149E4
:104B9000814429A84C489C43850489C703254C00BF
:104BA000829708C81309C902638F990083270C01F3
:104BB0000146D29780434A941C54D84BE31C57FDBE
:104BC0000C4C504CC9BF8327CC01050B9C43E365BB
:104BD000FBFAB2502254232A7C0192540259F24922
:104BE000624AD24A424BB24B224C01454561828017
:104BF0005C4D01114AC89C4356C206CE22CC26CA3F
:104C00004EC652C45AC0832A45012A89B9C7014AEF
:104C100003258900232A4901D285EFC0904AAA8939
:104C20001DC5131B3A008144014483270901050473
:104C3000DA979C43A69798579384C40219C75843A0
:104C400009C78C4B032549000297E39089FE83270F
:104C5000C901050A9C43E36DFAFAF2406244232A33
:104C60005901D2444249B249224A924A024B014573
:104C7000056182805C4D797152CC9C4356CA5AC8FA
:104C800006D622D426D24AD04ECE5EC6832A45010D
:104C90002A8B014AA1CF03258B00232A4B01D28501
:104CA000EFC030422A8993193A00814401440DC96A
:104CB00083270B01CE978C43A69583AB8502938403
:104CC000C40283A78B0089C703254B0082971DE18F
:104CD0000325CB00A2850504EFF0CFF7E31A89FC8A
:104CE0008327CB01050A9C43E367FAFA232A5B0179
:104CF00001451DA883A74B01130700026386E70443
:104D00001307100A636DF702379703808A071307AA
:104D10000731BA978C43AA86379503801305C59B44
:104D20002286EFC090120545B25022549254025987
:104D3000F249624AD24A424BB24B45618280B7B5D2
:104D40000380938585DCC1BF83A58B01E9B75C4DEA
:104D50005D71CAC090435C4986C6A2C4A6C24EDE3D
:104D600052DC56DA5AD85ED662D466D26AD06ECE9B
:104D70003EC64CC92A8963FCC50E0845AE8BEFC000
:104D800050342A8C630D050EB7970380B7BD03809E
:104D9000938707318E0B814A014B930C0002938D50
:104DA0008DDC3EC4054D85A01307100AEE856366B1
:104DB000F70022478A07BA978C4383274900814925
:104DC000C05B11C41C4022859C478297AA89832717
:104DD000CA00E1CF03254900A68582978327C90031
:104DE000AA8498433E855C4B8297638CA403B1E808
:104DF00011C41C40CE852285DC478297050B938A1F
:104E0000CA02630E6C0783270901DE978443D69498
:104E100003AA840283274A01E39897F983258A012C
:104E200069BF83274A0113070002639FE7048325B4
:104E30008A013795038085465A86130585A2EFC0FF
:104E4000D00011C41C40CE852285DC478297B64035
:104E500026440649F259625AD25A425BB25B225C3E
:104E6000925C025DF24D26859644616182803795A1
:104E700003801305459FEFC0407D8544C9BFB247FD
:104E80008144232AF900E1B71307100A6377F7007A
:104E9000B7B50380938585DC69BF379703808A07A0
:104EA00013070731BA978C4369B7EFA0714CAA84F6
:104EB00011C41C40CE852285DC4782972685EF00F1
:104EC00033751C45A14698433387E74003580700D4
:104ED00063F6060B0357870055C3BA9798434111F1
:104EE00006C6BA97984363F8E5041397250091071F
:104EF000BA9798439946BA9798433387E74003583F
:104F0000070063FA06070357670035C7BA97984347
:104F1000BA9798436371E6040A061849B297D443D6
:104F20008E05BA95DC41B2401395160036950A05F8
:104F30003E9541018280B78603803786038037859E
:104F4000038093868620130646219305A00A130545
:104F50000531EFA07143B78603803796038037850C
:104F60000380938686201306C6A59305A00A130521
:104F70000531EFA0714183270000029083270000D4
:104F800002905C4D5D71CAC098434EDE66D26ECE13
:104F900086C6A2C4A6C252DC56DA5AD85ED662D4FD
:104FA0006AD0AA8D0149B94C994975C3138D470040
:104FB000931729003E9D83270D00114C931439004F
:104FC0003E9D03260D00814B254A3306CD40835676
:104FD0000600B14A6372DC040354460015CC6A949F
:104FE0001C403E941C4063FEFB0893972B00110469
:104FF0003E941C403E941C40B307F44003D7070086
:1050000063F9EC0083D7E70089C7A29783C707003D
:1050100099E7850BE362DCFC83270000029083A7FD
:105020000D0113971B005E97A697C843131B27001B
:105030006C005A95EFE00F892DE11C40B307F44056
:1050400083D6070063FDD90203D667000DCA2296F6
:105050000306060081456301460783A70D0132461A
:10506000850BA697DC43338767010843EFB0D16314
:1050700003260D003306CD408356060061BF8145EF
:10508000E9BF83A7CD0105099843E361E9F203A5D0
:105090008D0101C5EFD080790145B6402644964484
:1050A0000649F259625AD25A425BB25B225C925C68
:1050B000025DF24D61618280E3F0DAF683D7C700CA
:1050C000A1DFA29794432947B6979443B386D7406C
:1050D00003D60600E372C7F483D6A600B6978DDE2A
:1050E0009443B697944399C2CC4385BFB786038057
:1050F00037860380378503809386862013064669AA
:105100009305A00A13050531EFA011281C45A146FF
:1051100098433387E7400356070063F5C6060357F5
:1051200087002DC3BA979843BA97984363F7E5026F
:1051300091078A05AE9798439946BA979843338763
:10514000E7400356070063FCC6020357670005CB20
:10515000BA979843BA9788438280B7860380378688
:1051600003803785038041119386862013064621EC
:105170009305A00A1305053106C6EFA0F120832789
:10518000000002908327000002901C45A14698432E
:105190003387E7400356070063F4C60603578700CA
:1051A00025C3BA979843BA97984363F6E5029107E7
:1051B0008A05AE979843BA9798433387E7400356DA
:1051C000070063FCC6020357870005CBBA979843D4
:1051D000BA9788438280B7860380378603803785F5
:1051E0000380411193868620130646219305A00A69
:1051F0001305053106C6EFA0311983270000029080
:105200008327000002901C45A14698433387E7405E
:105210000358070063F5060B035787004DC3BA9781
:105220009843411106C6BA97984363F7E50413976C
:1052300025009107BA979843BA9798433387E74078
:105240000358070063FA06070357870035C7BA9764
:105250009843BA9798436371E6040A061849B297CF
:10526000D4438E05BA95DC41B240139516003695AD
:105270000A053E9541018280B78603803786038008
:105280003785038093868620130646219305A00A5E
:1052900013050531EFA0510FB786038037960380C1
:1052A00037850380938686201306C6A59305A00A3A
:1052B00013050531EFA0510D8327000002908327CD
:1052C00000000290B79703809387072E1CC14CC142
:1052D00010C554C523280500232A050018CD0DC28A
:1052E0001C42A1460147B307F64083D5070063F887
:1052F000B60083D7870081C73E961842329758CDB3
:1053000082800CC9828041114AC01309C50922C498
:1053100026C22A84AE844A85814506C6EFD0DFC9FD
:10532000B7370080938787F95CCCB7670080938795
:1053300027E23CCCB76700809387A7E27CCCB767B5
:105340000080938727E13CC4B7670080938727E3F9
:105350001CD8B76700809387A7E03CC0B767008080
:105360009387A7E1232A240144DCB2407CC423268E
:105370000408224492440249410182801C41214692
:105380009443B386D74003D806006374060983D6D6
:105390008600C1C2B6979443411106C6B69794439E
:1053A000B1C6D44391071946B6979443B386D74004
:1053B00003D80600637C060583D66600A1CAB697AB
:1053C00094432E87B697904363FAC5008325450919
:1053D0000A072E970843B240410182803795038027
:1053E0001305C559EFC060260145F5B7B7860380A0
:1053F00037860380378503809386862013064621EF
:105400009305A00A13050531EFA00178832700005A
:1054100002908327000002901C4121469443B386EA
:10542000D74003D806006373060983D68600BDCE35
:10543000B6979443411106C6B6979443A9C6D44380
:105440009107B6979443B386D74003D80600637C90
:10545000060583D68600A1CAB69794432E87B697D1
:10546000904363FAC500832585090A072E970843F0
:10547000B24041018280379503801305855CEFC0FF
:10548000C01C0145F5B7B786038037860380378592
:10549000038093868620130646219305A00A1305F0
:1054A0000531EFA0616E8327000002908327000082
:1054B00002901305C5096FD0DFAA011106CE22CCD8
:1054C00026CA4AC84EC652C456C25AC0AE84130B2E
:1054D0008500B2852A841306C00504C14CC18145EC
:1054E0005A85368ABE89BA8A4289EFB0F11BD685C1
:1054F0005285EFE05FBCAA86130A84062686DA8509
:10550000528574D04E87EFF0FFDB10406C5093044F
:10551000C4098547230404082326F4082328040823
:10552000232A0408232C0408D2862685EFD01FA046
:1055300081452685EFD05FA8B7370080938787F92C
:105540005CCCB7670080938727E23CCCB7670080CC
:105550009387A7E27CCCB7670080938727E13CC4A0
:10556000B7670080938727E31CD8B76700809387CD
:10557000A7E03CC0B76700809387A7E144C8232E0B
:105580002403F2407CC4232604086244D2444249E6
:10559000B249224A924A024B056182802A8429A09C
:1055A0002A842685EFD0AFFF5285EFF04FD72285B2
:1055B000EF001306011122CC2A8406CE26CA4AC85F
:1055C0004EC652C456C22E89328513088400130673
:1055D000C005814548C0232024014285B684BE8988
:1055E0003A8A930A8406EFB0310CA686AA854A86C9
:1055F000568564D05287EFF0FFCC10406C50930476
:10560000C4098547230404082326F4082328040832
:10561000232A0408232C0408D6862685EFD01F9160
:1056200081452685EFD05F99B7370080938787F94A
:105630005CCCB7670080938727E23CCCB7670080DB
:105640009387A7E27CCCB7670080938727E13CC4AF
:10565000B7670080938727E31CD8B76700809387DC
:10566000A7E03CC0B76700809387A7E144C8232E1A
:105670003403F2407CC4232604086244D2444249E5
:10568000B249224A924A056182802A8429A02A844A
:105690002685EFD0CFF05685EFF06FC82285EF005A
:1056A00023773C5D411122C426C206C62A84930496
:1056B000850681C72685EFF0AFD31305C409EFD067
:1056C0000FEE2244B2402685924441016FF02FC56F
:1056D0001D71930785066AD886CE2A8DA2CCA6CAEC
:1056E000CAC8CEC6D2C4D6C2DAC05EDE62DC66DA12
:1056F0006ED63EC602C23E85EFF08FC2124663559B
:10570000A63083290D00A14703A709003387E9408C
:105710008356070063FED71483578700638A0714F4
:10572000CE9780433E941C406370F62C931726005E
:1057300011043E9414408357670036946384072411
:10574000BE9983A70900BE9903254D06EFE09FDDB2
:10575000AA8722853EC4EFC040142A8B630F051C24
:10576000924781440149139A3700938749003EC00C
:105770001C40A946B307F44003D7070063FAE60EBE
:1057800083D7A700F5C7A2979843BA979843637841
:10579000E92A131529009107AA978843814DB38CF4
:1057A000A70003A70C0091473387EC40035607007E
:1057B00063F8C7000357470001C76697832D0700AA
:1057C00003A7090063F5ED1C03268D078247139795
:1057D0002D0052963E97832A0700104283254D00E4
:1057E000BA9A2696130686025685EFC0B04DAA8B4C
:1057F0006318051A03278D075297184326971057E9
:105800006302061C03A70C00832A460102CE3387DD
:10581000EC4093070002835607006385FA12B947EC
:1058200063FBD7040357E70039C79307100A63E601
:105830005715B79703808A0A93870731BE9A83A5C5
:105840000A003795038013050577EFB01060854B8C
:10585000F6406644D6444649B649264A964A064B1F
:10586000625CD25C425DB25D5E85F25B25618280E6
:1058700083270000029003254D00D6851841184764
:1058800002976305051822467408E685EFC0C0112B
:10589000AA8B5DFD03A70C003387EC4083560700FD
:1058A0009947814B814A014563ECD70AEFC0000953
:1058B00003A70C00A1462A8C3387EC4083550700D0
:1058C000014563F9B6000357870009C73385EC002B
:1058D00018413A95EFC0800603278D0783A60C0078
:1058E000F24852971843B386DC4083D50600B30DC7
:1058F000970023A40D0023A60D0023A80D0023A0CC
:105900000D0223A20D0223A08D0123A2AD0023AA24
:105910001D0123AC5D0123AE7D015146637AB600C3
:1059200003D5460111C566951C413E951C41A9E36E
:1059300005099384C402E31D2BE392473245850792
:105940003EC25DBBB947E3FDD7F4835AE700638DE0
:105950000A02E69A83A60A00B69A83AB0A00910A65
:1059600003576700014539D3669708433A953DBF11
:10597000EFB0D07C23A4AD0065BFB7B5038093859D
:1059800085DCC1B58149C9B3814B814AD1BF379507
:105990000380EE851305056FEFB0304B854B4DBD91
:1059A0005685EFA0FFA99307100A63F6A702B7B5C3
:1059B0000380938585DC379503801305C571EFB0AF
:1059C000D04879B537950380EE851305C574EFB0DF
:1059D000D047854BB5BD3797038093172500130734
:1059E0000731BA978C43C1BFB786038037860380DF
:1059F0003785038093868620130646219305A00AE7
:105A000013050531EFA04118814B99B59307100A92
:105A100063E257033797038093972A0013070731F0
:105A2000BA978C43379503801305857BEFB0F0411F
:105A3000854B39BDB7B50380938585DCE5B7B7865F
:105A4000038037960380378503809386862013066C
:105A5000465F9305A00A13050531EFA0E11241113D
:105A600022C413048506228506C6EFF06F9809C587
:105A7000B24022444101828022852244B240410149
:105A80006FF02FD0797122D40C412A84685106D648
:105A900026D24AD04ECE52CC56CA5AC85EC662C42E
:105AA000EFE08FFB630A051613098406AA854A8571
:105AB000EFF03F8522852939AA8411CDB2502254B6
:105AC0000259F249624AD24A424BB24B224C2685D5
:105AD0009254456182809309C40981454E85EFD077
