:0200000480007A
:0E00000017F10600130101FDC52001A082804A
:10001000130101FF1305400023261100EF00C25118
:1000200097B70400938747462320F50017B60100D1
:100030001306C6EE97B504009385C543EF9011589B
:10004000130101FE2326A10013058000232C81004B
:10005000232E1100232A9100EF00024E8325C100B8
:1000600013040500EF005205170602001306867BF5
:1000700097D504009385C5C513050400EF9011546E
:100080009304050013050400EF008250138504005B
:10009000EF808370130101FE2326A1001305800069
:1000A000232C8100232E1100232A9100EF00C24847
:1000B0008325C10013040500EF0092051706020016
:1000C0001306C67997D50400938585C213050400ED
:1000D000EF90D14E9304050013050400EF00424B4E
:1000E00013850400EF80436BB7E7038083C6D7CD49
:1000F000130101DB03C6C7CD03C7E7CD2324812449
:1001000003C4F7CDA206D18E4207558F6204598CE5
:100110009387C7CD3E941C4023261124232291248B
:10012000B307F44083D6070023202125232E312353
:10013000417311471A916372D72083D74700638EAA
:10014000071EA2978C438D47639AF51EB7B70480AC
:1001500093874721081C3EDFC1692320011E232607
:100160000122EF70A04C4179938709238A97930469
:10017000C9E8BE94B756018093862611101C8145AC
:100180002685EF80F12E081CEFA0106CB756018079
:100190009386C669101C8D452685EF80712D081C3D
:1001A000EF00912BB766018093862692101C914533
:1001B0002685EF80F12B081CEFF0F032B766018046
:1001C00093864648101CCD452685EF80712A081C71
:1001D000EF609055B76601809386C648101CD945DC
:1001E0002685EF80F128081CEF208123B756018077
:1001F00093860645101C930550022685EF805127F3
:10020000081CEFE0301BB76601809386462A101C5D
:1002100085452685EF80D125081CEFD0A04FB76615
:1002200001809386C6B3101CA5452685EF80512416
:10023000081CEFE0301EB77601809386E682101C22
:10024000E5452685EF80D122938709238A971309F4
:1002500049DD3E994A85014881474167141C26863D
:10026000A285EF50003D4A85EF50501981454A85DF
:10027000EF504028AA84630005101C4537B5048060
:100280001305450F8C43EF20117E9C449843635225
:10029000E002014437B9048013172400BA97CC4315
:1002A0001305C910EF20317C9C4405049843E345B5
:1002B000E4FE98408547630BF70AB7B50480938541
:1002C000C50737B5048013050511EF20D17937B57F
:1002D0000480854513058512EF20F178984C8147FD
:1002E00009CBD8403E9723000700984C8507E3EAE6
:1002F000E7FE37B50480854513054515EF20B17637
:10030000C167417593870723130545DD8A973E959D
:10031000EF50504325C937B504801305C516EF20AB
:1003200091747D54C1674175938707238A9713059C
:1003300045DD3E95EF50604E11A8814537B50480EC
:100340000D4613054508EF2011727D5441631A9143
:100350008320C1242285832441240324812403296A
:1003600001248329C123130101258280B7B50480AC
:1003700093854507B9B737B504801305C50CEF2041
:10038000916E45B7C167417593870723130545DD16
:100390008A9781453E95EF50A01F37B5048085456B
:1003A0001305C517EF20316C37B504801305851987
:1003B000EF20716B0144BDB7C1672A84938707237F
:1003C00041758A97130545DD3E95EF50004522851E
:1003D000EF80833C130101FF2324810037140000C8
:1003E00013040494232291001305040097F40400DD
:1003F000938484B12326110023A68400EF101259A0
:1004000023A4A4006314050297F7040023A407B0F3
:1004100097F7040023AC07AE8320C10003248100BA
:1004200083244100130101016780000023A2A4007E
:1004300023208500232205006FF01FFE21C11C41EF
:10044000A946B307F54003D7070063F4E60203D7D4
:10045000A700814619C32A97144303D74700814751
:1004600001C73A95830705003E8563D8D7003685D6
:100470008280914663E8E60001458280411106C60C
:10048000EF10C2518146D1BF09C91C5103050500B7
:100490006343F50082803E858280411106C6EF10DD
:1004A000E24F411122C406C62A848DC18C4599476A
:1004B0009041910510C163C2C7020A061105EF20E1
:1004C000A25FB2402285224441018280B2402320B3
:1004D00005002285224441018280EF10224CAE8724
:1004E000D0438C41411106C60D8E9357264022C43D
:1004F0001CC1E14763CBC7002A841105EF20C25B12
:10050000B2402285224441018280EF10224901112C
:1005100022CC26CA3684B284814601464AC84EC6D9
:1005200006CEAA892E89EF00631F01ED23A00400E7
:10053000F240232004006244D2444249B24905619A
:10054000828022864E85CA85EF005214B7E7048068
:1005500003A6876E83A6C76EEF008341EF00D22605
:10056000EF10033B6340B00495C9370700801C407F
:100570006300E502055763D5E70023200400014529
:10058000F240624488C04249D244B2490561828047
:10059000F5F185071CC037050040E9BFB7070080AB
:1005A000E3F5A7FCEF10823F0111B7E7048022CCEE
:1005B0004EC63684B28983A6476F03A6076F26CA44
:1005C0004AC806CE2A89AE84EF00031E6354A006F3
:1005D0004A85A68501468146EF00431401ED23A01C
:1005E000090023200400F2406244D2444249B24947
:1005F0000561828022864A85A685EF003209B7E729
:10060000048003A6876E83A6C76EEF006336EF00F3
:10061000B21BEF10E32F634FB000A1C1370700807A
:100620001C406306E502055763C8E70023A0A90044
:10063000E3DB07FAEF10823623200400F240624425
:1006400023A00900D2444249B24905618280E1FDFC
:1006500085071CC037050040F9B7B7070080E3FFE6
:10066000A7FAC9BF7971B7E704804AD04ECE368960
:10067000B28983A6476F03A6076F22D426D206D677
:10068000AA842E84EF008320635605062685A28562
:1006900001468146EF004311635EA0047000268589
:1006A000A285EF00A27EB7E7048003A6876E83A62B
:1006B000C76EEF00E32BEF003211EF106325634BA1
:1006C000B002A9C137070080B2476307E5020557AA
:1006D00063DEE70023A009008147B25022542320A3
:1006E000F90092540259F2494561828023A0A90081
:1006F000E355F0FEEF10822AF9F985073EC637056B
:100700000040F1B7B7070080E3FEA7FAE5B7B707E7
:10071000008093C7F7FF33F7B700498F2E8825C3B2
:1007200013D745011377F77F9306F07F630CD70249
:10073000930627C0AA0593576501370700402A058D
:10074000CD8F14C29305F7FF2981B7062000ED8FE6
:1007500063ECA6023385E700B337F500BE85634D31
:1007600008028280B2053707C0FF798DB1811CC2B3
:10077000C98D9DE9634D08027D55BE858280232089
:100780000600014581458280130517003E95B33769
:10079000F500BE85E35708FCB337A000B305B040B1
:1007A0009D8D3305A04082800145814582800145B1
:1007B000B70500808280B706008093C6F6FFB36756
:1007C000B5006307D60C01488148C1C793D6F541EF
:1007D000358D3308D540B3C7B60033350501958F45
:1007E0007D16898F1357F6414285634FF006ADC7DA
:1007F000B70800401358F501860793361600B36713
:10080000F8000605158F7D166345F000E5F7E363F4
:1008100015FFB70600C0AA9633B5A600FD17AA9724
:100820006354E00A1306F03F01477D556342A70871
:10083000630CA70613D7A6001306F63FDA07D98F75
:10084000520637070080F98DD18FDA06CD8F3688B2
:10085000BE884285C6858280B7060040E36AD8F824
:10086000B7060080E3F706FB370300809306160007
:100870009398F70133B8C6000581858733E5A80052
:1008800036864297E344F0FEC9F7E361A3FE51B711
:100890009DC36351B004B7E7048003A8877083A8A1
:1008A000C7704285C6858280130710C0E374E6F8DE
:1008B000130610C041B7B7E7048003A8077083A8E8
:1008C00047704285C68582802DF31305F03FE37E95
:1008D000C5F489BF91E161F1B7E7048003A8876F90
:1008E00083A8C76FBDB7370800801348F8FFB377F8
:1008F000B800C98FB6883683B37ED80063810712EB
:1009000013D745011377F77F9307F07F2E8F63048A
:10091000F70C13586501AA05370E00402A0533E885
:1009200005019306FEFF2981B70720003378D80020
:1009300063F3A700050E429E33380E01C286635949
:100940000F00B337C001B30600419D8E330EC04186
:1009500033E8CE0001458145130727C06300080C2A
:1009600093D7480193F7F77F9305F07F6381B70A28
:100970004111AA0893556601370500402A06B3E5E0
:10098000B80006C69308F5FF22C426C2298237089C
:100990002000B3F515016373C80005052E95B33526
:1009A000B500635903003336A000B305B040918D04
:1009B0003305A040B704008013C6F4FF631BC706CD
:1009C000B7E7048003A5077083A54770B2402244AF
:1009D000924441018280B205B707C0FF7D8DB1818D
:1009E000C98D63910510634A0F147D5EC28633E89A
:1009F000CE00630E080093D748013707008093F7B5
:100A0000F77F9305F07F1347F7FFE393B7F6B7E758
:100A1000048003A5077083A547708280828033E835
:100A2000CE0001458145E30B08FE0147014E81469A
:100A300005BF938727C072863384E700EF50934940
:100A400013D8F54193C4E4FFB3E70501630F94089D
:100A5000F5C3B345B800B3860541B3B5D500B307B8
:100A600000418D8F2287B6851356F4416343F0020F
:100A7000CDCFB708004013D5F50186079336170090
:100A8000C98F8605158E7D176345F000EDF7E3E409
:100A900015FFB70600C0AE96B3B5B600FD17AE970A
:100AA0006358C0061307F03F0146FD55634FB60477
:100AB0006309B6041307F73F13D6A60093956701A1
:100AC000B240224493174701D18D37070080CD8F64
:100AD0003378E800DA06B3E7070192443685BE852D
:100AE00041018280014E814619B7E38B07EC631701
:100AF00008028DC5B7E7048003A5877083A5C7707A
:100B0000F1B5130610C0E377C7FA130710C05DB73D
:100B100049FE9305F03FE3FAE5F869B7B7E70480CB
:100B200003A5876F83A5C76F55B5B7060040E3E2FD
:100B3000D5F485B70145814551BD014EB70600800A
:100B40007DB5B707008093C7F7FF33F7B700498F2C
:100B5000AE8EB68833F8D7006DCF13DE4501137E15
:100B6000FE7F1307F07F630FEE08AA059357650118
:100B7000370300402A05CD8F1307F3FF2981B705FE
:100B80002000130E2EC0F98F63F3A50005033E93DA
:100B9000B337F3003E8763CD0E0C3368C80063079C
:100BA000080E93D5460193F5F57F9307F07F054531
:100BB0006389F5041395A60093576601B7060040B4
:100BC0002A06C98F1388F6FF2982370520009385EE
:100BD00025C0B3F707016373C5008506BE96B3B79A
:100BE000F60063D908003336D000B307F040918F88
:100BF000B306D040370600801346F6FF054563185C
:100C0000CE028280B2053707C0FF798DB181C98DD0
:100C1000A9ED63CC0E087D533E873368C8000545B7
:100C2000E30108FE370E0080134EFEFF9DBF3366C2
:100C3000E3000DCA6355070033E6F60009CA7D5587
:100C4000E341BEFC0545E3CEC5FB6355F7047D5586
:100C500082803368C8000145E30508FA014E01436C
:100C6000014781B7E3DD07FC82800143014775B787
:100C7000B3356000B307F0403368C8003387B7402E
:100C8000330360407D55E31E08F082808145814634
:100C9000814775B76394E700E36BD3FA0545E3C278
:100CA000E7F66308F70001458280014337070080BB
:100CB000ADB7E3FA66FE828079715AC82A8B370590
:100CC00000803355E50006D622D426D24AD04ECE37
:100CD00052CCBE8956CA5EC62E8AB68AC284B28BF0
:100CE000EF0093382A892E84D6865E86D2855A856F
:100CF000EFF012482A86AE864A85A285EFF0524769
:100D0000B7E7048003A9477103AA0771AA8ACA86B4
:100D100052862E84EFF052296344A004B7E7048082
:100D200003A6076F83A6476F5685A285EFF0D227EB
:100D3000635AA0065685A28501468146EFF0121E31
:100D400015E123A0090023A00400B25022549254BC
:100D50000259F249624AD24A424BB24B4561828003
:100D6000D28A4A8426865685A285EF002212B7E7EA
:100D7000048003A6876E83A6C76EEFF0723FEF0074
:100D8000A224EF00F338634FB00095C93707008005
:100D90009C406300E502055763C8E70023A0A90053
:100DA000E3D507FAEF00923F23A0040023A0090037
:100DB00069BFF5F185079CC037050040E9BFB7075B
:100DC0000080E3F5A7FCF9BF39715ECEAA8B370529
:100DD00000803355E50006DE22DC26DA4AD84ED6FE
:100DE00052D456D23E8A5AD062CCAE8A368B4289D1
:100DF000C689328CEF005327AA842E84DA86628655
:100E0000D6855E85EFF0D2362A86AE862685A28507
:100E1000EFF01236B7E7048083AA477103AB07717E
:100E2000AA84D6865A862E84EFF01218634CA00C42
:100E3000B7EA048003A60A6F83A64A6F2685A285B7
:100E4000EFF09216635EA00A2685A28501468146D0
:100E5000EFF0D20C55E9B7E7048023200A0083A401
:100E6000877103A4C77123200900014781473A868F
:100E70002685BE86A285EFF0220C03A60A6F83A604
:100E80004A6FAA842E84EFF07220635B05062685E4
:100E9000A28501468146EFF032116353A00670002F
:100EA0002685A285EFF0917EB7E7048003A6876EC2
:100EB00083A6C76EEFF0D22BEF000211EF0053258F
:100EC0006340B004E1C937070080B247630EE50A0A
:100ED000055763D3E70223A0090081470647F25074
:100EE00062541CC3D2544259B259225A925A025BDC
:100EF000F24B624C2161828023A0A900E350F0FEF6
:100F0000EF00D229DA8456844A862685A285EFF03E
:100F1000F177B7E7048003A6876E83A6C76EEFF06C
:100F20003225EF00620AEF00B31EE34BB0FCA5C907
:100F300037070080832709006301E504055763C76D
:100F4000E7022320AA002A84E3CC07FA37050080B1
:100F50003355F500EF005311AA8422852E84EF004B
:100F6000B3102A87AE87B7EA048011B7232009009F
:100F700023200A0001448147D1BFE9F185072320DE
:100F8000F900370500405DBFA1F585073EC637056E
:100F900000403DBFB7070080E3F7A7F295B7B7075A
:100FA0000080E3F7A7F8A9BF011126CA85444AC803
:100FB0002A893395A4007D1522CC4EC6328406CEF4
:100FC000AE89EF00730A33062441930706FE2A898F
:100FD0002E8463CA0704B395F4000145EF00D320C3
:100FE0002A86AE864A85A285EFF09218938709FE7D
:100FF000AA842E8463CD07028545B395F50001458B
:10100000EF00931E2A86AE862685A285EFE0D27277
:10101000EFF01149EF00437DF2406244D24442496F
:10102000B2490561828081453395C40045BF0545BD
:10103000814533153501E9B779714ECEAA893285DC
:1010400006D622D426D24AD0B6842E8952CC56CA8D
:101050005AC8C28A3E8B5EC662C4BA8B328CEF40DD
:10106000F34B2A842685EF40734BCE852A8A4A8526
:10107000EF4043722A89A2855285EF40A371AA8569
:101080004A85EF307367AA8523A0AA002A894E8576
:10109000EF309366AA852285EF40C36FAA89AA859F
:1010A0002285EF4063256357A00413150C0141818D
:1010B000EF40D346AA84AA852285EF40A36DCA8556
:1010C000EF40033AA68523A0AB005285EF40836C26
:1010D00083A50A00EF40C338B25022542320AB004E
:1010E00092540259F249624AD24A424BB24B224CC4
:1010F00045618280CE855285EF40432BAA871395A8
:1011000004014181E3C607FA4E85EF40735FEFF0BB
:10111000B16BEF50E30BEF40F339420503A90A002E
:10112000418179B779715EC6AA8B37E504800325C2
:10113000857822D42E84DE8506D64AD04ECE52CC77
:1011400056CA5AC862C43E8B3689BA89B28A26D238
:10115000EF30935A2A8C930500005A85EF40C3194B
:10116000014A6352A00683240900A2852685EF4028
:10117000A318D6856343A000A2842685EF400323ED
:101180002A87A2855685634C0704EF40A360E28559
:10119000EF40032DEF40D356EFF01163EF504303C0
:1011A000DE85EF40E32BA285EF30530F050A23A025
:1011B000A9005285EF409336DA85EF40231F1109CD
:1011C0009109E34205FAB250225492540259F2496D
:1011D000624AD24A424BB24B224C456182802685FC
:1011E000EF40435BE285EF40A327EF407351EFF000
:1011F000B15DEF40F37DDE85EF408326A285EF30C1
:10120000F309050A23A0A9005285EF403331AA85CE
:101210005A85EF40630E11099109E346A0F465B7C2
:10122000411106C622C426C24AC0AE84EFF0D17571
:10123000B7E7048083A5C778EF4083222A84EF4074
:10124000334CEFF07158EF40B3782A89EF40931F89
:10125000CA8588C02285EF40E353B7E7048083A5A1
:10126000077906050581EF406314B2402244924499
:1012700002497D8141018280F1C57971B7E704801F
:1012800022D426D24AD04ECE52CC56CA5AC85EC6B6
:1012900062C403A9876E83A9C76E06D66AC26EC0F0
:1012A0002E8AAA84B28A3684014C370B0080855B73
:1012B00019A823A00A0023200400050CA104910A08
:1012C0001104630D8A0503AD040083AD440001469B
:1012D00081466A85EE85EFF0624461DD22866A858B
:1012E000EE85EFF0B13A4A86CE86EFF06268EFF015
:1012F000B14DEF00E361634AB004B1C51C40630D1A
:10130000650363D5770123200400014523A0AA00CB
:10131000050CA104910A1104E3178AFBB250225470
:1013200092540259F249624AD24A424BB24B224C81
:10133000124D824D45618280E9F585071CC0370555
:101340000040C1B78280E37BABFAEF002265411118
:1013500022C41344F6FF26C24AC07D8406C62E89E5
:10136000718CB304C0406353C000814433148500C2
:1013700022869356F4414A859355F941EF508335BF
:101380006304240963C90504370700402A973335ED
:10139000A7002E9506057D83B367E5007D4763456D
:1013A0009708138704FE014563550700054533156B
:1013B00095007D15B240224413D7F701935615408E
:1013C00036977D8D3325A700B3D7974002499244C5
:1013D0003E9541018280370700C005077D56B30660
:1013E000A70033B7A6003305B600B307A70013D78D
:1013F000F74106070583BA9633B5E6003E95060524
:1014000093D7F601C98F59BF37070040014663D60D
:101410000500370700C005077D56B70600809347D3
:10142000F9FFE30DD9F665BFB7A6038037A60380A1
:1014300037A5038093860636130606379305701684
:101440001305C53CEF000257411106C622C4634490
:1014500006109387F601130760023684636DF70C5C
:10146000A1663387D500C1676377F70AB707FF7FA7
:101470006346F6041386F6FF8146EF50A325B9476D
:1014800033878740930707FE63C907040546331671
:10149000F60081473387A7003D4533048540B337C5
:1014A000F7003305B600930604FE3E9563C90604B3
:1014B000B24022443355D54041018280B307D60063
:1014C00013D6074193D6F741EF50C320B94733876E
:1014D0008740930707FEE3DB07FA8547B397E700EA
:1014E0003387A7003D45330485400146B337F700F5
:1014F0003305B600930604FE3E95E3DB06FAFD478E
:101500000605818FB240B317F5003355870022449A
:101510005D8D41018280B7A6038037A6038037A581
:1015200003809386064B1306C6419305B00213054C
:101530004546EF002248B7A6038037A6038037A5AB
:101540000380938646491306C6419305A0021305FE
:101550004546EF002246B7A6038037A6038037A58D
:101560000380938606401306C64193059002130537
:101570004546EF0022446351B00601118A0522CC92
:1015800026CA4EC606CE4AC82A84B284B309B5001C
:1015900003290400930500004A85EF30F3556340AA
:1015A000A002930700009CC011049104E39289FEFD
:1015B000F2406244D2444249B2490561828023A08C
:1015C000240111049104E39589FCF2406244D24461
:1015D0004249B249056182808280635CB006011194
:1015E000B7E7048056C283AA8778B7E7048052C45D
:1015F00003AA47798A0522CC4AC84EC606CE26CA17
:101600002A843289B309B5000440D6852685EF3097
:10161000B34EAA87D28526856345F002EF30D34DBD
:101620006342A0022320490111041109E31E34FD85
:10163000F2406244D2444249B249224A924A056188
:101640008280D6842320990011041109E39E89FA2F
:10165000C5B782806350B0080111B7E7048052C457
:1016600003AA87798A0522CC4AC84EC606CE26CA66
:101670002A843289B309B5000440D2852685EF302B
:10168000B347AA879305000026856346F002EF3032
:10169000B3466343A002930700002320F90011041E
:1016A0001109E31B34FDF2406244D2444249B2497D
:1016B000224A05618280D2842320990011041109F5
:1016C000E39C89FAF2406244D2444249B249224A38
:1016D000056182808280635DB00241118A0522C467
:1016E00026C24AC006C62A84B2843309B50008401F
:1016F0009104110413250500EF40C37223AEA4FE2C
:10170000E31789FEB240224492440249410182809B
:10171000828093D8F501AE98854793D8184063D559
:10172000B702B2860147B307E50083870700890641
:1017300005071398C7011358C8419187238F06FFE7
:10174000A38FF6FEE34117FF93F7150089CB46956B
:10175000830705002E96F207F187A30FF6FE82801D
:101760009C419443910763410602635FD6000A06D9
:101770003E960C4263CA05001C4589C79A0533850D
:10178000B70082803C498287014582808C414111AB
:1017900006C622C403A80500B2872A87634A060248
:1017A0006358060393172600AE97CC43FD5763801A
:1017B000F5043684144593976500B69781E63C4955
:1017C0008297AA87B2401CC0224401454101828011
:1017D00083284701B7A503803A85C2863E86938554
:1017E00005508298B24022440545410182805C49FF
:1017F000B7A503809385C5528297B2402244054520
:10180000410182809C419443634E0602635CD60290
:1018100091070A063E960C4263C605021C4581CB21
:10182000139565003E958347D50289CF82803C4958
:10183000411106C6829709C98347D50291C7B240B4
:101840004101828001458280B24001454101828090
:10185000DC419443910763410602635FD6000A06A8
:101860003E960C4263CA05001C4589C79A0533851C
:10187000B70082803C49828701458280CC4141117A
:1018800006C622C403A80500B2872A87634A060257
:101890006358060393172600AE97CC43FD57638029
:1018A000F5043684144593976500B69781E63C4964
:1018B0008297AA87B2401CC0224401454101828020
:1018C00083284701B7A503803A85C2863E86938563
:1018D00005508298B24022440545410182805C490E
:1018E000B7A503809385C5528297B240224405452F
:1018F000410182809C419443910763410602635FEA
:10190000D6000A063E960C4263CA05001C4589C7EC
:101910009A053385B70082803C49828701458280E1
:10192000DC459443910763410602635FD6000A06D3
:101930003E960C4263CA05001C4589C79A0533854B
:10194000B70082803C49828701458280CC454111A5
:1019500006C622C403A80500B2872A87634A060286
:101960006358060393172600AE97CC43FD57638058
:10197000F5043684144593976500B69781E63C4993
:101980008297AA87B2401CC022440145410182804F
:1019900083284701B7A503803A85C2863E86938592
:1019A00005508298B24022440545410182805C493D
:1019B000B7A503809385C5528297B240224405455E
:1019C000410182809C459443910763410602635F15
:1019D000D6000A063E960C4263CA05001C4589C71C
:1019E0009A053385B70082803C4982870145828011
:1019F0008C45411106C622C403A80500B2872A8778
:101A0000634A06026358060393172600AE97CC4339
:101A1000FD576380F5043684144593976500B697A7
:101A200081E63C498297AA87B2401CC02244014506
:101A30004101828083284701B7A503803A85C28689
:101A40003E86938505508298B24022440545410167
:101A500082805C49B7A503809385C5528297B240C6
:101A60002244054541018280797126D24ECE52CC66
:101A700056CA5AC806D622D44AD05EC683AAC50022
:101A8000032BC600AA89BA843E8AB5C2568536841D
:101A9000EF400347AA8B5A852E89EF4063462A867A
:101AA000AE865E85CA85EFE0B26C2A8948442E84F2
:101AB000EF4003452A86AE864A85A285EFF00254A0
:101AC0002A89C844139415000580EF4063432A8691
:101AD000AE864A85A285EFE02246B7E7048003A6DA
:101AE000077283A64772EFE0725A634CA004DA854E
:101AF0005685EF30F316930500002A84EF30C37F3C
:101B0000634505062285EF40A33FAA87C8442E847B
:101B1000BE84EF40E33E2A86AE862685A285EFE0AE
:101B2000A2412320AA002322BA000145B250225428
:101B300092540259F249624AD24A424BB24B456131
:101B4000828083A7490137A70380130707569306AE
:101B5000001437A60380B7A503804E8513064658A8
:101B60009385055B82970545D1B737A7038083A787
:101B700049011307875C9306D014E1BF01112E8839
:101B80004AC84C462A890325C80022CC26CA4EC61C
:101B900006CE3684BA89EF30B30C93050000AA84D0
:101BA000EF308375634C05022685EF406335AA84C8
:101BB00048442E84EF40C3342A86AE862685A2850B
:101BC000EFE08237F240624423A0A90023A2B900CB
:101BD000D2444249B24901450561828083274901C7
:101BE00037A7038037A60380B7A503804A8513076C
:101BF000875C9306D014130646589385055B82973D
:101C0000F2406244D2444249B249054505618280AE
:101C10001C42797122D426D24AD04ECE06D652CC5E
:101C200056CA5AC85EC662C466C20D48AA842E84CB
:101C30003689BA896380070F25476389E7061D4700
:101C40006398E702216A7D1AE17A8547032BC60073
:101C5000832B06016307F4068D476301F40C894763
:101C60006309F4142320590123A04901014515A05B
:101C70005C4937A7038037A60380B7A50380130705
:101C8000475E93063019130646589385055B829785
:101C90000545B250225492540259F249624AD24A3E
:101CA000424BB24B224C924C456182808547032BBC
:101CB000C600832B0601130AF007930A00F8E31D00
:101CC000F4F8DA8513050000EF300323EF404323D7
:101CD000EFF0812FEF40C34FB7E7048083A5C779AA
:101CE0002A8BEF30636163440514B7E7048083A552
:101CF000077A5A85EF30836B634BA0125A85EF3019
:101D00007374AA9B63C85B152320790123A0490142
:101D1000014541B7130AF00F814A05BFDA85130563
:101D20000000EF30631DEF40A31DEFF0E129EF400D
:101D3000234A37E404808325C4792A8CEF30C35BBF
:101D40006348050AB7EC048083A50C7A6285EF30FE
:101D5000E365634FA0086285EF30D36EB30775016A
:101D600063CE570F37E70480032587792320F900D6
:101D7000DA85EF306318EF40A318EFF0E124EF406D
:101D800023458325C4792A84EF300357634205062F
:101D900083A50C7A2285EF306361634BA004228512
:101DA000EF30536AAA9B63497A0B23A0790101455E
:101DB000CDB5B7E7048003A54779DA8537E4048019
:101DC000EF308313EF40C313EFF00120EF404340A7
:101DD0008325C4792A8CEF302352634B0500B7EC7E
:101DE000048083A50C7A6285EF30435C6355A002C2
:101DF000DC4837A7038037A60380B7A50380268574
:101E00001307C75E9306B015130646589385055B06
:101E100082970545BDBD6285EF30D362B30775017A
:101E200063C0570537E704800325877881B7DC480E
:101E300037A7038037A60380B7A50380268513073D
:101E4000C75E9306B015130646589385055B8297C7
:101E5000228581B5D68B4DBDD28B81BFD68719B770
:101E6000D687C9B71971E2CC03AC0503A6DACED682
:101E7000D2D4DAD0DECEE6CAEAC8AE8986DEA2DCEB
:101E8000CAD8D6D2EEC6854536C63EC442C846CA72
:101E90000A4B9A4B2A4DBA4CCA442A8A630ABC049C
:101EA00003234501B7A7038037A7038037A6038024
:101EB000B7A5038062888548938747611307076346
:101EC0009306B00D130646589385C5640293054CDE
:101ED000F6506654D6544659B659265A965A065B59
:101EE000F64BD64C464DB64D6285664C09618280F4
:101EF000832A06033289638A8A0303234501B7A72D
:101F0000038037A7038037A60380B7A503808548E1
:101F1000568893874761130787669306D00D13068B
:101F200046589385C564029365B73A84585A630945
:101F300007141C436383071003A8070063570C05AD
:101F400083A60900E516F59A95C25C4937A7038078
:101F50001307476B9306D00E37A60380B7A50380FF
:101F6000130646589385055B82979DB71442254614
:101F7000638DC60C4946638AC60C37A703805C494B
:101F80001307076F9306F00EC1BF03A5C900032C0A
:101F9000C400635390063ECCEF309376AA8D6285E1
:101FA0006ED42ED6EF30D375E2476A8FE68D2AD0F5
:101FB0002ED2014D930CC103130C8103C843110FA2
:101FC0003ECE7ACCEF30D3732256B256910D050D2A
:101FD000EFE0121A02569256EFD01276E68662862B
:101FE000EFE0EFD2E256624FF247232EDFFEF256C9
:101FF00023AEDDFEE3449DFC83A709000D47638704
:10200000E71225476386E7001D47014CE392E7ECA2
:10201000A24722866654F650D6544659B659965A67
:10202000664CD64C464DB64D8C435E87DA86F64BF1
:10203000065B5285265A0961E1BE37A703805C49D9
:10204000130787699306900E01BF6383040503237A
:102050004A01B7A7038037A70380A6889387C77272
:102060001307C7739306100F37A60380B7A5038025
:10207000130646589385C56452850293568C89BDD4
:1020800037A703805C49130747689306800EE9B5BC
:102090001447032789008A06369783284700638000
:1020A0001403B7A7038037A7038003234A012688B8
:1020B000938707761307C7729306200F75B703A59A
:1020C000C90091073ECE6ACCEF309363AA8D484495
:1020D0006ED02ED2EF30D362624FF247E68D2AD413
:1020E0002ED6014D930CC103130C81038843910735
:1020F0007ACE3ECCEF30D36002569256050D910D4C
:10210000EFE012072256B256EFD01263E6866286DF
:10211000EFE0EFBF724FE256E247110F232EDFFED2
:10212000F25623AEDDFEE3439DFCF9B5B24483AC29
:10213000C900032DC900B5C06685EF30735CAA8D58
:102140006A852E8CEF30D35B2A86AE866E85E2855B
:10215000EFE012022A8CC8442E89EF30735A2A8687
:10216000AE866285CA85EFE072692A8C484413996D
:10217000150013591900EF30B3582A86AE866285D0
:10218000CA85EFD0725BB7E7048003A6077283A607
:102190004772EFE0A26F634DA004EA856685EF30D9
:1021A000232C930500002A89EF30031563460506AA
:1021B0004A85EF30F354AA8A48442E89EF305354AD
:1021C0002A86AE865685CA85EFD0125742467418C5
:1021D000EFE0EFB37257524683A709003307E040A0
:1021E000A54618C2E386D7E20D47E383E7E229BD9F
:1021F00083274A0137A70380130707569306001465
:1022000037A60380B7A50380130646589385055B60
:1022100052858297568C6DB937A7038083274A0170
:102220001307875C9306D014E1BF5971A2D480597B
:10223000A6D2CAD0DEC6EAC06EDEAE8486D6CECEC8
:10224000D2CCD6CADAC8E2C4E6C2854542C046C28C
:10225000C65BD65EE65D765D2A89630AB404032315
:102260004501B7A7038037A7038037A60380B7A52A
:102270000380228885489387476113070763930685
:10228000B00D130646589385C56402930544B650B5
:102290002285265496540659F649664AD64A464B34
:1022A000B64B264C964C064DF25D65618280032C40
:1022B0000603B28963118C04368F545A3E8A3A8BD6
:1022C0009C4283AC07006350940798406517759B48
:1022D0006307070E5C4937A703801307476B930614
:1022E000D00E37A60380B7A5038013064658938502
:1022F000055B829769BF03234501B7A7038037A712
:10230000038037A60380B7A503808548628893873A
:102310004761130787669306D00D130646589385C9
:10232000C5640293ADB7C044832AC70063998C0586
:10233000C84376C67AC4EF30B33CAA8C22852E847B
:10234000EF30133C2A86AE866685A285EFE04262B6
:10235000AA8C56852E84EF30B33A2A86AE866685DF
:10236000A285EFD0723D74103010EFE04F9AA25763
:10237000224FB24E23A0FD00B2572320FD009C4007
:102380000D476383E71025476386E7001D47014437
:10239000E39FE7EE265483250A00B6509654F6498B
:1023A000664AD64A264C964C064DF25DDE865A8623
:1023B000B64B464B4A8506597687656191B81842F7
:1023C0002546630DC7004946630AC70037A7038047
:1023D0005C491307076F9306F00E21B7944603A7D5
:1023E00089008A06369783284700638B1C030323E2
:1023F0004901B7A7038037A7038037A60380B7A595
:1024000003806688938707761307C7729306200FA9
:10241000130646589385C5644A850293628485BD38
:10242000C84476C67AC4938A4700EF30732DAA87D2
:102430000325CB003ECC2ECEEF30932C224FB24E54
:102440002AC82ECA014403A50A0076C67AC4EF3012
:10245000332B6246F246910D0504EFE0625142468D
:10246000D246910A110DEFD0322D74103010EFE0EA
:102470000F8AA256224FB24E23AEDDFEB256232E55
:10248000DDFEE34294FDE5BD7AC483AAC40083ACBB
:10249000C90063070F06568576C6EF307326AA89F2
:1024A00066852E84EF30D3252A86AE864E85A2859A
:1024B000EFE0024C224FAA892E840325CF00EF3093
:1024C00033242A86AE864E85A285EFE03233AA8970
:1024D0000325CB00139415000580EF3073222A8664
:1024E000AE864E85A285EFD03225B7E7048003A6DD
:1024F000077283A64772EFE06239B24E6341A006CD
:10250000E685568576C4EF20B375930500002A84CE
:10251000EF20935EA24E63480506228576C4EF3015
:10252000331EAA890325CB002E84EF30731D2A8623
:10253000AE864E85A285EFD0322002467410EFD0D1
:102540001FFD325712469C403307E040A54618C293
:10255000A24EE381D7E40D47E38EE7E205BD832772
:10256000490137A70380130707569306001437A6BF
:102570000380B7A50380130646589385055B4A85FB
:102580008297628429B337A7038083274901130701
:10259000875C9306D014E1BF8C450845411106C6FF
:1025A000EF604103B2403335A00041018280944581
:1025B000411126C29842AE8406C622C44AC085454F
:1025C0006300B7025C49B7A503803A869385057A14
:1025D0008297B240224492440249054541018280DB
:1025E000C04232892285EF606105635F8000DC4074
:1025F0009315240013074500BE95944391071107D6
:10260000232ED7FEE39BB7FEB24022442320A9002D
:10261000924402490145410182801971DECE86DE75
:10262000A2DCA6DACAD8CED6D2D4D6D2DAD0E2CCC0
:10263000E6CAEAC8EEC623220500230405009C4131
:10264000130785002EC23AC618C1AA8B6351F01C2D
:10265000924737B90380B7490F00379A9800938C97
:102660004700014C8147130949859389F923130ACF
:10267000FA676398071C83A70C00A54613D7F74198
:10268000B344F700FD83998C3EC463F496389307F6
:10269000300663F697389307703E63F6973889657E
:1026A0009387F57063F39738E16A37EBF505268574
:1026B0000544138D0571938AFA69130BFB0F39A03A
:1026C00063F6B92F6377BA2F637BBB2FEA85AA8D98
:1026D000EF40C30922871104E3E4BAFF224B3C0810
:1026E0001306D002B3058B0008083EC8EF804148AE
:1026F000C24A93073006DA9A63F297047914096B99
:102700005694130BFB70930540062685EF40830A11
:10271000131D1500930540062685EF402305B307DA
:10272000A90183C6170003C70700A687A300D4002A
:102730002300E400AA847914E367FBFCA54763F84F
:1027400097228604CA9483C7140083C40400A3801C
:10275000FA00B7A6038023809A0005479386467D3A
:10276000014681450808EF802157041826D41C41F2
:10277000930A85002A84638457273ED41C453ED89B
:102780005C403ED62320540123040400A257232298
:10279000040003A50B006386971E32464257B256CB
:1027A0006305A62203A68B0023A0FB0023A2DB0067
:1027B00023A4EB00630105222AD432D802D62300D9
:1027C0000500225563069500C2558505EF60D12DA1
:1027D00042453C086306F500E2458505EF60D12CD3
:1027E0009247050C910C984383A74B00E343ECE818
:1027F00099CF370700407D17638DE722B7D5048056
:102800000546938545A05E85EF80016819A8B7A6A7
:10281000038009479386067D014681455E85EF80EA
:10282000A14BF6506654D6544659B659265A965A74
:10283000065B664CD64C464DB64D5E85F64B09613F
:10284000828083A70C00A54613D7F741B344F70055
:10285000FD83998C3EC463F0961C9307300663FE9B
:10286000971A9307703E63F4971C89659387F570F8
:1028700063F9971AE16A37EBF50526850544138D50
:102880000571938AFA69130BFB0F39A063FDB91127
:102890006374BA136378BB13EA85AA8DEF30136DA6
:1028A00022871104E3E4BAFF224B3C081306D0024E
:1028B000B3058B0008083EC8EF80812BC24A9307FE
:1028C0003006DA9A63F297047914096B5694130B65
:1028D000FB70930540062685EF30D36D131D150060
:1028E000930540062685EF307368B307A90183C6B8
:1028F000170003C70700A687A300D4002300E40045
:10290000AA847914E367FBFCA54763F7970686045E
:10291000CA9483C7140083C40400A380FA00B7B626
:10292000048023809A0005479386861001468145DE
:102930000808EF80613A041826D41C41930A8500E8
:102940002A846384570B3ED41C453ED85C405E8588
:102950003ED62304040023205401232204003256CF
:10296000A255EF8061522255E31095E695B5938408
:10297000040393F4F40FF1BB9384040393F4F40F72
:1029800079BF325611CA85476307F606A685EF0060
:10299000A212325603A50B00329523A2CB002300CE
:1029A0000500225521BD13045700FDBD1304570037
:1029B00035B3130467001DB313046700F5B51304A2
:1029C000770029BB13047700C5B523A0FB0023A221
:1029D000DB0023A4EB0026D404182685C5B34146AA
:1029E000D6852685EF00420D61BB4146D6852685FA
:1029F000EF00820CA1BF834701032300F50032568C
:102A000003A50B0023A2CB0032952300050022551D
:102A100075B30544E1B1054441BD094471B50944AC
:102A200075B9114451B50D4455B9114445B90D441A
:102A3000A5BD37A503801305857DEFD0AFE5C2475F
:102A400038082A846387E700E2453E858505EF6004
:102A5000B10503A50B00B2476387A70083A58B00D0
:102A60008505EF6071042285EF5013532A84D5B792
:102A7000A2572A8463879700C2553E858505EF607B
:102A8000B10242453C08E306F5FCE2458505EF60EE
:102A9000B101C1B72A84F5B798451C461D71D6C24D
:102AA000DAC0832A070003AB0700A2CCCAC8CEC68F
:102AB000D2C45EDE86CEA6CAAE8B3284AA8936899F
:102AC0005A8A63C36A01568A5285EF503137AA8405
:102AD000635A400513182A002A988147130EFBFFFA
:102AE00005451383FAFF63DD570583A58B00330784
:102AF000F3400A072E97584363DF670114443306F7
:102B0000FE400A06B29683A8460063041707630ACC
:102B1000A7046392A8061DEF2320080085077118FB
:102B2000E39347FD232099000145F6406644D644CF
:102B30004649B649264A964A064BF25B2561828091
:102B400063D667031844B306FE408A063697584397
:102B5000631AA70085486353170146872320E800BE
:102B600075BF468755DBBA880547F5B705478548E1
:102B7000DDB775F355B70A8503A94901793C0C44C3
:102B800028080244593CE246B7A503802286938573
:102B9000057F4E85029962451C106306F50082553B
:102BA0008505EF60617002453C006306F500A245B3
:102BB0008505EF60616F81C42685EF50312F054593
:102BC000ADB7E24718102A846387E70082553E8537
:102BD0008505EF60616D02453C006306F500A24586
:102BE0008505EF60616C81C42685EF50312C22850C
:102BF000EF50933A2A84EDF8DDBF2A84E9BF1971BA
:102C0000A2DCA6DA3684B284944610469C45DAD01B
:102C1000DECE032B060083AB0600CED6D2D4D6D2AE
:102C2000E2CCE6CA86DECAD803AC0700AE8CAA891D
:102C30003A8ADE8A63437B01DA8A63D38A01E28AB5
:102C40005685EF50B11F2A89635C500913972A00FB
:102C50002A9701488546930EFCFF1305FBFF9385D9
:102C6000FBFF8548635A880183A78C0033860E4199
:102C70000A06B29783A847000543635968019C443C
:102C8000330605410A06B29703A34700054E635970
:102C900078011C44338605410A06B29703AE47000B
:102CA000C687635313019A876353FE00F28781CB73
:102CB000C68763D368009A8763D3C701F2876384AA
:102CC000D800639317036304D300639F6700630412
:102CD000DE00639BC7011CC305087117E31358F995
:102CE00023202A010145B5A083A58C00280003AA52
:102CF000490125328C440810A24405320C4428189E
:102D00000254213A6257B7B50380A286268693857E
:102D100005824E85029A62559C006306F500864541
:102D20008505EF60615802553C106306F500A25519
:102D30008505EF60615722451C086306F500C24512
:102D40008505EF606156630509004A85EF5011164D
:102D50000545F6506654D6544659B659265A965AE1
:102D6000065BF64B664CD64C09618280E2579800B0
:102D70002A846387E70086453E858505EF60C1525A
:102D800002553C106306F500A2558505EF60C15160
:102D900022451C086306F500C2458505EF60C15059
:102DA000630509004A85EF5071102285EF50D31E4C
:102DB0002A84E31909FED5BF2A84D9B72A84C9BF5A
:102DC0007D15C14763EAA700B7B7038093870792D1
:102DD0000A053E9508418280014582800145828036
:102DE000545D9DC298429387460005070A07BA962C
:102DF000638CF6007D5619A06388F600984391070E
:102E0000E31CC7FE0545828001458280B70710F0AC
:102E100023A0A7F082808347050089CB370710F0F5
:102E20002320F7F0834715000505FDFB82808347CB
:102E3000050089CB370710F02320F7F083471500F2
:102E40000505FDFB82808280AA8748419047AE86B7
:102E50000C41584A104A03A84500CC470288484113
:102E60001C419C4782871C45139515002E95D84B15
:102E70009C4B0A050E07BA97DC433E958280F145CC
:102E80006F6081421849854763E6E70048411C416D
:102E9000DC4F8287411106C6EFE0513018498D475B
:102EA0006317F7005C498A05BE958841828041110D
:102EB00006C6EFE0B12E184985476316F700484172
:102EC0001C41DC478287411106C6EFE0312D1849CD
:102ED00085476316F70048411C419C4B828741118E
:102EE00006C6EFE0B12B184985476318F7001C456B
:102EF000B2864841D04B6F10E05E411106C6EFE04C
:102F0000F1299C452A8794439107634B0602635934
:102F1000D6020A063E96144263C406021041B73731
:102F20000080938787E4504A631EF60048411C479F
:102F30004C4703280500D84B904B832748008287D5
:102F400001458280B68502869C412A879443910779
:102F5000634B06026359D6020A063E96144263C4C6
:102F600006021041B7370080938787E4504A631EFA
:102F7000F60048411C474C4703280500D84B904BAE
:102F800083274800828701458280B6850286DC411E
:102F90002A8794439107634B06026359D6020A06B7
:102FA0003E96144263C406021041B73700809387EF
:102FB00087E4504A631EF60048411C474C470328EB
:102FC0000500D84B904B83274800828701458280BB
:102FD000B6850286B7B703809387479C1CC14CC156
:102FE00014C550C523280500232A0500232C0500FD
:102FF000828063C8050063D6C5008A05AE96884204
:1030000082807D5582804CC982801C49411106C650
:103010000547F59B6384E700EFE05118104D91C11F
:1030200019CA37B5038013054596EF00C123B24096
:10303000054541018280B2400CCD014541018280AD
:1030400039712E852C1006CE32D436D63AD83EDAD7
:1030500042DC46DE2EC6EF00211EF2402161828056
:103060000CC98280084982809387F5FF41113E9503
:1030700006C622C42E84EF30636FA285EF3043630F
:10308000B240224441018280411106C622C42E84EE
:10309000EF30C36DA285EF30A361B24022444101FD
:1030A00082807D1541112E9506C622C42E84EF30F4
:1030B000E36BA285EF30C35FB240224441018280BE
:1030C000C94763EAA702B7B703809387879F0A05BA
:1030D0003E951C418287A1479CC10145828085475E
:1030E0009CC10145828091479CC1014582808947EE
:1030F0009CC10145828005458280C1479CC1014534
:103100008280397156D2832A05005ECE4ED6B30A2C
:10311000554183DB0A0052D406DE22DC26DA4AD887
:103120005AD091472E8AB28963F0770703D44A00B8
:103130002A89854415C02A941C403E94032B040020
:10314000630C0B000A0B229B4C4026851104EF30C8
:103150002356AA84E31A8BFE994763FF770583D72A
:103160006A000145B1E76C00EF0001502A8405C5F3
:10317000F25022856254D2544259B259225A925A7C
:10318000025BF24B2161828001456C00EF00C14D72
:1031900085442A8471FD3245CE851D372A8469F91C
:1031A00003A50900A685EF30A3502320AA00C9B7C4
:1031B0003E990305090045BF014575B7011106CECB
:1031C00022CC26CA4AC84EC652C4A5C94041AA89C3
:1031D0002E8A054511CC03290400635B20011104EC
:1031E00081440C4085041104EF30834CE39B24FFA1
:1031F00083A789004947636EF70237B703808A07C0
:10320000130747A4BA979C438287A145EF30434AEE
:103210002320AA000145F2406244D2444249B24907
:10322000224A056182809145D5B78545C5B7894554
:10323000F1BF0545CDB7C145D1BFEFE021769C4533
:1032400039714AD806DE22DC26DA4ED652D456D25E
:103250005AD02A89C9C3184659C7B68994468442A8
:10326000A9E894431C432E8463C3D70032841C40D6
:1032700003A509006301F5088327490137B70380D7
:1032800037B60380B7A503804A85130747B0930676
:103290004009130686AA9385055B82970545F2507F
:1032A0006254D2544259B259225A925A025B216155
:1032B00082805C4937B703801307C7AE93061009B5
:1032C00037B60380B7A50380130686AA9385055BEE
:1032D00082970545E9B737B703805C49130707A90B
:1032E0009306F008F1BF37B703805C49130747AD79
:1032F00093060009F1B78A8502C0D933A285480038
:10330000EFD02F9A124B635C6005032A840082473A
:10331000814A110A83250A003E85850AEF30433928
:10332000AA87110AE3185BFF032A890323ACA900CB
:103330002AC0EF50C129AA854A85029A23A4A90070
:103340001C44130745009443910714C1944385041A
:10335000910714C31107E31B9BFE014589B7024582
:103360008324890323ACA900EF506126AA854A85EE
:10337000829423A4A9001844AA870145184398C33E
:1033800039BF48411C419C47828782808280084522
:1033900041461C419C47828748411C419C4782878B
:1033A00048411C41DC47828748411C41DC4B8287F5
:1033B00048411C419C4B82870845114693050004F7
:1033C0001C419C4782878280411106C622C426C2C6
:1033D0004AC0A9C9985985472E84AA846304F70274
:1033E000C840A285232A04021C412322040023286A
:1033F0000402232404002244B24092440249DC47E0
:103400004101828703A94503630E090048418325D2
:1034100049001C41DC478297C840CA851C41DC47F3
:1034200082977DBFEFE08157930540026F50D167CF
:10343000A1456F507167411122C406C62E8485C113
:103440001C4D89CB0845B2858A051C4111469C4715
:10345000829708C0B2402244014541018280EFE0DA
:10346000E15383A80500397122DCB388154103D8E4
:10347000080026DA4AD84ED652D456D25AD05ECE5A
:1034800006DE114A2E8BAA84B68BB2890144B94A52
:103490007D5963790A0583D74800A9C7DA9798430D
:1034A000BA9798436378E406131524009107AA9706
:1034B0009843BA9798433387E7400356070063FF62
:1034C000CA000357E70019CBBA9783C7070099C70B
:1034D000638D0B005E951C41638927010504B109CA
:1034E000E36B0AFB8327000002906C004E85EFF02F
:1034F000FFCC15E18844B24541461C419C47829768
:1035000023A0A90005C583280B00B3081B4103D8DD
:103510000800E9B70145F2506254D2544259B259F9
:10352000225A925A025BF24B21618280B24537B532
:103530000380130505B2EFF010530545E9BF0111F3
:1035400006CE22CC26CA4AC84EC652C441CEB28943
:103550002A842E8A0149A14499A083D78700A1CB50
:10356000D2978843AA9798436375E90613152900F3
:103570009107AA9788433E95EF004100AA87084427
:1035800093951700BE9518418A059D8D18471146E1
:103590008A05029705C123A0A9000509A10983276F
:1035A0000A00B307FA4003D70700E3E8E4FA8327E9
:1035B0000000029037B50380130505B5EFF0B04A5F
:1035C000F2406244D2444249B249224A054505616B
:1035D0008280F2406244D2444249B249224A0145C3
:1035E00005618280EFE0813B9C4101114AC8B387AD
:1035F000F54003D807002E8906CE22CC26CA4EC637
:1036000052C456C2A14563F0050D83D78700C5CFCC
:10361000CA973A849843BA979C436376F408184152
:10362000B73700809387873B585BAA84B28A368A73
:103630006310F70688441146930500041C419C471B
:103640008297AA8994408147228703A886034E86E1
:10365000D286CA85268502981DED63810A020E0472
:10366000A29A83A74A0093161A00D2968A06BE969B
:10367000D8429C4223A4E90023A2F900F24062440C
:10368000D2444249224A924A4E85B249056182801B
:103690000297AA8945BF37B503801305C5CCEFF063
:1036A000903C8149E1BFB7B6038037B6038037B598
:1036B0000380938686B8130646B99305A00A1305BE
:1036C00005C9EFE0212F8327000002901D715C41A6
:1036D000D2C42E8A0C4DD6C2AA8A6800A2CCCAC80F
:1036E000CEC686CEA6CADAC05EDE62DC66DA328973
:1036F000B68952C63EC802D6EF20500E2A8419CD94
:10370000F64022856644D6444649B649264A964A3A
:10371000064BF25B625CD25C256182804C006800E3
:1037200002C2EF3020312A8461FD130B4900A1440D
:103730001DA883D78700A1C3D2978C43AE97984327
:10374000637EE40203A70A00931524009107AE9755
:103750008C4303260B00185B9246BE955685029754
:10376000210B71E1050483270A00B307FA4003D750
:103770000700E3E0E4FC83270000029092454A86BC
:103780006800EF2070282A8425FD03A5CA01914511
:10379000EFF09F8D2A864A87CE8681456800EF200C
:1037A000704A2A8431FD03A54A00C145E2491C4103
:1037B000524B9C5B8297AA8403A54A004146A6858A
:1037C0001C419C4782972A8A2DC183AC0A01B747C6
:1037D00000809387876403A70C00584F6319F70490
:1037E000638C0910374C00805A89DA84FD5B130C16
:1037F0004C6429A00504E104638B890483C7440158
:10380000F5DB8840C145EFF0DF89984883A70C00BD
:1038100063067703DC47638A8701D4449044AA8512
:103820006685829761D92A84E1BD0544D1BD66854C
:103830002686D285029783AC0A015DB7D4449044B2
:103840009C47AA856685829755D52A8455BD03A5D0
:103850004A0003AC0A0181441C41FD5BDC538297A2
:1038600093971900CE978E07AA893E9B83474901FB
:1038700095C383270C0030005EC49C4FA6856285EB
:1038800082972A84E31E05E6A247032749008504A0
:10389000CE971CC36109E31B2BFD6800EF20500489
:1038A00003A54A00D2851C41DC47829703A54A0044
:1038B0001C41DC4B82972A84E31405E403A54A00EB
:1038C00083A5CA011C419C5382972A84E31A05E20E
:1038D00003A50A011C419C4B829783A50A0263F54C
:1038E000A50023A0AA02AA8503A54A0041461C41BF
:1038F0009C5782972A8429B503A54A001C41DC53B2
:10390000829761BF9C4101114AC8B387F54003D833
:1039100007002E8906CE22CC26CA4EC652C456C2F5
:10392000A14563F3050B83D78700D9CFCA973A84A3
:103930009843BA979C436379F406AA894841930552
:103940000004B28A1C411146368A9C47829703A71D
:103950000900AA842A860328870385472287D286FE
:10396000CA854E8502980DE9638E0A000E045694AE
:103970005C4093161A00D2968A06BE96D8429C42A4
:1039800098C4DCC0F24062444249B249224A924A99
:103990002685D2440561828037B50380130585D121
:1039A000EFF0700C8144F9BFB7B6038037B60380DF
:1039B00037B50380938686B8130646B99305A00AE7
:1039C000130505C9EFD0117F83270000029018412D
:1039D000A14681473307E5400356070063F5C6005B
:1039E000035787001DEF984163F2E70491058A07AA
:1039F000AE9798439146BA9798433387E74003566A
:103A0000070063FEC60003574700014531C3BA975C
:103A10009843BA9798430DCF13854700828001459C
:103A200082803A951C419841E3E2E7FCB7B60380F7
:103A300037B6038037B503804111938686B81306E5
:103A4000C6D59305A00A130505C906C6EFD0917621
:103A500082805D7186C6A2C4A6C2CAC04EDE52DC98
:103A600056DA5AD85ED662D466D26AD06ECE2AC6EC
:103A70006302061E2E8D930746003EC483270D0069
:103A800037FB0480A146B307FD4003D70700814BF5
:103A9000314A130B4B8663F1E61883D68700638D9A
:103AA0000616EA969C42BE969C4263F3FB189397D7
:103AB0002B009106BE969C421147B38AF60083A75D
:103AC0000A00B387FA4003D607006377C71483D789
:103AD000470063830714B246D69798438846114639
:103AE000BA9703A907001C41131419009C474A9474
:103AF0000A04A28582972AC263030512AA8D814C0B
:103B000091449949631D0902C5A8E2852285C13502
:103B1000184023A0AD003307E4400356070063F7C5
:103B2000C40C0355470079C12A940840850CB10D97
:103B30002295EFF0D02E23ACADFE630F990B03A7B7
:103B40000A003387EA400356070063F7C40C0354A6
:103B5000470079C0569418403A94184063FCEC0C26
:103B600003270D0013952C0011042A943307ED4010
:103B7000084083550700014C2A946379BA00035723
:103B8000C70009C76A971043330CC700184023A029
:103B90000D0023A20D003307E4408355070023A442
:103BA0000D00014563F8B9000357670001C722976C
:103BB0000305070093858D00EFF0102B39D537B53D
:103BC0000380130545F9E685EFF0E0690545B64049
:103BD000264496440649F259625AD25A425BB25B75
:103BE000225C925C025DF24D6161828023A26D01D4
:103BF000850CB10DE31599F5A2471247A146A1071F
:103C000023ACE7FE3EC483270D00850BB307FD40C0
:103C100003D70700E3E3E6E883270000029037B507
:103C20000380130545E5A285EFF0E063054545B740
:103C3000014571BFB7B6038037B6038037B503803F
:103C4000938686B81306C6E99305A00A130505C92D
:103C5000EFD05156EFD09154797106D622D426D2A6
:103C60004AD04ECE52CC56CA5AC8638F0726AA8471
:103C70002E893E85B28981451306000436843E8A2A
:103C8000BA8AEFF02107144099470145B306D440A2
:103C900003D7060063F8E70083D7660081C7A297C1
:103CA00003850700D285EFF0301C2A8B41E11440D8
:103CB00039478147B306D44003D60600637AC7006C
:103CC00003D7E60011C7229783470700B337F000F8
:103CD000D685A306FA022285DD39133715000507BC
:103CE0002322AA00232AEA00700093058A01228574
:103CF000EFF02FC12A8B1DE9184091463307E440AD
:103D00008357070063FFF602035547001DC922953C
:103D10001C413E95EFF0B0101840B1462324AA0094
:103D20003307E4408357070063E6F602B25022549B
:103D300092540259F249624AD24A5A85424B45612D
:103D40008280B7F60480938646862324DA00B14643
:103D5000E3FEF6FC8356C700F1DA36941C40214698
:103D60003E941C40B307F44083D60700E370D6FCB2
:103D700003D7870045DF22970C432E970C43638EB1
:103D80000510A945E3F4D5FA83D7A700C5D3A297B8
:103D90009443B697944363820610DC435843232828
:103DA000FA001C402326EA00B307F44003D70700BB
:103DB0006377E60E83D78700FDC3A2979843BA972F
:103DC00083AA07006387090E832709001146B145BE
:103DD0009C474A858297AA896300051083270900BA
:103DE00056858447EF40A17EAA8511464A85829474
:103DF00023A2A900630C050E1C4021470145B3070F
:103E0000F44083D607006378D70083D7870081C743
:103E1000A29788433E95EFF0B00003A7490023A086
:103E2000A90003230400232057016359500D3303D5
:103E30006440035E0300A94763F3C7078358A300E8
:103E40001107814733051401638B08041041835522
:103E500083002A9603280600B306B400A9C18C4249
:103E6000AE96944263800605630F0808544214C35B
:103E700085071107E39AFAFC414781476377C70139
:103E80000357030119C33A941C4023A4F900854742
:103E90002328FA02232A3A0351BD014B41BD83274F
:103EA0000000029063F1D70693963700369654428D
:103EB0007DBF9C401146B1459C4726858297AA89C3
:103EC00001CD9C40568503A98700EF404170AA852B
:103ED00011462685029929BF37B50380130545FB96
:103EE000EFF06038054B99B5EFD0512B37B5038013
:103EF000130545FEEFF02037054B0DBD330364403D
:103F0000035E030095BFB7B6038037B6038037B5AD
:103F10000380938686B8130646019305A00A13050D
:103F200005C9EFD0312903A30500AE8821483383AA
:103F30006840035E0300AA85CC4108456372C80D42
:103F400003588300630E080A4698B28E3E86832784
:103F50000800411106C63E9883270800637FF704D6
:103F600011080A0742970328070091474297032840
:103F7000070033080741035F080063F0E709835730
:103F80004800A5CF3E971C433E971C4363F7F604B9
:103F900011078A06BA9603A80600B1470147C296E0
:103FA00063F9C7018357C30089C7BE9803A70800F8
:103FB0004697B240F687410145B1B7B6038037B6A0
:103FC000038037B50380938686B8130646B99305F8
:103FD000A00A130505C9EFD0F11DB7B6038037B6A7
:103FE000038037B50380938686B81306C6E9930528
:103FF000A00A130505C9EFD0F11B8327000002902A
:104000008327000002901C41011122CCB307F54028
:1040100083D6070026CA4EC606CE4AC8232006000D
:1040200023220600232406001947AA843284AE897D
:1040300001456375D70083D7670099EF9305840026
:10404000EFF080622A8915C1F2406244D244B2493D
:104050004A85424905618280A6970385070093053A
:104060008400EFF060602A8965F1CE85268585326F
:104070009C40114708C0B387F44083D607006373A0
:10408000D70203D5470019CDAA9488402695EFF0B2
:10409000005948C0F2406244D244B2494A8542497C
:1040A00005618280B7F7048093874786F2405CC041
:1040B0006244D244B2494A85424905618280411135
:1040C00026C29145AA841305400206C622C44AC0EE
:1040D000EFE03FFD2A89914513054002EFE07FFCA8
:1040E0002A8491452145EFE0DFFBAA874A94914558
:1040F00021453E94EFE0FFFA2A9481C8B240228520
:104100002244924402494101828091451305C00234
:10411000EFE03FF92A94B2402285224492440249BA
:1041200041018280B7B703809387C7231CC14CC16C
:1041300091C191050CC510C9230A0500232C050067
:10414000232E0500232005028280B7B703809387C2
:10415000C7231CC150C10CC514C9230A0500232C58
:104160000500232E0500232005028280411122C470
:104170004AC02A842E89C14526C206C6B2844A9402
:10418000EFE09FEEB305A440EF00D15229C1A1C0DA
:104190001C41114693054002DC5B2A848297B240A1
:1041A0009306440040C137B7038022441307C72356
:1041B00004C918C114C5230A0500232C0500232EA9
:1041C0000500232005029244024941018280EFD07C
:1041D000E17C411122C426C22A84AE84C14506C6B0
:1041E0002694EFE07FE8B305A440EF00B14C1C41FA
:1041F00011469305C002DC5B2A848297AA84EFF003
:10420000D0089DCC1C4022851146DC5B9305400202
:104210008297B2409306440040C137B703802244DE
:104220001307C72304C918C114C5230A0500232C8A
:104230000500232E050023200502924441018280BF
:10424000EFD0C175411106C622C426C229C1AE8471
:104250009DCD1C41114693054002DC5B2A84829768
:10426000B2409306440040C137B70380224413078D
:10427000C72304C918C114C5230A0500232C05004F
:10428000232E050023200502924441018280EFD0B5
:10429000E170797122D406D626D24AD04ECE2A8435
:1042A00069C1B2845DCE630EC50A2E852295C145D3
:1042B000B689EFE07FDD33068540A2850A85EF00F1
:1042C000D1521146C1450A85EF00314E3247A24610
:1042D0001246B7D703802A849387077B58C414C437
:1042E0000A851CC050C0EF00314B1C40114693059D
:1042F00000029C47228582972A89C1452685EFE0E6
:10430000BFD633863401AA85098E4A85EF00E17055
:104310001C4011469305C0029C4722858297AA84BF
:10432000EFF0A0761C40228511469C479305400281
:104330008297B25000C537B7038022541307C723B2
:104340002322250104C918C1230A0500232C0500D6
:10435000232E05002320050292540259F24945619B
:104360008280EFD0A1632A840A85EF00F142228582
:10437000EF408342411106C622C426C24AC0F9C595
:10438000834745012A84C5E70845054711461C4176
:104390002E89230AE4009C47A1458297AA874840BA
:1043A000104437B703801441130787289305000989
:1043B000944ED0C398C35CC4232C0400114682964B
:1043C00048CC31CD832709002147B307F94083D674
:1043D0000700637FD70683D78700BDCB0844CA9701
:1043E000944318411146B6978C431C478E0582971B
:1043F000AA8431C51C402A86CA85DC57228582974B
:1044000019ED1C402686CA859C572285829701E9B2
:10441000B240224402492685924441018280B24042
:10442000224481440249268592444101828037B565
:1044300003801305C50EEFE010638144D1BF37B58B
:10444000038013054514EFE01062D9B7EFD0015592
:1044500083270000029083474501011106CE22CC3C
:1044600026CA4AC84EC6B9CF1841B684B7370080AD
:104470003443938767432E892A840C4DB289639C09
:10448000F602B9CC95CD084511468A051C419C47DA
:1044900082971840AA8688C05C5F4E86CA852285AE
:1044A000829719E1230A0400F2406244D24442494F
:1044B000B249056182802E86A685829675F51840E0
:1044C0009440D9BF37B5038013054517EFE0B059C5
:1044D000F2406244D2444249B249054505618280B6
:1044E000EFD0C14B011122CC2A84484D4EC6AE8973
:1044F000914526CA4AC8B68406CE3289EFE0DFB6B7
:10450000144C2A87A5C693981600B6988A08AA98CC
:1045100001485C433107850793B717003E98E39A3B
:10452000E8FEAD47468763E40703FD5723203701C4
:104530005CC32324270194C01C4CF240D24485075D
:104540001CCC62444249B24901450561828037B5BD
:1045500003801305051CB145EFE0F050F2406244C2
:10456000D2444249B249054505618280814675BF02
:104570001C41411122C4D84BB737008026C206C661
:104580009387873A2A84AE84631CF70448411C4110
:10459000DC4B829711C5B240224492444101828093
:1045A000484C9145EFE05FAC184CAA8705CF131635
:1045B00017003A960A063295FD56D8436313D70082
:1045C000C4C3B107E39BA7FE1306060948404C4C41
:1045D00022441C41B2409244DC4F91464101828703
:1045E00002974DBF13060009D5B7411122C42A8492
:1045F000484106C61C41DC5782971C442A849843D4
:104600003E855C478297B2402295224441018280D8
:10461000411122C42A84484106C6232C04001C41AF
:104620001146930500099C4F829748CCB240224422
:104630001335150041018280484D91456FE0DFA29E
:10464000484582800545828001458280357122CDB2
:1046500006CF26CB4AC94EC752C556C35AC1DEDE65
:10466000E2DCE6DAEAD8EED6034706002EC82A8452
:104670006301075E1389F5FF635D205DB7E7048082
:1046800083A7477A37BA0380B70C80003EC49307EC
:104690004A2E3EC09387FCFF328BB684814D3EC6C6
:1046A00093065002EE85B30CB40113061B006300A1
:1046B000D7042380EC00850D03471B00B30CB40125
:1046C000328B19C3E3CE2DFD850D23800C00FA40FB
:1046D0006A44DA444A49BA492A4A9A4A0A4BF65B7A
:1046E000665CD65C465D6E85B65D0D618280034773
:1046F0001B006304D7469306D7F993F6F60F55458A
:104700006367D50082478A06BE9694428286328BC2
:104710004DBFB306B941254613871D006352D654D9
:10472000930600032380DC0022979306800793877B
:104730002D002300D700B306F40090403687910483
:10474000254E3D4319A02E872A861378F6001305BF
:10475000780563640E01130508032300A700930581
:10476000170013554600E360C3FE2380050036861C
:1047700063FEE60003480700034506007D170506B3
:10478000A30F06FFA300A700E366E6FE958DB38D99
:10479000F50003472B00B30CB401090B1DB7330719
:1047A000B941A94663DBE64883AA0400668C9104FC
:1047B000A549A9455685EF10F37F1307050323008C
:1047C000EC005685A945568DEF10537AE28BAA8AE4
:1047D000050CE3E0A9FF23000C00668763FE7C0163
:1047E00003C60B0083460700FD1B0507A30FC7FE8A
:1047F000A380DB00E36677FF33089C41C29D03473B
:104800002B00B30CB401090B6DBD03A3040091048C
:1048100063DB2D03C24766861385E7FF3305B54189
:104820001357150013851D003A9539A02300E600A3
:10483000850D0506638CAD323387BD401A9703475B
:104840000700B28C65F703472B00090B9DBD3305AC
:10485000B941EF10A34CA245EF005335634F053C1F
:104860009D04E198CC408840E68AA104EF105316DD
:104870002A872C10114668103AD4EFE0E123B25693
:104880001307E00213DC76019377FC0F3ECC93898B
:1048900017F8B247B3F5F60063D806001307D00245
:1048A0002380EC00938A1C0023800A0093060008F2
:1048B0006384D92C9387FC0213071003138A2A0000
:1048C0003ECA2380EA00B38747411307E002A38072
:1048D000EA0023810A003ECE1D476358F71C13D51A
:1048E000650113D755012A972E9713D545012A97AD
:1048F00013D535012A9713D525012A9713D515010C
:104900002A9713D5E5002A9713D5D5002A9713D5F2
:10491000B5002A9713D585002A9713D345001305B0
:1049200000031A978D81B30BB700A381AA002382DD
:10493000AA00A382AA002383AA00A383AA00238437
:10494000AA00130C0103A9455E85EF10B366130E90
:1049500005032300CC015E85A9455EC2EF101361FB
:10496000924EA547628DAA8B050CE3EED7FD23007E
:104970000C001818637EA70103450D00834507004E
:104980007D1D0507A30FA7FEA300BD00E366A7FFDB
:10499000F247834501031383F7FF52936383052A8C
:1049A00063716A2A5287081819A06309E300050594
:1049B0002300B700834505000507E5F9130300034D
:1049C000B30547411D4523006700330EB540631B07
:1049D000B5201305000331A09305F7FF6377BA00F4
:1049E0002E878345F7FFE389A5FED247938AF7FF19
:1049F000637457279306A0022300D700B7B703803C
:104A000005071385172E93052003638EEA0005051D
:104A10002300B70083450500130A17006388051EAD
:104A20005287E396EAFED2473A8A23000A00938A25
:104A3000F7FF130D010363C6091E6A8CA9454E8555
:104A4000EF105357130705032300EC004E85A945CB
:104A50004EC2EF10B3511247A547E28BAA89050C4D
:104A6000E3EEE7FC23000C00637E7D0103C60B0030
:104A700003470D00FD1B050DA30FCDFEA380EB002A
:104A8000E3667DFF0347010319CF637E5A01930953
:104A9000010319A063095A0185092300EA0003C72D
:104AA0000900050A65FB23000A00B3069A41B69D7A
:104AB00003472B00B30CB401090B21B13307B941F3
:104AC000A94663DCE61683AA0400668C910463DAC7
:104AD0000A001307D002138C1C002380EC00B30AD9
:104AE0005041628DA549A9455685EF10B34C130777
:104AF00005032300ED005685A945568AEF1013479C
:104B0000EA8BAA8A050DE3E049FF23000D00637ECE
:104B10007C0183C60B0003470C00FD1B050CA30F93
:104B2000DCFEA380EB00E3667CFF33089D41C29D61
:104B300003472B00B30CB401090B61B63307B9412D
:104B4000850DE354E0B89840090B91042380EC00F4
:104B500003470B00B30CB401ADB62380EC00850D08
:104B600003472B00B30CB401090BA1BE03472B0074
:104B7000B30CB401090BB1B656979DE963F6EA0E82
:104B80009306900437B603802380DA00138A1A0054
:104B90001306962D9305E006E307EAF005062300C9
:104BA000BA0083450600050AE5F923000A00F5BDB1
:104BB00063FCEA0A9306E004B7B703802380DA00B7
:104BC000138A1A009385D72D13061006E30DEAEC1D
:104BD00085052300CA0003C60500050A65FA2300FF
:104BE0000A00E1B56356B008B305B740930E000361
:104BF0000343F7FF7D173305C7012300650023003A
:104C0000D701E397E5FE13877500E1B3D2473383FD
:104C10004741B30A670023000A00130D0103E3DED6
:104C200009E0E2471307D0021306F0072308E10268
:104C3000B309F640130D110309B5850D23800C004F
:104C400079B413070003D2852381EA001387750026
:104C500049B3A28C854D95BC230007003A8A65BFF5
:104C600023800C00BA8DA5B4568A23000A0035BDF6
:104C7000BA8513877500B1BB39711303C10236D6EB
:104C80009A8606CE3AD83EDA42DC46DE1AC67D3A2D
:104C9000F2402161828082801C45A146984333877F
:104CA000E7400356070063FAC6000357870011C7A1
:104CB000BA979843BA97884382808327000002906E
:104CC000930500026F40415E5C4D79715EC69C4366
:104CD00062C406D622D426D24AD04ECE52CC56CA70
:104CE0005AC8832B45012A8CADC3014B930A00029D
:104CF00003258C00232A6C01DA85EFE0B00AAA892B
:104D00001DCD131A3B000149814429A84C489C43FE
:104D1000850489C703254C00829708C81309C90276
:104D2000638F990083270C010146D29780434A94F0
:104D30001C54D84BE31C57FD0C4C504CC9BF832767
:104D4000CC01050B9C43E365FBFAB2502254232AA5
:104D50007C0192540259F249624AD24A424BB24B08
:104D6000224C0145456182805C4D01114AC89C433B
:104D700056C206CE22CC26CA4EC652C45AC0832A78
:104D800045012A89B9C7014A03258900232A490117
:104D9000D285EFE03001AA891DC5131B3A0081447A
:104DA0000144832709010504DA979C43A697985785
:104DB0009384C40219C7584309C78C4B0325490083
:104DC0000297E39089FE8327C901050A9C43E36D9E
:104DD000FAFAF2406244232A5901D2444249B249C4
:104DE000224A924A024B0145056182805C4D7971ED
:104DF00052CC9C4356CA5AC806D622D426D24AD090
:104E00004ECE5EC6832A45012A8B014AA1CF0325D7
:104E10008B00232A4B01D285EFE0C0782A899319B1
:104E20003A00814401440DC983270B01CE978C437E
:104E3000A69583AB85029384C40283A78B0089C7A0
:104E400003254B0082971DE10325CB00A2850504B5
:104E5000EFF00FF2E31A89FC8327CB01050A9C438C
:104E6000E367FAFA232A5B0101451DA883A74B01DA
:104E7000130700026386E7041307100A636DF70245
:104E800037C703808A07130707C9BA978C43AA86D6
:104E900037B503801305C5332286EFE0C03C0545D6
:104EA000B250225492540259F249624AD24A424BB9
:104EB000B24B45618280B7E503809385C589C1BF48
:104EC00083A58B01E9B75C4D5D71CAC090435C4915
:104ED00086C6A2C4A6C24EDE52DC56DA5AD85ED6C8
:104EE00062D466D26AD06ECE3EC64CC92A8963FCB3
:104EF000C50E0845AE8BEFE0E06A2A8C630D050E07
:104F0000B7C70380B7ED0380938707C98E0B814A2B
:104F1000014B930C0002938DCD893EC4054D85A0B5
:104F20001307100AEE856366F70022478A07BA97CF
:104F30008C43832749008149C05B11C41C402285F2
:104F40009C478297AA898327CA00E1CF032549009D
:104F5000A68582978327C900AA8498433E855C4B27
:104F60008297638CA403B1E811C41C40CE852285CE
:104F7000DC478297050B938ACA02630E6C0783276E
:104F80000901DE978443D69403AA840283274A0149
:104F9000E39897F983258A0169BF83274A0113079C
:104FA0000002639FE70483258A0137B503808546A5
:104FB0005A861305853AEFE0002B11C41C40CE85BC
:104FC0002285DC478297B64026440649F259625A48
:104FD000D25A425BB25B225C925C025DF24D268546
:104FE00096446161828037B5038013054537EFE051
:104FF00080278544C9BFB2478144232AF900E1B71D
:105000001307100A6377F700B7E503809385C58916
:1050100069BF37C703808A07130707C9BA978C434C
:1050200069B7EFC0B117AA8411C41C40CE85228590
:10503000DC4782972685EF3023761C45A1469843AE
:105040003387E7400358070063F6060B03578700D2
:1050500055C3BA979843411106C6BA97984363F867
:10506000E504139725009107BA9798439946BA9794
:1050700098433387E7400358070063FA060703574E
:10508000670035C7BA979843BA9798436371E604A7
:105090000A061849B297D4438E05BA95DC41B2404E
:1050A0001395160036950A053E9541018280B7B6E4
:1050B000038037B6038037B50380938686B813061E
:1050C00046B99305A00A130505C9EFC0B10EB7B6DE
:1050D000038037B6038037B50380938686B81306FE
:1050E000C63D9305A00A130505C9EFC0B10C83277F
:1050F000000002908327000002905C4D5D71CAC0E1
:1051000098434EDE66D26ECE86C6A2C4A6C252DCDC
:1051100056DA5AD85ED662D46AD0AA8D0149B94C03
:10512000994975C3138D4700931729003E9D832726
:105130000D00114C931439003E9D03260D00814B48
:10514000254A3306CD4083560600B14A6372DC041B
:105150000354460015CC6A941C403E941C4063FEE8
:10516000FB0893972B0011043E941C403E941C4076
:10517000B307F44003D7070063F9EC0083D7E700D7
:1051800089C7A29783C7070099E7850BE362DCFC18
:1051900083270000029083A70D0113971B005E97E1
:1051A000A697C843131B27006C005A95EFE00F81A8
:1051B0002DE11C40B307F44083D6070063FDD902FC
:1051C00003D667000DCA22960306060081456301D7
:1051D000460783A70D013246850BA697DC4333872C
:1051E00067010843EFD0113103260D003306CD408F
:1051F0008356060061BF8145E9BF83A7CD0105093C
:105200009843E361E9F203A58D0101C5EFF0C037D2
:105210000145B640264496440649F259625AD25A8C
:10522000425BB25B225C925C025DF24D6161828006
:10523000E3F0DAF683D7C700A1DFA29794432947AA
:10524000B6979443B386D74003D60600E372C7F4FB
:1052500083D6A600B6978DDE9443B697944399C241
:10526000CC4385BFB7B6038037B6038037B503801C
:10527000938686B8130646019305A00A130505C94F
:10528000EFC041731C45A14698433387E74003565E
:10529000070063F5C606035787002DC3BA979843E6
:1052A000BA97984363F7E50291078A05AE9798434A
:1052B0009946BA9798433387E7400356070063FC43
:1052C000C6020357670005CBBA979843BA9788433D
:1052D0008280B7B6038037B6038037B503804111AB
:1052E000938686B8130646B99305A00A130505C927
:1052F00006C6EFC0216C83270000029083270000C0
:1053000002901C45A14698433387E74003560700A7
:1053100063F4C6060357870025C3BA979843BA9724
:10532000984363F6E50291078A05AE979843BA97CA
:1053300098433387E7400356070063FCC6020357D0
:10534000870005CBBA979843BA9788438280B7B64F
:10535000038037B6038037B503804111938686B842
:10536000130646B99305A00A130505C906C6EFC082
:1053700061648327000002908327000002901C458F
:10538000A14698433387E7400358070063F5060BAF
:10539000035787004DC3BA979843411106C6BA9781
:1053A000984363F7E504139725009107BA9798434C
:1053B000BA9798433387E7400358070063FA060714
:1053C0000357870035C7BA979843BA9798436371D4
:1053D000E6040A061849B297D4438E05BA95DC4113
:1053E000B2401395160036950A053E95410182801C
:1053F000B7B6038037B6038037B50380938686B887
:10540000130646B99305A00A130505C9EFC0815AD2
:10541000B7B6038037B6038037B50380938686B866
:105420001306C63D9305A00A130505C9EFC08158B0
:10543000832700000290832700000290B7C70380F3
:10544000938707C61CC14CC110C554C5232805004D
:10545000232A050018CD0DC21C42A1460147B307FF
:10546000F64083D5070063F8B60083D7870081C76D
:105470003E961842329758CD82800CC982804111E5
:105480004AC01309C50922C426C22A84AE844A85AB
:10549000814506C6EFD0DFBCB7370080938707048D
:1054A0005CCCB76700809387A7F93CCCB7670080D6
:1054B000938727FA7CCCB76700809387A7F83CC412
:1054C000B76700809387A7FA1CD8B76700809387D7
:1054D00027F83CC0B7670080938727F9232A240167
:1054E00044DCB2407CC4232604082244924402498E
:1054F000410182801C4121469443B386D74003D8A2
:1055000006006374060983D68600C1C2B697944329
:10551000411106C6B6979443B1C6D44391071946C4
:10552000B6979443B386D74003D80600637C06053C
:1055300083D66600A1CAB69794432E87B697904348
:1055400063FAC500832545090A072E970843B24030
:105550004101828037C503801305C5F1EFD0B050FB
:105560000145F5B7B7B6038037B6038037B503807A
:10557000938686B8130646B99305A00A130505C994
:10558000EFC0414383270000029083270000029070
:105590001C4121469443B386D74003D80600637369
:1055A000060983D68600BDCEB6979443411106C640
:1055B000B6979443A9C6D4439107B6979443B3864C
:1055C000D74003D80600637C060583D68600A1CAAF
:1055D000B69794432E87B697904363FAC500832508
:1055E00085090A072E970843B2404101828037C5DA
:1055F0000380130585F4EFD010470145F5B7B7B622
:10560000038037B6038037B50380938686B81306C8
:1056100046B99305A00A130505C9EFC0A139832730
:10562000000002908327000002901305C5096FD087
:10563000DF9D011106CE22CC26CA4AC84EC652C4EE
:1056400056C25AC0AE84130B8500B2852A84130655
:10565000C00504C14CC181455A85368ABE89BA8AC3
:105660004289EFD02169D6855285EFE09FB6AA86A0
:10567000130A84062686DA85528574D04E87EFF0A9
:10568000FFDB10406C509304C409854723040408D1
:105690002326F40823280408232A0408232C0408BA
:1056A000D2862685EFD01F9381452685EFD05F9B5C
:1056B000B7370080938707045CCCB7670080938777
:1056C000A7F93CCCB7670080938727FA7CCCB767F3
:1056D00000809387A7F83CC4B76700809387A7FA38
:1056E0001CD8B7670080938727F83CC0B767008055
:1056F000938727F944C8232E2403F2407CC4232631
:1057000004086244D2444249B249224A924A024BB6
:10571000056182802A8429A02A842685EFD0AFF2F1
:105720005285EFF04FD72285EF300307011122CCCD
:105730002A8406CE26CA4AC84EC652C456C22E89EC
:105740003285130884001306C005814548C0232014
:1057500024014285B684BE893A8A930A8406EFD032
:105760006159A686AA854A86568564D05287EFF08D
:10577000FFCC10406C509304C409854723040408EF
:105780002326F40823280408232A0408232C0408C9
:10579000D6862685EFD01F8481452685EFD05F8C85
:1057A000B7370080938707045CCCB7670080938786
:1057B000A7F93CCCB7670080938727FA7CCCB76702
:1057C00000809387A7F83CC4B76700809387A7FA47
:1057D0001CD8B7670080938727F83CC0B767008064
:1057E000938727F944C8232E3403F2407CC4232630
:1057F00004086244D2444249B249224A924A0561AD
:1058000082802A8429A02A842685EFD0CFE356857A
:10581000EFF06FC82285EF2033783C5D411122C440
:1058200026C206C62A849304850681C72685EFF022
:10583000AFD31305C409EFD00FE12244B24026854F
:10584000924441016FF02FC51D71930785066AD8F8
:1058500086CE2A8DA2CCA6CACAC8CEC6D2C4D6C20B
:10586000DAC05EDE62DC66DA6ED63EC602C23E8515
:10587000EFF08FC212466355A63083290D00A14771
:1058800003A709003387E9408356070063FED71456
:1058900083578700638A0714CE9780433E941C4049
:1058A0006370F62C9317260011043E94144083571E
:1058B0006700369463840724BE9983A70900BE99C4
:1058C00003254D06EFE0DFD7AA8722853EC4EFD03F
:1058D000F04A2A8B630F051C924781440149139AB1
:1058E0003700938749003EC01C40A946B307F440E7
:1058F00003D7070063FAE60E83D7A700F5C7A29780
:105900009843BA9798436378E92A131529009107B9
:10591000AA978843814DB38CA70003A70C00914739
:105920003387EC400356070063F8C700035747006E
:1059300001C76697832D070003A7090063F5ED1CD7
:1059400003268D07824713972D0052963E97832A90
:105950000700104283254D00BA9A26961306860248
:105960005685EFE0F00BAA8B6318051A03278D0705
:1059700052971843269710576302061C03A70C0082
:10598000832A460102CE3387EC40930700028356F8
:1059900007006385FA12B94763FBD7040357E70092
:1059A00039C79307100A63E65715B7C703808A0AF9
:1059B000938707C9BE9A83A50A0037C503801305DC
:1059C000050FEFD0500A854BF6406644D644464951
:1059D000B649264A964A064B625CD25C425DB25D8D
:1059E0005E85F25B2561828083270000029003259B
:1059F0004D00D685184118470297630505182246C1
:105A00007408E685EFD07048AA8B5DFD03A70C00F3
:105A10003387EC40835607009947814B814A014503
:105A200063ECD70AEFD0B03F03A70C00A1462A8C45
:105A30003387EC4083550700014563F9B6000357EF
:105A4000870009C73385EC0018413A95EFD0303D07
:105A500003278D0783A60C00F24852971843B3869C
:105A6000DC4083D50600B30D970023A40D0023A6C8
:105A70000D0023A80D0023A00D0223A20D0223A0D8
:105A80008D0123A2AD0023AA1D0123AC5D0123AE2D
:105A90007D015146637AB60003D5460111C566956E
:105AA0001C413E951C41A9E305099384C402E31DF2
:105AB0002BE39247324585073EC25DBBB947E3FD04
:105AC000D7F4835AE700638D0A02E69A83A60A0098
:105AD000B69A83AB0A00910A03576700014539D390
