:0200000480007A
:1000000017910B0013010117EF00400E6F00000065
:040010006780000005
:10001400130101FF1305400023261100EFB0925C89
:1000240097570900938707602320F500176602009D
:1000340013068679975509009385855DEF50C26252
:10004400130101FE2326A10013058000232C810047
:10005400232E1100232A9100EFB0D2588325C1002A
:1000640013040500EFC0021017C60200130646066B
:1000740097750900938585DF13050400EF50C25E70
:100084009304050013050400EFB0525B13850400CC
:10009400EF30547B130101FE2326A10013058000D9
:1000A400232C8100232E1100232A9100EFB09253B8
:1000B4008325C10013040500EFC0421017C60200D7
:1000C4001306860497750900938545DC130504001F
:1000D400EF5082599304050013050400EFB0125643
:1000E40013850400EF301476B797048083C6D7587D
:1000F400130101DB03C6C75803C7E758232481242F
:1001040003C4F75893968600B3E6C6001317070195
:100114003367D700131484013364E4009387C7580A
:100124003304F4008327040023261124232291247A
:10013400B307F44083D6070023202125232E31233F
:100144003703FEFF1307400033016100637AD72AA7
:1001540083D747006386072AB307F40083A5070003
:10016400930730006390F52AB75709809387473B7C
:1001740013050123232EF10AB70902002320011ECF
:1001840023260122EFA0D01C3709FEFF9387092301
:10019400B38727009304C9E8B3849700B7F60180B6
:1001A40093864693130601239305000013850400E8
:1001B400EF40021D13050123EFF0500EB7F6018046
:1001C4009386461D1306012393053000138504000E
:1001D400EF40021B13050123EF70515FB7F6018056
:1001E4009386C65913060123930540001385040022
:1001F400EF40021913050123EF60816FB7060280F7
:1002040093860670130601239305300113850400B9
:10021400EF40021713050123EF905076B7060280D2
:100224009386067113060123930560011385040068
:10023400EF40021513050123EFA0811CB7F60180DE
:10024400938686E313060123930550021385040065
:10025400EF40021313050123EF40D165B706028076
:100264009386864313060123930510001385040027
:10027400EF40021113050123EF308108B706028015
:100284009386868D1306012393059000138504003D
:10029400EF40020F13050123EF40516AB7160280A5
:1002A400938686C9130601239305900113850400E0
:1002B400EF40020D93870923B3872700130949DD13
:1002C4003389270113050900130800009307000070
:1002D40037070200930601231386040093050400E4
:1002E400EF70502B13050900EF80402C930500009C
:1002F40013050900EF70500E9304050063080514FC
:1003040083278500375509801305452983A50700F0
:10031400EFB0016483A7840003A707006358E002D9
:10032400130400003759098013172400B387E7002A
:1003340083A547001305C92AEFB0816183A7840010
:100344001304140003A70700E340E4FE03A704001A
:10035400930710006306F70EB75509809385C521EE
:10036400375509801305052BEFB0815E3755098099
:10037400930510001305852CEFB0815D03A784015C
:1003840093070000630E070003A744003307F70038
:100394002300070003A7840193871700E3E6E7FE21
:1003A40037550980930510001305452FEFB0415AC6
:1003B400B70702003705FEFF93870723130545DDC2
:1003C400B38727003385A700EF80C06A6308050858
:1003D400375509801305C530EFB081571304F0FF7A
:1003E400B70702003705FEFF93870723B38727006B
:1003F400130545DD3385A700EF7050466F00C0013B
:100404009305000037550980130630001305452273
:10041400EFB001541304F0FF37030200330161000D
:100424008320C1241305040083244124032481244C
:10043400032901248329C1231301012567800000B6
:10044400B7550980938545216FF09FF13755098091
:100454001305C526EFB0C14F6FF05FF8B707020070
:100464003705FEFF93870723130545DDB387270070
:10047400930500003385A700EF70D003375509803A
:10048400930510001305C531EFB0814C3755098031
:1004940013058533EFB0C14B130400006FF05FF414
:1004A400B707020013040500938707233705FEFFEF
:1004B400B3872700130545DD3385A700EF70103A95
:1004C40013050400EF301438130101FF23248100C5
:1004D400371400001304049423229100130504002C
:1004E40097940900938404BC2326110023A6840056
:1004F400EFD0825423A4A400631405029797090043
:1005040023A807BA9797090023A007BA8320C1003C
:10051400032481008324410013010101678000004A
:1005240023A2A40023208500232205006FF01FFED0
:1005340063000506832705009306A000B307F54072
:1005440003D7070063FEE60203D7A7009306000063
:10055400630607003307E5008326070003D7470037
:1005640093070000630607003305E50083070500D1
:100574001385070063DCD70013850600678000003D
:100584009306400063ECE60013050000678000005A
:10059400130101FF23261100EFC0124B9306000044
:1005A4006FF0DFFB630E05008327050203050500DA
:1005B4006344F5006780000013850700678000002E
:1005C400130101FF23261100EFC01248130101FF9C
:1005D400232481002326110013040500638E0502E1
:1005E40083A585009307600003A605009385450055
:1005F4002320C50063CEC702131626001305450049
:10060400EFD052568320C100130504000324810057
:1006140013010101678000008320C100232005002D
:100624001305040003248100130101016780000005
:10063400EFC092419387050003A6470083A50500F8
:10064400130101FF232611003306B64093572640B9
:10065400232481002320F5009307800163C2C7028D
:100664001304050013054500EFD0D24F8320C100C9
:1006740013050400032481001301010167800000B5
:10068400EFC0923C130101FE232C8100232A910028
:10069400138406009304060093060000130600006A
:1006A4002328210123263101232E1100930905005B
:1006B40013890500EFB053116314050223A004004D
:1006C4008320C101232004000324810183244101E8
:1006D400032901018329C10013010102678000007D
:1006E400130604001385090093050900EFC0C20432
:1006F400B797098003A6878883A6C788EFB013320B
:10070400EFC04217EFC0932B6340B006638A050421
:100714003707008083270400630AE502130710FEED
:1007240063D6E70023200400130500008320C101E1
:100734000324810123A0A40003290101832441018E
:100744008329C1001301010267800000E39805FCBE
:10075400938717002320F400370500406FF01FFC37
:10076400B7070080E3F6A7FAEFC0122E130101FECB
:10077400B7970980232C81002326310113840600B6
:100784009309060083A6478903A60789232A9100B3
:1007940023282101232E1100130905009384050049
:1007A400EFB0530B6356A0081305090093850400AA
:1007B4001306000093060000EFB013016314050252
:1007C40023A00900232004008320C1010324810104
:1007D40083244101032901018329C100130101027A
:1007E40067800000130604001305090093850400C4
:1007F400EFB09274B797098003A6878883A6C78849
:10080400EFB0D321EFC00207EFC0531B6342B00225
:10081400638E05043707008083270400630EE50216
:10082400130710FE63C8E70023A0A900E3DE07F85E
:10083400EFC09221232004008320C10103248101FD
:1008440023A0090083244101032901018329C10054
:100854001301010267800000E39405FC93871700ED
:100864002320F400370500406FF09FFBB70700809A
:10087400E3F2A7FA6FF0DFFB130101FDB7970980DC
:1008840023202103232E3101138906009309060036
:1008940083A6478903A60789232481022322910280
:1008A400232611029304050013840500EFB0D30836
:1008B400635805081385040093050400130600001B
:1008C40093060000EFB00379635CA0061306C10031
:1008D4001385040093050400EFB01266B7970980EE
:1008E40003A6878883A6C788EFB05313EFB0927826
:1008F400EFC0D30C6346B00463800506370700805D
:100904008327C1006300E504130710FE63D6E702E2
:1009140023A00900930700008320C102032481025D
:100924002320F90083244102032901028329C10100
:10093400130101036780000023A0A900E35EF0FC1B
:10094400EFC09210E39205FC938717002326F10071
:10095400370500406FF05FFBB7070080E3F0A7FAAC
:100964006FF01FFEB707008093C7F7FF33F7B70098
:100974003367A700138805006302070813D74501EE
:100984001377F77F9306F07F6304D704930627C099
:100994009395A50093576501370700401315A500EB
:1009A400B3E7F5002320D6009305F7FF1355A50000
:1009B400B7062000B3F7B70063EAA6043385E7005F
:1009C400B337F50093850700634C08046780000083
:1009D4009395C5003707C0FF3375A70093D5C500AD
:1009E4002320F600B365B50063960504634A080442
:1009F4001305F0FF9385070067800000232006009D
:100A0400130500009305000067800000130517001C
:100A14003385A700B337F50093850700E35808FA38
:100A2400B337A000B305B040B385F5403305A0400B
:100A34006780000013050000930500006780000034
:100A440013050000B705008067800000B70600802A
:100A540093C6F6FFB367B500630CD6101308000005
:100A640093080000638E070A93D6F54133C5A600A8
:100A74003308D540B3C7B60033350501B387D74033
:100A84001306F6FFB387A7401357F6411305080072
:100A94006346F00A638C0708B70800401358F50151
:100AA4009397170093361600B367F80013151500D3
:100AB4003307D7401306F6FF6346F000E39007FEC2
:100AC400E36E15FDB70600C0B306D50033B5A60026
:100AD4009387F7FFB307F5006350E00E1306F03F6A
:100AE400130700001305F0FF6348A70A6302A70A6F
:100AF40013D7A6001306F63F93976701B367F70071
:100B04001316460137070080B3F5E500B367F60016
:100B140093966601B3E7B70013880600938807002D
:100B2400130508009385080067800000B70600409D
:100B3400E364D8F6B7060080E3F606F937030080CD
:100B4400930616009398F70133B8C60013551500A1
:100B540093D7174033E5A800138606003307E8004F
:100B6400E340F0FEE39007F6E36CA3FC6FF09FF51F
:100B740063880702635AB004B797098003A8878A79
:100B840083A8C78A130508009385080067800000BE
:100B9400130710C0E37EE6F4130610C06FF05FF590
:100BA400B797098003A8078A83A8478A1305080012
:100BB4009385080067800000E31607F21305F03FF1
:100BC400E372C5F26FF09FF163940500E31605FA32
:100BD400B797098003A8878983A8C7896FF05FF452
:100BE400370800801348F8FFB377B800B3E7A700CD
:100BF4009388060013830600B37ED8006382071629
:100C040013D745011377F77F9307F07F138F050000
:100C1400630CF70E135865019395A500370E004039
:100C24001315A50033E805019306FEFF1355A5002F
:100C3400B70720003378D80063F4A700130E1E0012
:100C4400330EC80133380E0193060800635A0F00AF
:100C5400B337C001B3060041B386F640330EC0413A
:100C640033E8CE001305000093050000130727C0E6
:100C74006306080E93D7480193F7F77F9305F07F37
:100C84006386B70C130101FF9398A800935566017E
:100C9400370500401316A600B3E5B800232611005B
:100CA4009308F5FF23248100232291001356A60004
:100CB40037082000B3F515016374C8001305150047
:100CC4003385A500B335B500635A03003336A0005D
:100CD400B305B040B385C5403305A040B7040080D8
:100CE40013C6F4FF631EC708B797098003A5078AD4
:100CF40083A5478A8320C100032481008324410003
:100D040013010101678000009395C500B707C0FF78
:100D140033F5A70093D5C500B365B50063960514F4
:100D2400634C0F1A130EF0FF9306080033E8CE004D
:100D3400630E080093D748013707008093F7F77FC5
:100D44009305F07F1347F7FFE39EB7F2B797098047
:100D540003A5078A83A5478A67800000678000008F
:100D640033E8CE001305000093050000E30808FEF5
:100D740013070000130E0000930600006FF09FEFAE
:100D8400938727C013060E003384E700EF10441F37
:100D940013D8F54193C4E4FFB3E70501630C940C45
:100DA40063860712B345B800B3860541B3B5D500D1
:100DB400B3070041B387B7401307040093850600C7
:100DC4001356F441634AF002638C070EB7080040DF
:100DD40013D5F5019397170093361700B367F50001
:100DE400939515003306D6401307F7FF6346F000CA
:100DF400E39007FEE3EE15FDB70600C0B386D50009
:100E0400B3B5B6009387F7FFB387F500635AC008FC
:100E14001307F03F130600009305F0FF634EB60678
:100E24006308B6061307F73F13D6A6009395670128
:100E34008320C1000324810093174701B365B600E2
:100E440037070080B3E7B7003378E800939666016C
:100E5400B3E7070183244100138506009385070047
:100E64001301010167800000130E000093060000C7
:100E74006FF0DFEBE38A07E6631C0802638A05026E
:100E8400B797098003A5878A83A5C78A6FF09FE671
:100E9400130610C0E378C7F8130710C06FF09FF86B
:100EA400E31C06F69305F03FE3F8E5F66FF05FF612
:100EB400B797098003A5878983A5C7896FF09FE346
:100EC400B7060040E3E4D5F06FF01FF3130500000C
:100ED400930500006FF01FE2130E0000B7060080B8
:100EE4006FF0DFE4B707008093C7F7FF33F7B7006D
:100EF4003367A700938E05009388060033F8D70064
:100F0400630E071213DE4501137EFE7F1307F07F85
:100F14006300EE0C9395A5009357650137030040D9
:100F24001315A500B3E7F5001307F3FF1355A50048
:100F3400B7052000130E2EC0B3F7E70063F4A50035
:100F44001303130033836700B337F30013870700D9
:100F540063CE0E103368C800630A081293D54601A5
:100F640093F5F57F9307F07F130510006380F50672
:100F74001395A60093576601B70600401316A60002
:100F8400B367F5001388F6FF1356A6003705200053
:100F9400938525C0B3F707016374C50093861600D3
:100FA400B386D700B3B7F60063DA08003336D0004F
:100FB400B307F040B387C740B306D040370600807C
:100FC4001346F6FF130510006312CE046780000079
:100FD4009395C5003707C0FF3375A70093D5C500A7
:100FE400B365B500639E050663C80E0C1303F0FFDA
:100FF400138707003368C80013051000E30808FCD2
:10100400370E0080134EFEFF6FF05FF53366E3008A
:10101400630406046356070033E6F600630C060017
:101024001305F0FFE344BEFA13051000E3C0C5FB4B
:101034006356F7061305F0FF678000003368C800A5
:1010440013050000E30408F8130E00001303000066
:10105400130700006FF09FF0E3D407FC67800000E3
:1010640013030000130700006FF0DFF8B3356000CE
:10107400B307F0403368C8003387B7403303604098
:101084001305F0FFE31C08EC6780000093050000E3
:1010940093060000930700006FF09FF86394E70045
:1010A400E36AD3F813051000E3C2E7F2630CF70018
:1010B4001305000067800000130300003707008059
:1010C4006FF05FF3E3F666FE67800000130101FD35
:1010D40023286101130B0500370500803355E50013
:1010E4002326110223248102232291022320210397
:1010F400232E3101232C410193890700232A510116
:1011040023267101138A0500938A060093040800BC
:10111400930B0600EFC003001309050013840500B8
:1011240093860A0013860B0093050A0013050B002F
:10113400EFB0C30E130605009386050013050900DE
:1011440093050400EFB0830DB797098003A9478B7B
:1011540003AA078B930A05009306090013060A00E5
:1011640013840500EFA0136F6346A006B7970980A8
:1011740003A6078983A6478913850A0093050400FB
:10118400EFA0536D6352A00A13850A00930504006F
:101194001306000093060000EFA013636310050418
:1011A40023A0090023A004008320C1020324810298
:1011B40083244102032901028329C101032A8101F5
:1011C400832A4101032B0101832BC1001301010375
:1011D40067800000930A0A001304090013860400C0
:1011E40013850A0093050400EFB00255B7970980F0
:1011F40003A6878883A6C788EFB04302EFB082674F
:10120400EFB0D37B6342B0026382050437070080EA
:1012140083A704006302E502130710FE63C8E70016
:1012240023A0A900E3D207F8EFC0020223A0040020
:1012340023A009006FF05FF7E39005FE9387170082
:1012440023A0F400370500406FF01FFDB7070080AE
:10125400E3FEA7FA6FF05FFD130101FC232E710179
:10126400930B0500370500803355E500232E11024A
:10127400232C8102232A91022328210323263103CC
:101284002324410323225103138A070023206103EB
:10129400232C8101938A0500138B0600130908008F
:1012A40093890800130C0600EFB0D366930405007D
:1012B4001384050093060B0013060C0093850A00A3
:1012C40013850B00EFA093751306050093860500A4
:1012D4001385040093050400EFA05374B7970980A5
:1012E40083AA478B03AB078B9304050093860A00FC
:1012F40013060B0013840500EFA0D3556344A0121A
:10130400B79A098003A60A8983A64A89138504002B
:1013140093050400EFA013546354A0101385040034
:10132400930504001306000093060000EFA0D349C0
:10133400631E050EB797098023200A0083A4878BB8
:1013440003A4C78B232009001307000093070000A0
:101354001306070013850400938607009305040011
:10136400EFA0434803A60A8983A64A89930405008B
:1013740013840500EFA0535C6354050A138504002D
:10138400930504001306000093060000EFA0934C9D
:101394006358A0081306C1001385040093050400D4
:1013A400EFB08239B797098003A6878883A6C788D8
:1013B400EFA0D366EFB0024CEFB053606342B006C7
:1013C40063820512370700808327C1006302E5109A
:1013D400130710FE63D2E70423A00900930700005B
:1013E400032701048320C103032481032320F7007E
:1013F40083244103032901038329C102032A8102AF
:10140400832A4102032B0102832BC101032C810196
:10141400130101046780000023A0A900E352F0FC3B
:10142400EFB0926293040B0013840A0013060900C0
:101434001385040093050400EFB00230B7970980C8
:1014440003A6878883A6C788EFA0535DEFB08242C6
:10145400EFB0D356E346B0FC638C05083707008031
:1014640083270900630CE504130710FE63CEE7022B
:101474002320AA0013040500E3C407FA37050080FB
:101484003355F500EFB01349930405001305040028
:1014940013840500EFB01348130705009387050074
:1014A400B79A09806FF0DFEA2320090023200A009D
:1014B40013040000930700006FF05FFCE39605FA45
:1014C400938717002320F900370500406FF0DFF9F8
:1014D400E39005F0938717002326F10037050040B9
:1014E4006FF01FEFB7070080E3FEA7EC6FF05FF328
:1014F400B7070080E3F4A7F66FF09FF2130101FE33
:10150400232A9100930410002328210113090500C4
:101514003395A4001305F5FF232C81002326310104
:1015240013040600232E110093890500EFB0933EA7
:1015340033062441930706FE1309050013840500AE
:1015440063CE0706B395F40013050000EFB093547F
:10155400130605009386050013050900930504008E
:10156400EFA0D34B938709FE930405001384050071
:1015740063CC070493051000B395F5001305000030
:10158400EFB053511306050093860500138504003C
:1015940093050400EFA00325EFA0527BEFB0932F37
:1015A4008320C10103248101832441010329010112
:1015B4008329C10013010102678000009305000024
:1015C4003395C4006FF09FF81305100093050000D5
:1015D400331535016FF0DFFA130101FD232E3101BC
:1015E4009309050013050600232611022324810212
:1015F40023229102232021039384060013890500EA
:10160400232C4101232A510123286101930A080054
:10161400138B07002326710123248101930B0700F8
:10162400130C0600EFF0537A13040500138504002D
:10163400EFF0937993850900130A05001305090057
:10164400EFF01320130905009305040013050A00A5
:10165400EFF0131F9305050013050900EFF0831441
:101664009305050023A0AA001309050013850900AA
:10167400EFF043139305050013050400EFF0531C2A
:10168400930905009305050013050400EFF0835149
:10169400635AA00613150C0113550501EFF0D3721C
:1016A400930405009305050013050400EFF0531996
:1016B40093050900EFF083659385040023A0AB0034
:1016C40013050A00EFF0D31783A50A00EFF00364B3
:1016D4008320C102032481022320AB00832441021E
:1016E400032901028329C101032A8101832A4101BB
:1016F400032B0101832BC100032C8100130101037F
:10170400678000009385090013050A00EFF0C354B5
:10171400930705001395040113550501E3C007F869
:1017240013850900EF008408EFB0C214EF000435FC
:10173400EFF013631315050103A90A0013550501FE
:101744006FF0DFF5130101FD23267101930B0500F2
:10175400379509800325859223248102138405008B
:1017640093850B002326110223202103232E31010C
:10177400232C4101232A51012328610123248101BF
:10178400138B07001389060093090700930A0600C8
:1017940023229102EFF00301130C050093050000CE
:1017A40013050B00EFF00340130A00006352A00876
:1017B400832409009305040013850400EFF0833E9D
:1017C40093850A006344A000930404001385040075
:1017D400EFF08348130705009305040013850A00FE
:1017E40063400708EFF0D30593050C00EFF00352B4
:1017F400EFF0D37BEFB00208EF00442893850B0091
:10180400EFF0C35093050400EFE01334130A1A00F9
:1018140023A0A90013050A00EFF0135B93050B0046
:10182400EFF083431309490093894900E34205F823
:101834008320C1020324810283244102032901027B
:101844008329C101032A8101832A4101032B010158
:10185400832BC100032C8100130101036780000066
:1018640013850400EFF0C37D93050C00EFF0034AE9
:10187400EFF0D373EFB00200EF00442093850B0028
:10188400EFF0C34893050400EFE0132C130A1A0089
:1018940023A0A90013050A00EFF0135393050500D4
:1018A40013050B00EFF00330130949009389490035
:1018B400E340A0F06FF0DFF7130101FF23261100CE
:1018C40023248100232291002320210193840500F5
:1018D400EFB04216B797098083A5C792EFF0034390
:1018E40013040500EFF0936CEFA0D278EF00041915
:1018F40013090500EFF0D33F9305090023A0A400CA
:1019040013050400EFF0C373B797098083A5079309
:101914001315150013551500EFF003348320C1008F
:101924000324810083244100032901001355F50198
:10193400130101016780000063820514130101FD96
:10194400B7970980232481022322910223202103B3
:10195400232E3101232C4101232A51012328610123
:10196400232671012324810103A9878883A9C788B9
:10197400232611022322A1012320B101138A050089
:1019840093040500930A060013840600130C000058
:10199400370B0080930B10FE6F00000223A00A0097
:1019A40023200400130C1C0093848400938A4A00AF
:1019B40013044400630E8A0703AD040083AD44009E
:1019C400130600009306000013050D0093850D0017
:1019D400EFA0835FE30405FC1306040013050D0068
:1019E40093850D00EFA05255130609009386090054
:1019F400EFA0D302EFA01268EFB0437C6344B008B9
:101A040063800508832704006300650763D67701B4
:101A1400232004001305000023A0AA00130C1C00BB
:101A240093848400938A4A0013044400E3168AF9D9
:101A34008320C10203248102832441020329010279
:101A44008329C101032A8101832A4101032B010156
:101A5400832BC100032C8100032D4100832D010041
:101A64001301010367800000E39205FA93871700CE
:101A74002320F400370500406FF05FF96780000011
:101A8400E372ABF8EFB0427C130101FF2324810021
:101A94001344F6FF23229100232021011354F4411F
:101AA400232611001389050033748600B304C04053
:101AB4006354C0009304000033148500130604002B
:101AC4009356F441130509009355F941EF00444B33
:101AD400630E240B63CA0506370700403307A700CB
:101AE4003335A7003305B500131515001357F70157
:101AF400B367E5001307F001634E970A138704FEEA
:101B040013050000635607001305100033159500F4
:101B14001305F5FF8320C1000324810013D7F701C7
:101B2400935615403307D7003375F5003325A700C6
:101B3400B3D7974003290100832441003305F500FE
:101B44001301010167800000370700C01307170065
:101B54001306F0FFB306A70033B7A6003305B6009B
:101B6400B307A70013D7F74113171700135717002C
:101B7400B306D70033B5E6003305F5001315150099
:101B840093D7F601B367F5006FF0DFF6370700402F
:101B94001306000063D80500370700C013071700B9
:101BA4001306F0FFB70600809347F9FFE304D9F466
:101BB4006FF05FFAB7660480376604803765048087
:101BC400938606C1130606C2930570161305C5C78E
:101BD400EFB00269130101FF2326110023248100C1
:101BE400634E06129387F6011307600213840600FE
:101BF4006366F710B78600003387D500B707010086
:101C0400637EF70CB707FF7F6340F6061386F6FF83
:101C140093060000EF00C4369307E0003387874043
:101C2400930707FE63C20706130610003316F60077
:101C3400930700003387A7001305F00033048540A1
:101C4400B337F7003305B600930604FE3385A700C7
:101C540063C206068320C100032481003355D540A6
:101C64001301010167800000B307D60013D60741B2
:101C740093D6F741EF00C4309307E00033878740E1
:101C8400930707FEE3D207FA93071000B397E70020
:101C94003387A7001305F0003304854013060000C2
:101CA400B337F7003305B600930604FE3385A70067
:101CB400E3D206FA9307F00113151500B3878740A2
:101CC4008320C100B317F500335587000324810036
:101CD40033E5A7001301010167800000B7660480A3
:101CE4003766048037650480938606D61306C6CC0F
:101CF4009305B002130545D1EFB08256B766048050
:101D04003766048037650480938646D41306C6CCB0
:101D14009305A002130545D1EFB08254B766048041
:101D24003766048037650480938606CB1306C6CCD9
:101D340093059002130545D1EFB08252635EB0085B
:101D4400130101FE93952500232C8100232A910081
:101D540023263101232E1100232821011304050019
:101D640093040600B309B500032904009305000099
:101D740013050900EFE01363634AA0029307000010
:101D840023A0F4001304440093844400E39E89FCDC
:101D94008320C1010324810183244101032901011A
:101DA4008329C100130101026780000023A02401DC
:101DB4001304440093844400E39889FA8320C10106
:101DC4000324810183244101032901018329C100E2
:101DD400130101026780000067800000635CB00AA1
:101DE400130101FEB79709802322510183AA879228
:101DF400B79709802324410103AA479393952500AB
:101E0400232C81002328210123263101232E1100B4
:101E1400232A91001304050013090600B309B50031
:101E24008324040093850A0013850400EFE093578C
:101E34009307050093050A00138504006340F0042A
:101E4400EFE05356634EA0022320490113044400DB
:101E540013094900E31634FD8320C10103248101E1
:101E640083244101032901018329C100032A81003C
:101E7400832A4100130101026780000093840A0051
:101E8400232099001304440013094900E39A89F8B4
:101E94006FF09FFC678000006354B00C130101FED7
:101EA400B79709802324410103AA879393952500BA
:101EB400232C81002328210123263101232E110004
:101EC400232A91001304050013090600B309B50081
:101ED4008324040093050A0013850400EFE0934C67
:101EE4009307050093050000138504006340F00484
:101EF400EFE0534B634EA002930700002320F90048
:101F04001304440013094900E31434FD8320C10180
:101F14000324810183244101032901018329C10090
:101F2400032A8100130101026780000093040A0060
:101F3400232099001304440013094900E39A89F803
:101F44008320C10103248101832441010329010168
:101F54008329C100032A8100130101026780000064
:101F640067800000635EB004130101FF93952500B0
:101F74002324810023229100232021012326110000
:101F840013040500930406003309B5000325040077
:101F9400938444001304440013250500EFF04373B5
:101FA40023AEA4FEE31489FE8320C1000324810030
:101FB400832441000329010013010101678000000B
:101FC4006780000093D8F501B388B8009307100028
:101FD40093D8184063DAB70293060600130700008B
:101FE400B307E500838707009386260013071700CD
:101FF4001398C7011358C84193D74740238F06FF4E
:10200400A38FF6FEE34E17FD93F71500638E0700CA
:1020140033051501830705003306B6009397C701FE
:1020240093D7C741A30FF6FE6780000083A705007E
:1020340083A6070093874700634A06026358D602C3
:10204400131626003386C7008325060063C00502E5
:102054008327850063880700939565003385B7005F
:1020640067800000832705056780070013050000CB
:102074006780000083A50500130101FF23261100DA
:102084002324810003A80500930706001307050015
:10209400634A06046358060593172600B387F500C0
:1020A40083A547009307F0FF6386F50613840600B3
:1020B4008326850093976500B387F600639806002E
:1020C40083270505E7800700930705008320C100E7
:1020D4002320F400032481001305000013010101EF
:1020E4006780000083284701B76504801305070053
:1020F4009306080013860700938505DBE780080034
:102104008320C10003248100130510001301010181
:102114006780000083274501B76504809385C5DD8A
:10212400E78007008320C100032481001305100009
:10213400130101016780000083A7050083A607003F
:1021440063400606635ED604938747001316260091
:102154003386C7008325060063C4050483278500EE
:10216400638C0700139565003385A7008347D50268
:10217400638807026780000083270505130101FFB8
:1021840023261100E7800700630005028347D50278
:10219400638C07008320C1001301010167800000E4
:1021A40013050000678000008320C10013050000B0
:1021B400130101016780000083A7450083A607007F
:1021C40093874700634A06026358D6021316260013
:1021D4003386C7008325060063C005028327850074
:1021E40063880700939565003385B7006780000016
:1021F400832705056780070013050000678000003A
:1022040083A54500130101FF232611002324810027
:1022140003A805009307060013070500634A060494
:102224006358060593172600B387F50083A5470076
:102234009307F0FF6386F506138406008326850062
:1022440093976500B387F600639806008327050516
:10225400E7800700930705008320C1002320F400D2
:1022640003248100130500001301010167800000AD
:1022740083284701B7650480130507009306080007
:1022840013860700938505DBE78008008320C100DF
:10229400032481001305100013010101678000006D
:1022A40083274501B76504809385C5DDE780070072
:1022B4008320C100032481001305100013010101D0
:1022C4006780000083A7050083A607009387470063
:1022D400634A06026358D602131626003386C700E3
:1022E4008325060063C005028327850063880700F1
:1022F400939565003385B700678000008327050543
:1023040067800700130500006780000083A7C500ED
:1023140083A6070093874700634A06026358D602E0
:10232400131626003386C7008325060063C0050202
:102334008327850063880700939565003385B7007C
:1023440067800000832705056780070013050000E8
:102354006780000083A5C500130101FF2326110037
:102364002324810003A80500930706001307050032
:10237400634A06046358060593172600B387F500DD
:1023840083A547009307F0FF6386F50613840600D0
:102394008326850093976500B387F600639806004B
:1023A40083270505E7800700930705008320C10004
:1023B4002320F4000324810013050000130101010C
:1023C4006780000083284701B76504801305070070
:1023D4009306080013860700938505DBE780080051
:1023E4008320C1000324810013051000130101019F
:1023F4006780000083274501B76504809385C5DDA8
:10240400E78007008320C100032481001305100026
:10241400130101016780000083A7850083A60700DC
:1024240093874700634A06026358D60213162600B0
:102434003386C7008325060063C005028327850011
:1024440063880700939565003385B70067800000B3
:1024540083270505678007001305000067800000D7
:1024640083A58500130101FF232611002324810085
:1024740003A805009307060013070500634A060432
:102484006358060593172600B387F50083A5470014
:102494009307F0FF6386F506138406008326850000
:1024A40093976500B387F6006398060083270505B4
:1024B400E7800700930705008320C1002320F40070
:1024C400032481001305000013010101678000004B
:1024D40083284701B76504801305070093060800A5
:1024E40013860700938505DBE78008008320C1007D
:1024F400032481001305100013010101678000000B
:1025040083274501B76504809385C5DDE78007000F
:102514008320C1000324810013051000130101016D
:1025240067800000130101FD23229102232E310153
:10253400232C4101232A510123286101232611025E
:1025440023248102232021032326710183AAC500A9
:10255400032BC6009309050093040700138A0700A0
:10256400638A060813850A0013840600EFF0032427
:10257400930B050013050B0013890500EFF00323EB
:10258400130605009386050013850B0093050900C7
:10259400EF90D348130905000325C40013840500F4
:1025A400EFF0C32013060500938605001305090008
:1025B40093050400EFA0432F1309050003A5C400ED
:1025C4001394150013541400EFF0431E1306050072
:1025D400938605001305090093050400EF908320FA
:1025E400B797098003A6078C83A6478CEF90D33452
:1025F4006344A00893050B0013850A00EFE0037100
:102604009305000013040500EFE0C359634E050869
:1026140013050400EFF083199307050003A5C40014
:102624001384050093840700EFF043181306050094
:10263400938605001385040093050400EF90831A24
:102644002320AA002322BA00130500008320C1021C
:102654000324810283244102032901028329C10145
:10266400032A8101832A4101032B0101832BC10029
:10267400130101036780000083A7490137670480C1
:10268400130707E19306001437660480B7650480D6
:1026940013850900130646E3938505E6E7800700E2
:1026A400130510006FF09FFA3767048083A7490170
:1026B400130787E79306D0146FF01FFD130101FE83
:1026C40013880500232821018325C600130905006A
:1026D4000325C800232C8100232A910023263101DD
:1026E400232E11001384060093090700EFE0036210
:1026F4009305000093040500EFE0C34A634C05040E
:1027040013850400EFF0830A930405000325C40035
:1027140013840500EFF08309130605009386050072
:102724001385040093050400EF90C30B8320C101BB
:102734000324810123A0A90023A2B9008324410119
:10274400032901018329C1001305000013010102BB
:102754006780000083274901376704803766048057
:10276400B765048013050900130787E79306D0149F
:10277400130646E3938505E6E78007008320C1013D
:102784000324810183244101032901018329C10018
:10279400130510001301010267800000832706005F
:1027A400130101FD2324810223229102232021030A
:1027B400232E310123261102232C4101232A510106
:1027C40023286101232671012324810123229101FD
:1027D40013083000930405001384050013890600D0
:1027E4009309070063820713130790006382E70AC3
:1027F400130770006390E704378A0000130AFAFF96
:10280400B78AFFFF93071000032BC600832B060132
:10281400630CF40893073000630EF40E9307200052
:102824006300F41A2320590123A049011305000071
:102834006F00C00283274501376704803766048030
:10284400B7650480130747E993063019130646E376
:10285400938505E6E7800700130510008320C10275
:102864000324810283244102032901028329C10133
:10287400032A8101832A4101032B0101832BC10017
:10288400032C8100832C41001301010367800000A5
:1028940093071000032BC600832B0601130AF007CD
:1028A400930A00F8E318F4F693050B0013050000EF
:1028B400EFD0536FEFE0936FEF90D27BEFF0031CF8
:1028C400B797098083A5C793130B0500EFE0832D09
:1028D40063400518B797098083A5079413050B0077
:1028E400EFE083376346A01613050B00EFE0534077
:1028F400B30B750163C65B192320790123A0490139
:10290400130500006FF09FF5130AF00F930A0000FF
:102914006FF05FEF93050B0013050000EFD0936891
:10292400EFE0D368EF901275EFF043153794098008
:102934008325C493130C0500EFE0C3266344050C00
:10294400B79C098083A50C9413050C00EFE0C330F9
:10295400634AA00A13050C00EFE09339B30775012D
:1029640063C8571337970980032587932320F900F9
:1029740093050B00EFD01363EFE05363EF90926F76
:10298400EFF0C30F8325C49313040500EFE0832104
:10299400634A050683A50C9413050400EFE0C32BDA
:1029A4006342A00613050400EFE09334B30B7501F2
:1029B400634C7A0D23A07901130500006FF01FEA20
:1029C400B797098003A5479393050B0037940980B3
:1029D400EFD0535DEFE0935DEF90D269EFF0030A1F
:1029E4008325C493130C0500EFE0C31B634C05005F
:1029F400B79C098083A50C9413050C00EFE0C32554
:102A0400635AA00283A744013767048037660480B1
:102A1400B7650480138504001307C7E99306B0154E
:102A2400130646E3938505E6E780070013051000C7
:102A34006FF0DFE213050C00EFE0932BB307750191
:102A440063CC570537970980032587926FF01FF2EF
:102A540083A744013767048037660480B765048020
:102A6400138504001307C7E99306B015130646E35C
:102A7400938505E6E7800700130504006FF01FDE69
:102A8400938B0A006FF05FE7930B0A006FF09FF2DD
:102A940093870A006FF01FED93870A006FF09FFA87
:102AA400130101F8232C810503AC0503232A9106A5
:102AB400232631072324410723206107232E710590
:102AC400232A91052328A10593890500232E1106A5
:102AD400232C810623282107232251072326B1050D
:102AE400930510002326D1002324F100232801019B
:102AF400232A1101032B0108832B4108032D81088C
:102B0400832CC10883240109130A0500630EBC0643
:102B140003234501B7670480376704803766048060
:102B2400B765048013080C0093081000938747ECE2
:102B3400130707EE9306B00D130646E39385C5EF1E
:102B4400E7000300130C10008320C107032481074E
:102B540083244107032901078329C106032A810627
:102B6400832A4106032B0106832BC105832C4105CF
:102B7400032D0105832DC10413050C00032C8105CD
:102B84001301010867800000832A06031309060065
:102B9400638E8A0303234501B76704803767048083
:102BA40037660480B76504809308100013880A0010
:102BB400938747EC130787F19306D00D130646E37A
:102BC4009385C5EFE70003006FF01FF813040700B7
:102BD400032746036300071E832707006382071841
:102BE40003A8070063520C0783A60900938696FF87
:102BF40093F6D6FF63860602832745013767048070
:102C0400130747F69306D00E37660480B765048031
:102C1400130646E3938505E6E78007006FF0DFF2CD
:102C240083260600130690006386C614130620014B
:102C34006382C6143767048083274501130707FAA4
:102C44009306F00E6FF05FFC03A5C900032CC400CB
:102C5400635E9008232CF100EFE05335930D0500DB
:102C640013050C002324B1032326B102EFE013342F
:102C740083278101130F0D00938D0C002320A102E3
:102C84002322B102130D0000930CC103130C810322
:102C940003A54700130F4F00232EF100232CE1015D
:102CA400EFE0D330032681028326C102938D4D00C9
:102CB400130D1D00EF908356032601028326410263
:102CC400EF80533293860C0013060C00EFD09F9BC9
:102CD40083268103032F81018327C101232EDFFE75
:102CE4008326C10323AEDDFEE3449DFA83A70900D6
:102CF40013073000638CE71A130790006388E7001A
:102D040013077000130C0000E390E7E483278100AD
:102D140013060400032481078320C1078324410789
:102D2400032901078329C106832A4106032C81054F
:102D3400832C4105032D0105832DC10483A50700C0
:102D440013870B0093060B00832BC105032B01068D
:102D540013050A00032A8106130101086FF01FA45A
:102D64003767048083274501130787F49306900E81
:102D74006FF09FE9638A040503234A01B76704805F
:102D840037670480938804009387C7FD1307C7FE41
:102D94009306100F37660480B7650480130646E374
:102DA4009385C5EF13050A00E7000300138C0A009E
:102DB4006FF09FD93767048083274501130747F3D2
:102DC4009306800E6FF05FE4832687000327890053
:102DD400939626003307D7008328470063821403A1
:102DE400B76704803767048003234A01138804000B
:102DF400938707011307C7FD9306200F6FF09FF910
:102E040003A5C90093874700232EF100232CA101B9
:102E1400EFE0D319930D05000325C4002320B1036B
:102E24002322B102EFE09318032F81018327C1010C
:102E3400938D0C002324A1022326B102130D00005C
:102E4400930CC103130C810303A507009387470068
:102E5400232EE101232CF100EFE053150326010298
:102E640083264102130D1D00938D4D00EF90033B0B
:102E7400032681028326C102EF80D31693860C00B9
:102E840013060C00EFD01F80032FC101832681039A
:102E940083278101130F4F00232EDFFE8326C103F6
:102EA40023AEDDFEE3429DFA6FF05FE48324C100AC
:102EB40083ACC900032DC9006388040813850C0082
:102EC400EFE0D30E930D050013050D00138C0500E0
:102ED400EFE0D30D130605009386050013850D005E
:102EE40093050C00EF908333130C050003A5C40075
:102EF40013890500EFE0930B130605009386050084
:102F040013050C0093050900EF90131A130C050028
:102F14000325C4001399150013591900EFE0130990
:102F2400130605009386050013050C00930509009C
:102F3400EF80530BB797098003A6078C83A6478CB1
:102F4400EF90831F6340A00893050D0013850C00C8
:102F5400EFD0D35B9305000013090500EFD0934431
:102F6400634A050813050900EFE05304930A0500BA
:102F74000325C40013890500EFE05303130605007D
:102F84009386050013850A0093050900EF809305D5
:102F9400032601019306C103EFD0CFEE0327C1033B
:102FA4000326410183A709003307E04093069000FC
:102FB4002320E600E38CD7D413073000E388E7D45A
:102FC4006FF01FD483274A0137670480130707E192
:102FD4009306001437660480B7650480130646E33D
:102FE400938505E613050A00E7800700138C0A00A1
:102FF4006FF09FB53767048083274A01130787E77B
:103004009306D0146FF01FFD130101F923248106E8
:1030140003A40503232291062320210723267105F7
:103024002320A105232EB103938405002326110632
:10303400232E3105232C4105232A5105232861051C
:1030440023248105232291059305100023200101E7
:1030540023221101832B0107832E4107832D81072E
:10306400032DC10713090500630EB40603234501AC
:10307400B76704803767048037660480B7650480C7
:103084001308040093081000938747EC130707EE16
:103094009306B00D130646E39385C5EFE7000300DE
:1030A400130410008320C1061305040003248106C1
:1030B40083244106032901068329C105032A8105C6
:1030C400832A4105032B0105832BC104032C8104AE
:1030D400832C4104032D0104832DC1031301010733
:1030E40067800000032C060393090600631C8C040C
:1030F400138F060083264603138A0700130B070069
:1031040083A7060083AC0700635A940703A704004F
:10311400130797FF1377D7FF630E0714832745011F
:1031240037670480130747F69306D00E376604808A
:10313400B7650480130646E3938505E6E780070038
:103144006FF05FF603234501B76704803767048097
:1031540037660480B76504809308100013080C00D8
:10316400938747EC130787F19306D00D130646E3C4
:103174009385C5EFE70003006FF0DFF203A4C400FA
:10318400832AC70063908C0903A547002326D10135
:103194002324E101EFE08361930C0500130504008F
:1031A40013840500EFE08360130605009386050091
:1031B40013850C0093050400EF904306930C05005F
:1031C40013850A0013840500EFE0435E130605002F
:1031D4009386050013850C0093050400EF8083603B
:1031E4009306C10213068102EFD0CFC9832781025F
:1031F400032F8100832EC10023A0FD008327C10279
:103204002320FD0083A70400130730006382E7181E
:10321400130790006388E70013077000130400008D
:10322400E392E7E80324810683250A008320C1068C
:10323400832441068329C105032A8105832A410584
:10324400032C8104832C4104032D0104832DC10329
:1032540093860B0013060B00832BC104032B01057B
:10326400130509000329010613870E001301010742
:103274006FF0CFD203270600130690006300C70245
:1032840013062001630CC7003767048083274501B8
:10329400130707FA9306F00E6FF05FE983A6860022
:1032A40003A78900939626003307D7008328470095
:1032B40063801C0503234901B767048037670480D2
:1032C40037660480B765048013880C009387070170
:1032D4001307C7FD9306200F130646E39385C5EF36
:1032E40013050900E700030013040C006FF09FDBD3
:1032F40003A5C4002326D1012324E101938A4700B6
:10330400EFE0C34A930705000325CB00232CF1000B
:10331400232EB100EFE08349032F8100832EC100E7
:103324002328A100232AB1001304000003A50A00E6
:103334002326D1012324E101EFE043470326810141
:103344008326C101938D4D0013041400EF80136D87
:103354000326010183264101938A4A00130D4D007F
:10336400EF8043489306C10213068102EFD08FB168
:1033740083268102032F8100832EC10023AEDDFE4C
:103384008326C102232EDDFEE34294FB6FF09FE708
:103394002324E10183AAC40083ACC900630E0F088F
:1033A40013850A002326D101EFE043409309050069
:1033B40013850C0013840500EFE0433F130605005A
:1033C400938605001385090093050400EF801365B7
:1033D400032F810093090500138405000325CF0002
:1033E400EFE0C33C1306050093860500138509002E
:1033F40093050400EF90434B930905000325CB008C
:103404001394150013541400EFE0433A1306050017
:10341400938605001385090093050400EF80833C1F
:10342400B797098003A6078C83A6478CEF80D350F7
:10343400832EC1006348A00893850C0013850A00FD
:103444002324D101EFD0930C93050000130405004D
:10345400EFD04375832E8100634E050813050400E5
:103464002324D101EFE08334930905000325CB0025
:1034740013840500EFE083331306050093860500EB
:103484001385090093050400EF80C335032601006A
:103494009306C102EFD00F9F0327C1020326410008
:1034A40083A704003307E040930690002320E6003E
:1034B400832E8100E388D7D613073000E384E7D650
:1034C4006FF09FD58327490137670480130707E10D
:1034D4009306001437660480B7650480130646E338
:1034E400938505E613050900E780070013040C0023
:1034F4006FF05FBB3767048083274901130787E7B1
:103504009306D0146FF01FFD83A585000325850065
:10351400130101FF23261100EF00C23D8320C100E7
:103524003335A000130101016780000083A68500E4
:10353400130101FF2322910003A7060093840500D1
:103544002326110023248100232021019305100048
:10355400630AB70283274501B76504801306070091
:1035640093850505E78007008320C10003248100BB
:1035740083244100032901001305100013010101F4
:103584006780000003A44600130906001305040025
:10359400EF0082406354800283A744009315240003
:1035A40013074500B385F50083A6070093874700FA
:1035B40013074700232ED7FEE398B7FE8320C100EC
:1035C400032481002320A90083244100032901004E
:1035D400130500001301010167800000130101F8C5
:1035E400232E7105232E1106232C8106232A9106EE
:1035F40023282107232631072324410723225107A7
:1036040023206107232C8105232A91052328A10562
:103614002326B105232205002304050083A7050002
:10362400130785002322B1002326E1002320E500AF
:10363400930B05006356F024832741003769048007
:10364400B7490F00379A9800938C4700130C000079
:1036540093070000130949109389F923130AFA67A1
:10366400639E072683A70C009306900013D7F741A7
:10367400B344F70093D7F701B384E4402324F10063
:1036840063F6964C9307300663FE974C9307703E9F
:1036940063F2974EB72500009387F57063F0974E59
:1036A400B78A010037EBF5051385040013041000F5
:1036B400138D0571938AFA69130BFB0F6F000001D8
:1036C40063FEB93F6370BA416376BB4193050D0055
:1036D400930D0500EFE05314130704001304440092
:1036E400E3E0BAFF032B8100930781011306D002A4
:1036F400B3058B00130501012328F100EF201252BA
:10370400832A010193073006B38A6A0163FA970496
:103714001304E4FF372B000033848A00130BFB707F
:103724009305400613850400EFE09313131D150061
:103734009305400613850400EFE0130EB307A901B7
:1037440083C6170003C7070093870400A300D400AF
:103754002300E400930405001304E4FFE362FBFC8C
:103764009307900063F2973093941400B304990084
:1037740083C7140083C40400A380FA00B7660480DE
:1037840023809A001307100093864608130600004E
:103794009305000013050101EF20D25E9304010399
:1037A4002324910283270500930A8500130405004E
:1037B400638857352324F102832785002328F102E7
:1037C400832744002326F102232054012304040008
:1037D400832781022322040003A50B006382972A16
:1037E4000326C100032701038326C102630CA62E0E
:1037F40003A68B0023A0FB0023A2DB0023A4EB0081
:103804006308052E2324A1022328C10223260102D2
:103814002300050003258102630895008325010325
:1038240093851500EF1002330325010193078101ED
:103834006308F5008325810193851500EF1082311B
:1038440083274100130C1C00938C4C0003A7070032
:1038540083A74B00E346ECE063840702370700408C
:103864001307F7FF6384E732B77509801306100066
:10387400938545BA13850B00EF20D26B6F000002CD
:10388400B766048013072000938606081306000019
:103894009305000013850B00EF20D24E8320C1074F
:1038A4000324810783244107032901078329C106CF
:1038B400032A8106832A4106032B0106032C810572
:1038C400832C4105032D0105832DC10413850B00B1
:1038D400832BC105130101086780000083A70C0036
:1038E4009306900013D7F741B344F70093D7F70139
:1038F400B384E4402324F10063FE96249307300646
:1039040063FE97249307703E63FE9726B725000055
:103914009387F57063FC9724B78A010037EBF505AC
:103924001385040013041000138D0571938AFA693A
:10393400130BFB0F6F00000163FEB9176378BA190C
:10394400637EBB1993050D00930D0500EFE0C36C76
:103954001307040013044400E3E0BAFF032B8100BF
:10396400930781011306D002B3058B0013050101EF
:103974002328F100EF20922A832A010193073006BD
:10398400B38A6A0163FA97041304E4FF372B000037
:1039940033848A00130BFB709305400613850400DF
:1039A400EFE0036C131D1500930540061385040016
:1039B400EFE08366B307A90183C6170003C70700B6
:1039C40093870400A300D4002300E40093040500BB
:1039D4001304E4FFE362FBFC9307900063FC970885
:1039E40093941400B304990083C7140083C404009F
:1039F400A380FA00B756098023809A0013071000A9
:103A04009386862A1306000093050000130501011E
:103A1400EF205237930401032324910283270500E6
:103A2400930A8500130405006386570F2324F102CB
:103A3400832785002328F1028327440013850B0084
:103A44002326F1022304040023205401232204002A
:103A54000326C10283258102EF20D24D0325810272
:103A6400E31E95DA6FF05FDC9384040393F4F40FA0
:103A74006FF0DFD09384040393F4F40F6FF09FF797
:103A84000326C102630E060093071000630EF608B6
:103A940093850400EFA0120D0326C10203A50B00B9
:103AA4003305C50023A2CB002300050003258102B2
:103AB4006FF0DFD5130457006FF05FEA130457006B
:103AC4006FF05FC2130467006FF0DFC11304670077
:103AD4006FF0DFE8130477006FF0DFC013047700A2
:103AE4006FF0DFE723A0FB0023A2DB0023A4EB009D
:103AF4002324910293040103138504006FF01FD162
:103B04001306000193850A0013850400EFA09205B3
:103B14006FF01FCB1306000193850A001385040080
:103B2400EFA052046FF05FF1834701032300F50017
:103B34000326C10203A50B0023A2CB003305C50055
:103B440023000500032581026FF05FCC13041000ED
:103B54006FF05FB9130410006FF05FE013042000EE
:103B64006FF0DFDF130420006FF0DFB713044000B1
:103B74006FF0DFDE130430006FF0DFB61304400093
:103B84006FF05FB6130430006FF05FDD37650480BB
:103B940013058508EFC00FD08327010113078101A6
:103BA40013040500638AE700832581011385070058
:103BB40093851500EF00127A03A50B008327C1003B
:103BC4006388A70083A58B0093851500EF00927886
:103BD40013050400EF000447130405006FF0DFFD34
:103BE4008327810213040500638A97008325010358
:103BF4001385070093851500EF00D2750325010195
:103C040093078101E30AF5FA832581019385150061
:103C1400EF0052746FF05FFA130405006FF01FFE9B
:103C240003A7850083278600130101FA2322510587
:103C340023206105832A070003AB0700232C81049A
:103C4400232821052326310523244105232E71032E
:103C5400232E1104232A9104938B050013040600D8
:103C64009309050013890600130A0B0063C46A0153
:103C7400138A0A0013050A00EFF011529304050099
:103C84006356400713182A00330805019307000000
:103C9400130EFBFF130510001383FAFF63D25709B9
:103CA40083A58B003307F340131727003387E50000
:103CB4000327470063D26703832684003306FE404C
:103CC40013162600B386C60083A846006302170BAA
:103CD4006300A7086392A80A63120706232008005A
:103CE400938717001308C8FFE39A47FB2320990022
:103CF400130500008320C1050324810583244105A5
:103D0400032901058329C104032A8104832A410468
:103D1400032B0104832BC1031301010667800000F8
:103D240063D2670503278400B306FE4093962600FA
:103D34003307D70003274700631EA700930810002A
:103D440063541701138708002320E8006FF05FF91C
:103D540013870800E30407F893080700130710000B
:103D64006FF01FFE13071000930810006FF05FFD43
:103D7400E31807FC6FF09FF61305010003A949013E
:103D8400EFF0DF85832584001305810103240100FE
:103D9400EFF0DF8483268101B765048013060400F5
:103DA4009385050A13850900E700090003258101AD
:103DB400930701026308F50083250102938515002A
:103DC400EF00525903250100930781006308F500B1
:103DD4008325810093851500EF00D2576386040084
:103DE40013850400EFF09147130510006FF09FF066
:103DF400832781011307010213040500638AE70086
:103E0400832501021385070093851500EF00925462
:103E140003250100930781006308F50083258100D1
:103E240093851500EF001253638604001385040084
:103E3400EFF0D14213050400EF00C4201304050081
:103E4400E39604FE6FF01FFF130405006FF05FFCA0
:103E5400130101F8232C8106232A910613840600FA
:103E64009304060083A686000326860083A78500A4
:103E740023206107232E7105032B060083AB060064
:103E8400232631072324410723225107232C8105AC
:103E9400232A9105232E11062328210703AC0700AA
:103EA400938C050093090500130A0700938A0B00FD
:103EB40063447B01930A0B0063D48A01930A0C00C8
:103EC40013850A00EFF0512D130905006354500DBA
:103ED40013972A003307E500130800009306100027
:103EE400930EFCFF1305FBFF9385FBFF9308100063
:103EF400635C880183A78C0033860E411316260069
:103F0400B387C70083A8470013031000635C6801EC
:103F140083A784003306054113162600B387C70020
:103F240003A34700130E1000635C78018327840009
:103F34003386054113162600B387C70003AE470036
:103F44009387080063541301930703006354FE002E
:103F540093070E00638C07009387080063D46800FE
:103F64009307030063D4C70193070E006384D8004A
:103F7400639817036304D300639467026304DE0049
:103F84006390C7032320F700130818001307C7FF23
:103F9400E31E58F523202A01130500006F00800A50
:103FA40083A58C001305810003AA4901EFF00FE3F8
:103FB40083A584001305010283248100EFF00FE23E
:103FC400832584001305810303240102EFF00FE12C
:103FD40003278103B7650480930604001386040055
:103FE4009385050D13850900E7000A000325810365
:103FF400930701046308F5008325010493851500E4
:10400400EF00523503250102930781026308F5008E
:104014008325810293851500EF00D23303258100A7
:10402400930701016308F5008325010193851500B9
:10403400EF0052326306090013050900EFF0112264
:10404400130510008320C10703248107832441073B
:10405400032901078329C106032A8106832A41060D
:10406400032B0106832BC105032C8105832C4105F9
:1040740013010108678000008327810313070104EB
:1040840013040500638AE7008325010413850700F0
:1040940093851500EF00122C03250102930781027A
:1040A4006308F5008325810293851500EF00922AA9
:1040B40003258100930701016308F50083250101AD
:1040C40093851500EF001229630609001305090002
:1040D400EFF0D11813050400EFF0D37613040500B4
:1040E400E31609FE6FF01FFF130405006FF0DFFAFB
:1040F400130405006FF0DFFB1305F5FF93070001C0
:1041040063EEA700B76704809387071D1315250086
:104114003385A70003250500678000001305000010
:104124006780000013050000678000008326C50334
:10413400638E060203A70600938746001307170041
:1041440013172700B386E6006382F6021306F0FF16
:104154006F008000638CF60003A707009387470075
:10416400E31AC7FE13051000678000001305000062
:1041740067800000B70710F023A0A7F06780000055
:1041840083470500638C0700370710F02320F7F0FE
:104194008347150013051500E39A07FE67800000A6
:1041A40083470500638C0700370710F02320F7F0DE
:1041B4008347150013051500E39A07FE6780000086
:1041C40067800000930705000325450003A68700C8
:1041D400938605008325050003274601032606016F
:1041E40003A8450083A5C700670008000325450010
:1041F4008327050083A7870067800700832785003E
:10420400139515003305B50003A7470183A70701DC
:104214001315250013173700B387E70083A747005A
:104224003385A700678000009305C0016F009212D8
:10423400032705019307100063EAE70003254500FF
:104244008327050083A7C70167800700130101FFC7
:1042540023261100EF80527F0327050193073000C6
:10426400631CF7008327450193952500B385B700A8
:1042740003A5050067800000130101FF2326110038
:10428400EF80927C0327050193071000631AF7005F
:10429400032545008327050083A7C700678007001F
:1042A400130101FF23261100EF80127A0327050171
:1042B40093071000631AF7000325450083270500C0
:1042C40083A7070167800700130101FF232611005C
:1042D400EF8092770327050193071000631CF70012
:1042E40083278500930606000325450003A647019E
:1042F4006F20801D130101FF23261100EF80D2746B
:1043040083A785001307050083A60700938747004A
:10431400634606046354D604131626003386C70086
:104324008326060063CC060203260500B7470080F7
:104334009387871C032646016316F602032545006E
:10434400832787008325C7000328050003A74701A7
:1043540003A60701832748006780070013050000B0
:1043640067800000938506006700060083A70500A8
:104374001307050083A607009387470063460604D6
:104384006354D604131626003386C700832606001A
:1043940063CC060203260500B74700809387871C79
:1043A400032646016316F60203254500832787008A
:1043B4008325C7000328050003A7470103A60701B7
:1043C400832748006780070013050000678000000A
:1043D400938506006700060083A7450013070500C0
:1043E40083A6070093874700634606046354D604F4
:1043F400131626003386C7008326060063CC060204
:1044040003260500B74700809387871C03264601CF
:104414006316F60203254500832787008325C7001A
:104424000328050003A7470103A6070183274800C3
:10443400678007001305000067800000938506006D
:1044440067000600B7670480938747272320F50099
:104454002322B5002324D5002326C50023280500E4
:10446400232A0500232C05006780000063CC050087
:1044740063DAC50093952500B386B60003A506004C
:10448400678000001305F0FF67800000232AB50051
:104494006780000083270501130101FF2326110013
:1044A4001307100093F7D7FF6384E700EF80D25916
:1044B40003268501638405006300060237650480D2
:1044C40013054521EF70C1488320C1001305100076
:1044D40013010101678000008320C100232CB50073
:1044E400130500001301010167800000130101FCA2
:1044F4001385050093058102232E11002324C10294
:104504002326D1022328E102232AF102232C0103CA
:10451400232E11032326B100EF70C13F8320C10174
:1045240013010104678000002328B50067800000A0
:1045340003250501678000009387F5FF130101FF40
:104544003305F5002326110023248100138405007C
:10455400EFD0932C93050400EFD053208320C100A7
:10456400032481001301010167800000130101FF8E
:10457400232611002324810013840500EFD0D329BE
:1045840093050400EFD0931D8320C1000324810010
:1045940013010101678000001305F5FF130101FFFA
:1045A4003305B5002326110023248100138405005C
:1045B400EFD0932693050400EFD0531A8320C10053
:1045C4000324810013010101678000009307200187
:1045D40063EEA704B76704809387872A1315250021
:1045E4003305F500832705006780070093078000E3
:1045F40023A0F50013050000678000009307100056
:1046040023A0F50013050000678000009307400015
:1046140023A0F50013050000678000009307200025
:1046240023A0F500130500006780000013051000A7
:10463400678000009307000123A0F5001305000024
:1046440067800000130101FC23225103832A050023
:10465400232E710123263103B30A554183DB0A005B
:1046640023244103232E1102232C8102232A9102A5
:10467400232821032320610393074000138A0500A4
:104684009309060063FE770903D44A001309050061
:1046940093041000630C0402330485008327040090
:1046A4003304F400032B040063020B02131B2B00DE
:1046B400330B640183254400138504001304440070
:1046C400EFD0D30993040500E3168BFE9307600033
:1046D40063FE770983D76A00130500006392070815
:1046E4009305C100EF70510C130405006306050423
:1046F4008320C1031305040003248103832441039D
:10470400032901038329C102032A8102832A410266
:10471400032B0102832BC1011301010467800000F4
:10472400130500009305C100EF70110893041000F5
:1047340013040500E31E05FA0325C100938509004F
:10474400EFF0DFE813040500E31405FA03A50900FC
:1047540093850400EFD093002320AA006FF05FF943
:104764003309F900030509006FF09FF713050000F2
:104774006FF01FF7130101FE232E1100232C81007B
:10478400232A9100232821012326310123244101D6
:10479400638C050A0324450093090500138A050068
:1047A400130510006304040203290400635020036A
:1047B400130444009304000083250400938414002C
:1047C40013044400EFD08379E39824FF83A789007E
:1047D400130720016362F706376704809397270065
:1047E4001307472FB387E70083A7070067800700F5
:1047F40093058000EFD083762320AA0013050000E0
:104804008320C1010324810183244101032901017F
:104814008329C100032A810013010102678000007B
:10482400930540006FF01FFD930510006FF09FFC8F
:10483400930520006FF01FFC130510006FF05FFC60
:10484400930500016FF01FFBEF80122083A7850002
:10485400130101FC23282103232E1102232C81029E
:10486400232A9102232631032324410323225103C3
:104874002320610313090500638E070A03278600BA
:104884006304070C9389060083A6860083A40600AC
:10489400639C040683A6070083270700138405008E
:1048A40063C4D700130406008327040003A509008A
:1048B4006306F50A83274901376704803766048055
:1048C400B7650480130509001307473B93064009A5
:1048D40013068635938505E6E78007001305100067
:1048E4008320C10303248103832441030329010397
:1048F4008329C102032A8102832A4102032B010274
:104904001301010467800000832745013767048091
:104914001307C7399306100937660480B765048006
:1049240013068635938505E6E78007001305100016
:104934006FF01FFB37670480832745011307073493
:104944009306F0086FF05FFD376704808327450105
:1049540013074738930600096FF01FFC9305010005
:1049640023200100EFF09FC69305040013054100C6
:10497400EFB0DFC5032B410063526009032A8400B2
:1049840083270100930A0000130A4A0083250A00C2
:1049940013850700938A1A00EFD0435C9307050040
:1049A400130A4A00E3145BFF032A890323ACA9001A
:1049B4002320A100EFE051739305050013050900BE
:1049C400E7000A0023A4A9008327840013074500F5
:1049D40083A60700938747002320D50083A60700FA
:1049E40093841400938747002320D70013074700BC
:1049F400E3169BFE130500006FF09FEE03250100F4
:104A04008324890323ACA900EFE0116E930505000C
:104A140013050900E780040023A4A90003278400E8
:104A240093070500130500000327070023A0E700F0
:104A34006FF01FEB032545008327050083A787003C
:104A440067800700678000006780000003258500F9
:104A5400130600018327050083A7870067800700EA
:104A6400032545008327050083A787006780070087
:104A7400032545008327050083A7C7006780070037
:104A8400032545008327050083A7470167800700A6
:104A9400032545008327050083A7070167800700D6
:104AA40003258500130640009305000483270500B1
:104AB40083A787006780070067800000130101FF58
:104AC4002326110023248100232291002320210185
:104AD4006382050803A705039307100013840500E8
:104AE40093040500630EF70203A544009305040034
:104AF400232A040283270500232204002328040216
:104B040023240400032481008320C1008324410062
:104B14000329010083A7C70013010101678007006F
:104B240003A94503630809020325450083254900B9
:104B34008327050083A7C700E780070003A5440077
:104B4400930509008327050083A7C700E7800700B2
:104B54006FF09FF9EF80426F930540026FF0917FF1
:104B6400930580006FF0117F130101FF232481005E
:104B7400232611001384050063800504832785011F
:104B8400638207020325850093050600939525009B
:104B9400832705001306400083A78700E7800700EA
:104BA4002320A4008320C1000324810013050000F6
:104BB4001301010167800000EF80026983A80500EA
:104BC400130101FC232C8102B388154103D808008A
:104BD400232A91022328210323263103232441037A
:104BE4002322510323206103232E7101232E11025A
:104BF400130A4000138B050093040500938B0600F1
:104C04009309060013040000930AE0001309F0FF5F
:104C1400637A0A0783D7480063860706B307FB0055
:104C240003A70700B387E70003A707006370E40A3C
:104C34001315240093874700B387A70003A7070031
:104C4400B387E70003A707003387E740035607004D
:104C540063F4CA020357E70063000702B387E7005F
:104C640083C70700638A070063820B023385AB00A6
:104C740083270500638C2701130414009389C9005A
:104C8400E36A0AF983270000730010009305C1004A
:104C940013850900EFF01FAE631C050203A5840011
:104CA4008325C100130600018327050083A787001D
:104CB400E780070023A0A9006302050483280B00F2
:104CC400B3081B4103D808006FF01FFB1305000055
:104CD4008320C103032481038324410303290103A3
:104CE4008329C102032A8102832A4102032B010280
:104CF400832BC10113010104678000008325C100D7
:104D0400376504801305053DEF60914413051000D9
:104D14006FF01FFC130101FE232E1100232C8100D0
:104D2400232A910023282101232631012324410130
:104D3400630C060E9309060013040500138A05008C
:104D440013090000930480006F00400783D7870095
:104D5400638E0706B307FA0003A50700B387A7000D
:104D640003A707006370E90A131529009387470016
:104D7400B387A70003A507003385A700EF70810D53
:104D8400930705000325840093951700B385F50068
:104D94000327050093952500B385F5400327870075
:104DA4001306400093952500E700070063040502FD
:104DB40023A0A900130919009389890083270A00F5
:104DC400B307FA4003D70700E3E2E4F883270000BF
:104DD400730010003765048013050540EF605137F8
:104DE4008320C1010324810183244101032901019A
:104DF4008329C100032A8100130510001301010255
:104E0400678000008320C1010324810183244101C0
:104E1400032901018329C100032A8100130500002D
:104E24001301010267800000EF80024283A705009E
:104E3400130101FE23282101B387F54003D807009D
:104E440013890500232E1100232C8100232A9100AD
:104E5400232631012324410123225101930580009B
:104E640063F0051383D78700638C0710B307F90039
:104E74001304070003A70700B387E70083A707000D
:104E84006370F40E03270500B7570080938747AA81
:104E94000327470393040500930A0600138A0600B8
:104EA4006310F70A03A58400130640009305000469
:104EB4008327050083A78700E7800700930905007F
:104EC40083A60400930700001307040003A88603C5
:104ED4001386090093060A0093050900138504004C
:104EE400E70008006314050663880A0213143400FB
:104EF400B38A8A0083A74A0093161A00B386460130
:104F040093962600B386D70003A7460083A706001E
:104F140023A4E90023A2F9008320C1010324810111
:104F24008324410103290101032A8100832A4100CA
:104F3400138509008329C100130101026780000061
:104F4400E7000700930905006FF09FF737650480B9
:104F54001305C557EF60D11F930900006FF0DFFB05
:104F6400B766048037660480376504809386864379
:104F7400130646449305A00A13050554EF80422EF8
:104F84008327000073001000130101FA83274500F2
:104F940023244105138A0500832585012322510515
:104FA400930A05001305C100232C8104232821053D
:104FB40023263105232E1104232A9104232061057D
:104FC400232E7103232C8103232A91031309060042
:104FD40093890600232641012328F1002326010298
:104FE400EF30503913040500630E05028320C10518
:104FF40013050400032481058324410503290105C5
:105004008329C104032A8104832A4104032B010454
:10501400832BC103032C8103832C41031301010659
:1050240067800000930541001305C100232201009D
:10503400EF40502113040500E31A05FA130B49004D
:10504400930480006F00800583D787006380070680
:10505400B307FA0083A50700B387B70003A70700C7
:10506400637AE40403A70A00931524009387470096
:10507400B387B70083A5070003260B0003270703A4
:1050840083264100B385B70013850A00E7000700B3
:10509400130B8B00631205121304140083270A00F8
:1050A400B307FA4003D70700E3E0E4FA83270000DC
:1050B4007300100083254100130609001305C10085
:1050C400EF30D06113040500E31205F203A5CA0111
:1050D40093054000EFF04FC61306050013070900BF
:1050E40093860900930500001305C100EF404012A8
:1050F40013040500E31C05EE03A54A009305000113
:105104008329810183270500032B410183A707031A
:10511400E78007009304050003A54A001306000175
:10512400938504008327050083A78700E780070091
:10513400130A05006306050883AC0A01B7670080FB
:105144009387877303A70C000327C701631EF70621
:10515400638C091A376C008013090B0093040B004D
:10516400930BF0FF130C0C736F0000011304140075
:10517400938484016388890883C74401E38807FE14
:1051840003A5040093050001EFF00FC103A7040178
:1051940083A70C006306770583A7C7006382870390
:1051A40083A6C40003A684009305050013850C00A0
:1051B400E7800700E30C05FA130405006FF01FE312
:1051C400130410006FF09FE213850C001386040093
:1051D40093050A00E700070083AC0A016FF05FF74C
:1051E40083A6C40003A6840083A787009305050053
:1051F40013850C00E7800700E30A05F61304050095
:105204006FF0DFDE03A54A0003AC0A01930400003B
:1052140083270500930BF0FF83A74702E78007006D
:1052240093971900B38737019397370093090500C3
:10523400330BFB0083474901638E070283270C006D
:10524400130681002324710183A787019385040039
:1052540013050C00E780070013040500E31805D8C4
:10526400832781000327490093841400B387F9003E
:105274002320F70013098901E31E2BFB1305C1004A
:10528400EF30D02803A54A0093050A0083270500C0
:1052940083A7C700E780070003A54A00832705000A
:1052A40083A74701E780070013040500E31005D432
:1052B40003A54A0083A5CA018327050083A7070223
:1052C400E780070013040500E31205D203A50A01D1
:1052D4008327050083A70701E780070083A50A0247
:1052E40063F6A50023A0AA029305050003A54A00BE
:1052F400130600018327050083A78702E7800700C0
:10530400130405006FF09FCE03A54A008327050010
:1053140083A74702E78007006FF05FF683A70500C5
:10532400130101FE23282101B387F54003D80700A8
:1053340013890500232E1100232C8100232A9100B8
:1053440023263101232441012322510193058000A6
:1053540063F0051183D78700638C070EB307F90048
:105364001304070003A70700B387E70083A7070018
:105374006370F40C930905000325450093050004AC
:10538400930A06008327050013064000138A0600CB
:1053940083A78700E780070003A70900930405009B
:1053A400130605000328870393071000130704005E
:1053B40093060A009305090013850900E700080015
:1053C400631E050463880A021314340033848A00BC
:1053D4008327440093161A00B38646019396260049
:1053E400B386D70003A7460083A7060023A4E400DE
:1053F40023A2F4008320C1010324810103290101B4
:105404008329C100032A8100832A410013850400F3
:105414008324410113010102678000003765048081
:105424001305855CEF60C152930400006FF09FFC8C
:10543400B7660480376604803765048093868643A4
:10544400130646449305A00A13050554EF705261F0
:1054540083270000730010000327050093068000D3
:10546400930700003307E5400356070063F6C600C0
:10547400035787006312070603A7050063F6E706D0
:105484009385450093972700B387F50003A707008A
:1054940093064000B387E70003A707003387E7407C
:1054A4000356070063F6C6020357470013050000BE
:1054B40063000706B387E70003A70700B387E70085
:1054C40003A70700630607041385470067800000ED
:1054D40013050000678000003305E50083270500FD
:1054E40003A70500E3EEE7F8B76604803766048097
:1054F40037650480130101FF938686431306C66053
:105504009305A00A1305055423261100EF70525584
:1055140067800000130101FB232611042324810466
:105524002322910423202105232E3103232C41031C
:10553400232A51032328610323267103232481038F
:10554400232291032320A103232EB1012326A100AA
:10555400630C0628138D0500930746002324F100ED
:1055640083270D00379B098093068000B307FD4015
:1055740003D70700930B0000130AC000130B4BA0C2
:1055840063F0E62283D68700638C0620B306DD0031
:1055940083A70600B386F60083A7060063F2FB2206
:1055A40093972B0093864600B386F60083A70600E4
:1055B40013074000B38AF60083A70A00B387FA40B2
:1055C40003D60700637EC71C83D74700638A071C82
:1055D4008326C100B387FA0003A7070003A586004A
:1055E40013064000B387E70003A9070083270500DB
:1055F4001314190083A7870033042401131424000F
:1056040093050400E78007002322A100630E051818
:10561400930D0500930C000093044000930960006F
:10562400631809046F00001593050C0013050400AA
:10563400EFF09FE20327040023A0AD003307E4400A
:105644000356070063F0C41203554700630C0510AA
:105654003304A40003250400938C1C00938DCD0017
:105664003305A400EF60D10D23ACADFE63049911A2
:1056740003A70A003387EA400356070063F2C41203
:1056840003544700630E041033848A000327040084
:105694003304E4000327040063F8EC1203270D002D
:1056A40013952C00130444003304A4003307ED4085
:1056B4000325040083550700130C00003304A400E1
:1056C400637CBA000357C700630807003307ED0083
:1056D40003260700330CC7000327040023A00D0092
:1056E40023A20D003307E4408355070023A40D00D3
:1056F4001305000063FAB900035767006306070047
:105704003307E4000305070093858D00EF60D1099A
:10571400E30C05F0377504801305458493850C006C
:10572400EF600123130510008320C10403248104C6
:1057340083244104032901048329C103032A810327
:10574400832A4103032B0103832BC102032C81020F
:10575400832C4102032D0102832DC1011301010594
:105764006780000023A26D01938C1C00938DCD00F3
:10577400E31099F1832781000327410093068000F9
:105784009387870023ACE7FE2324F10083270D00D1
:10579400938B1B00B307FD4003D70700E3E4E6DE69
:1057A40083270000730010003765048013054570DB
:1057B40093050400EF60C119130510006FF0DFF6C4
:1057C400130500006FF05FF6B76604803766048047
:1057D40037650480938686431306C6749305A00A2E
:1057E40013050554EF70D227EF701226130101FD43
:1057F4002326110223248102232291022320210340
:10580400232E3101232C4101232A51012328610134
:105814006386073893040500138905001385070080
:105824009309060093050000130600041384060080
:10583400138A0700930A0700EF8092568326040018
:105844009307600013050000B306D44003D7060095
:1058540063FAE70083D7660063860700B307F400A2
:105864000385070093050A00EF600174130B05001C
:105874006316050A832604001307E000930700005B
:10588400B306D44003D60600637CC70003D7E60002
:10589400630807003307E40083470700B337F000C9
:1058A40093850A00A306FA0213050400EFF0DFBA99
:1058B40013371500130717002322AA00232AEA002E
:1058C4001306C10093058A0113050400EFE09FD776
:1058D400130B05006314050403270400930640001A
:1058E4003307E4408357070063F0F6060355470087
:1058F400630C05043305A400832705003305F50074
:10590400EF600164032704009306C0002324AA0067
:105914003307E4408357070063E2F6048320C1029F
:105924000324810283244102032901028329C10142
:10593400032A8101832A410113050B00032B010172
:105944001301010367800000B7960980938646A07F
:105954002324DA009306C000E3F2F6FC8356C70062
:10596400E38E06FA3304D400832704001306800070
:105974003304F40083270400B307F44083D60700FC
:10598400E37ED6F803D78700E30A07F83307E40079
:10599400832507003307B7008325070063820518B2
:1059A4009305A000E3FCD5F683D7A700E38807F6A8
:1059B400B307F40083A60700B387D70083A60700C4
:1059C4006380061683A74700032747002328FA00AD
:1059D400832704002326EA00B307F44003D7070013
:1059E4006374E61483D7870063800714B307F40055
:1059F40003A70700B387E70083AA07006384091499
:105A040083270900130640009305C00083A787007D
:105A140013050900E78007009309050063060516CE
:105A24008327090013850A0083A48700EFD0D16B74
:105A3400930505001306400013050900E7800400E0
:105A440023A2A900630E0514832704001307800012
:105A540013050000B307F44083D60700637CD70026
:105A640083D7870063880700B307F40003A5070002
:105A74003385A700EF60014D03A7490023A0A900C7
:105A84000323040023205701635650133303644057
:105A9400035E03009307A00063F8C7098358A300BB
:105AA400130747009307000033051401638E0806AB
:105AB40003260500835583003306C500032806002A
:105AC400B306B4006382050683A50600B386B60058
